:100000000C94BD110C94EE110C94EE110C94EE11A5
:100010000C94EE110C94EE110C94EE110C94EE1164
:100020000C94EE110C94EE110C94EE110C94EE1154
:100030000C94EE110C94EE110C94EE110C94EE1144
:100040000C94EE110C9492650C94EE110C94EE113C
:100050000C94EE110C94F7660C9435660C94B5A9CB
:100060000C94EE110C944F670C9479670C94EE117C
:100070000C94EE110C94EE110C94EE110C94EE1104
:100080000C94EE110C94EE110C94EE110C94EE11F4
:100090000C94EE110C94EE110C94EE110C9487A8B4
:1000A0000C94EE110C94EE110C94EE110C94EE11D4
:1000B0000C94EE110C94EE110C94EE110C94EE11C4
:1000C0000C94EE110C94EE110C94EE110C94EE11B4
:1000D0000C94EE110C94EE110C94EE110C94EE11A4
:1000E0000C94EE11E25FFA5FFA5FFA5FFA5FFA5F73
:1000F000FA5FFA5FFA5FFA5FFA5FFA5FFA5FFA5F38
:10010000FA5FFA5FFA5FFA5FFA5FFA5FFA5FFA5F27
:10011000FA5FFA5FFA5FFA5FD15F835F8D5F075F17
:10012000FA5FB35FBD5FFA5FFA5F185FF55EFA5F73
:10013000A95FFA5FC75F9F5F975FFA5FFA5FFA5F39
:10014000655F6F5F795FFA5FFA5FFA5FFA5FFA5F88
:10015000FA5FFA5FFA5FFA5FD15F835F8D5F075FD7
:10016000FA5FB35FBD5FFA5FFA5F185FF55EFA5F33
:10017000A95FFA5FC75F9F5F975FFA5FFA5FFA5FF9
:10018000655F6F5F795FE2AAE7AAECAAF6AA00AB07
:1001900079AB0AAB12AB1AAB24AB2EAB38AB47AB87
:1001A00051AB79AB5BAB65AB6FAB9AAB9DAB8CAB3B
:1001B00090AB96ABD4ABA1ABA5ABABABAFABB3AB9A
:1001C000B9ABBDABC1ABD4ABC7ABCBABCFAB0763AC
:1001D0004236B79BD8A71A39685618AEBAAB558CB9
:1001E0001D3CB7CC5763BD6DEDFD753EF617723102
:1001F000BF000000803F05A84CCDB2D44EB93836C0
:10020000A9020C50B9918688083CA6AAAA2ABE0069
:100210000000803F436F6C64206578747275736969
:100220006F6E20646973616C6C6F77656400436FF7
:100230006C6420657874727573696F6E20616C6C84
:100240006F776564004175746F7265747261637471
:100250003A0053657474696E67206D6F746F722015
:1002600063757272656E742E2E2E00536574204D68
:100270006963726F7374657070696E670054726938
:1002800067676572696E67207761746368646F671A
:100290002E204966206163746976617465642C2040
:1002A000746865207072696E7465722077696C6C11
:1002B0002072657365742E0053657474696E6720CF
:1002C0005468726573686F6C6420546F3A00494ECD
:1002D000542050494E3A20004D32353120002074D0
:1002E0006F200053657420766F6C756D657472694C
:1002F0006320657874727573696F6E20666F722003
:100300006578747275646572200044697361626C0B
:10031000656420766F6C756D6574726963206578AD
:1003200074727573696F6E20666F7220657874726F
:100330007564657220004D313134200050696E20A3
:1003400063616E206E6F7420626520736574206235
:1003500079204D34322C206D617920696E20696ED0
:1003600076616C6964206F7220696E207573652EEA
:100370002000496C6C6567616C20532076616C7558
:100380006520666F72204D3432005A2028432920A0
:10039000746F77657220666C6F6F7220736574205E
:1003A000746F3A2000592028422920746F776572B3
:1003B00020666C6F6F722073657420746F3A200032
:1003C000582028412920746F77657220666C6F6F02
:1003D000722073657420746F3A2000526F6420524B
:1003E00061646975732073657420746F3A200047E7
:1003F0003133342000506F7346726F6D53746570E3
:10040000733A00436F6D7044656C74613A004361E8
:100410006C6962726174696F6E206D6F76656D656F
:100420006E74206973206C696D6974656420746FE3
:100430002031306D6D2E004669727374206D6F76B9
:100440006520746F20746F75636820617420782C48
:10045000793D302C3020746F206175746F2D736579
:1004600074207261646975732E0043616C696272F5
:100470006174696F6E206D6F76656D656E7420694D
:1004800073206C696D6974656420746F2031306D00
:100490006D2E0043616E6E6F7420736574207261FF
:1004A0006469757320616E6420666C6F6F72206181
:1004B000742073616D652074696D652E0043616CF5
:1004C0006962726174696F6E20636F64652069731D
:1004D000206C696D6974656420746F20626F747438
:1004E0006F6D20313025206F66205A20686569675E
:1004F00068740052656C617469766520706F736909
:1005000074696F6E696E67004162736F6C757465B4
:1005100020706F736974696F6E696E670047363952
:1005200020005A3A2000593A2000583A20004F46FD
:100530004653455453204F464620425920544F4F6E
:10054000204D554348205F20545259494E47204181
:100550004741494E3A200053657474696E672050D4
:10056000726F62652053656E736974697669747918
:1005700020546F3A005A2070726F6265206661697C
:100580006C6564206F6E2073656E7369746976693B
:1005900074793A200053657474696E672050726FE5
:1005A00062652053656E7369746976697479205445
:1005B0006F3A005A2070726F6265206661696C65DF
:1005C00064206F6E2073656E7369746976697479DF
:1005D0003A200053657474696E672050726F6265CB
:1005E0002053656E736974697669747920546F3A23
:1005F000005A2070726F6265206661696C656420C4
:100600006F6E2073656E73697469766974793A20C8
:100610000068656865004E6577205261646975738E
:100620003A20004F6C64205261646975733A20006F
:1006300043616C63756C61746564205261646975B3
:100640007320697320626164203A00536574746991
:100650006E672050726F62652053656E73697469AE
:100660007669747920546F3A005A2070726F62650F
:10067000206661696C6564206F6E2073656E7369B6
:100680007469766974793A200053657474696E6789
:100690002050726F62652053656E73697469766964
:1006A000747920546F3A005A2070726F6265206628
:1006B00061696C6564206F6E2073656E736974691F
:1006C000766974793A2000473332200050524F4205
:1006D000452D5A4F46465345543A00473330005350
:1006E000657474696E672050726F62652053656E21
:1006F000736974697669747920546F3A0050726F27
:1007000062657320646F206E6F74206D617463681E
:100710002E204F66662062792000202D2050524FF7
:100720004245204F46465345543A00506F696E7417
:10073000200047333020004D3131372043414C49B0
:1007400042524154494F4E20434F4D504C45544521
:100750000068656865004E657720486F72697A6F3A
:100760006E74616C205261646975733A20004F6C3D
:100770006420486F72697A6F6E74616C2052616494
:100780006975733A200043616C63756C61746564CC
:1007900020526164697573206973206261643A2034
:1007A000004D3131372043414C4942524154494F69
:1007B0004E204641494C45440043616C6962726178
:1007C00074696F6E204661696C656400536574746A
:1007D000696E672050726F62652053656E7369742D
:1007E000697669747920546F3A005A2070726F628A
:1007F00065202843656E74657220506F696E742998
:10080000206661696C6564206F6E2073656E736924
:100810007469766974793A20004E6577205A2048C9
:1008200065696768743A004F6C64205A20486569AE
:100830006768743A004D3131372043414C49425288
:100840004154494F4E204641494C45440043616C58
:100850006962726174696F6E204661696C656400DB
:1008600053657474696E672050726F6265205365BA
:100870006E736974697669747920546F3A005A20EE
:1008800070726F6265202843656E74657220506FC8
:10089000696E7429206661696C6564206F6E2073CF
:1008A000656E73697469766974793A2000473639E0
:1008B00020005A3A2000593A2000583A20004F466A
:1008C0004653455453204F464620425920544F4FDB
:1008D000204D5543482E2041626F7274696E670047
:1008E0004D3131372043414C4942524154494F4EDA
:1008F000204641494C45440043616C696272617411
:10090000696F6E204661696C656400536574746933
:100910006E672050726F62652053656E73697469EB
:100920007669747920546F3A005A2070726F62654C
:1009300020285A20546F77657229206661696C659A
:1009400064206F6E2073656E73697469766974795B
:100950003A20004D3131372043414C4942524154F5
:10096000494F4E204641494C45440043616C696201
:10097000726174696F6E204661696C6564005365CD
:100980007474696E672050726F62652053656E7370
:100990006974697669747920546F3A005A207072CC
:1009A0006F626520285920546F776572292066612F
:1009B000696C6564206F6E2073656E736974697607
:1009C0006974793A20004D3131372043414C494216
:1009D000524154494F4E204641494C4544004361E1
:1009E0006C6962726174696F6E204661696C6564DE
:1009F0000053657474696E672050726F626520538E
:100A0000656E736974697669747920546F3A005A17
:100A10002070726F626520285820546F77657229A4
:100A2000206661696C6564206F6E2073656E736902
:100A30007469766974793A20004734205331300064
:100A40004D3130342053300A4D3134302053300A88
:100A50004D313037006578656375746547436F6461
:100A600065202F20717565756544656C74614D6FE7
:100A700076652072657475726E73206572726F721E
:100A80000069697332646820616363656C65726FC5
:100A90006D6574657220696E697469616C697A69E3
:100AA0006E672E2E2E00616363656C65726F6D65D7
:100AB0007465722069326320726563762065727294
:100AC0006F722E002076616C75653A200072656148
:100AD00064207265672000616363656C65726F6D89
:100AE0006574657220777269746520693263206568
:100AF00072726F722E00616363656C65726F6D65F3
:100B00007465722073656E64206932632065727249
:100B10006F722E0000000100250030001D000C0047
:100B20001E00240031001C000B00180023002F00C1
:100B30001B000A0017000D004700030004002200FC
:100B40002B001A00410042000000020035004578E9
:100B500074722E00436F6E6669673A004F6E6520AF
:100B6000686561746572207365656D732064656383
:100B70006F75706C65642066726F6D207468657245
:100B80006D6973746F72202D2064697361626C6982
:100B90006E6720616C6C20666F722073616665748D
:100BA000792100616476616E6365204C205B303D85
:100BB0006F66665D00657874727564657220636F38
:100BC0006F6C6572207370656564205B302D323503
:100BD000355D0064697374616E636520746F2072A3
:100BE000657472616374207768656E2068656174EE
:100BF000696E67205B6D6D5D0074656D702E20669B
:100C00006F722072657472616374696F6E207768A9
:100C1000656E2068656174696E67205B435D007472
:100C2000656D702E2073746162696C697A652074D9
:100C3000696D65205B735D00592D6F666673657421
:100C4000205B73746570735D00582D6F6666736505
:100C500074205B73746570735D00504944206D614E
:100C6000782076616C7565205B302D3235355D00FE
:100C700050494420442D6761696E00504944204921
:100C80002D6761696E0050494420502D6761696E7F
:100C90002F646561642D74696D650050494420645A
:100CA00072697665206D696E0050494420647269EE
:100CB0007665206D61780068656174206D616E6194
:100CC000676572205B302D335D00616363656C6521
:100CD000726174696F6E205B6D6D2F735E325D00A3
:100CE0007374617274206665656472617465205BFB
:100CF0006D6D2F735D006D61782E20666565647281
:100D0000617465205B6D6D2F735D00737465707326
:100D100020706572206D6D00436F72722E206469C1
:100D200061676F6E616C2043205B6D6D5D00436F8A
:100D300072722E20646961676F6E616C2042205B65
:100D40006D6D5D00436F72722E20646961676F6E16
:100D5000616C2041205B6D6D5D004D61782070728B
:100D6000696E7461626C6520726164697573205B81
:100D70006D6D5D00546F776572205A20656E6473E7
:100D8000746F70206F6666736574205B7374657032
:100D9000735D00546F776572205920656E647374BB
:100DA0006F70206F6666736574205B737465707313
:100DB0005D00546F776572205820656E6473746FA0
:100DC00070206F6666736574205B73746570735D05
:100DD000005365676D656E74732F7320666F7220A4
:100DE00074726176656C005365676D656E74732F00
:100DF0007320666F72207072696E74696E67004846
:100E00006F72697A6F6E74616C20726F64207261A8
:100E10006469757320617420302C30205B6D6D5DCA
:100E200000446961676F6E616C20726F64206C654D
:100E30006E677468205B6D6D5D00486F6D696E67ED
:100E4000206665656472617465205B6D6D2F735DEE
:100E5000004D61782E206665656472617465205B63
:100E60006D6D2F735D005374657073207065722013
:100E70006D6D0054726176656C20616363656C65AD
:100E8000726174696F6E205B6D6D2F735E325D00F1
:100E9000416363656C65726174696F6E205B6D6D33
:100EA0002F735E325D004D61782E206A65726B2073
:100EB0005B6D6D2F735D005A206D6178206C656EDF
:100EC000677468205B6D6D5D0059206D6178206CE2
:100ED000656E677468205B6D6D5D0058206D61788C
:100EE000206C656E677468205B6D6D5D005A2068CC
:100EF0006F6D6520706F73205B6D6D5D00592068AC
:100F00006F6D6520706F73205B6D6D5D005820689C
:100F10006F6D6520706F73205B6D6D5D0053746F36
:100F200070207374657070657220616674657220DC
:100F3000696E6163746976697479205B6D732C30B6
:100F40003D6F66665D004D61782E20696E61637449
:100F50006976652074696D65205B6D732C303D6F1B
:100F600066665D005072696E7465722061637469B3
:100F70007665205B735D0046696C616D656E7420FB
:100F80007072696E746564205B6D5D0041647661AA
:100F90006E636564205573657200426175647261A9
:100FA0007465004550523A3320004550523A322081
:100FB000004550523A3120004550523A30200050FE
:100FC000726F746F636F6C2076657273696F6E20D9
:100FD0006368616E6765642C20757067726164690F
:100FE0006E6700436F6E66696775726174696F6ED4
:100FF00020726573657420746F2064656661756C1A
:1010000074732E00436F6E66696775726174696FE1
:101010006E206C6F616465642066726F6D2045455B
:1010200050524F4D2E00436F6E6669677572617442
:10103000696F6E2073746F72656420746F2045450C
:1010400050524F4D2E004175746F6C6576656C2063
:101050006163746976652028312F3029005A2D701C
:10106000726F6265205933005A2D70726F6265206D
:101070005833005A2D70726F6265205932005A2D14
:1010800070726F6265205832005A2D70726F6265FF
:10109000205931005A2D70726F6265205831005A04
:1010A0002D70726F626520782D792D73706565647F
:1010B000205B6D6D2F735D005A2D70726F6265201D
:1010C0007370656564205B6D6D2F735D005A2D70C4
:1010D000726F6265206F66667365742079205B6D40
:1010E0006D5D005A2D70726F6265206F6666736564
:1010F000742078205B6D6D5D004D61782E207A2D17
:1011000070726F6265202D2062656420646973745B
:101110002E205B6D6D5D005A2D70726F62652068C8
:101120006569676874205B6D6D5D00776169740047
:101130005072696E746572206865696768743A00F8
:101140005A2D70726F6265206661696C6564005427
:1011500072616E73666F726D6174696F6E206D611E
:10116000747269783A004175746F6C6576656C6964
:101170006E672064697361626C6564004175746FA9
:101180006C6576656C696E6720656E61626C65641E
:10119000004175746F6C6576656C206D6174726961
:1011A0007820726573657400004732382F6E4731BE
:1011B0005A32352F6E005A2D70726F62652073742B
:1011C0006174653A005265736574205A20686569D8
:1011D000676874005A2D70726F626520617665725F
:1011E000616765206865696768743A0020537465B3
:1011F0007020566172696174696F6E2066726F6DDE
:101200002050726F626520746F20626564204469AB
:101210007374616E63653A005A2D70726F62653A3D
:10122000005072696E7465722073657420696E7403
:101230006F206472792072756E206D6F6465207501
:101240006E74696C207265737461727421003A2047
:10125000776F726B696E67003A2074656D702073EA
:10126000656E736F7220646566656374006578747B
:10127000727564657220004D54454D503A005049D6
:1012800044204175746F74756E652066696E69736C
:10129000686564202120506C616365207468652056
:1012A0004B702C204B6920616E64204B6420636F6F
:1012B0006E7374616E747320696E20746865204368
:1012C0006F6E66696775726174696F6E2E68206FE4
:1012D0007220454550524F4D00504944204175748D
:1012E0006F74756E65206661696C65642120746930
:1012F0006D656F757400504944204175746F747545
:101300006E65206661696C6564212054656D706549
:1013100072617475726520746F2068696768002057
:101320004B643A2000204B693A2000204B703A2051
:101330000020436C6173736963205049440020545A
:10134000753A2000204B753A2000206D61783A20D4
:1013500000206D696E3A200020643A200020626906
:1013600061733A2000504944204175746F74756E62
:101370006520737461727400546172676574457896
:101380007472004E6F206D6F766520696E20646503
:101390006C7461207365676D656E7420776974681D
:1013A000203E2031207365676D656E742E20546871
:1013B00069732073686F756C64206E657665722042
:1013C00068617070656E20616E64206D6179206364
:1013D0006175736520612070726F626C656D2100AC
:1013E00044656C74612052616469757320432830D0
:1013F000293A0044656C74612052616469757320F8
:10140000422830293A0044656C7461205261646955
:10141000757320412830293A00416C70686120437F
:10142000283930293A00416C7068612042283333F2
:1014300030293A00416C70686120412832313029EE
:101440003A00546F77657220333A00546F776572B3
:1014500020323A00546F77657220313A00496E7637
:10146000616C69642064656C746120636F6F726481
:10147000696E617465202D206D6F76652069676ED9
:101480006F726564006C696E656172204C3A00454C
:101490004550524F4D2075706461746564002C2076
:1014A00073706565643D00206C696E6561722073C0
:1014B000746570733A004A65726B3A007A5F6D61C9
:1014C000783A00795F6D61783A00785F6D61783ABB
:1014D000004C2000482000206973200020746F20F9
:1014E00000536574206F75747075743A20004D5305
:1014F000312C4D53322050696E730045313A00450E
:10150000303A005A3A00593A0020002C00206D6908
:101510006E0020686F7572732000206461797320FB
:10152000006D20005072696E74696E672074696D79
:10153000653A005072696E7465642066696C616D0D
:10154000656E743A0046616E73706565643A004674
:101550006C6F774D756C7469706C793A0053706577
:1015600065644D756C7469706C793A00202F003A8F
:101570000020403A00543A0020453A00205A3A00F0
:1015800020593A0020583A00583A004672656520C2
:1015900052414D3A00556E6B6E6F776E20636F6DE2
:1015A0006D616E643A00536F6674776172652052A4
:1015B00065736574005761746368646F6720526572
:1015C0007365740042726F776E206F757420526578
:1015D0007365740045787465726E616C2052657332
:1015E000657400506F776572557000737461727422
:1015F00000424C4B2000736B6970200020676F74B1
:1016000020004572726F723A657870656374656424
:10161000206C696E652000205200204A002049009D
:10162000205000205300204600204500205A002072
:101630005900205800466F726D6174206572726F98
:10164000720057726F6E6720636865636B73756DA8
:10165000004563686F3A00526573656E643A0057DF
:1016600061726E696E673A00496E666F3A00457244
:10167000726F723A00494E46004E414E006F6B0049
:101680004649524D574152455F4E414D453A52658C
:101690007065746965725F302E39322E322046498A
:1016A000524D574152455F444154453A32303137EB
:1016B00030313330204D414348494E455F545950F5
:1016C000453A455249532044656C746120002064BA
:1016D00065672E204300206D656173757265642017
:1016E000004572726F723A436F756C64206E6F744E
:1016F00020686F6C642074656D70657261747572BA
:10170000652000206D7300206166746572200045BD
:1017100072726F723A54656D702E207261697365D2
:101720006420746F20736C6F772E2052697365206C
:101730003D20004739310A4731452D313830463692
:101740003030300A473930004D3131372045787418
:10175000727564657220300A54300A4D3834205056
:10176000340A4739310A473145313733463630304C
:10177000300A47314535463530300A473930001C8C
:10178000151C140000002243141F1F931B3F1BCF86
:101790001A7F1A000000000000F719EB189B181FB1
:1017A00018A3170400081D900058091C01B007A8D1
:1017B00001C80634023006C002C0054C036805D8D3
:1017C0000318056404D004F00498047C0560040840
:1017D000063004940600042007D003AC07A80338A1
:1017E000088003C408580350093003DC0908036863
:1017F0000AD802F40AB002800B88020C0C6002982E
:101800000C3002240DF801B00DC0013C0E8001C85F
:101810000E3001540FB800B40F2800E00F00000490
:1018200000401D900060091C01B007A801D00634DB
:10183000023806C002C8054C036805D803180564C1
:1018400004D804F00498047C05600408063004946D
:101850000600042007D003AC07A80338088003C49F
:1018600008580350093003DC090803680AE002F451
:101870000AB802800B88020C0C6002980C3002241B
:101880000DF801B00DC0013C0E8001C80E300154AE
:101890000FB800B40F2800E00F000004000016D8B5
:1018A00000C006AC0178058002C004540348042837
:1018B00004E803FC049803D0055003A40618037839
:1018C00007D8024C08A80220097002F4093802C89F
:1018D0000A08029C0BD001700C9001440D500118B5
:1018E0000EF800EC0E8800C00F00000400681D4CCC
:1018F00000500B94005809DC0050082401A8076C24
:10190000012807B401C006FC017006440228068CB9
:1019100002F005D402B8051C03880564035805AC21
:10192000033005F40310053C04E8048404C804CC27
:1019300004A804140590045C057004A4055804EC84
:10194000053804340620047C060804C406F0030CA1
:1019500007D8035407C8039C07B003E40798032C77
:1019600008800374087003BC085803040948034C3A
:1019700009300394091803DC090803240AF0026CF7
:101980000AE002B40AC802FC0AB002440BA0028CAE
:101990000B8802D40B70021C0C5802640C4002AC81
:1019A0000C2802F40C10023C0DF001840DD801CC7F
:1019B0000DB801140E98015C0E7001A40E4801ECE4
:1019C0000E1801340FD8007C0F8800C40F0800FCEB
:1019D0000F000000000000000000000000000000F8
:1019E00000000000000000000000000000000000F7
:1019F000000000000000000000401F450060094F8B
:101A00000010095C00C0086B0070087D002008927F
:101A100000D007AC008007CC003007DE00E00623D2
:101A20000190065E014006A601F005FF01A0056DCC
:101A3000025005F30200059603B0045A0460044006
:101A40000510044806C0036E077003A8082003EBC6
:101A500009D002230B8002410C3002390DE0010451
:101A60000E9001A20E4001170FF000690FA000A216
:101A70000F5000C60F0000DD0FB0FFEB0F60FF043A
:101A800000700DD8004804AC0158038002D80254FD
:101A900003800228043802FC040002D005C801A417
:101AA000069801780770014C08480120091801F4D4
:101AB00009F000C80AC8009C0BA000700C7000441C
:101AC0000D3800180E0000EC0EA8FFC00FE8FE0451
:101AD00000001B54006009640010097400C00884F1
:101AE0000070089C002008B800D007D800800700CC
:101AF0000130072C01E00668019006AC01400600A9
:101B000002F0056802A005E00250057403000524F8
:101B100004B004F0046004DC051004E406C003040F
:101B200008700330092003780B8002600DE001A8E3
:101B30000E4001680FA000C00F0000E80F60FF0416
:101B400000801AD8009808AC012007800250065483
:101B500003C80528045805FC040005D005B004A4FA
:101B6000066804780728044C08E8032009B003F449
:101B7000097003C80A38039C0BF802700CB00244C9
:101B80000D6802180E0802EC0E8801C00F8800F0E4
:101B90000F00000000A00F5C0060096900100979C7
:101BA00000C0088C007008A2002008BD00D007DE2D
:101BB000008007050130073401E0066D019006B290
:101BC0000140060702F0056D02A005E80250057B02
:101BD0000300052B04B004F8046004EB06C00335D1
:101BE0000920037F0B8002650DE001B00E40011D4E
:101BF0000FF000480FC8006C0FA000ED0F60FFFE53
:101C00000F48FE000000000000000000000000007F
:101C10000000000024F403D950C38EB1C2A23D9647
:101C2000828B3582127AE372816CCB66A861015D8A
:101C3000C758EB546151204E1E4B5648C14559437D
:101C40001A41013F093D2F3B7139CD374036C93428
:101C500065331432D430A32F802E6B2D632C672B69
:101C6000752A8E29B028DC2710274B268F25D924EA
:101C70002B248223E0224322AC211A218D20042030
:101C8000801F001F841E0C1E971D261DB81C4E1C95
:101C9000E61B821B201BC11A641A0A1AB2195D19AD
:101CA0000A19B9186A181C18D11788174017FA169C
:101CB000B51673163116F115B31576153A150015CC
:101CC000C7148F1458142214EE13BA138813561322
:101CD0002513F612C71299126C1240121512EB114D
:101CE000C1119811701148112111FB10D610B110BB
:101CF0008D106910461024100210E10FC00FA00FC4
:101D0000800F610F420F230F060FE80ECB0EAF0EB0
:101D1000930E770E5C0E410E270E0D0EF30DDA0DAD
:101D2000C10DA80D900D780D600D490D320D1B0DE4
:101D3000050DEF0CD90CC30CAE0C990C850C700C76
:101D40005C0C480C350C210C0E0CFB0BE80BD60B75
:101D5000C40BB20BA00B8E0B7D0B6B0B5A0B4A0BFB
:101D6000390B290B180B080BF80AE90AD90ACA0A19
:101D7000BB0AAC0A9D0A8E0A800A710A630A550AD8
:101D8000470A390A2C0A1E0A110A040AF709EA0945
:101D9000DD09D009C409B709AB099F099209870970
:101DA0007B096F09630958094C09410936092B0958
:101DB000200915090A090009F508EB08E008D6080A
:101DC000CC08C208B808AE08A4089A08900887088A
:101DD0007D0874086B08610858084F0846083D08DC
:101DE00034082C0823081A08120809080108F80703
:101DF000F007E807E007D807D007C807C007B8070B
:101E0000B007A807A1070000420FA1071605D003DD
:101E10000D038B022E02E801B20186016301450128
:101E20002C0117010401F400207A3A0020793A00CD
:101E300020783A00696E20717565756544656C742B
:101E4000614D6F766520746F2063616C63756C61A2
:101E5000746544656C74615375625365676D656E36
:101E600074732072657475726E73206572726F720E
:101E70002E00432068697420666C6F6F7200437097
:101E80006F73207820737175617265200043706FE5
:101E9000732078207374657073200043706F732013
:101EA0007920737175617265200043706F732079BA
:101EB0002073746570732000422068697420666C1A
:101EC0006F6F720042706F7320782073717561724A
:101ED00065200042706F73207820737465707320E2
:101EE0000042706F732079207371756172652000F4
:101EF00042706F73207920737465707320004120E5
:101F000068697420666C6F6F720041706F7320781F
:101F100020737175617265200041706F73207820A5
:101F20007374657073200041706F73207920737132
:101F300075617265200041706F732079207374653C
:101F4000707320006D6F766552656C61746976659B
:101F500044697374616E6365496E53746570732070
:101F60002F20717565756544656C74614D6F76657C
:101F70002072657475726E73206572726F72004D97
:101F8000617854656D703A004469616D657465727D
:101F90003A00416363656C65726174696F6E3A0003
:101FA0004D617853706565643A004A65726B3A001A
:101FB0004D617842656454656D703A005072696E87
:101FC000746572547970653A44656C7461005A5452
:101FD000726176656C416363656C3A005954726155
:101FE00076656C416363656C3A005854726176653E
:101FF0006C416363656C3A005A5072696E74416358
:1020000063656C3A00595072696E74416363656C24
:102010003A00585072696E74416363656C3A005AB5
:1020200053697A653A005953697A653A0058536999
:102030007A653A005A4D61783A00594D61783A0014
:10204000584D61783A005A4D696E3A00594D696EA3
:102050003A00584D696E3A004A65726B58593A0019
:102060005072696E746C696E6543616368653A00AD
:10207000454550524F4D3A004175746F6C65766519
:102080006C3A005A50726F62653A00436173654C56
:1020900069676874733A00537570706F72744C6F2F
:1020A00063616C46696C616D656E746368616E67CF
:1020B000653A00537570706F727447313047313133
:1020C0003A005A486F6D654469723A0059486F6D1D
:1020D000654469723A0058486F6D654469723A0008
:1020E000536F667477617265506F77657253776965
:1020F0007463683A004C43443A0046616E3A0053B8
:1021000044436172643A0048656174656442656481
:102110003A004D6978696E674578747275646572C6
:102120003A004E756D45787472756465723A00496F
:102130006E7075744275666665723A0042617564C8
:10214000726174653A004E6F2063617365206C693B
:1021500067687473004D31313420007A70726F6299
:10216000696E672E2E2E0064656C617920313030E7
:102170006D732E00686F6D65417869732000686F1C
:102180006D6541786973202F2071756575654465AB
:102190006C74614D6F76652072657475726E732014
:1021A0006572726F72005072696E7465723A3A733A
:1021B0006574757020006D6F7665546F5265616C43
:1021C000202F20717565756544656C74614D6F765F
:1021D000652072657475726E73206572726F72001D
:1021E0006D6F7665546F202F207175657565446538
:1021F0006C74614D6F76652072657475726E7320B4
:102200006572726F72006973506F736974696F6E73
:10221000416C6C6F776564200000000A0B02090CAA
:102220000D0E08070304010000000000000000007C
:10223000000000000000000000000000000000009E
:10224000000000000012111000000000000000005B
:10225000000000000000000000000000000000017D
:1022600002102020080810204010204080020102A7
:10227000010804020101020408102040808040206F
:1022800010080402018004020180402010080402AA
:102290000108040201010204081020408001020428
:1022A00008102040800505050507050808080802F4
:1022B0000202020A0A0808040404040101010101DF
:1022C0000101010303030303030303040707070CCE
:1022D0000C0C0C0C0C0C0C02020202060606060684
:1022E0000606060B0B0B0B0B0B0B0B000020002341
:1022F00000260029002C002F0032000001000003FE
:10230000010601090100002200250028002B002EF3
:10231000003100340002010000050108010B01003A
:10232000002100240027002A002D00300033000186
:10233000010000040107010A014E414E494E495473
:1023400059494E46CDCCCC3D0AD7233C17B7D1389E
:1023500077CC2B329595E6241FB14F0A000020411F
:102360000000C84200401C4620BCBE4CCA1B0E5A8E
:10237000AEC59D7429680FA1A8A711241FBECFEF79
:10238000D1E2DEBFCDBF00E00CBF13E0A0E0B2E0C1
:10239000E6E8FAE601E00BBF02C007900D92AC310F
:1023A000B107D9F729E1ACE1B3E001C01D92A93E24
:1023B000B207E1F713E2CAE7D3E200E006C02297D2
:1023C0000109FE010BBF0E9419B1C437D10780E09B
:1023D0000807A9F70E946CAC0C9441B50C9400005E
:1023E000CF93DF9300D01F92CDB7DEB744E050E02B
:1023F000BC01CE0101960E94FDB469817A818B8176
:102400009C810F900F900F900F90DF91CF910895C6
:10241000179A0895169A0895159A089588E493E0F6
:10242000DFCFCF92DF92EF92FF92CF93DF9300D076
:102430001F921F92CDB7DEB76B017C0160933B18F2
:1024400070933C1880933D1890933E180E947A89AF
:10245000C982DA82EB82FC8244E050E065E773E0F7
:10246000CE0101960E941FB523E0B701A6018BEDB6
:1024700093E00E94CE3F0E943F43682F88E690E0A1
:102480006D830E940DB56D81681721F088E690E09C
:102490000E9428B50F900F900F900F900F90DF9132
:1024A000CF91FF90EF90DF90CF900895CF93DF937F
:1024B0001F92CDB7DEB7BC018DE793E00E943BB51C
:1024C0000E943F43682F88E690E069830E940DB523
:1024D0006981681739F088E690E00F90DF91CF911D
:1024E0000C9428B50F90DF91CF910895CF93DF938F
:1024F0001F92CDB7DEB7BC018FE793E00E943BB5DA
:102500000E943F43682F88E690E069830E940DB5E2
:102510006981681739F088E690E00F90DF91CF91DC
:102520000C9428B50F90DF91CF910895CF93DF934E
:102530001F92CDB7DEB7BC0181E893E00E943BB5A6
:102540000E943F43682F88E690E069830E940DB5A2
:102550006981681739F088E690E00F90DF91CF919C
:102560000C9428B50F90DF91CF910895809151047C
:102570008823A1F0109251040E94CC5880919002BF
:10258000815080939002811109C080919102833023
:1025900010F40E94735885E0809390020895809112
:1025A0001806882329F00E94686280E0DFDFF7CFF9
:1025B00008954F925F926F927F928F929F92AF9207
:1025C000BF92CF92DF92EF92FF920F931F93CF9320
:1025D000DF9300D01F92CDB7DEB78C018091B51884
:1025E0009091B618A091B718B091B81889839A83C2
:1025F000AB83BC83C090B918D090BA18E090BB18D8
:10260000F090BC188090BD189090BE18A090BF1894
:10261000B090C0189C01AD01BC01CD010E9458B022
:1026200081110FC149805A806B807C80E89477F8D3
:102630002FEF3FEF4FE75FE7C301B2010E9458B0B1
:1026400081110BC02FEF3FEF4FE75FE7C301B201EE
:102650000E9405AD18160CF4F4C0A7019601C7013D
:10266000B6010E9458B08111ECC026013701E894F0
:1026700077F82FEF3FEF4FE75FE7C301B2010E940A
:1026800058B081110BC02FEF3FEF4FE75FE7C30159
:10269000B2010E9405AD18160CF4D3C0A501940137
:1026A000C501B4010E9458B08111CBC0240135018D
:1026B000E89477F82FEF3FEF4FE75FE7C301B201F0
:1026C0000E9458B081110BC02FEF3FEF4FE75FE73B
:1026D000C301B2010E9405AD18160CF4B2C02091DE
:1026E0008D1830918E1840918F18509190186981F3
:1026F0007A818B819C810E94A1AC2B013C012091AD
:102700009118309192184091931850919418C701E4
:10271000B6010E94A1AC6B017C012091951830910B
:1027200096184091971850919818C501B4010E94CD
:10273000A1AC4B015C0180911519882329F020E799
:1027400032E441E25DE304C020E030E040E85FE3D2
:10275000C301B2010E94ADAFAB01BC0122E088E829
:1027600095E10E940B4080911519882329F020E7FC
:1027700032E441E25DE304C020E030E040E85FE3A2
:10278000C701B6010E94ADAFAB01BC0122E080E8F9
:1027900095E10E940B4080911519882329F020E7CC
:1027A00032E441E25DE304C020E030E040E85FE372
:1027B000C501B4010E94ADAFAB01BC0123E08CE7C1
:1027C00095E10E940B406091CD187091CE188091D8
:1027D000CF189091D0180E94D8AD20911119309146
:1027E000121940911319509114190E94ADAF209104
:1027F0001519222329F020E732E441E25DE304C009
:1028000020E030E040E85FE30E94ADAFAB01BC01E7
:1028100024E088E795E10F900F900F900F90DF91E3
:10282000CF911F910F91FF90EF90DF90CF90BF90CD
:10283000AF909F908F907F906F905F904F900C948F
:10284000CE3FC8010E94063E4ACFCF92DF92EF9260
:10285000FF92CF93DF93EC01893191053CF0C53FA6
:1028600081E0D8072CF0C4EFD1E002C0C9E1D0E08C
:10287000BE01882777FD8095982F0E94D8AD6B0107
:102880007C016091C5177091C617882777FD8095E8
:10289000982F0E94D8AD9B01AC01C701B6010E94E0
:1028A0000CAD9B01AC016091C7177091C817809166
:1028B000C9179091CA170E94ADAF6093C717709364
:1028C000C8178093C9179093CA17D093C617C0939F
:1028D000C517BE018DE595E1DF91CF91FF90EF9097
:1028E000DF90CF900C94B63E8F929F92AF92BF92A2
:1028F000CF92DF92EF92FF92CF93DF93EC01893179
:10290000910534F0893C91052CF0C8ECD0E002C070
:10291000C9E1D0E0D093C417C093C317E09140033E
:10292000F0914103E258FF4FC080D180E280F380F4
:1029300020E030E0A901C701B6010E9405ADAE015B
:10294000662757FD6095762F18165CF0CB01BA010B
:102950000E94D8AD2AE037ED43E25CE30E94ADAFC0
:1029600024C0CB01BA010E94D8AD2AE037ED43E282
:102970005CE30E94ADAF20E030E040E850E40E940C
:10298000ADAF4B015C01A7019601C701B6010E94E2
:10299000ADAF2BED3FE049E450E40E94ADAF9B01A9
:1029A000AC01C501B4010E940CAD6093A502709307
:1029B000A6028093A7029093A802BE018FE495E13E
:1029C000DF91CF91FF90EF90DF90CF90BF90AF90CD
:1029D0009F908F900C94B63ECF93DF9320918918EF
:1029E00097FD0DC0EC018F3F910519F014F0CFEF6A
:1029F000D0E0209721F028602093891805C0277F18
:102A000020938918C0E0D0E06111C9DD8091711771
:102A100090E0C817D90729F0BE0185E495E10E942E
:102A2000B63EC0937117DF91CF9108954F925F9298
:102A30006F927F928F929F92AF92BF92CF92DF92CE
:102A4000EF92FF92CF93DF9300D01F92CDB7DEB706
:102A50002FE632E143E85AE36091AD177091AE176B
:102A60008091AF179091B0170E94ADAF6B017C01C0
:102A700081E890E0B5DC9B01AC01C701B6010E9482
:102A8000A1ACAB01BC0122E083E395E10E940B40C5
:102A900081E295E10E94CD3DE0910A02F0910B02A6
:102AA00020E030E040E751E46385748585859685B4
:102AB0000E9439AF18160CF46BC020E030E0A90179
:102AC0008DE790E029833A834B835C830E9415B5A0
:102AD0004B015C0129813A814B815C81820E931EFE
:102AE000A41EB51EC501B40120E831E541E050E067
:102AF0000E94CCB060E87EEA8EEF9FEF0E9474B037
:102B00006B017C01C80CD91CEA1CFB1CBA01A90191
:102B100084E295E10E94DC3EC701B60120E13EE07F
:102B200040E050E00E94CCB049015A01BA01A9012D
:102B30008AE195E10E94DC3EA0EFB1EFA50194018E
:102B40000E9415B16C0D7D1D8E1D9F1D2CE330E084
:102B500040E050E00E94CCB0BA01A90182E195E1C9
:102B60000E94DC3E8DE095E10F900F900F900F904A
:102B7000DF91CF91FF90EF90DF90CF90BF90AF901B
:102B80009F908F907F906F905F904F900C94E53D59
:102B90000E94FFA9C090B117D090B217E090B31770
:102BA000F090B4176C197D098E099F0928EE33E067
:102BB00040E050E00E94AAB083CF811102C08EE2B3
:102BC00007C0813011F48DE203C0823019F48CE229
:102BD0000C94BFAA0895EAE0F1E0808188608083C8
:102BE00080818061808380818062808364E170E085
:102BF0008EE20E94BFAA64E170E08DE20E94BFAA4B
:102C000062E870E08CE20E94BFAAE1E2F1E080811C
:102C1000887F81608083089567FD43C08230E9F03A
:102C200028F4882341F0813061F03BC0833009F102
:102C3000843059F136C0662311F0A19A69C0A19879
:102C400067C080910801662311F0806801C08F770A
:102C50008093080147FF3AC05FC080910801662356
:102C600011F0806401C08F7B8093080147FF34C05E
:102C700055C080910801662311F0886001C0877FEC
:102C80008093080147FF32C046C08091050166234A
:102C900011F0806401C08F7B8093050147FF2EC037
:102CA0003CC047FD3BC08230B9F028F4882341F096
:102CB000813061F008958330C9F08430F9F00895CF
:102CC000442311F0A09A0895A0980895442311F088
:102CD000A29A0895A298089580910801442311F0C2
:102CE000806201C08F7D8093080108958091080162
:102CF000442311F08061F7CF8F7EF5CF80910501DD
:102D0000442311F0806401C08F7B809305010895F6
:102D100047FFD6CF08950895089508950895643023
:102D200079F028F4613041F0623041F00895683064
:102D300051F0603141F0089540E003C040E004C02C
:102D400041E060E002C041E061E066CFCF93DF93F5
:102D50008EEE94E10E94E53D62B36695617070E08D
:102D600088E895E10E94AA3E62B3617070E08BE052
:102D700095E10E94B63EC6E0D1E08881992787FDA3
:102D80009095692F661F6627661F70E086E095E1C3
:102D90000E94AA3E62B362FB662760F970E08BE096
:102DA00095E10E94B63E688166FB662760F970E097
:102DB00083E095E10E94AA3E688165FB662760F981
:102DC00070E08BE095E10E94B63E688163FB662768
:102DD00060F970E08FEF94E10E94AA3E68816295ED
:102DE000617070E08BE095E10E94B63EC3E0D1E0F7
:102DF000688166FB662760F970E08BEF94E10E94C2
:102E0000AA3E688166FB662760F970E08BE095E179
:102E1000DF91CF910C94B63EFF920F931F93CF9307
:102E2000DF9300D01F921F92CDB7DEB785E0E7EFAA
:102E3000F2E0DE01119601900D928A95E1F7989AE1
:102E40009A9A80910701806280930701809107011F
:102E50008061809307018091040180648093040164
:102E60008E010F5F1F4FF12CF80161918F018F2DA3
:102E700056DFF394F5E0FF12F7CF0F900F900F900D
:102E80000F900F90DF91CF911F910F91FF900895B8
:102E90000C942A650E941565209108023091090260
:102EA0008217930724F490930902809308020895EF
:102EB00060910802709109028091060290910702C8
:102EC0006817790744F470930702609306028BE851
:102ED00095E10C94B63E0895CF93C82F69E170E058
:102EE0008AE199E10E9493A76C2F8AE199E10E94FF
:102EF00034A760E08AE199E10E9494A7882329F031
:102F000086EF9AE0CF910C94E53DCF910895CF9351
:102F1000DF93D82FC62F69E170E08AE199E10E9422
:102F200093A76D2F8AE199E10E9434A76C2F8AE163
:102F300099E10E9434A78AE199E10E94A6A788231B
:102F400031F087ED9AE0DF91CF910C94E53DDF9170
:102F5000CF9108951F93CF93DF93182FBDDF41E0EA
:102F600050E069E170E08AE199E10E9487A78AE177
:102F700099E10E94DDA6892BA1F08AE199E10E94E6
:102F8000E5A6EC01612F70E08DEC9AE00E94AA3E6C
:102F9000BE01772784EC9AE0DF91CF911F910C94CA
:102FA000B63E86EA9AE0DF91CF911F910C94E53D01
:102FB00081E89AE00E94E53D8AE199E10E9472A7CA
:102FC0008FE0C8DF81E3C6DF80E2C4DF6CE980E226
:102FD0009EDF80E2BFDF82E2BDDF60E482E297DF56
:102FE00082E2B8DF85E2B6DF60E085E290DF85E26D
:102FF000B1DF83E2AFDF60E383E289DF83E2AADF50
:1030000084E2A8DF6AE484E282DF84E2A3DF80E373
:10301000A1DF60E280E37BDF80E39CDF81E39ADF76
:1030200082E398DF69E182E372DF82E393DF83E387
:1030300091DF60E083E36BDF83E38CDF84E38ADF8F
:1030400060E084E364DF84E385DF86E383DF62E3BB
:1030500086E35DDF86E37EDF87E37CDF60E087E396
:1030600056DF87E377DF88E375DF60E188E34FDFD2
:1030700088E370DF89E36EDF8AE36CDF62E38AE373
:1030800046DF8AE367CF81E365DF85E363DF89E3BA
:1030900061DF8DE25FCF6DE086E295E00E94C9635B
:1030A0006AE086E295E00C94C963E0914003F091F8
:1030B000410342A953A964A975A922E085E795E1D6
:1030C0000E940B40E0914003F091410346A957A9AB
:1030D00060AD71AD20E08CE695E10E940B40E0917F
:1030E0008F02EF3F29F4E0914003F0914103E0812A
:1030F000F0E0E259F84E608170E081E795E10E94CE
:10310000AA3EC9CF2F923F924F925F926F927F92C9
:103110008F929F92AF92BF92CF92DF92EF92FF92E7
:103120000F931F93CF93DF93CDB7DEB729970FB6D9
:10313000F894DEBF0FBECDBF5C01DC0116968D9109
:103140009C9117978C3C910511F40C949A2108F0EE
:1031500098C08A36910509F427C708F04FC0833517
:10316000910509F446C278F58A32910509F4A3C1A4
:1031700058F48131910509F49BC1429711F00C94E8
:10318000232646D947D9C4C28135910509F422C204
:1031900008F02BC28035910511F00C942326FFD93D
:1031A0000E94FFA9609378177093791780937A171C
:1031B00090937B179B9A80918B18806480938B18D7
:1031C000A3980C945A268C35910509F416C350F433
:1031D0008435910509F412C28535910509F4E9C2D7
:1031E0000C9423268836910509F4BCC308F0A4C4C6
:1031F0008336910509F465C30C9423268537910520
:1032000011F40C945A26F0F48F36910509F4FEC699
:1032100050F48B36910509F4D8C68D36910509F422
:10322000ADC40C9423268337910509F41EC708F01A
:1032300076C68237910511F00C94232686E393E03D
:103240000C945B23883C910509F470C770F48C38AA
:10325000910509F41DC48E3B910509F455C68737C5
:10326000910511F00C9423261EC7F50120813181B0
:103270008A3C910511F40C94462108F4AAC70C94D9
:103280008A218E32F1E09F0711F40C94E82308F0B4
:103290009AC08F3D910511F40C94CA22E0F58F3C41
:1032A000910511F40C94102228F58D3C910511F430
:1032B0000C94F6218E3C910511F00C942326C50147
:1032C00029960FB6F894DEBF0FBECDBFDF91CF9128
:1032D0001F910F91FF90EF90DF90CF90BF90AF9034
:1032E0009F908F907F906F905F904F903F902F9026
:1032F0000C948F498C3D910511F40C9477228D3DEF
:10330000910511F40C949F22813D910511F00C94CC
:1033100023260C945822843031E0930711F40C9446
:10332000752390F5893E910511F40C94DF228B3FB3
:10333000910511F40C941823883E910511F00C941A
:103340002326609176177091771787EA94E10E949F
:10335000AA3E409172175091731760917417709143
:10336000751722E08EE994E10E94CE3F1092771704
:10337000109276171092721710927317109274179A
:10338000109275170C945A26863051E0950711F467
:103390000C94B12310F40C948F238931914011F0D7
:1033A0000C9423268DE792E00E94FC3D80E00E9471
:1033B0002C8968EC70E080E090E00E942EAA8FB724
:1033C000F8940C94E7238836E1E09E0711F40C94FE
:1033D0004F2568F5813421E0920711F40C945A24AA
:1033E00080F48F3241E0940711F40C942724803448
:1033F000914011F00C94232681E00E94529C0C9481
:103400006F248E35A1E09A0711F40C94982483362A
:10341000B1E09B0711F40C9409258234914011F01E
:103420000C94232680E00E94F39C0C946F24843F2C
:10343000F1E09F0711F40C94B32550F5813931E088
:10344000930711F40C946925823941E0940711F433
:103450000C9483258039914011F00C9423262996F1
:103460000FB6F894DEBF0FBECDBFDF91CF911F9195
:103470000F91FF90EF90DF90CF90BF90AF909F9013
:103480008F907F906F905F904F903F902F9087C864
:10349000863FA1E09A0711F40C94DE2510F40C94F9
:1034A000B9258C38934011F40C94F8250C942326FC
:1034B0001798169854C2D5012D913C91119733FD60
:1034C00002C00C945A2692961C919297E12E9396E4
:1034D000FC90E4E1FBE0449150E04E155F0509F4F7
:1034E0005DC03296BBE0E838FB07A9F7F7FC56C091
:1034F00032FF2BC0F501468D578D60A171A14F3F62
:1035000051056105710509F0E8F461E0812F0E9421
:10351000D5ABD5015E966C91812F0E940EACF50162
:10352000668D778D812F0E94BFAAB70181EE94E14D
:103530000E94AA3ED5015E966D917C915F978CEDBD
:1035400094E112C082E793E02BC062E0812F0E94D9
:10355000D5ABB7018CED94E10E94AA3E812F0E9469
:1035600043ACBC0187ED94E129960FB6F894DEBF19
:103570000FBECDBFDF91CF911F910F91FF90EF90C4
:10358000DF90CF90BF90AF909F908F907F906F9083
:103590005F904F903F902F900C94B63E8CE393E059
:1035A00029960FB6F894DEBF0FBECDBFDF91CF9145
:1035B0001F910F91FF90EF90DF90CF90BF90AF9051
:1035C0009F908F907F906F905F904F903F902F9043
:1035D0000C94063E0E94CF129B9A80918B188F7B91
:1035E00080938B18A39A0C945A261092D1180C949D
:1035F0005A2681E08093D1180C945A26F5018081D7
:10360000918192FF12C0268D378D40A151A1A8EE65
:10361000B3E00E9409B16093990270939A0280937B
:103620009B0290939C020C945A2693FFA5C0F5012F
:1036300082A193A1A4A1B5A182309105A105B105F4
:1036400009F466C02CF50097A105B10509F446C040
:103650000197A105B10511F00C945A2629960FB6D1
:10366000F894DEBF0FBECDBFDF91CF911F910F91B8
:10367000FF90EF90DF90CF90BF90AF909F908F9092
:103680007F906F905F904F903F902F900C940A1214
:1036900083309105A105B10509F454C00497A10533
:1036A000B10511F00C945A2629960FB6F894DEBF96
:1036B0000FBECDBFDF91CF911F910F91FF90EF9083
:1036C000DF90CF90BF90AF909F908F907F906F9042
:1036D0005F904F903F902F900C94065129960FB613
:1036E000F894DEBF0FBECDBFDF91CF911F910F9138
:1036F000FF90EF90DF90CF90BF90AF909F908F9012
:103700007F906F905F904F903F902F900C94081295
:1037100029960FB6F894DEBF0FBECDBFDF91CF91D3
:103720001F910F91FF90EF90DF90CF90BF90AF90DF
:103730009F908F907F906F905F904F903F902F90D1
:103740000C940C1229960FB6F894DEBF0FBECDBFB5
:10375000DF91CF911F910F91FF90EF90DF90CF906D
:10376000BF90AF909F908F907F906F905F904F90A1
:103770003F902F900C94F8500E94CF1281E0299630
:103780000FB6F894DEBF0FBECDBFDF91CF911F9172
:103790000F91FF90EF90DF90CF90BF90AF909F90F0
:1037A0008F907F906F905F904F903F902F900C94F0
:1037B0002C89D5018D919C91119792FF14C05E9632
:1037C0002D913D914D915C919197A8EEB3E00E94AF
:1037D00009B160939D0270939E0280939F02909323
:1037E000A0020C945A2610929D0210929E021092F2
:1037F0009F021092A0020C945A26F501808183FF4B
:103800000CC082859385A485B5858093E70290934B
:10381000E802A093E902B093EA02D5018C9184FFFB
:103820000EC01E968D919D910D90BC91A02D809300
:10383000EB029093EC02A093ED02B093EE02F5013F
:10384000808185FF0CC082899389A489B589809382
:10385000EF029093F002A093F102B093F2020E9463
:103860007A89D5018C9186FD02C00C945A2620914C
:1038700040033091410356968D919D910D90BC91DE
:10388000A02DF90181879287A387B487808129962B
:103890000FB6F894DEBF0FBECDBFDF91CF911F9161
:1038A0000F91FF90EF90DF90CF90BF90AF909F90DF
:1038B0008F907F906F905F904F903F902F900C94DF
:1038C0003D4FD501ED91FC911197F2FF0DC05E9631
:1038D0002D913D914D915C919197A8EEB3E00E949E
:1038E00009B16B017C0106C040E1C42E47E2D42E31
:1038F000E12CF12CE3FD0E940812F501808184FD8A
:103900000E940A12D5018C9185FD0E940C120E9422
:10391000FFA92B013C014C0C5D1C6E1C7F1C0E94FE
:10392000FFA9A3019201261B370B480B590BDA01A3
:10393000C901803A9648A140B10518F40E94708EE2
:10394000EECFD5018C9183FD1798F501808184FD20
:103950001698D5018C9185FD02C00C945A261598B5
:103960000C945A260E94A45881110C945A260E9445
:10397000FFA9609378177093791780937A179093C3
:103980007B178091AA0283FF02C00C945A26F5018E
:103990008081918193FF02C00C94462692FF0AC059
:1039A000868D978DA0A1B1A1892B8A2B8B2B11F429
:1039B0000C944626D5018D919C91119792FD02C0E1
:1039C0000C945A269C012227317091FF23C0232B8F
:1039D00089F011E020E030E0A9015A966D917D91C7
:1039E0008D919C915D970E9439AF18160CF010E0F4
:1039F000212F01C020E085010C5A1F4FF501668D73
:103A0000778D80A191A129870E94D8AD2985D80101
:103A10004C9124C0232B81F011E020E030E0A9017B
:103A2000F501628D738D848D958D0E9439AF1816C6
:103A30000CF010E0212F01C020E000914003109114
:103A40004103D5015E966D917D918D919C919197E9
:103A500029870E94D8AD2985F801408129960FB6A3
:103A6000F894DEBF0FBECDBFDF91CF911F910F91B4
:103A7000FF90EF90DF90CF90BF90AF909F908F908E
:103A80007F906F905F904F903F902F900C946C546C
:103A90000E94A45881110C945A260E94FFA9609399
:103AA00078177093791780937A1790937B1780918A
:103AB000AA0283FF02C00C945A26D5018D919C91D5
:103AC000119792FD02C00C945A2690FF11C011E08C
:103AD00020E030E0A9015A966D917D918D919C91E5
:103AE0005D970E9439AF18160CF010E0412F01C00D
:103AF00040E0F501668D778D80A191A149870E94F4
:103B0000D8AD498529960FB6F894DEBF0FBECDBF5C
:103B1000DF91CF911F910F91FF90EF90DF90CF90A9
:103B2000BF90AF909F908F907F906F905F904F90DD
:103B30003F902F900C94F750D5018D919C9133E0DC
:103B4000969587953A95E1F7817029960FB6F89486
:103B5000DEBF0FBECDBFDF91CF911F910F91FF90C0
:103B6000EF90DF90CF90BF90AF909F908F907F901D
:103B70006F905F904F903F902F9097CA0E94A458EB
:103B800081110C945A260E94FFA9609378177093B4
:103B9000791780937A1790937B178091AA0283FFFD
:103BA00002C00C945A260E94CF12209040033090FD
:103BB0004103F5018081918191FF09C0EC5AFF4FCB
:103BC0002081211104C02CE0222E22E0322E92FF0F
:103BD0001EC090FF0FC011E020E030E0A901D50128
:103BE0005A966D917D918D919C915D970E9439AF10
:103BF00018160CF010E0F501668D778D80A191A16B
:103C00000E94D8AD212FD1014C910E946C54F1013A
:103C100026A937A940AD51AD62A973A984A995A978
:103C20000E94A0AC2B013C0120E030E0A9010E94E1
:103C300039AF181664F420E030E040EA50E4C301E4
:103C4000B2010E9405AD87FF0EC00C945A2620E0F9
:103C500030E040EA50ECC301B2010E9439AF1816BF
:103C600014F40C945A2699249394D101D0962D9152
:103C70003C91D1979E968D919C919F978217930727
:103C80000CF0912C0E94FFA96D837E838F8398870F
:103C900010E0412C512C32010E94FFA969837A83E4
:103CA0008B839C83609378177093791780937A172E
:103CB00090937B17DC01CB012D813E814F8158858C
:103CC000821B930BA40BB50B893E9340A105B10554
:103CD00050F080E0EAD989819A81AB81BC818D83E3
:103CE0009E83AF83B88781E00E94B6128091400323
:103CF000909141032816390609F062C0D1019396CC
:103D0000ED90FC9094971E141F040CF059C01111F3
:103D100056C0992009F475C091966D917C91929747
:103D2000882777FD8095982F0E94D8AD9B01AC0124
:103D3000F10162A973A984A995A90E9439AF181647
:103D40000CF0B1C7662777276E197F09882777FDA2
:103D50008095982F0E94D8AD2091F3023091F40203
:103D60004091F5025091F6020E94ADAF0E94A5ADC0
:103D70001F921F92D10152962C9152972F935196D8
:103D80002C9151972F9350962C9150972F931F96CB
:103D90002C912F935B016C01E12CF12C870120E029
:103DA00030E0A90160E070E0CB010E9439810F9002
:103DB0000F900F900F900F900F9011E074C711E0CB
:103DC000411451046104710409F050C09920F1F0CC
:103DD00020E030E040E85FE3F10166A977A980AD1B
:103DE00091AD0E94A0AC9B01AC01D101D2966D9126
:103DF0007D918D919C91D5970E9439AF87FF1FC00F
:103E000048CF411451046104710481F520E030E091
:103E100040E85FE3F10166A977A980AD91AD0E940A
:103E2000A1AC9B01AC01D101D2966D917D918D9198
:103E30009C91D5970E9405AD18160CF42ACFF1017C
:103E4000A78DB0A128EE33E00E9403B12B013C0105
:103E500029813A814B815C81420E531E641E751E7E
:103E6000411451046104710409F416CFD301C20155
:103E700029813A814B815C81821B930BA40BB50B8A
:103E800081159449A543B74708F406CF1123E1F102
:103E9000809140039091410328163906A9F5D1017C
:103EA00093966D917C919497882777FD8095982FB4
:103EB0000E94D8AD2091F3023091F4024091F502B6
:103EC0005091F6020E94ADAF0E94A5AD1F921F92C5
:103ED000F10122892F9321892F9320892F93278500
:103EE0002F935B016C01E12CF12C870120E030E085
:103EF000A90160E070E0CB010E9439810F900F9022
:103F00000F900F900F900F900E94FFA96093781769
:103F10007093791780937A1790937B17CBC6809113
:103F2000AA0283FDC7C60E94FFA94B015C010E9443
:103F3000FFA9681979098A099B09693E73408105BF
:103F4000910530F080E0B1D80E94FFA94B015C01DF
:103F500081E00E94B61200910A0210910B02D80172
:103F60001B964D905D906D907C901E9720E030E008
:103F700040EF51E4C301B2010E9439AF18160CF0B2
:103F800099C6F8012781308541855285C301B20168
:103F90000E94A0AC9F7720E030E040E85FE30E9401
:103FA00039AF181624F286C6D5018D919C911197D0
:103FB00093FB662760F992FF05C05E968D919C91F8
:103FC0005F970AC08FEF90E007C0F501618163FB46
:103FD000662760F980E090E029960FB6F894DEBF7E
:103FE0000FBECDBFDF91CF911F910F91FF90EF904A
:103FF000DF90CF90BF90AF909F908F907F906F9009
:104000005F904F903F902F900C94EC14D5018D91C0
:104010009C91119792FF04C05E962C912093AA0266
:1040200093FF12C0F50182A193A1A4A1B5A1209193
:10403000AA02181619061A061B0614F4822B02C0CF
:10404000815082238093AA028091AA0283FF32C604
:1040500020E040E060E070E0CB010E946C5420E082
:1040600040E060E070E0CB01F9CC80E896E10E948E
:10407000E53D29960FB6F894DEBF0FBECDBFDF91A8
:10408000CF911F910F91FF90EF90DF90CF90BF9055
:10409000AF909F908F907F906F905F904F903F90E8
:1040A0002F900C9416150E94CF128AEC94E10E9476
:1040B000CD3D379903C081ED94E102C084ED94E1D8
:1040C0000E94CD3D83EC94E10E94CD3D029903C056
:1040D00081ED94E102C084ED94E10E94CD3D8CEB32
:1040E00094E10E94CD3D019903C081ED94E102C0AD
:1040F00084ED94E10E94CD3D29960FB6F894DEBF81
:104100000FBECDBFDF91CF911F910F91FF90EF9028
:10411000DF90CF90BF90AF909F908F907F906F90E7
:104120005F904F903F902F900C944B18E09140037C
:10413000F09141032081D5018D919C9191FF06C0A2
:10414000F501EC5AFF4F8081882311F0822F01C0C6
:1041500080E0F501928192FF05C046A457A460A8B3
:1041600071A803C0412C512C320193FF07C0D50127
:10417000D2964D905D906D907C90D597082F10E071
:10418000B3E88B9FF0011124E657FD4F4082518226
:1041900062827382821306C08091C3179091C41704
:1041A0000E94741420E030E0A901C301B2010E9412
:1041B00005ADB801811103C08AE093E0D5C983EE53
:1041C00092E00E94AA3E22E0B301A2018EED92E0AD
:1041D00055C123FF0DC0F50182859385A485B58562
:1041E0008093BB029093BC02A093BD02B093BE0229
:1041F000D5018C9184FF0EC01E968D919D910D90DE
:10420000BC91A02D8093BF029093C002A093C102E5
:10421000B093C202F501808185FF0CC08289938929
:10422000A489B5898093C3029093C402A093C50268
:10423000B093C602D5018C9186FF0EC056968D9123
:104240009D910D90BC91A02D8093C7029093C802C0
:10425000A093C902B093CA0229960FB6F894DEBFA4
:104260000FBECDBFDF91CF911F910F91FF90EF90C7
:10427000DF90CF90BF90AF909F908F907F906F9086
:104280005F904F903F902F900C947A8923FF0DC040
:10429000F50182859385A485B5858093AB029093C3
:1042A000AC02A093AD02B093AE02D5018C9184FF15
:1042B0000EC01E968D919D910D90BC91A02D809366
:1042C000AF029093B002A093B102B093B202F50195
:1042D000808185FF0CC082899389A489B5898093E8
:1042E000B3029093B402A093B502B093B602D50185
:1042F0008C9186FFB1CF56968D919D910D90BC917A
:10430000A02D8093B7029093B802A093B902B09306
:10431000BA02A2CF32FFCEC4F501868D978DA0A13F
:10432000B1A1181619061A061B060CF4C3C4809313
:104330009102C0C4E0914003F0914103BB96D501C6
:104340002D913C91119732FF0DC05E968D919D91FC
:104350000D90BC91A02D892B8A2B8B2B09F0AAC420
:10436000E7E3F2E023FF0BC0D5011A964D915D9172
:104370006D917C911D97428F538F648F758FD501FE
:104380008C9184FF0AC01E964D915D916D917C9138
:104390005197468F578F60A371A3D5018C9185FFEC
:1043A0000AC052964D915D916D917C91559742A3B3
:1043B00053A364A375A3CF0129960FB6F894DEBF6B
:1043C0000FBECDBFDF91CF911F910F91FF90EF9066
:1043D000DF90CF90BF90AF909F908F907F906F9025
:1043E0005F904F903F902F900C94F74E29960FB608
:1043F000F894DEBF0FBECDBFDF91CF911F910F911B
:10440000FF90EF90DF90CF90BF90AF909F908F90F4
:104410007F906F905F904F903F902F900C943B4B0C
:10442000F501208123FF0CC082859385A485B58585
:104430008093BF179093C017A093C117B093C21772
:1044400026FF11C02091400330914103F501868978
:104450009789A08DB18DF901878B908FA18FB28F35
:1044600080810E943D4F4091BF175091C0176091CD
:10447000C1177091C21722E086EB94E129960FB61E
:10448000F894DEBF0FBECDBFDF91CF911F910F918A
:10449000FF90EF90DF90CF90BF90AF909F908F9064
:1044A0007F906F905F904F903F902F900C94CE3FF5
:1044B000D5018D919C91119792FFFCC361E05E96AE
:1044C0008D919D910D90BC91A02D20918A18892BE2
:1044D0008A2B8B2B21F460E0822F8D7F02C0822FEC
:1044E000826080938A1870E085E492E03DC8F5010F
:1044F0008081918192FF05C0868D978DA0A1B1A189
:1045000004C084E690E0A0E0B0E029960FB6F894ED
:10451000DEBF0FBECDBFDF91CF911F910F91FF90F6
:10452000EF90DF90CF90BF90AF909F908F907F9053
:104530006F905F904F903F902F900C942514D50171
:104540008D919C91119792FF07C05E968D919D91E0
:104550000D90BC91A02D04C084E690E0A0E0B0E0F6
:1045600029960FB6F894DEBF0FBECDBFDF91CF9175
:104570001F910F91FF90EF90DF90CF90BF90AF9081
:104580009F908F907F906F905F904F903F902F9073
:104590000C947414F5018081918192FF8BC34FB705
:1045A000F8948091161990911719268D378D820FE6
:1045B000931F90931719809316194FBF7BC3F50172
:1045C0008081209140033091410384FF09C086859A
:1045D0009785A089B189F90185A396A3A7A3B0A760
:1045E000D90195964D915D916D917C91989722E0BE
:1045F00085E894E10E940B400E944B1829960FB663
:10460000F894DEBF0FBECDBFDF91CF911F910F9108
:10461000FF90EF90DF90CF90BF90AF909F908F90E2
:104620007F906F905F904F903F902F900C94608997
:104630002091BD183091BE184091BF185091C018FC
:104640006091CF177091D0178091D1179091D217A8
:104650000E94A0AC6093CF177093D0178093D117AE
:104660009093D2171092C9181092CA181092CB18B2
:104670001092CC180E947A8965ED78E181EC98E17E
:104680000E94257680E00E947B954091CF17509143
:10469000D0176091D1177091D21722E080E391E199
:1046A0000E94CE3F80E00E9456438FE894E10E9432
:1046B000E53D88ED92E029960FB6F894DEBF0FBE77
:1046C000CDBFDF91CF911F910F91FF90EF90DF90C1
:1046D000CF90BF90AF909F908F907F906F905F90A2
:1046E0004F903F902F900C94D91229960FB6F894C2
:1046F000DEBF0FBECDBFDF91CF911F910F91FF9015
:10470000EF90DF90CF90BF90AF909F908F907F9071
:104710006F905F904F903F902F900C94D81780E14E
:104720000E9443ACBC018EEC92E00E94B63E2996FA
:104730000FB6F894DEBF0FBECDBFDF91CF911F91B2
:104740000F91FF90EF90DF90CF90BF90AF909F9030
:104750008F907F906F905F904F903F902F900C9430
:10476000431882E30E94AA17F5018081918192FF8C
:10477000A1C2468D578D60A171A188EB92E00E9485
:10478000F43ED5015E966C9182E30E948717F50195
:10479000668D8AE30E94871782E329960FB6F89404
:1047A000DEBF0FBECDBFDF91CF911F910F91FF9064
:1047B000EF90DF90CF90BF90AF909F908F907F90C1
:1047C0006F905F904F903F902F900C94AA17FFCF5F
:1047D000D5018D919C91119792FF0EC021E05E96BC
:1047E0008D919D910D90BC91A02D892B8A2B8B2BA7
:1047F00009F420E0822F01C081E090918B1888237A
:1048000011F0906801C09F7790938B18882319F05E
:104810008EE292E002C084E192E029960FB6F8940D
:10482000DEBF0FBECDBFDF91CF911F910F91FF90E3
:10483000EF90DF90CF90BF90AF909F908F907F9040
:104840006F905F904F903F902F900C94E53DF50155
:104850000081118112FF03C0668D778D02C066E969
:1048600070E013FF0CC0D5019296ED90FC909397E9
:104870001E141F0434F4EE24E394F12C02C0E12C46
:10488000F12CA3E016950795AA95E1F7017088270A
:1048900077FD8095982F0E94D8ADAB01BC01F70140
:1048A000EE0FFF1FE65FFD4F2E2D808191810E944C
:1048B000485500C280E00E94529CD5018D919C9188
:1048C000119792FFF7C15E968D919D910D90BC91CD
:1048D000A02D0097A105B10509F0DCC1EBC1F501E0
:1048E0008081918192FFE6C1868D978DA0A1B1A1B3
:1048F000892B8A2B8B2B09F4DDC180E029960FB61A
:10490000F894DEBF0FBECDBFDF91CF911F910F9105
:10491000FF90EF90DF90CF90BF90AF909F908F90DF
:104920007F906F905F904F903F902F900C945643E4
:104930008BE692E00E94E53DD5018D919C9192FD20
:104940000FC0F501808183FF16C0F5016285738574
:10495000848595850E94AAAD80E00E948F160BC0C9
:1049600010E0D5015E966C91812F0E948F161F5F1B
:104970001530B9F7E6CFD5018C9184FF0BC01E9698
:104980006D917D918D919C9151970E94AAAD81E08E
:104990000E948F16F501808185FF09C062897389A5
:1049A000848995890E94AAAD82E00E948F16D50164
:1049B0008C9186FF0BC056966D917D918D919C9147
:1049C00059970E94AAAD83E00E948F16F50180815D
:1049D000918193FF04C062A184E00E948F16299602
:1049E0000FB6F894DEBF0FBECDBFDF91CF911F9100
:1049F0000F91FF90EF90DF90CF90BF90AF909F907E
:104A00008F907F906F905F904F903F902F900C947D
:104A1000A616D5018D919C91119792FF26C081E039
:104A20005E964D915D916D917C919197452B462BB2
:104A3000472B09F480E029960FB6F894DEBF0FBE2D
:104A4000CDBFDF91CF911F910F91FF90EF90DF903D
:104A5000CF90BF90AF909F908F907F906F905F901E
:104A60004F903F902F900C940AA129960FB6F8947E
:104A7000DEBF0FBECDBFDF91CF911F910F91FF9091
:104A8000EF90DF90CF90BF90AF909F908F907F90EE
:104A90006F905F904F903F902F900C940BA12996B0
:104AA0000FB6F894DEBF0FBECDBFDF91CF911F913F
:104AB0000F91FF90EF90DF90CF90BF90AF909F90BD
:104AC0008F907F906F905F904F903F902F900C94BD
:104AD00019A129960FB6F894DEBF0FBECDBFDF91A6
:104AE000CF911F910F91FF90EF90DF90CF90BF90EB
:104AF000AF909F908F907F906F905F904F903F907E
:104B00002F900C941E9BF5018081918190FF05C030
:104B1000E28CF38C048D158D08C0E090C717F090DF
:104B2000C8170091C9171091CA179C0146E0369525
:104B300027954A95E1F72170AC0165E056954795B8
:104B40006A95E1F74170BC01E4E076956795EA95D6
:104B5000E1F76170F3E096958795FA95E1F781703A
:104B60000E947F9BA7C080E00E94564386E290E1AE
:104B70000BC00E94A345E0914003F0914103808166
:104B80000E943D4F84E090E129960FB6F894DEBF75
:104B90000FBECDBFDF91CF911F910F91FF90EF908E
:104BA000DF90CF90BF90AF909F908F907F906F904D
:104BB0005F904F903F902F900C94FC3D29960FB63C
:104BC000F894DEBF0FBECDBFDF91CF911F910F9143
:104BD000FF90EF90DF90CF90BF90AF909F908F901D
:104BE0007F906F905F904F903F902F900C948941F1
:104BF00082E592E00E94E53DD5018D919C91882748
:104C00009C7081159C4009F055C0F501668D778D2B
:104C100082A129960FB6F894DEBF0FBECDBFDF91FB
:104C2000CF911F910F91FF90EF90DF90CF90BF90A9
:104C3000AF909F908F907F906F905F904F903F903C
:104C40002F900C94DD158091AA0282FF33C085E974
:104C500095E10E94CD3DC50129960FB6F894DEBFBF
:104C60000FBECDBFDF91CF911F910F91FF90EF90BD
:104C7000DF90CF90BF90AF909F908F907F906F907C
:104C80005F904F903F902F900C9473610E94CF12D1
:104C90000C94DA1C0397A105B10509F02ECE80E033
:104CA0000E94F39C2ACE411451046104710409F45A
:104CB0008FC8DCC829960FB6F894DEBF0FBECDBFF3
:104CC000DF91CF911F910F91FF90EF90DF90CF90E8
:104CD000BF90AF909F908F907F906F905F904F901C
:104CE0003F902F9008952F923F924F925F926F9234
:104CF0007F928F929F92AF92BF92CF92DF92EF926C
:104D0000FF920F931F93CF93DF93CDB7DEB7E89752
:104D10000FB6F894DEBF0FBECDBF1C01DC011896A4
:104D20008D919C9119978032910511F40C944E2F1E
:104D300060F58531910509F460C198F484309105DE
:104D400009F41DC128F4029708F4EEC00C947C3AD3
:104D5000449711F00C947C3A81E0809315190C94DF
:104D6000863A8D31910509F48DC128F44C9709F4E8
:104D700048C10C947C3A8E31910509F49EC74F9737
:104D800011F40C943B2F0C947C3A8C35910511F462
:104D90000C94B93650F58534910511F40C94AD336B
:104DA000C0F48434910511F00C947C3A8091C717BB
:104DB0009091C817A091C917B091CA178D879E8787
:104DC000AF87B88B49E1442E512C612C712C0C9487
:104DD000D8318A35910511F40C949F368B359105A5
:104DE00011F40C94AB360C947C3A8438910511F490
:104DF0000C94473908F05DC08436910511F40C9489
:104E00009B378338910511F00C947C3A6091B5186A
:104E10007091B6188091B7189091B8182091B91870
:104E20003091BA184091BB185091BC18E090BD1851
:104E3000F090BE180091BF181091C0184090C7178D
:104E40005090C8176090C9177090CA171092BB177E
:104E50001092BC171092BD171092BE171092B71780
:104E60001092B8171092B9171092BA17E091CE02AB
:104E7000EF93E091CD02EF93E091CC02EF93E091BC
:104E8000CB02EF93E0EFAE2EE3E2BE2EE4E7CE2EB0
:104E9000E9E4DE2E0E94BE924092C7175092C817D6
:104EA0006092C9177092CA1780E00E947B950C949B
:104EB00042398538910511F40C94CA398638910528
:104EC00011F00C947C3A4091D5185091D61860910D
:104ED000D7187091D81883E094E00E94DC3E40918E
:104EE000D9185091DA186091DB187091DC188BE0BA
:104EF00095E10E94DC3E4091DD185091DE186091F2
:104F0000DF187091E0188BE095E10E94F43E80E09C
:104F10000E947B9585EF93E00E94CD3D8FEE93E05C
:104F20000E94D9120C94863AF1018081918192FFFE
:104F300011C0868D978DA0A1B1A120918B18892BCE
:104F40008A2B8B2B19F0822F806202C0822F8F7DDB
:104F500080938B18C1010E94F296882311F40C945F
:104F6000863A41E061E081E00E94097C81110C9465
:104F7000863A85E59AE00E94F23D0C94863A0E94BA
:104F8000CF12D1018D919C91119793FF07C09296FA
:104F90008D909D90AD90BC90959703C0812C912CE5
:104FA000540192FF0BC0F101268D378D40A151A114
:104FB000A8EEB3E00E9409B14B015C010E94FFA979
:104FC0006B017C01C80CD91CEA1CFB1C0E94FFA9C8
:104FD000A7019601261B370B480B590BDA01C901B3
:104FE00081159449A543B74710F00C94863A0E9466
:104FF000686281E00E94B612E9CF109215190C94F4
:10500000863AD1018D919C91AC0148735527411589
:10501000510551F49C0106E0369527950A95E1F774
:10502000B1E02B27217001C020E086FF08C010925C
:10503000CD181092CE181092CF181092D0182111BE
:1050400017C0452BD1F0AC01A5E056954795AA9520
:10505000E1F7BC01B4E076956795BA95E1F713E006
:10506000969587951A95E1F761704170817003C03C
:1050700061E041E081E00E946C9C80E00E947B95B1
:105080000C94863A80E49AE00E942D60E0914003FF
:10509000F091410320E030E048EC52E462A973A9AA
:1050A00084A995A90E9439AF181624F489E39AE0DF
:1050B0000E942D602091C7173091C8174091C917E1
:1050C0005091CA17298F3A8F4B8F5C8F80E090E008
:1050D0000E94561280E090E00E94761280E090E0FC
:1050E0000E94961280E00E9456430E94A34580E0F1
:1050F00090E4A7EEB4E48093B3029093B402A0933B
:10510000B502B093B6020E947A8989E190E0A0E0EE
:10511000B0E0898B9A8BAB8BBC8BFBE14F2E512C73
:10512000612C712C29893A894B895C892D873E87AE
:105130004F87588B41E061E081E00E946C9C89EAD6
:1051400091E10E942D6080E00E94529C0E940E120C
:10515000162F072FF82EE92E84E393E00E94F0111A
:105160009B01AC0180E393E02DAB3EAB4FAB58AF5E
:105170000E94F011EF92FF920F931F93E0EFAE2E7B
:10518000E3E2BE2EE4E7CE2EE9E4DE2E86017501D1
:105190002DA93EA94FA958AD0E94299A20E041E0CF
:1051A00060E081E00E940AA369A37AA38BA39CA379
:1051B00020E041E060E081E00E940AA36DA37EA3AD
:1051C0008FA398A79B01AC0169A17AA18BA19CA197
:1051D0000E94A0AC6B017C010F900F900F900F907C
:1051E0002DEC3CEC4CEC5DE30E9439AF181654F00A
:1051F0002DEC3CEC4CEC5DEBC701B6010E9405AD1B
:1052000087FF1FC049895A896B897C898FE09AE0A2
:105210000E94F43E89899A89AB89BC898897A10547
:10522000B10544F482E30E94AA17B301A20181EF01
:1052300099E029C18EED99E00E94E53D86EC99E068
:1052400093C08DE793E00E941AB59E8B8D8BD101A0
:105250008D919C91119792FF0CC05E968D919D91BE
:105260000D90BC91A02D0297A105B10511F40C94ED
:10527000A93A0E940E12162F072FF82EE92E8CE362
:1052800093E00E94F0119B01AC0188E393E02DAB09
:105290003EAB4FAB58AF0E94F011EF92FF920F93CD
:1052A0001F9350EFA52E53E2B52E54E7C52E59E4B7
:1052B000D52E860175012DA93EA94FA958AD0E9492
:1052C000299A20E041E060E081E00E940AA369A7FA
:1052D0007AA78BA79CA720E041E060E081E00E94D4
:1052E0000AA36DA77EA78FA798AB9B01AC0169A508
:1052F0007AA58BA59CA50E94A0AC6B017C010F90A8
:105300000F900F900F902DEC3CEC4CEC5DE30E9465
:1053100039AF181654F02DEC3CEC4CEC5DEBC701AA
:10532000B6010E9405AD87FF26C049895A896B895D
:105330007C898CE999E00E94F43E29893A894B895D
:105340005C89283231054105510544F482E30E940D
:10535000AA17B301A2018EE799E095C08BE699E008
:105360000E94E53D83E599E00E942D6080E491E193
:105370000E94063EFDC18FE793E00E941AB59E8F02
:105380008D8FD1018D919C91119792FF0CC05E96EB
:105390008D919D910D90BC91A02D0297A105B10515
:1053A00011F40C94B73A0E940E12162F072FF82E04
:1053B000E92E84E493E00E94F0119B01AC0180E4AB
:1053C00093E02DAB3EAB4FAB58AF0E94F011EF9284
:1053D000FF920F931F9340EFA42E43E2B42E44E7B5
:1053E000C42E49E4D42E860175012DA93EA94FA9EA
:1053F00058AD0E94299A20E041E060E081E00E94DF
:105400000AA36B017C0120E041E060E081E00E94A2
:105410000AA369AB7AAB8BAB9CAB9B01AC01C70118
:10542000B6010E94A0AC4B015C010F900F900F9051
:105430000F902DEC3CEC4CEC5DE30E9439AF18165C
:1054400054F02DEC3CEC4CEC5DEBC501B4010E943A
:1054500005AD87FF3EC049895A896B897C8989E2FD
:1054600099E00E94F43E29893A894B895C89283267
:1054700031054105510534F582E30E94AA17B301B5
:10548000A2018BE099E00E94F43E642D82E30E9429
:105490008717642D8AE30E94871782E30E94AA1768
:1054A000F2E04F0E511C611C711C29893A894B890D
:1054B0005C892E5F3F4F4F4F5F4F298B3A8B4B8B51
:1054C0005C8B30CE88EF98E00E94E53D80EE98E05E
:1054D0004BCF2DA13EA14FA158A569A17AA18BA1C7
:1054E0009CA10E94A1AC20E030E040E05FE30E947C
:1054F000ADAF20E030E040EA52E40E94ADAF20E0E2
:1055000030E048EC54E40E94A0AC0E94A5AD4B01F1
:105510005C018D899E89AA2797FDA095BA2F8D8B56
:105520009E8BAF8BB88F2DA53EA54FA558A969A519
:105530007AA58BA59CA50E94A1AC20E030E040E0BC
:105540005FE30E94ADAF20E030E040EA52E40E9409
:10555000ADAF20E030E048EC54E40E94A0AC0E94E3
:10556000A5AD2B013C012D8D3E8D442737FD409587
:10557000542F2D8F3E8F4F8F58A329A93AA94BA99D
:105580005CA9C701B6010E94A1AC20E030E040E078
:105590005FE30E94ADAF20E030E040EA52E40E94B9
:1055A000ADAF20E030E048EC54E40E94A0AC0E9493
:1055B000A5AD6B017C0181E893E00E941AB59C01C6
:1055C000442737FD4095542F29A33AA34BA35CA34E
:1055D00080E00E947B950E947A8985EC91E10E948F
:1055E000FC3D4091CF175091D0176091D117709129
:1055F000D21722E080E391E10E94CE3F898D9A8DFF
:10560000AB8DBC8D8093C7179093C817A093C91713
:10561000B093CA1784149504A604B70414F58C1427
:105620009D04AE04BF040CF042C0481859086A0833
:105630007B082D8D3E8D4F8D58A1420E531E641E4A
:10564000751EC818D908EA08FB0889A19AA1ABA160
:10565000BCA1C80ED91EEA1EFB1E812C912C540140
:1056600052C0481459046A047B040CF54C145D04C0
:105670006E047F04E4F484189508A608B7082D8901
:105680003E894F89588D820E931EA41EB51EC418E4
:10569000D508E608F70889A19AA1ABA1BCA1C80E5C
:1056A000D91EEA1EFB1E412C512C320125C0C81404
:1056B000D904EA04FB0404F5C414D504E604F70491
:1056C000DCF48C189D08AE08BF082D893E894F89EF
:1056D000588D820E931EA41EB51E4C185D086E08D0
:1056E0007F088D8D9E8DAF8DB8A1480E591E6A1E04
:1056F0007B1EC12CD12C760191E9891691E0990687
:10570000A104B10474F4A1E94A16A1E05A066104A7
:1057100071043CF4B1E9CB16B1E0DB06E104F1041D
:10572000DCF049895A896B897C898EEB98E00E946C
:10573000F43EB501A4018AEB98E00E94F43EB30167
:10574000A20186EB98E00E94F43EB701A60182EB2D
:1057500098E00E94F43E0CC0C4010E945612C2019F
:105760000E947612C6010E94961280E00E94564363
:1057700081E00E947B95298D3A8D4B8D5C8D209325
:10578000C7173093C8174093C9175093CA178DEAAB
:1057900098E00E94D91288EA91E10E942D60212CA4
:1057A000312C80913B1890913C18A0913D18B091FC
:1057B0003E18898B9A8BAB8BBC8B80E00E94564342
:1057C0000E94A34581E00E94529C41E061E081E09B
:1057D0000E946C9C80E00E94529C89EA91E10E94A8
:1057E0002D600E940E129F938F937F936F9330EFE3
:1057F000A32E33E2B32E34E7C32E39E4D32E860131
:10580000750120E030E0A901CA01B9010E94299A7E
:1058100020E041E060E081E00E940AA36B017C018E
:1058200020E041E060E081E00E940AA34B015C01BE
:105830009B01AC01C701B6010E94A0AC2B013C0149
:105840000F900F900F900F902DEC3CEC4CEC5DE323
:105850000E9439AF181654F02DEC3CEC4CEC5DEB8B
:10586000C301B2010E9405AD87FF2BC04D855E8547
:105870006F8578898EE798E00E94F43E2D853E85FD
:105880004F85588928323105410551059CF482E342
:105890000E94AA178D859E85AF85B8890296A11DA5
:1058A000B11D8D879E87AF87B88BAC01BD0180E6A7
:1058B00098E0CFC08DE498E00E94E53D85E398E054
:1058C000E1C09FEF291A390AA5019401C701B60169
:1058D0000E94A1AC20E030E040E05FE30E94ADAF69
:1058E0002B013C014091CF175091D0176091D117F7
:1058F0007091D21722E087E298E00E94CE3F20917B
:10590000BD183091BE184091BF185091C018C30106
:10591000B2010E94A0AC9B01AC016091CF177091C5
:10592000D0178091D1179091D2170E94A1AC6093AB
:10593000CF177093D0178093D1179093D2170E94EE
:105940007A894091CF175091D0176091D1177091FB
:10595000D21722E089E198E00E94CE3F0E940E1209
:10596000162F072FF82EE92E84E493E00E94F01101
:105970009B01AC0180E493E02DAB3EAB4FAB58AF45
:105980000E94F011EF92FF920F931F9320EFA22E2F
:1059900023E2B22E24E7C22E29E4D22E860175011D
:1059A0002DA93EA94FA958AD0E94299A20E041E0B7
:1059B00060E081E00E940AA36B017C0120E041E0ED
:1059C00060E081E00E940AA36D8B7E8B8F8B988FA5
:1059D0009B01AC01C701B6010E94A0AC4B015C0168
:1059E0000F900F900F900F902DEC3CEC4CEC5DE382
:1059F0000E9439AF181654F02DEC3CEC4CEC5DEBEA
:105A0000C501B4010E9405AD87FF43C04D855E8589
:105A10006F8578898AEE97E00E94F43E2D853E8559
:105A20004F85588928323105410551052CF582E30F
:105A30000E94AA178D859E85AF85B8890296A11D03
:105A4000B11D8D879E87AF87B88BAC01BD018CECF3
:105A500097E00E94F43E6D8582E30E9487176D8572
:105A60008AE30E94871782E30E94AA17B4E02B16EC
:105A700031040CF496CEEBC089EB97E00E94E53D33
:105A800081EA97E00E942D6080E491E10E94063E49
:105A9000DEC02D893E894F89588DC701B6010E940D
:105AA000A1AC20E030E040E05FE30E94ADAF9B019D
:105AB000AC01C301B2010E94A0AC20E030E040EA9A
:105AC00052E40E94ADAF6B017C0120E030E0A901FF
:105AD0000E9405AD87FF27C0C701B60190582091ED
