:100000000C94321C0C94631C0C94631C0C94631CA5
:100010000C94631C0C94631C0C94631C0C94631C64
:100020000C94631C0C94631C0C94631C0C94631C54
:100030000C94631C0D9484040C94631C0C94631C3A
:100040000C94631C0C9452740C94631C0C94631CED
:100050000C94631C0C94C3750C94F5740C9472FE90
:100060000C94631C0C941B760C9445760C94631CC6
:100070000C94631C0C94631C0C94631C0C94631C04
:100080000C94631C0C94631C0C94631C0C94631CF4
:100090000C94631C0C94631C0C94631C0C9444FD22
:1000A0000C94631C0C94631C0C94631C0C94631CD4
:1000B0000C94631C0C94631C0C94631C0C94631CC4
:1000C0000C94631C0C94631C0C94631C0C94631CB4
:1000D0000C94631C0C94631C0C94631C0C94631CA4
:1000E0000C94631C936DAB6DAB6DAB6DAB6DAB6D79
:1000F000AB6DAB6DAB6DAB6DAB6DAB6DAB6DAB6D40
:10010000AB6DAB6DAB6DAB6DAB6DAB6DAB6DAB6D2F
:10011000AB6DAB6DAB6DAB6D826D346D3E6DB86C20
:10012000AB6D646D6E6DAB6DAB6DC96CA66CAB6D7C
:100130005A6DAB6D786D506D486DAB6DAB6DAB6D41
:10014000166D206D2A6DAB6DAB6DAB6DAB6DAB6D90
:10015000AB6DAB6DAB6DAB6D826D346D3E6DB86CE0
:10016000AB6D646D6E6DAB6DAB6DC96CA66CAB6D3C
:100170005A6DAB6D786D506D486DAB6DAB6DAB6D01
:10018000166D206D2A6D53E4DCE46FE5A0E6DDF327
:10019000DDF3DDF3DDF3DDF3DDF3DDF3DDF3DDF3DF
:1001A00000E634E66AE6DDF3DDF3DDF3DDF3DDF3EF
:1001B000DDF3DDF3DDF3DDF3DDF3DDF382E9E4E927
:1001C00044EAA4EA04EB64EBC4EBDDF3A4EF2FEC08
:1001D0008CECE9EC46EDA3ED00EE5DEECAEE37EFF8
:1001E000DDF3DDF3DDF3DDF3DDF305E8D2E828E848
:1001F000ECEF1BF083F0ECF003F13BF16AF199F1C5
:10020000EEF145F29AF2F3F212F31AF1DDF3DDF3B7
:10021000DDF3DDF3DDF3DDF3DDF3DDF3DDF3DDF35E
:10022000DDF3DDF3DDF3D4E7DDF3DDF3DDF3DDF363
:10023000DDF3DDF3DDF3DDF389F3DDF3A1E8DDF3D9
:10024000DDF3DDF339F362F3DDF3DDF3DDF3DDF34D
:1002500046E4DDF3DDF3E3E679E7B7E72AE9A0FF5B
:10026000A5FFAAFFB4FFBEFFA401C8FFD0FFD8FFBF
:10027000E2FFECFFF6FFA2019E01A4019C019001A8
:10028000A0018E0186017E018C0188017A0198010E
:10029000940182018401760196019A0192017A010A
:1002A00078017C018A0107634236B79BD8A71A39C7
:1002B000685618AEBAAB558C1D3CB7CC5763BD6DB4
:1002C000EDFD753EF6177231BF000000803F05A8B6
:1002D0004CCDB2D44EB93836A9020C50B9918688AB
:1002E000083CA6AAAA2ABE000000803F0D94720016
:1002F0000D9486000D9493000D948A000D944B008C
:100300000D9438010D946A000D946E000D945C00FC
:100310000D9455000D948E000D944F000D945900CE
:100320000D9423000D9480000D9464000D947800CA
:100330000D9460000D947C000D9419000D940F0035
:100340000D942D000D9405000D943700436F6C64DF
:1003500020657874727573696F6E20646973616C5F
:100360006C6F77656400436F6C6420657874727598
:1003700073696F6E20616C6C6F7765640041757492
:100380006F726574726163743A0053657474696E58
:1003900067206D6F746F722063757272656E742E54
:1003A0002E2E00536574204D6963726F73746570EF
:1003B00070696E670054726967676572696E67205D
:1003C0007761746368646F672E2049662061637487
:1003D0006976617465642C20746865207072696E3A
:1003E0007465722077696C6C2072657365742E0079
:1003F00053657474696E67205468726573686F6CB6
:100400006420546F3A00494E542050494E3A20001F
:100410004D323531200020746F20005365742076F2
:100420006F6C756D6574726963206578747275732D
:10043000696F6E20666F722065787472756465727C
:10044000200044697361626C656420766F6C756D21
:10045000657472696320657874727573696F6E2054
:10046000666F7220657874727564657220004D3114
:100470003134200048656174696E67204578747274
:10048000756465720050696E2063616E206E6F74D2
:1004900020626520736574206279204D34322C20EF
:1004A0006D617920696E20696E76616C6964206F78
:1004B0007220696E207573652E2000496C6C65672B
:1004C000616C20532076616C756520666F72204DDB
:1004D0003432005A2028432920746F7765722066D1
:1004E0006C6F6F722073657420746F3A200059200E
:1004F00028422920746F77657220666C6F6F7220B6
:1005000073657420746F3A200058202841292074A4
:100510006F77657220666C6F6F72207365742074DC
:100520006F3A2000526F64205261646975732073C2
:10053000657420746F3A2000473133342000506FC7
:100540007346726F6D53746570733A00436F6D70CC
:1005500044656C74613A0043616C696272617469EC
:100560006F6E206D6F76656D656E74206973206C9B
:10057000696D6974656420746F2031306D6D2E0073
:100580004669727374206D6F766520746F20746F86
:1005900075636820617420782C793D302C3020748C
:1005A0006F206175746F2D73657420726164697555
:1005B000732E0043616C6962726174696F6E206DA5
:1005C0006F76656D656E74206973206C696D6974F2
:1005D000656420746F2031306D6D2E0043616E6E46
:1005E0006F74207365742072616469757320616E25
:1005F0006420666C6F6F722061742073616D65207A
:1006000074696D652E0043616C6962726174696F13
:100610006E20636F6465206973206C696D69746511
:100620006420746F20626F74746F6D2031302520E8
:100630006F66205A206865696768740052656C614E
:100640007469766520706F736974696F6E696E671F
:10065000004162736F6C75746520706F73697469A3
:100660006F6E696E670047363920005A3A2000598C
:100670003A2000583A20004F464653455453204FE5
:10068000464620425920544F4F204D554348205F45
:1006900020545259494E4720414741494E3A200083
:1006A00053657474696E672050726F62652053657C
:1006B0006E736974697669747920546F3A005A20B0
:1006C00070726F6265206661696C6564206F6E2070
:1006D00073656E73697469766974793A200053653D
:1006E0007474696E672050726F62652053656E7313
:1006F0006974697669747920546F3A005A2070726F
:100700006F6265206661696C6564206F6E20736539
:100710006E73697469766974793A200053657474EC
:10072000696E672050726F62652053656E736974DD
:10073000697669747920546F3A005A2070726F623A
:1007400065206661696C6564206F6E2073656E73E9
:10075000697469766974793A200068656865004E45
:100760006577205261646975733A20004F6C64208C
:100770005261646975733A200043616C63756C6102
:1007800074656420526164697573206973206261C5
:1007900064203A0053657474696E672050726F620A
:1007A000652053656E736974697669747920546F36
:1007B0003A005A2070726F6265206661696C6564E8
:1007C000206F6E2073656E73697469766974793A07
:1007D000200053657474696E672050726F626520E3
:1007E00053656E736974697669747920546F3A0041
:1007F0005A2070726F6265206661696C6564206F53
:100800006E2073656E73697469766974793A200035
:10081000473332200050524F42452D5A4F464653DF
:1008200045543A004733300053657474696E67204D
:1008300050726F62652053656E736974697669746E
:100840007920546F3A0050726F62657320646F2094
:100850006E6F74206D617463682E204F666620622F
:10086000792000202D2050524F4245204F464653BC
:1008700045543A00506F696E7420004733302000B1
:100880004D3131372043414C4942524154494F4E3A
:1008900020434F4D504C4554450068656865004EF7
:1008A000657720486F72697A6F6E74616C2052614F
:1008B000646975733A20004F6C6420486F72697ADE
:1008C0006F6E74616C205261646975733A200043E5
:1008D000616C63756C6174656420526164697573E1
:1008E000206973206261643A20004D313137204322
:1008F000414C4942524154494F4E204641494C4592
:10090000440043616C6962726174696F6E20466174
:10091000696C65640053657474696E672050726F0A
:1009200062652053656E73697469766974792054C1
:100930006F3A005A2070726F6265202843656E74AA
:10094000657220506F696E7429206661696C6564F8
:10095000206F6E2073656E73697469766974793A75
:1009600020004E6577205A204865696768743A0010
:100970004F6C64205A204865696768743A004D31AD
:1009800031372043414C4942524154494F4E204651
:1009900041494C45440043616C6962726174696FFE
:1009A0006E204661696C65640053657474696E6796
:1009B0002050726F62652053656E73697469766941
:1009C000747920546F3A005A2070726F6265202843
:1009D00043656E74657220506F696E74292066617C
:1009E000696C6564206F6E2073656E7369746976D7
:1009F0006974793A200047363920005A3A20005964
:100A00003A2000583A20004F464653455453204F51
:100A1000464620425920544F4F204D5543482E20E2
:100A200041626F7274696E67004D31313720434106
:100A30004C4942524154494F4E204641494C45444D
:100A40000043616C6962726174696F6E204661690E
:100A50006C65640053657474696E672050726F62D0
:100A6000652053656E736974697669747920546F73
:100A70003A005A2070726F626520285A20546F77AE
:100A8000657229206661696C6564206F6E207365EC
:100A90006E73697469766974793A20004D31313723
:100AA0002043414C4942524154494F4E204641490E
:100AB0004C45440043616C6962726174696F6E20D9
:100AC0004661696C65640053657474696E67205093
:100AD000726F62652053656E7369746976697479A3
:100AE00020546F3A005A2070726F62652028592096
:100AF000546F77657229206661696C6564206F6E3A
:100B00002073656E73697469766974793A20004D53
:100B10003131372043414C4942524154494F4E20D4
:100B20004641494C45440043616C69627261746995
:100B30006F6E204661696C65640053657474696EFC
:100B4000672050726F62652053656E7369746976B1
:100B500069747920546F3A005A2070726F62652070
:100B6000285820546F77657229206661696C656426
:100B7000206F6E2073656E73697469766974793A53
:100B80002000473420533130004D31303420533071
:100B90000A4D3134302053300A4D313037006578FA
:100BA000656375746547436F6465202F20717565B3
:100BB000756544656C74614D6F76652072657475FA
:100BC000726E73206572726F720069697332646845
:100BD00020616363656C65726F6D65746572206911
:100BE0006E697469616C697A696E672E2E2E006178
:100BF0006363656C65726F6D6574657220693263DD
:100C00002072656376206572726F722E00207661A5
:100C10006C75653A2000726561642072656720001A
:100C2000616363656C65726F6D6574657220777260
:100C300069746520693263206572726F722E00617B
:100C40006363656C65726F6D657465722073656E44
:100C50006420693263206572726F722E0000000199
:100C600000250030001D000C001E00240031001C77
:100C7000000B00180023002F001B000A0017000DB6
:100C80000047000300040022002B001A004100422C
:100C900000000002003500457874722E00436F6E2C
:100CA0006669673A004F6E652068656174657220F9
:100CB0007365656D73206465636F75706C65642022
:100CC00066726F6D20746865726D6973746F7220DF
:100CD0002D2064697361626C696E6720616C6C20A1
:100CE000666F72207361666574792100486561746E
:100CF0006572206465636F75706C6564004372652E
:100D00006174696F6E206661696C65640044697224
:100D10006563746F72792063726561746564004401
:100D2000656C6574696F6E206661696C6564004608
:100D3000696C652064656C6574656400446F6E65FC
:100D400020736176696E672066696C652E00577244
:100D50006974696E6720746F2066696C653A20005B
:100D60006F70656E206661696C65642C2046696CE5
:100D7000653A20004E6F74205344207072696E747F
:100D8000696E67005344207072696E74696E6720E3
:100D900062797465200066696C652E6F70656E20DF
:100DA0006661696C65640046696C652073656C6595
:100DB00063746564002053697A653A0046696C651E
:100DC000206F70656E65643A00456E642066696CDC
:100DD00065206C69737400426567696E2066696C92
:100DE00065206C697374006572726F722077726926
:100DF00074696E6720746F2066696C6500534420C7
:100E0000696E6974206661696C00616476616E6305
:100E100065204C205B303D6F66665D0065787472BE
:100E20007564657220636F6F6C65722073706565A1
:100E300064205B302D3235355D0064697374616EFA
:100E4000636520746F2072657472616374207768C3
:100E5000656E2068656174696E67205B6D6D5D000D
:100E600074656D702E20666F722072657472616396
:100E700074696F6E207768656E2068656174696E4D
:100E800067205B435D0074656D702E207374616232
:100E9000696C697A652074696D65205B735D0059C2
:100EA0002D6F6666736574205B73746570735D0087
:100EB000582D6F6666736574205B73746570735D1F
:100EC00000504944206D61782076616C7565205B27
:100ED000302D3235355D0050494420442D6761691D
:100EE0006E0050494420492D6761696E00504944A5
:100EF00020502D6761696E2F646561642D74696D82
:100F00006500504944206472697665206D696E0001
:100F1000504944206472697665206D617800686587
:100F20006174206D616E61676572205B302D335D89
:100F300000616363656C65726174696F6E205B6DDF
:100F40006D2F735E325D0073746172742066656527
:100F50006472617465205B6D6D2F735D006D6178E7
:100F60002E206665656472617465205B6D6D2F73FC
:100F70005D00737465707320706572206D6D004341
:100F80006F72722E20646961676F6E616C204320FE
:100F90005B6D6D5D00436F72722E20646961676FD7
:100FA0006E616C2042205B6D6D5D00436F72722E2E
:100FB00020646961676F6E616C2041205B6D6D5DBF
:100FC000004D6178207072696E7461626C65207288
:100FD0006164697573205B6D6D5D00546F77657238
:100FE000205A20656E6473746F70206F6666736537
:100FF00074205B73746570735D00546F7765722045
:101000005920656E6473746F70206F6666736574C3
:10101000205B73746570735D00546F776572205840
:1010200020656E6473746F70206F666673657420DC
:101030005B73746570735D005365676D656E747383
:101040002F7320666F722074726176656C00536531
:10105000676D656E74732F7320666F72207072698E
:101060006E74696E6700486F72697A6F6E74616C36
:1010700020726F642072616469757320617420301E
:101080002C30205B6D6D5D00446961676F6E616C33
:1010900020726F64206C656E677468205B6D6D5D97
:1010A00000486F6D696E672066656564726174657E
:1010B000205B6D6D2F735D004D61782E2066656538
:1010C0006472617465205B6D6D2F735D0053746590
:1010D000707320706572206D6D0054726176656C5E
:1010E00020616363656C65726174696F6E205B6D0E
:1010F0006D2F735E325D00416363656C6572617470
:10110000696F6E205B6D6D2F735E325D004D61788F
:101110002E206A65726B205B6D6D2F735D005A2007
:101120006D6178206C656E677468205B6D6D5D0025
:1011300059206D6178206C656E677468205B6D6DF9
:101140005D0058206D6178206C656E677468205B67
:101150006D6D5D005A20686F6D6520706F73205B48
:101160006D6D5D005920686F6D6520706F73205B39
:101170006D6D5D005820686F6D6520706F73205B2A
:101180006D6D5D0053746F7020737465707065725F
:1011900020616674657220696E6163746976697432
:1011A00079205B6D732C303D6F66665D004D617814
:1011B0002E20696E6163746976652074696D65209F
:1011C0005B6D732C303D6F66665D005072696E74A6
:1011D000657220616374697665205B735D004669A2
:1011E0006C616D656E74207072696E746564205BED
:1011F0006D5D00416476616E636564205573657250
:10120000004261756472617465004550523A332042
:10121000004550523A3220004550523A31200045A4
:1012200050523A30200050726F746F636F6C2076AA
:10123000657273696F6E206368616E6765642C20E8
:10124000757067726164696E6700436F6E66696787
:1012500075726174696F6E20726573657420746F46
:101260002064656661756C74732E00436F6E6669E9
:101270006775726174696F6E206C6F61646564205C
:1012800066726F6D20454550524F4D2E00436F6E74
:1012900066696775726174696F6E2073746F7265C9
:1012A0006420746F20454550524F4D2E0041757497
:1012B0006F6C6576656C2061637469766520283192
:1012C0002F3029005A2D70726F6265205933005AF1
:1012D0002D70726F6265205833005A2D70726F62E4
:1012E00065205932005A2D70726F626520583200A5
:1012F0005A2D70726F6265205931005A2D70726FCD
:101300006265205831005A2D70726F626520782D09
:10131000792D7370656564205B6D6D2F735D005A68
:101320002D70726F6265207370656564205B6D6DF2
:101330002F735D005A2D70726F6265206F66667341
:1013400065742079205B6D6D5D005A2D70726F623F
:1013500065206F66667365742078205B6D6D5D0037
:101360004D61782E207A2D70726F6265202D20627B
:10137000656420646973742E205B6D6D5D005A2D69
:1013800070726F626520686569676874205B6D6D57
:101390005D0077616974005072696E7465722068CF
:1013A00065696768743A005A2D70726F62652066CD
:1013B00061696C6564005472616E73666F726D6111
:1013C00074696F6E206D61747269783A004175744A
:1013D0006F6C6576656C696E672064697361626CB9
:1013E0006564004175746F6C6576656C696E672025
:1013F000656E61626C6564004175746F6C657665DD
:101400006C206D6174726978207265736574000078
:101410004732382F6E47315A32352F6E005A2D70B1
:10142000726F62652073746174653A00526573650A
:1014300074205A20686569676874005A2D70726F4D
:1014400062652061766572616765206865696768B5
:10145000743A002053746570205661726961746932
:101460006F6E2066726F6D2050726F626520746FB0
:10147000206265642044697374616E63653A005A42
:101480002D70726F62653A005072696E74657220D9
:1014900073657420696E746F206472792072756E42
:1014A000206D6F646520756E74696C20726573744D
:1014B00061727421003A20776F726B696E67003A2F
:1014C0002074656D702073656E736F72206465663D
:1014D00065637400657874727564657220004D549C
:1014E000454D503A00504944204175746F74756EF3
:1014F000652066696E6973686564202120506C619F
:10150000636520746865204B702C204B6920616EE8
:1015100064204B6420636F6E7374616E7473206912
:101520006E2074686520436F6E66696775726174BA
:10153000696F6E2E68206F7220454550524F4D00E6
:10154000504944204175746F74756E6520666169F9
:101550006C6564212074696D656F75740050494431
:10156000204175746F74756E65206661696C656481
:10157000212054656D706572617475726520746F99
:10158000206869676800204B643A2000204B693A64
:101590002000204B703A200020436C617373696314
:1015A00020504944002054753A2000204B753A20C1
:1015B00000206D61783A2000206D696E3A2000208D
:1015C000643A200020626961733A20005049442047
:1015D0004175746F74756E65207374617274005414
:1015E000617267657445787472004E6F206D6F7616
:1015F0006520696E2064656C7461207365676D6534
:101600006E742077697468203E2031207365676DA1
:10161000656E742E20546869732073686F756C64EE
:10162000206E657665722068617070656E20616EEF
:1016300064206D617920636175736520612070722B
:101640006F626C656D210044656C74612052616449
:1016500069757320432830293A0044656C74612011
:1016600052616469757320422830293A0044656CE0
:1016700074612052616469757320412830293A00F1
:10168000416C7068612043283930293A00416C7000
:101690006861204228333330293A00416C70686118
:1016A000204128323130293A00546F776572203357
:1016B0003A00546F77657220323A00546F77657242
:1016C00020313A00496E76616C69642064656C74FF
:1016D0006120636F6F7264696E617465202D206D87
:1016E0006F76652069676E6F726564006C696E6500
:1016F0006172204C3A00454550524F4D2075706440
:1017000061746564002C2073706565643D00206C15
:10171000696E6561722073746570733A004A657210
:101720006B3A007A5F6D61783A00795F6D61783A63
:1017300000785F6D61783A004C20004820002069F5
:1017400073200020746F2000536574206F757470CF
:1017500075743A20004D53312C4D53322050696E30
:10176000730045313A0045303A005A3A00593A0080
:1017700020002C00206D696E0020686F7572732048
:1017800000206461797320006D20005072696E74CE
:10179000696E672074696D653A005072696E746590
:1017A000642066696C616D656E743A0046616E73A3
:1017B000706565643A00482E205261646975733A19
:1017C00000466C6F774D756C7469706C793A005394
:1017D000706565644D756C7469706C793A00202F82
:1017E000002F003A0020403A00543A0020453A00C9
:1017F000205A3A0020593A0020583A00583A0046F8
:101800007265652052414D3A00556E6B6E6F776E72
:1018100020636F6D6D616E643A00536F667477611B
:101820007265205265736574005761746368646FF4
:10183000672052657365740042726F776E206F7512
:10184000742052657365740045787465726E616CBE
:1018500020526573657400506F7765725570007320
:101860007461727400424C4B2000736B69702000ED
:1018700020676F7420004572726F723A65787065E8
:1018800063746564206C696E652000534420726542
:101890006164206572726F7200205200204A00203D
:1018A0004900205000205300204600204500205AC7
:1018B00000205900205800446F6E65207072696ED8
:1018C00074696E672066696C6500466F726D61743D
:1018D000206572726F720057726F6E672063686561
:1018E000636B73756D004563686F3A00526573658D
:1018F0006E643A005761726E696E673A00496E66AF
:101900006F3A004572726F723A00494E46004E417E
:101910004E006F6B004649524D574152455F4E4154
:101920004D453A52657065746965725F302E393283
:101930002E32204649524D574152455F444154454D
:101940003A3230313730313330204D414348494EFF
:10195000455F545950453A4861636B65722048327F
:101960002000206465672E204300206D656173753B
:1019700072656420004572726F723A436F756C64D1
:10198000206E6F7420686F6C642074656D70657272
:1019900061747572652000206D7300206166746546
:1019A0007220004572726F723A54656D702E20720B
:1019B000616973656420746F20736C6F772E205299
:1019C000697365203D20004739310A4731452D3183
:1019D000383046363030300A473930004D313137F3
:1019E00020457874727564657220300A54300A4D4F
:1019F00038342050340A4739310A473145313733BA
:101A000046363030300A47314535463530300A47A2
:101A10003930001C151C140000002243141F1F271E
:101A20001ED31D631D131D0000000000008B1C7FD2
:101A30001B2F1BB31A371A0400081D900058091CED
:101A400001B007A801C80634023006C002C0054C28
:101A5000036805D80318056404D004F00498047CD6
:101A600005600408063004940600042007D003AC87
:101A700007A80338088003C408580350093003DC62
:101A8000090803680AD802F40AB002800B88020C25
:101A90000C6002980C3002240DF801B00DC0013C1E
:101AA0000E8001C80E3001540FB800B40F2800E0BA
:101AB0000F00000400401D900060091C01B007A841
:101AC00001D00634023806C002C8054C036805D8A8
:101AD0000318056404D804F00498047C0560040825
:101AE000063004940600042007D003AC07A803388E
:101AF000088003C408580350093003DC0908036850
:101B00000AE002F40AB802800B88020C0C6002980A
:101B10000C3002240DF801B00DC0013C0E8001C84C
:101B20000E3001540FB800B40F2800E00F0000047D
:101B3000000016D800C006AC0178058002C004542D
:101B40000348042804E803FC049803D0055003A4C8
:101B50000618037807D8024C08A80220097002F47E
:101B6000093802C80A08029C0BD001700C9001448D
:101B70000D5001180EF800EC0E8800C00F00000494
:101B800000681D4C00500B94005809DC00500824DC
:101B900001A8076C012807B401C006FC01700644C7
:101BA0000228068C02F005D402B8051C03880564DF
:101BB000035805AC033005F40310053C04E8048425
:101BC00004C804CC04A804140590045C057004A4A3
:101BD000055804EC053804340620047C060804C4C7
:101BE00006F0030C07D8035407C8039C07B003E4AE
:101BF0000798032C08800374087003BC085803047A
:101C00000948034C09300394091803DC090803242C
:101C10000AF0026C0AE002B40AC802FC0AB00244EC
:101C20000BA0028C0B8802D40B70021C0C580264AF
:101C30000C4002AC0C2802F40C10023C0DF00184A4
:101C40000DD801CC0DB801140E98015C0E7001A4E2
:101C50000E4801EC0E1801340FD8007C0F8800C428
:101C60000F0800FC0F000000000000000000000052
:101C70000000000000000000000000000000000064
:101C800000000000000000000000000000401F45B0
:101C90000060094F0010095C00C0086B0070087DEF
:101CA0000020089200D007AC008007CC003007DE8F
:101CB00000E006230190065E014006A601F005FF44
:101CC00001A0056D025005F30200059603B0045A09
:101CD000046004400510044806C0036E077003A8A2
:101CE000082003EB09D002230B8002410C3002399B
:101CF0000DE001040E9001A20E4001170FF00069E3
:101D00000FA000A20F5000C60F0000DD0FB0FFEBC8
:101D10000F60FF0400700DD8004804AC0158038028
:101D200002D8025403800228043802FC040002D0C6
:101D300005C801A4069801780770014C08480120E5
:101D4000091801F409F000C80AC8009C0BA0007033
:101D50000C7000440D3800180E0000EC0EA8FFC0F7
:101D60000FE8FE0400001B540060096400100974B1
:101D700000C008840070089C002008B800D007D874
:101D8000008007000130072C01E00668019006ACD6
:101D90000140060002F0056802A005E0025005744B
:101DA0000300052404B004F0046004DC051004E41E
:101DB00006C0030408700330092003780B8002601A
:101DC0000DE001A80E4001680FA000C00F0000E860
:101DD0000F60FF0400801AD8009808AC012007802B
:101DE0000250065403C80528045805FC040005D019
:101DF00005B004A4066804780728044C08E803200A
:101E000009B003F4097003C80A38039C0BF8027088
:101E10000CB002440D6802180E0802EC0E8801C0D6
:101E20000F8800F00F00000000A00F5C006009693F
:101E30000010097900C0088C007008A2002008BDBD
:101E400000D007DE008007050130073401E0066D91
:101E5000019006B20140060702F0056D02A005E8F8
:101E60000250057B0300052B04B004F8046004EB6A
:101E700006C003350920037F0B8002650DE001B029
:101E80000E40011D0FF000480FC8006C0FA000EDC0
:101E90000F60FFFE0F48FE005344206572726F72A0
:101EA000206669786564005344206572726F722001
:101EB000646964206E6F74207265636F7665722149
:101EC0000053442052656164204572726F720000B5
:101ED00000000000000000000000000000000024DE
:101EE000F403D950C38EB1C2A23D96828B358212C3
:101EF0007AE372816CCB66A861015DC758EB5461CF
:101F000051204E1E4B5648C14559431A41013F09C5
:101F10003D2F3B7139CD374036C93465331432D447
:101F200030A32F802E6B2D632C672B752A8E29B042
:101F300028DC2710274B268F25D9242B248223E049
:101F4000224322AC211A218D200420801F001F84EF
:101F50001E0C1E971D261DB81C4E1CE61B821B2046
:101F60001BC11A641A0A1AB2195D190A19B9186A3A
:101F7000181C18D11788174017FA16B516731631A2
:101F800016F115B31576153A150015C7148F1458A8
:101F9000142214EE13BA13881356132513F612C71E
:101FA0001299126C1240121512EB11C11198117096
:101FB0001148112111FB10D610B1108D1069104677
:101FC0001024100210E10FC00FA00F800F610F420C
:101FD0000F230F060FE80ECB0EAF0E930E770E5C9D
:101FE0000E410E270E0D0EF30DDA0DC10DA80D904A
:101FF0000D780D600D490D320D1B0D050DEF0CD93F
:102000000CC30CAE0C990C850C700C5C0C480C3598
:102010000C210C0E0CFB0BE80BD60BC40BB20BA067
:102020000B8E0B7D0B6B0B5A0B4A0B390B290B18C4
:102030000B080BF80AE90AD90ACA0ABB0AAC0A9DBE
:102040000A8E0A800A710A630A550A470A390A2C5D
:102050000A1E0A110A040AF709EA09DD09D009C4AF
:1020600009B709AB099F09920987097B096F0963C1
:102070000958094C09410936092B09200915090A93
:10208000090009F508EB08E008D608CC08C208B832
:1020900008AE08A4089A08900887087D0874086BA1
:1020A00008610858084F0846083D0834082C0823E2
:1020B000081A08120809080108F807F007E807E0FD
:1020C00007D807D007C807C007B807B007A807A1F7
:1020D000070000420FA1071605D0030D038B022E47
:1020E00002E801B2018601630145012C01170104D8
:1020F00001F4005072696E746572205265616479F2
:10210000005072696E746572205265616479005086
:1021100072696E74657220526561647900207A3A42
:102120000020793A0020783A00696E207175657553
:102130006544656C74614D6F766520746F206361D2
:102140006C63756C61746544656C7461537562533E
:1021500065676D656E74732072657475726E732039
:102160006572726F722E00432068697420666C6F0E
:102170006F720043706F73207820737175617265A0
:10218000200043706F732078207374657073200093
:1021900043706F73207920737175617265200043FD
:1021A000706F73207920737465707320004220680B
:1021B000697420666C6F6F720042706F73207820B4
:1021C000737175617265200042706F73207820739F
:1021D00074657073200042706F732079207371757D
:1021E000617265200042706F73207920737465708E
:1021F000732000412068697420666C6F6F72004123
:10220000706F732078207371756172652000417062
:102210006F732078207374657073200041706F7342
:10222000207920737175617265200041706F732091
:102230007920737465707320006D6F766552656CDC
:10224000617469766544697374616E6365496E5340
:1022500074657073202F20717565756544656C74A5
:10226000614D6F76652072657475726E732065724C
:10227000726F72004D617854656D703A0044696107
:102280006D657465723A00416363656C6572617473
:10229000696F6E3A004D617853706565643A004A23
:1022A00065726B3A004D617842656454656D703AB1
:1022B000005072696E746572547970653A44656C49
:1022C0007461005A54726176656C416363656C3A5F
:1022D000005954726176656C416363656C3A0058CD
:1022E00054726176656C416363656C3A005A507252
:1022F000696E74416363656C3A00595072696E741B
:10230000416363656C3A00585072696E744163634F
:10231000656C3A005A53697A653A005953697A658F
:102320003A005853697A653A005A4D61783A005933
:102330004D61783A00584D61783A005A4D696E3ACD
:1023400000594D696E3A00584D696E3A004A6572FF
:102350006B58593A005072696E746C696E654361CE
:102360006368653A00454550524F4D3A00417574D7
:102370006F6C6576656C3A005A50726F62653A0010
:10238000436173654C69676874733A005375707084
:102390006F72744C6F63616C46696C616D656E74CD
:1023A0006368616E67653A00537570706F72744749
:1023B00031304731313A005A486F6D654469723A9D
:1023C0000059486F6D654469723A0058486F6D65F1
:1023D0004469723A00536F667477617265506F7723
:1023E00065725377697463683A004C43443A004617
:1023F000616E3A005344436172643A004865617407
:1024000065644265643A004D6978696E6745787421
:1024100072756465723A004E756D457874727564B4
:1024200065723A00496E7075744275666665723AF7
:102430000042617564726174653A004E6F20636199
:102440007365206C6967687473004D313134200006
:102450007A70726F62696E672E2E2E0064656C61F1
:1024600079203130306D732E00686F6D6541786969
:10247000732000686F6D6541786973202F20717536
:1024800065756544656C74614D6F76652072657421
:1024900075726E73206572726F7200486F6D652081
:1024A00044656C7461005072696E7465723A3A7377
:1024B0006574757020006D6F7665546F5265616C40
:1024C000202F20717565756544656C74614D6F765C
:1024D000652072657475726E73206572726F72001A
:1024E0006D6F7665546F202F207175657565446535
:1024F0006C74614D6F76652072657475726E7320B1
:102500006572726F720053746570706572204469F1
:102510007361626C6564004B696C6C65640069731F
:10252000506F736974696F6E416C6C6F776564206E
:102530000055706C6F6164696E672E2E2E0000531B
:1025400044207072696E742073746F7070656420BB
:10255000627920757365722E004739312F6E4731CD
:10256000205A2D31302E302045352E312046313540
:1025700030302F6E4739302F6E004739312F6E477C
:1025800031205A31302E3020452D352E3020463125
:102590003530302F6E4739302F6E00534420636141
:1025A000726420696E7365727465640053442043DD
:1025B00061726420696E73657274656400534420AF
:1025C000436172642072656D6F76656400534420C8
:1025D000636172642072656D6F766564000000212E
:1025E00010422063308440A550C660E770088129FE
:1025F000914AA16BB18CC1ADD1CEE1EFF131121096
:102600000273325222B5529442F772D6623993184D
:10261000837BB35AA3BDD39CC3FFF3DEE3622443A1
:102620003420040114E664C774A44485546AA54B9D
:10263000B528850995EEE5CFF5ACC58DD553367235
:102640002611163006D776F6669556B4465BB77AED
:10265000A719973887DFF7FEE79DD7BCC7C448E5C1
:10266000588668A7784008611802282338CCC9ED3D
:10267000D98EE9AFF9488969990AA92BB9F55AD4D5
:102680004AB77A966A711A500A333A122AFDDBDC8D
:10269000CBBFFB9EEB799B588B3BBB1AABA66C87E1
:1026A0007CE44CC55C222C033C600C411CAEED8FDD
:1026B000FDECCDCDDD2AAD0BBD688D499D977EB675
:1026C0006ED55EF44E133E322E511E700E9FFFBE2D
:1026D000EFDDDFFCCF1BBF3AAF599F788F8891A900
:1026E00081CAB1EBA10CD12DC14EF16FE18010A1D7
:1026F00000C230E3200450254046706760B98398DB
:1027000093FBA3DAB33DC31CD37FE35EF3B1029026
:1027100012F322D2323542145277625672EAB5CBA6
:10272000A5A89589856EF54FE52CD50DC5E234C376
:1027300024A01481046674476424540544DBA7FA7A
:10274000B79987B8975FE77EF71DC73CD7D326F2C6
:10275000369106B01657667676154634564CD96DC6
:10276000C90EF92FE9C899E9898AB9ABA944586516
:102770004806782768C018E1088238A3287DCB5C1A
:10278000DB3FEB1EFBF98BD89BBBAB9ABB754A5466
:102790005A376A167AF10AD01AB32A923A2EFD0FE6
:1027A000ED6CDD4DCDAABD8BADE89DC98D267C07B6
:1027B0006C645C454CA23C832CE01CC10C1FEF3EBA
:1027C000FF5DCF7CDF9BAFBABFD98FF89F176E3606
:1027D0007E554E745E932EB23ED10EF01E7C3C3E72
:1027E0005E2B3D3F2F5B5D3B2C2A225C00526571C6
:1027F0007565737450617573653A004D31313720DA
:10280000494E534552542053442043415244004DB5
:102810003131372053442043415244204552524FD6
:10282000520055495F414354494F4E5F5345545FF1
:102830004D454153555245445F4F524947494E20FB
:10284000004E6F20534420436172640053687574D6
:10285000204F666620414C4C2048656174730050DF
:102860007265686561742041425300507265686505
:10287000617420504C410055495F414354494F4ECB
:102880005F484F4D455F5A200055495F41435449C9
:102890004F4E5F484F4D455F59200055495F4143BA
:1028A00054494F4E5F484F4D455F58200055495F92
:1028B000414354494F4E5F484F4D45414C4C2000D9
:1028C00055495F414354494F4E5F5A504F53495405
:1028D000494F4E5F464153545F4E4F544553542029
:1028E0000055495F414354494F4E5F5A504F534939
:1028F00054494F4E5F4E4F54455354200055495F45
:10290000414354494F4E5F45504F534954494F4EF0
:10291000200055495F414354494F4E5F5A504F5331
:102920004954494F4E5F46415354200055495F4139
:102930004354494F4E5F59504F534954494F4E5F8E
:1029400046415354200055495F414354494F4E5F1F
:1029500058504F534954494F4E5F464153542000FD
:1029600055495F414354494F4E5F5A504F53495464
:10297000494F4E200055495F414354494F4E5F59DE
:10298000504F534954494F4E200055495F414354DD
:10299000494F4E5F58504F534954494F4E200042C3
:1029A000616E6742616E6700536C6F7742616E675C
:1029B00000446561642054696D650050494400001D
:1029C0003A002064617973200050657263656E740B
:1029D000205072696E7465643A0020646566200058
:1029E00046572044617465203230313730313330FE
:1029F000004861636B6572204832005365654D6520
:102A0000434E43004861636B6572204832008C3648
:102A10004236DA357D35416374696F6E3A256C61F3
:102A200000040003004E6F00596573004E2F4100F3
:102A30004F6666004F6E000000003FCDCC4C3D0A53
:102A4000D7A33B6F12033A526570657469657220B3
:102A50007620302E39322E3200004014548025006A
:102A60000040380000004B0000807000000096001D
:102A700000C0DA000000E10000002C010008B201F3
:102A80000000C2010000F401000084030090D003A4
:102A90000000E803000008070020A1070000100E56
:102AA0000040420F0060E3160000000000110A041D
:102AB00011040A1111001C1F11111F0000040A0A41
:102AC0000A0E1F1F0E001F1111111F0000001F1FF3
:102AD0001F1F1F0000040A040000000000040E1560
:102AE000041C0000000200000600EC2A0433522BF4
:102AF000D32F252B2630942B0200000700FF2A0439
:102B0000330D2BD32F252B26305E2F392B142B0280
:102B1000D43000005072696E74657220536574740D
:102B2000696E6773002C2B02C231000041646A7524
:102B300073742054656D707300402B026A2B000083
:102B4000416476616E6365642053657474696E6771
:102B50007300592B02ED3000005072696E7465727B
:102B60002053657474696E67730002000009007178
:102B70002B04337F2C6B2C5B2C4B2C832B342C1C89
:102B80002C942B8A2B02012F000044656275676725
:102B9000696E67009B2B02E531000043616C69623E
:102BA000726174696F6E204D656E750003102702A7
:102BB00000B32BBE2BB72BC52B0000000000D62B7B
:102BC00000000000006C6F6164656420662E204583
:102BD0004550524F4D00436F6E6669677572617460
:102BE000696F6E000310270200EB2BF62BEF2BFD15
:102BF0002B00000000000E2C000000000073746F1A
:102C000072656420696E20454550524F4D00436FF8
:102C10006E66696775726174696F6E00232C0307B5
:102C20000400004C6F61642066726F6D2045455052
:102C3000524F4D003B2C030604000053746F726525
:102C400020746F20454550524F4D00522C028E2C5F
:102C50000000457874727564657200622C02952ECE
:102C60000000466565647261746500722C02C12EB5
:102C70000000416363656C65726174696F6E008604
:102C80002C02E12D000047656E6572616C00020048
:102C9000001000952C0433CD2DB92DA72D962D8134
:102CA0002D522D6A2D3B2D282D142D032DF22CDDB8
:102CB0002CC82CB52CBC2C042F04000050494420F7
:102CC0004D61783A25584400CF2C04260400004476
:102CD00072697665204D61783A25584D00E42C04E0
:102CE000250400004472697665204D696E3A2558C6
:102CF0006D00F92C042404000050494420443A2576
:102D00005864000A2D042304000050494420493A25
:102D1000255869001B2D042204000044542F5049FB
:102D20004420503A255870002F2D042D04000043F4
:102D30006F6E74726F6C3A25586800422D04460419
:102D40000000416476616E6365206C696E3A2558B7
:102D50006C00592D044D0400005761697420556EB4
:102D60006974733A2558556D6D00712D044C04003B
:102D700000576169742054656D702E2558540243C4
:102D800000882D042E040000537461622E54696D76
:102D9000653A255877009D2D042A0400004163639D
:102DA000656C3A25584100AE2D042B0400004D619E
:102DB000782046523A25584600C02D042C040000C5
:102DC00053746172742046523A25586600D42D041B
:102DD0002904000053746570732F4D4D3A255365D7
:102DE000000200000400E82D04331D2E052EF02DF6
:102DF000F72D02312E00004D61782E20496E61635F
:102E000074697665000C2E02632E000053746570A1
:102E100070657220496E61637469766500242E04C2
:102E20001004000042617564726174653A256F6335
:102E3000000358040200382E432E3C2E4A2E000078
:102E4000000000542E00000000005B735D20303D48
:102E50004F6666004469732E2041667465723A2598
:102E600069700003200402006A2E752E6E2E7C2EDF
:102E70000000000000862E00000000005B735D2053
:102E8000303D4F6666004469732E2041667465725A
:102E90003A2569730002000003009C2E0433B22E11
:102EA000A22EA92E0413040000486F6D653A256612
:102EB0005A00B92E04160400004D61783A25667A4E
:102EC000000200000400C82E0433F02EE02ED02EA5
:102ED000D72E040E0400004A65726B3A25616A0021
:102EE000E72E040D0400004D6F76653A25615A0007
:102EF000F72E040A0400005072696E743A25617A54
:102F0000000200000500082F04334B2F382F252F17
:102F1000122F192F03350400004472792072756E48
:102F20003A256464002C2F03340400004572726F4C
:102F30007273203A256465003F2F03330400004973
:102F40006E666F2020203A25646900522F033204F8
:102F500000004563686F2020203A25646F00652FCC
:102F600002722F000053442043617264204D656E4D
:102F700075000200000600792F0433D32FC02FAA5A
:102F80002F982F852F8C2F03F403010244656C6565
:102F900074652066696C65009F2F02F22F02005352
:102FA000746F70205072696E7400B12F03F70304C0
:102FB00000436F6E74696E7565205072696E74009F
:102FC000C72F03F6030204506175736520507269C0
:102FD0006E7400DA2F03F503010253656C656374A8
:102FE0002053442046696C65000100000100F02F69
:102FF00004330200000300F92F14300A30FF2F06BB
:1030000030035424020059657300113003E80300B3
:10301000004E6F001B30010000000053746F7020E1
:103020005072696E74002D30023E30000041646AB7
:103030007573742046616E207370656564000200CC
:1030400000070045300433BC30A83093307E30692F
:103050003053305A30031E0400005365742046611B
:103060006E20313030252525007030031D0400000E
:103070005365742046616E2037352525250085303F
:10308000031C0400005365742046616E2035302512
:103090002525009A30031B04000053657420466107
:1030A0006E20323525252500AF30031A0408005460
:1030B00075726E2046616E204F666600C330045202
:1030C00004000046616E2073706565643A2546739E
:1030D000252525000200000A00DB300433393120A9
:1030E00031973184316A31F0325231AA3102000015
:1030F0000A00F430043339312031973184316A3198
:10310000F03208315231AA310F3103B20F000055AD
:103110006E6C6F636B2046756C6C204D656E750030
:1031200027310448040000466C6F772020526174F8
:10313000653A256F66252525004031041F040000EF
:10314000537065656420526174653A256F6D25255D
:1031500025005931034204001044697361626C65B3
:103160002053746570706572730071310338040008
:103170000053687574204F666620414C4C204865AA
:10318000617473008B3103470400005072656865F9
:10319000617420414253009E310337040000507295
:1031A000656865617420504C4100B13103360400FC
:1031B0000041545820706F776572206F6E2F6F66D4
:1031C00066000200000300C9310433CD31D431045C
:1031D0003D0400004E4F5A2054656D703A20202562
:1031E00045300243000200000600EC310433223275
:1031F000F831F032BA320E32FF31042104000048B7
:103200002E20526164697573203A256F680015326B
:1032100003AC0F0000536574205A204F7269676930
:103220006E002932023A32000046756C6C20436110
:103230006C6962726174696F6E0002000004004183
:10324000320433773262324932503203B10F000018
:10325000426567696E2043616C6962726174696F6F
:103260006E00693203B50F000042454420415245CB
:1032700020434C45414E007E3203B40F00004D41C7
:103280004B452053555245204E4F5A5A4C45202607
:1032900000020000060098320433F032DE32CC32F5
:1032A000BA32A432AB32021D330000457874722E5C
:1032B00020706F736974696F6E00C132027E3400D2
:1032C000005A20506F736974696F6E00D33202D355
:1032D0003400005920506F736974696F6E00E532D5
:1032E00002283500005820506F736974696F6E00B2
:1032F000F73203FD030000486F6D65205072696E60
:10330000746572000B3303E8030000507265766940
:103310006F75732053637265656E20010003F003BF
:103320000400243341333A3333332C334833000021
:10333000000000563300000000006733000000006A
:103340000076330000000000255566206D20707265
:10335000696E7465640020453A2565632F254563D1
:1033600002437E256F43003120636C69636B203D0F
:103370002031206D6D00453A257833206D6D0003B6
:10338000FC0304008633A3339C3395338E33AA3376
:103390000000000000AB330000000000BB33000061
:1033A000000000CB330000000000004D6178206574
:1033B0006E6473746F703A25735A004D696E2065A0
:1033C0006E6473746F703A25737A005A3A257832B6
:1033D000206D6D0003FB030400DB33F833F133EAA7
:1033E00033E333FF3300000000000034000000002E
:1033F0000010340000000000203400000000000035
:103400004D617820656E6473746F703A257359004E
:103410004D696E20656E6473746F703A2573790020
:10342000593A257831206D6D0003FA0304003034D9
:103430004D3446343F3438345434000000000055D5
:103440003400000000006534000000000075340006
:1034500000000000004D617820656E6473746F7029
:103460003A257358004D696E20656E6473746F70F1
:103470003A25737800583A257830206D6D0003EFB7
:103480000304008534A2349B3494348D34A9340071
:1034900000000000AA340000000000BA3400000060
:1034A0000000CA340000000000004D617820656E05
:1034B0006473746F703A25735A004D696E20656E9F
:1034C0006473746F703A25737A005A3A2578322003
:1034D0006D6D0003EE030400DA34F734F034E934A0
:1034E000E234FE340000000000FF34000000000061
:1034F0000F3500000000001F350000000000004DE7
:10350000617820656E6473746F703A257359004D4D
:10351000696E20656E6473746F703A257379005913
:103520003A257831206D6D0003ED0304002F354CF2
:103530003545353E353735533500000000005435EC
:103540000000000000643500000000007435000039
:10355000000000004D617820656E6473746F703AEE
:10356000257358004D696E20656E6473746F703AF0
:1035700025737800583A257830206D6D00000000E2
:1035800004008435A1359A3593358C35A835000073
:10359000000000AE350000000000C2350000000051
:1035A00000C6350000000000255566206D00546FF0
:1035B00074616C2046696C616D656E74205573652D
:1035C000640025557400546F74616C205072696EEC
:1035D00074696E672054696D65000000000400E1A5
:1035E00035FE35F735F035E93505360000000000C9
:1035F0000F3600000000001D3600000000002F36CE
:1036000000000000004861636B6572204832005082
:1036100072696E746572204D6F64656C0046572048
:10362000446174653A2032303137303133300046EE
:10363000572056657273696F6E3A20302E39322EDC
:1036400032000000000400493666365F36583651B5
:10365000366D360000000000713600000000007A70
:1036600036000000000083360000000000256F7364
:10367000005A3A257832206D6D00593A257831206C
:103680006D6D00583A257830206D6D000000000403
:10369000009336B036A936A2369B36B73600000006
:1036A0000000BB360000000000C43600000000002F
:1036B000DD360000000000256F73005A3A2578328D
:1036C000206D6D0053706565643A256F6D25252565
:1036D00020466C6F773A256F66252525004E4F5A98
:1036E0003A256563205461726765743A2545630025
:1036F0000000000000000000000000FF00000100CA
:1037000000000A0B02090C0D0E080703040100005B
:1037100000000000000000000000000000000000A9
:103720000000000000000000000000001211100066
:103730000000000000000000000000000000000089
:1037400000000000000001021020200808102040A6
:103750001020408002010201080402010102040855
:1037600010204080804020100804020180040201E3
:10377000804020100804020108040201010204082C
:103780001020408001020408102040800505050536
:10379000070508080808020202020A0A08080404C9
:1037A00004040101010101010101030303030303F7
:1037B0000303040707070C0C0C0C0C0C0C0C020286
:1037C000020206060606060606060B0B0B0B0B0B83
:1037D0000B0B000020002300260029002C002F00E6
:1037E000320000010000030106010901000022006F
:1037F000250028002B002E003100340002010000BB
:10380000050108010B0100002100240027002A0007
:103810002D003000330001010000040107010A01FE
:10382000024E414E494E495459494E46CDCCCC3DAD
:103830000AD7233C17B7D13877CC2B329595E6249D
:103840001FB14F0A000020410000C84200401C4642
:1038500020BCBE4CCA1B0E5AAEC59D74F57644B151
:1038600038BD65FC11241FBECFEFD1E2DEBFCDBF56
:1038700000E00CBF13E0A0E0B2E0E2EEFBE102E00A
:103880000BBF02C007900D92A633B107D9F72EE106
:10389000A6E3B3E001C01D92AD34B207E1F718E32F
:1038A000C4E6D8E300E006C022970109FE010BBF81
:1038B0000F946A09CC35D10780E00807A9F70F9467
:1038C0002B010D94EF0D0C940000CF93DF9300D0EB
:1038D0001F92CDB7DEB744E050E0BC01CE010196A7
:1038E0000F94AB0D69817A818B819C810F900F9031
:1038F0000F900F90DF91CF910895179A0895169A1F
:103900000895159A089588E493E0DFCFCF92DF926F
:10391000EF92FF92CF93DF9300D01F921F92CDB70B
:10392000DEB76B017C016093551870935618809335
:103930005718909358180E948D99C982DA82EB82A9
:10394000FC8244E050E065E773E0CE0101960F94FD
:10395000CD0D23E0B701A60184E295E00E94614D00
:103960000E94D350682F88E690E06D830F94BB0DC2
:103970006D81681721F088E690E00F94D60D0F90C6
:103980000F900F900F900F90DF91CF91FF90EF90DD
:10399000DF90CF900895CF93DF931F92CDB7DEB71E
:1039A000BC018DE793E00F94E90D0E94D350682F7E
:1039B00088E690E069830F94BB0D6981681739F040
:1039C00088E690E00F90DF91CF910D94D60D0F9087
:1039D000DF91CF910895CF93DF931F92CDB7DEB7DC
:1039E000BC018FE793E00F94E90D0E94D350682F3C
:1039F00088E690E069830F94BB0D6981681739F000
:103A000088E690E00F90DF91CF910D94D60D0F9046
:103A1000DF91CF910895CF93DF931F92CDB7DEB79B
:103A2000BC0181E893E00F94E90D0E94D350682F08
:103A300088E690E069830F94BB0D6981681739F0BF
:103A400088E690E00F90DF91CF910D94D60D0F9006
:103A5000DF91CF910895CF93C82F80916B04882375
:103A6000D1F010926B040E946F6690919002915079
:103A700090939002911109C080919102833010F4CB
:103A80000E94166685E0809390026C2F87E99CE186
:103A9000CF910C94ECF9CF91089580913206882350
:103AA00049F00E94197080E0D6DF87E99CE10E940E
:103AB000EBF9F3CF08954F925F926F927F928F92BE
:103AC0009F92AF92BF92CF92DF92EF92FF920F93AD
:103AD0001F93CF93DF9300D01F92CDB7DEB78C0139
:103AE0008091CF189091D018A091D118B091D21890
:103AF00089839A83AB83BC83C090D318D090D418A9
:103B0000E090D518F090D6188090D7189090D818DB
:103B1000A090D918B090DA189C01AD01BC01CD017C
:103B20000F949C0881110FC149805A806B807C8062
:103B3000E89477F82FEF3FEF4FE75FE7C301B2015B
:103B40000F949C0881110BC02FEF3FEF4FE75FE709
:103B5000C301B2010F94490518160CF4F4C0A70173
:103B60009601C701B6010F949C088111ECC0260193
:103B70003701E89477F82FEF3FEF4FE75FE7C30196
:103B8000B2010F949C0881110BC02FEF3FEF4FE75C
:103B90005FE7C301B2010F94490518160CF4D3C0B6
:103BA000A5019401C501B4010F949C088111CBC0FB
:103BB00024013501E89477F82FEF3FEF4FE75FE7F7
:103BC000C301B2010F949C0881110BC02FEF3FEF8E
:103BD0004FE75FE7C301B2010F94490518160CF4D3
:103BE000B2C02091A7183091A8184091A9185091FF
:103BF000AA1869817A818B819C810F94E5042B013D
:103C00003C012091AB183091AC184091AD18509107
:103C1000AE18C701B6010F94E5046B017C01209139
:103C2000AF183091B0184091B1185091B218C50139
:103C3000B4010F94E5044B015C0180912F19882396
:103C400029F020E732E441E25DE304C020E030E007
:103C500040E85FE3C301B2010F94F107AB01BC017F
:103C600022E08CEF97E10E949E4D80912F198823CE
:103C700029F020E732E441E25DE304C020E030E0D7
:103C800040E85FE3C701B6010F94F107AB01BC0147
:103C900022E084EF97E10E949E4D80912F198823A6
:103CA00029F020E732E441E25DE304C020E030E0A7
:103CB00040E85FE3C501B4010F94F107AB01BC011B
:103CC00023E080EF97E10E949E4D6091E71870918C
:103CD000E8188091E9189091EA180F941C06209139
:103CE0002B1930912C1940912D1950912E190F94A8
:103CF000F10720912F19222329F020E732E441E235
:103D00005DE304C020E030E040E85FE30F94F1079A
:103D1000AB01BC0124E08CEE97E10F900F900F9067
:103D20000F90DF91CF911F910F91FF90EF90DF9057
:103D3000CF90BF90AF909F908F907F906F905F904B
:103D40004F900C94614DC8010E94874B4ACFCF928F
:103D5000DF92EF92FF92CF93DF93EC0189319105CF
:103D60003CF0C53F81E0D8072CF0C4EFD1E002C0A1
:103D7000C9E1D0E0BE01882777FD8095982F0F9488
:103D80001C066B017C016091DF177091E01788279A
:103D900077FD8095982F0F941C069B01AC01C701FD
:103DA000B6010F9450059B01AC016091E117709131
:103DB000E2178091E3179091E4170F94F107609355
:103DC000E1177093E2178093E3179093E417D09371
:103DD000E017C093DF17BE018FEC97E1DF91CF9121
:103DE000FF90EF90DF90CF900C94494CCF92DF92F0
:103DF000EF92FF926B017C0120E030E040E752E45B
:103E00000F94490587FD11C020E030E046E153E4FE
:103E1000C701B6010F947D0718166CF4C12CD12C84
:103E200086E1E82E83E4F82E06C0C12CD12C90E761
:103E3000E92E92E4F92EC0925518D0925618E092CD
:103E40005718F092581822E0B701A60186EB97E1C7
:103E5000FF90EF90DF90CF900C94614D8F929F92E6
:103E6000AF92BF92CF92DF92EF92FF92CF93DF9308
:103E7000EC018931910534F0893C91052CF0C8ECB6
:103E8000D0E002C0C9E1D0E0D093DE17C093DD17C7
:103E9000E0915A03F0915B03E258FF4FC080D1805C
:103EA000E280F38020E030E0A901C701B6010F9461
:103EB0004905AE01662757FD6095762F18165CF010
:103EC000CB01BA010F941C062AE037ED43E25CE314
:103ED0000F94F10724C0CB01BA010F941C062AE00D
:103EE00037ED43E25CE30F94F10720E030E040E877
:103EF00050E40F94F1074B015C01A7019601C70143
:103F0000B6010F94F1072BED3FE049E450E40F9424
:103F1000F1079B01AC01C501B4010F9450056093FA
:103F2000A5027093A6028093A7029093A802BE01F7
:103F300081EC97E1DF91CF91FF90EF90DF90CF90F0
:103F4000BF90AF909F908F900C94494CCF93DF938C
:103F50002091A31897FD0DC0EC018F3F910519F03A
:103F600014F0CFEFD0E0209721F028602093A31821
:103F700005C0277F2093A318C0E0D0E061118DDD3C
:103F800080918B1790E0C817D90729F0BE018CEA01
:103F900097E10E94494CC0938B17DF91CF91089510
:103FA0004F925F926F927F928F929F92AF92BF9249
:103FB000CF92DF92EF92FF92CF93DF9300D01F92C8
:103FC000CDB7DEB72FE632E143E85AE36091C71779
:103FD0007091C8178091C9179091CA170F94F10773
:103FE0006B017C0181E890E070DC9B01AC01C701B2
:103FF000B6010F94E504AB01BC0122E08AE997E128
:104000000E949E4D88E897E10E944E4BE0910A0283
:10401000F0910B0220E030E040E751E463857485C5
:10402000858596850F947D0718160CF46BC020E0EB
:1040300030E0A9018DE790E029833A834B835C83CC
:104040000F94C30D4B015C0129813A814B815C8146
:10405000820E931EA41EB51EC501B40120E831E5F1
:1040600041E050E00F941D0960E87EEA8EEF9FEF7B
:104070000F94B8086B017C01C80CD91CEA1CFB1C0E
:10408000BA01A9018BE897E10E946F4CC701B60104
:1040900020E13EE040E050E00F941D0949015A0143
:1040A000BA01A90181E897E10E946F4CA0EFB1EF3E
:1040B000A50194010F9466096C0D7D1D8E1D9F1D39
:1040C0002CE330E040E050E00F941D09BA01A90153
:1040D00089E797E10E946F4C84E797E10F900F907A
:1040E0000F900F90DF91CF91FF90EF90DF90CF90E6
:1040F000BF90AF909F908F907F906F905F904F9008
:104100000C94664B0E94BCFEC090CB17D090CC178D
:10411000E090CD17F090CE176C197D098E099F099C
:1041200028EE33E040E050E00F94FB0883CF81118C
:1041300002C08EE207C0813011F48DE203C08230EC
:1041400019F48CE20C947CFF0895EAE0F1E08081A0
:1041500088608083808180618083808180628083A9
:1041600064E670E08EE20E947CFF64E670E08DE21F
:104170000E947CFF62E870E08CE20E947CFFE1E23A
:10418000F1E08081887F81608083089567FD43C06E
:104190008230E9F028F4882341F0813061F03BC09F
:1041A000833009F1843059F136C0662311F0A19AA9
:1041B00069C0A19867C080910801662311F08068EA
:1041C00001C08F778093080147FF3AC05FC080919C
:1041D0000801662311F0806401C08F7B8093080181
:1041E00047FF34C055C080910801662311F08860F4
:1041F00001C0877F8093080147FF32C046C080918D
:104200000501662311F0806401C08F7B8093050156
:1042100047FF2EC03CC047FD3BC08230B9F028F4B8
:10422000882341F0813061F008958330C9F08430F3
:10423000F9F00895442311F0A09A0895A0980895E4
:10424000442311F0A29A0895A2980895809108013C
:10425000442311F0806201C08F7D8093080108958E
:1042600080910801442311F08061F7CF8F7EF5CF54
:1042700080910501442311F0806401C08F7B8093FD
:104280000501089547FFD6CF08950895089508952C
:104290000895643079F028F4613041F0623041F0E3
:1042A0000895683051F0603141F0089540E003C056
:1042B00040E004C041E060E002C041E061E066CF60
:1042C000CF93DF9385E597E10E94664B62B36695D5
:1042D000617070E08CEF97E10E943D4C62B36170B9
:1042E00070E082E797E10E94494CC6E0D1E0888106
:1042F000992787FD9095692F661F6627661F70E0D6
:104300008DE697E10E943D4C62B362FB662760F93F
:1043100070E082E797E10E94494C688166FB66275E
:1043200060F970E08AE697E10E943D4C688165FB88
:10433000662760F970E082E797E10E94494C688146
:1043400063FB662760F970E086E697E10E943D4CCA
:1043500068816295617070E082E797E10E94494C44
:10436000C3E0D1E0688166FB662760F970E082E611
:1043700097E10E943D4C688166FB662760F970E01A
:1043800082E797E1DF91CF910C94494CFF920F9314
:104390001F93CF93DF9300D01F921F92CDB7DEB74C
:1043A00085E0E8EFF2E0DE01119601900D928A952A
:1043B000E1F7989A9A9A80910701806280930701A9
:1043C00080910701806180930701809104018064DE
:1043D000809304018E010F5F1F4FF12CF801619152
:1043E0008F018F2D56DFF394F5E0FF12F7CF0F907A
:1043F0000F900F900F900F90DF91CF911F910F9121
:10440000FF9008950C94EA730E94D57320910802DE
:10441000309109028217930724F490930902809344
:1044200008020895609108027091090280910602C5
:10443000909107026817790744F47093070260931C
:1044400006028FEF97E10C94494C0895CF93C82F43
:1044500069E170E084E59DE10E9450FC6C2F84E5E9
:104460009DE10E94F1FB60E084E59DE10E9451FC2A
:10447000882329F08FE39CE0CF910C94664BCF9179
:104480000895CF93DF93D82FC62F69E170E084E5BC
:104490009DE10E9450FC6D2F84E59DE10E94F1FB9F
:1044A0006C2F84E59DE10E94F1FB84E59DE10E9473
:1044B00063FC882331F080E29CE0DF91CF910C9483
:1044C000664BDF91CF9108951F93CF93DF93182F01
:1044D000BDDF41E050E069E170E084E59DE10E94CC
:1044E00044FC84E59DE10E949AFB892BA1F084E5C0
:1044F0009DE10E94A2FBEC01612F70E086E19CE04F
:104500000E943D4CBE0177278DE09CE0DF91CF916A
:104510001F910C94494C8FEE9BE0DF91CF911F913E
:104520000C94664B8AEC9BE00E94664B84E59DE10F
:104530000E942FFC8FE0C8DF81E3C6DF80E2C4DF8A
:104540006CE980E29EDF80E2BFDF82E2BDDF60E4F3
:1045500082E297DF82E2B8DF85E2B6DF60E085E2E3
:1045600090DF85E2B1DF83E2AFDF60E383E289DFE2
:1045700083E2AADF84E2A8DF6AE484E282DF84E2E5
:10458000A3DF80E3A1DF60E280E37BDF80E39CDFE9
:1045900081E39ADF82E398DF64E182E372DF82E302
:1045A00093DF83E391DF60E083E36BDF83E38CDF02
:1045B00084E38ADF60E084E364DF84E385DF86E30D
:1045C00083DF62E386E35DDF86E37EDF87E37CDF14
:1045D00060E087E356DF87E377DF88E375DF60E13C
:1045E00088E34FDF88E370DF89E36EDF8AE36CDF07
:1045F00062E38AE346DF8AE367CF81E365DF85E331
:1046000063DF89E361DF8DE25FCF6DE080E495E0F9
:104610000E9489726AE080E495E00C948972E091CE
:104620005A03F0915B0342A953A964A975A922E03A
:1046300089EE97E10E949E4DE0915A03F0915B0351
:1046400046A957A960AD71AD20E08EED97E10E94BB
:104650009E4DE0918F02EF3F29F4E0915A03F091D3
:104660005B03E081F0E0E857F84E608170E085EE92
:1046700097E10E943D4CC9CF2F923F924F925F929B
:104680006F927F928F929F92AF92BF92CF92DF9262
:10469000EF92FF920F931F93CF93DF93CDB7DEB7C7
:1046A00029970FB6F894DEBF0FBECDBF5C01DC01C9
:1046B00016968D919C9117978C38910509F48BC6AD
:1046C00008F0E7C08235910509F42FC408F08AC0CC
:1046D0008A31910509F4D1C208F03FC085319105B6
:1046E00009F449C278F48231910509F423C2843176
:1046F000910509F424C2419711F00C946133179885
:104700001698D0C58731910509F46DC208F44FC2DF
:104710008831910509F495C2499711F00C946133E1
:1047200060E084E399E129960FB6F894DEBF0FBEEE
:10473000CDBFDF91CF911F910F91FF90EF90DF9050
:10474000CF90BF90AF909F908F907F906F905F9031
:104750004F903F902F900C94F1B78E31910509F452
:10476000E9C218F58C31910509F4BCC210F00C9423
:10477000983384E399E129960FB6F894DEBF0FBE13
:10478000CDBFDF91CF911F910F91FF90EF90DF9000
:10479000CF90BF90AF909F908F907F906F905F90E1
:1047A0004F903F902F900C9452BC8A32910509F49F
:1047B0001BC328F4809709F4EAC20C946133803556
:1047C000910509F49DC38135910511F00C94613375
:1047D00064D99B9A8091A5188F7B8093A518A39A82
:1047E0000C9498338B36910511F40C94992C38F570
:1047F0008C35910509F4A4C460F48435910509F45D
:104800009DC308F496C38535910509F475C40C94CD
:1048100061338836910509F448C530F48336910533
:1048200009F4F2C40C9461338936910509F427C662
:104830008A36910511F40C94882C0C9461338337DB
:10484000910511F40C94E92C80F48F36910511F444
:104850000C94BA2C8237910511F40C94072D8D36E7
:10486000910511F00C9461332CC68537910511F434
:104870000C940A2D10F40C94422C8737910511F4F6
:104880000C94352D8837910511F40C94782D0C94E7
:1048900061338530B1E09B0711F40C94823008F04D
:1048A000B0C08F3C910511F40C941C2F08F041C04E
:1048B0008A3C910511F40C944F2E70F4883C9105BC
:1048C00011F40C949E2D10F00C94F12D8E3B91055B
:1048D00009F4CBC70C9461338C3C910511F40C9412
:1048E000A62E10F40C94942E8D3C910511F40C948A
:1048F000022F8E3C910511F00C946133C50129966D
:104900000FB6F894DEBF0FBECDBFDF91CF911F91E0
:104910000F91FF90EF90DF90CF90BF90AF909F905E
:104920008F907F906F905F904F903F902F900C945E
:1049300023578F3D910511F40C94D72F88F48C3DAB
:10494000910511F40C94842F8D3D910511F40C9474
:10495000AC2F813D910511F00C9461330C94642FC0
:10496000893E910511F40C94EC2F40F5883E910599
:1049700011F00C94613360919017709191178EE053
:1049800097E10E943D4C40918C1750918D1760919A
:104990008E1770918F1722E085E097E10E94614D9C
:1049A000109291171092901710928C1710928D17E9
:1049B00010928E1710928F170C9498338B3F91059D
:1049C00011F40C9425308430914011F00C94613333
:1049D00029960FB6F894DEBF0FBECDBFDF91CF9101
:1049E0001F910F91FF90EF90DF90CF90BF90AF900D
:1049F0009F908F907F906F905F904F903F902F90FF
:104A000091CD8E3521E0920711F40C94D931C0F587
:104A10008E3241E0940711F40C94253198F48931D9
:104A2000A1E09A0711F40C94DA308C32B1E09B07C4
:104A300011F40C94EA308630914011F00C946133FB
:104A40000C94A4308034F1E09F0711F40C9497315A
:104A500038F48F32914011F40C9464310C9461332A
:104A6000813441E0940711F40C949B3182349140DD
:104A700011F00C94613380E00E9416AD0C94B031BB
:104A80008239A1E09A0711F40C94C43298F5883663
:104A9000E1E09E0711F40C94903238F48336914093
:104AA00011F40C944A320C946133803931E093074D
:104AB00011F40C94AA328139914011F00C946133B5
:104AC00029960FB6F894DEBF0FBECDBFDF91CF9110
:104AD0001F910F91FF90EF90DF90CF90BF90AF901C
:104AE0009F908F907F906F905F904F903F902F900E
:104AF0000C9439AB853F51E0950711F40C94F432D6
:104B000060F4843F914011F00C94613380E00E9486
:104B1000EA508DE892E10C94FF32863FE1E09E0777
:104B200011F40C9419338C38934011F40C943333F2
:104B30000C9461330E947D1C0E947F1C8CC284E314
:104B400099E129960FB6F894DEBF0FBECDBFDF9175
:104B5000CF911F910F91FF90EF90DF90CF90BF907A
:104B6000AF909F908F907F906F905F904F903F900D
:104B70002F900C9496BB84E399E129960FB6F89494
:104B8000DEBF0FBECDBFDF91CF911F910F91FF9080
:104B9000EF90DF90CF90BF90AF909F908F907F90DD
:104BA0006F905F904F903F902F900C9473B784E379
:104BB00099E129960FB6F894DEBF0FBECDBFDF9105
:104BC000CF911F910F91FF90EF90DF90CF90BF900A
:104BD000AF909F908F907F906F905F904F903F909D
:104BE0002F900C9478B7D5018D919C9197FD02C0C0
:104BF0000C94983360E084E399E10E9488C6F50143
:104C0000EE5AFF4F6081718140E084E399E129967B
:104C10000FB6F894DEBF0FBECDBFDF91CF911F91CD
:104C20000F91FF90EF90DF90CF90BF90AF909F904B
:104C30008F907F906F905F904F903F902F900C944B
:104C4000C9BB84E399E129960FB6F894DEBF0FBE85
:104C5000CDBFDF91CF911F910F91FF90EF90DF902B
:104C6000CF90BF90AF909F908F907F906F905F900C
:104C70004F903F902F900C94E0B7F5018081918187
:104C800092FD02C00C949833468D578D60A171A19E
:104C900080919E19882311F40C94983340939519B0
:104CA00050939619609397197093981984E799E136
:104CB00029960FB6F894DEBF0FBECDBFDF91CF911E
:104CC0001F910F91FF90EF90DF90CF90BF90AF902A
:104CD0009F908F907F906F905F904F903F902F901C
:104CE0000C94CEC4D5018D919C9197FD02C00C947B
:104CF0009833F501EE5AFF4F6081718184E399E1A9
:104D000029960FB6F894DEBF0FBECDBFDF91CF91CD
:104D10001F910F91FF90EF90DF90CF90BF90AF90D9
:104D20009F908F907F906F905F904F903F902F90CB
:104D30000C9476BCF5018081918197FD02C00C94A2
:104D4000983360E084E399E10E9488C6F501EE5A49
:104D5000FF4F6081718184E399E129960FB6F89441
:104D6000DEBF0FBECDBFDF91CF911F910F91FF909E
:104D7000EF90DF90CF90BF90AF909F908F907F90FB
:104D80006F905F904F903F902F900C94D7BCD501BF
:104D90008D919C9197FD02C00C94983360E084E360
:104DA00099E10E9488C6F501EE5AFF4F608171813A
:104DB00084E399E129960FB6F894DEBF0FBECDBF0C
:104DC000DF91CF911F910F91FF90EF90DF90CF90E7
:104DD000BF90AF909F908F907F906F905F904F901B
:104DE0003F902F900C9405BDF5012081318133FD5A
:104DF00002C00C94983312A1E12EF3A0EDE5FCE083
:104E0000449150E04E155F0509F45EC032964CE0C7
:104E1000E13DF407A9F7F7FC57C032FF2CC0D501DC
:104E20005E964D915D916D917C9191974F3F5105AB
:104E30006105710509F0E0F461E0812F0F949400A1
:104E4000F501668D812F0F94CD00D5015E966D9191
:104E50007C915F97812F0E947CFFB70188E497E1E6
:104E60000E943D4CF501668D778D83E497E112C079
:104E70008BEB94E02BC062E0812F0F949400B7017C
:104E800083E497E10E943D4C812F0F940201BC0105
:104E90008EE397E129960FB6F894DEBF0FBECDBF23
:104EA000DF91CF911F910F91FF90EF90DF90CF9006
:104EB000BF90AF909F908F907F906F905F904F903A
:104EC0003F902F900C94494C85E894E029960FB6BA
:104ED000F894DEBF0FBECDBFDF91CF911F910F9130
:104EE000FF90EF90DF90CF90BF90AF909F908F900A
:104EF0007F906F905F904F903F902F900C94874BD6
:104F00000E944D1D0E94BCFE6093921770939317F0
:104F100080939417909395179B9A8091A51880641D
:104F20008093A518A3980C9498331092EB180C94C6
:104F3000983381E08093EB180C949833D5018D91D0
:104F40009C91119792FF14C05E962D913D914D91C9
:104F50005C919197A8EEB3E00F945A09609399027F
:104F600070939A0280939B0290939C020C949833C6
:104F700093FFA5C0F50182A193A1A4A1B5A18230A0
:104F80009105A105B10509F466C02CF50097A105AE
:104F9000B10509F446C00197A105B10511F00C94C3
:104FA000983329960FB6F894DEBF0FBECDBFDF91C0
:104FB000CF911F910F91FF90EF90DF90CF90BF9016
:104FC000AF909F908F907F906F905F904F903F90A9
:104FD0002F900C947F1C83309105A105B10509F435
:104FE00054C00497A105B10511F00C94983329968B
:104FF0000FB6F894DEBF0FBECDBFDF91CF911F91EA
:105000000F91FF90EF90DF90CF90BF90AF909F9067
:105010008F907F906F905F904F903F902F900C9467
:105020009F5E29960FB6F894DEBF0FBECDBFDF910D
:10503000CF911F910F91FF90EF90DF90CF90BF9095
:10504000AF909F908F907F906F905F904F903F9028
:105050002F900C947D1C29960FB6F894DEBF0FBEDE
:10506000CDBFDF91CF911F910F91FF90EF90DF9017
:10507000CF90BF90AF909F908F907F906F905F90F8
:105080004F903F902F900C94811C29960FB6F89466
:10509000DEBF0FBECDBFDF91CF911F910F91FF906B
:1050A000EF90DF90CF90BF90AF909F908F907F90C8
:1050B0006F905F904F903F902F900C94915E0E9464
:1050C0004D1D81E029960FB6F894DEBF0FBECDBF0F
:1050D000DF91CF911F910F91FF90EF90DF90CF90D4
:1050E000BF90AF909F908F907F906F905F904F9008
:1050F0003F902F900C942599D5018D919C911197FB
:1051000092FF14C05E962D913D914D915C919197C7
:10511000A8EEB3E00F945A0960939D0270939E022B
:1051200080939F029093A0020C94983310929D025A
:1051300010929E0210929F021092A0020C9498333B
:10514000F501808183FF0CC082859385A485B58598
:105150008093E7029093E802A093E902B093EA02F9
:10516000D5018C9184FF0EC01E968D919D910D905E
:10517000BC91A02D8093EB029093EC02A093ED02E2
:10518000B093EE02F501808185FF0CC0828993897E
:10519000A489B5898093EF029093F002A093F10265
:1051A000B093F2020E948D99D5018C9186FD02C0C8
:1051B0000C94983320915A0330915B0356968D914D
:1051C0009D910D90BC91A02DF90181879287A387B5
:1051D000B487808129960FB6F894DEBF0FBECDBF8D
:1051E000DF91CF911F910F91FF90EF90DF90CF90C3
:1051F000BF90AF909F908F907F906F905F904F90F7
:105200003F902F900C94D15CD501ED91FC911197BA
:10521000F2FF0DC05E962D913D914D915C9191975D
:10522000A8EEB3E00F945A096B017C0106C040E17F
:10523000C42E47E2D42EE12CF12CE3FD0E947D1C0C
:10524000F501808184FD0E947F1CD5018C9185FD34
:105250000E94811C0E94BCFE2B013C014C0C5D1C79
:105260006E1C7F1C0E94BCFEA3019201261B370B03
:10527000480B590BDA01C901803A9648A140B105A3
:1052800018F40E94839EEECFD5018C9183FD179870
:10529000F501808184FD1698D5018C9185FD02C0B1
:1052A0000C94983315980C9498330E94476681119A
:1052B0000C9498330E94BCFE6093921770939317DE
:1052C00080939417909395178091AA0283FF02C050
:1052D0000C949833F5018081918193FF02C00C9466
:1052E000843392FF0AC0868D978DA0A1B1A1892B2E
:1052F0008A2B8B2B11F40C948433D5018D919C91C6
:10530000119792FD02C00C9498339C0122273170B2
:1053100091FF23C0232B89F011E020E030E0A901A8
:105320005A966D917D918D919C915D970F947D071B
:1053300018160CF010E0212F01C020E085010C5A56
:105340001F4FF501668D778D80A191A129870F945C
:105350001C062985D8014C9124C0232B81F011E033
:1053600020E030E0A901F501628D738D848D958D6B
:105370000F947D0718160CF010E0212F01C020E0DB
:1053800000915A0310915B03D5015E966D917D915A
:105390008D919C91919729870F941C062985F8017E
:1053A000408129960FB6F894DEBF0FBECDBFDF91C6
:1053B000CF911F910F91FF90EF90DF90CF90BF9012
:1053C000AF909F908F907F906F905F904F903F90A5
:1053D0002F900C9405620E94476681110C949833BB
:1053E0000E94BCFE6093921770939317809394175A
:1053F000909395178091AA0283FF02C00C94983372
:10540000D5018D919C91119792FD02C00C94983317
:1054100090FF11C011E020E030E0A9015A966D9193
:105420007D918D919C915D970F947D0718160CF0DE
:1054300010E0412F01C040E0F501668D778D80A11D
:1054400091A149870F941C06498529960FB6F894B7
:10545000DEBF0FBECDBFDF91CF911F910F91FF90A7
:10546000EF90DF90CF90BF90AF909F908F907F9004
:105470006F905F904F903F902F900C948B5ED50172
:105480008D919C9133E0969587953A95E1F78170DF
:1054900029960FB6F894DEBF0FBECDBFDF91CF9136
:1054A0001F910F91FF90EF90DF90CF90BF90AF9042
:1054B0009F908F907F906F905F904F903F902F9034
:1054C000AEC80E94476681110C9498330E94BCFEBE
:1054D00060939217709393178093941790939517F6
:1054E0008091AA0283FF02C00C94983340E064E7E5
:1054F00074E087E99CE10E94F2DC87E99CE10E946C
:1055000046E00E944D1D20905A0330905B03F50148
:105510008081918191FF09C0EC5AFF4F20812111B8
:1055200004C02CE0222E22E0322E92FF1EC090FFFB
:105530000FC011E020E030E0A901D5015A966D912D
:105540007D918D919C915D970F947D0718160CF0BD
:1055500010E0F501668D778D80A191A10F941C0656
:10556000212FD1014C910E940562F10126A937A992
:1055700040AD51AD62A973A984A995A90F94E40423
:105580002B013C0120E030E0A9010F947D071816A3
:1055900064F420E030E040EA50E4C301B2010F942B
:1055A000490587FF0EC00C94983320E030E040EAB4
:1055B00050ECC301B2010F947D07181614F40C943B
:1055C000983399249394D101D0962D913C91D19701
:1055D0009E968D919C919F97821793070CF0912C2A
:1055E0000E94BCFE6D837E838F83988710E0412CE0
:1055F000512C32010E94BCFE69837A838B839C8389
:1056000060939217709393178093941790939517C4
:10561000DC01CB012D813E814F815885821B930B8C
:10562000A40BB50B893E9340A105B10558F080E06D
:105630000E940F2389819A81AB81BC818D839E83D7
:10564000AF83B88781E00E942B1D80915A0390910F
:105650005B032816390609F064C0D1019396ED90DA
:10566000FC9094971E141F040CF05BC0111158C0DD
:10567000992009F477C091966D917C919297882733
:1056800077FD8095982F0F941C069B01AC01F101CA
:1056900062A973A984A995A90F947D07181614F01F
:1056A0000C949133662777276E197F09882777FD39
:1056B0008095982F0F941C062091F3023091F402EC
:1056C0004091F5025091F6020F94F1070F94E9050D
:1056D0001F921F92D10152962C9152972F9351965F
:1056E0002C9151972F9350962C9150972F931F9652
:1056F0002C912F935B016C01E12CF12C870120E0B0
:1057000030E0A90160E070E0CB010E9418910F9099
:105710000F900F900F900F900F9011E00C94913319
:1057200011E0411451046104710409F050C0992042
:10573000F1F020E030E040E85FE3F10166A977A9ED
:1057400080AD91AD0F94E4049B01AC01D101D296E0
:105750006D917D918D919C91D5970F947D0787FFD9
:105760001FC045CF411451046104710481F520E04C
:1057700030E040E85FE3F10166A977A980AD91AD23
:105780000F94E5049B01AC01D101D2966D917D91FE
:105790008D919C91D5970F94490518160CF427CF3D
:1057A000F101A78DB0A128EE33E00F9454092B012D
:1057B0003C0129813A814B815C81420E531E641E5B
:1057C000751E411451046104710409F413CFD3010F
:1057D000C20129813A814B815C81821B930BA40B0E
:1057E000B50B81159449A543B74708F403CF11239E
:1057F000E1F180915A0390915B0328163906A9F5CF
:10580000D10193966D917C919497882777FD80952F
:10581000982F0F941C062091F3023091F4024091CE
:10582000F5025091F6020F94F1070F94E9051F92CB
:105830001F92F10122892F9321892F9320892F9381
:1058400027852F935B016C01E12CF12C870120E06F
:1058500030E0A90160E070E0CB010E9418910F9048
:105860000F900F900F900F900F901092001D0E94BC
:10587000BCFE609392177093931780939417909344
:10588000951756C78091AA0283FD52C70E94BCFE9D
:105890004B015C010E94BCFE681979098A099B09C9
:1058A000693E73408105910538F080E00E940F2326
:1058B0000E94BCFE4B015C0181E00E942B1D009107
:1058C0000A0210910B02D8011B964D905D906D90CD
:1058D0007C901E9720E030E040EF51E4C301B2011C
:1058E0000F947D0718160CF023C7F8012781308527
:1058F00041855285C301B2010F94E4049F7720E0F3
:1059000030E040E85FE30F947D0718161CF210C7E3
:10591000D5018D919C91119793FB662760F992FFB9
:1059200005C05E968D919C915F970AC08FEF90E0C5
:1059300007C0F501618163FB662760F980E090E0B4
:1059400029960FB6F894DEBF0FBECDBFDF91CF9181
:105950001F910F91FF90EF90DF90CF90BF90AF908D
:105960009F908F907F906F905F904F903F902F907F
:105970000C94A61FD5018D919C91119792FF04C0A4
:105980005E962C912093AA0293FF12C0F50182A18A
:1059900093A1A4A1B5A12091AA02181619061A066E
:1059A0001B0614F4822B02C0815082238093AA022A
:1059B0008091AA0283FFBCC620E040E060E070E076
:1059C000CB010E94056220E040E060E070E0CB0186
:1059D000E8CC85E199E10E94664B29960FB6F894D0
:1059E000DEBF0FBECDBFDF91CF911F910F91FF9012
:1059F000EF90DF90CF90BF90AF909F908F907F906F
:105A00006F905F904F903F902F900C94D01F8EE638
:105A100094E05EC3D5018D919C9197FF89C6F501F5
:105A2000EE5AFF4F6081718140E087E99CE10E945E
:105A30006BDD87E99CE129960FB6F894DEBF0FBEB7
:105A4000CDBFDF91CF911F910F91FF90EF90DF902D
:105A5000CF90BF90AF909F908F907F906F905F900E
:105A60004F903F902F900C9446E00E944D1D81E393
:105A700097E10E944E4B379903C088E397E102C03B
:105A80008BE397E10E944E4B8AE297E10E944E4BD6
:105A9000029B03C08BE397E102C088E397E10E9479
:105AA0004E4B83E297E10E944E4B019903C088E37D
:105AB00097E102C08BE397E10E944E4B29960FB607
:105AC000F894DEBF0FBECDBFDF91CF911F910F9134
:105AD000FF90EF90DF90CF90BF90AF909F908F900E
