:100000000C94F01B0C94211C0C94211C0C94211CAE
:100010000C94211C0C94211C0C94211C0C94211C6C
:100020000C94211C0C94211C0C94211C0C94211C5C
:100030000C94211C0D94F7030C94211C0C94211C8E
:100040000C94211C0C94D7730C94211C0C94211C2F
:100050000C94211C0C9448750C947A740C94E5FD56
:100060000C94211C0C94A0750C94CA750C94211C42
:100070000C94211C0C94211C0C94211C0C94211C0C
:100080000C94211C0C94211C0C94211C0C94211CFC
:100090000C94211C0C94211C0C94211C0C94B7FC76
:1000A0000C94211C0C94211C0C94211C0C94211CDC
:1000B0000C94211C0C94211C0C94211C0C94211CCC
:1000C0000C94211C0C94211C0C94211C0C94211CBC
:1000D0000C94211C0C94211C0C94211C0C94211CAC
:1000E0000C94211C186D306D306D306D306D306D9D
:1000F000306D306D306D306D306D306D306D306D18
:10010000306D306D306D306D306D306D306D306D07
:10011000306D306D306D306D076DB96CC36C3D6CFA
:10012000306DE96CF36C306D306D4E6C2B6C306D56
:10013000DF6C306DFD6CD56CCD6C306D306D306D1D
:100140009B6CA56CAF6C306D306D306D306D306D6B
:10015000306D306D306D306D076DB96CC36C3D6CBA
:10016000306DE96CF36C306D306D4E6C2B6C306D16
:10017000DF6C306DFD6CD56CCD6C306D306D306DDD
:100180009B6CA56CAF6CC6E34FE4E2E413E650F35E
:1001900050F350F350F350F350F350F350F350F347
:1001A00073E5A7E5DDE550F350F350F350F350F35A
:1001B00050F350F350F350F350F350F3F5E857E990
:1001C000B7E917EA77EAD7EA37EB50F317EFA2EB74
:1001D000FFEB5CECB9EC16ED73EDD0ED3DEEAAEE65
:1001E00050F350F350F350F350F378E745E89BE7B2
:1001F0005FEF8EEFF6EF5FF076F0AEF0DDF00CF132
:1002000061F1B8F10DF266F285F28DF050F350F322
:1002100050F350F350F350F350F350F350F350F3C6
:1002200050F350F350F347E750F350F350F350F3CB
:1002300050F350F350F350F3FCF250F314E850F342
:1002400050F350F3ACF2D5F250F350F350F350F3B7
:10025000B9E350F350F356E6ECE62AE79DE813FFC6
:1002600018FF1DFF27FF31FFAAFF3BFF43FF4BFF96
:1002700055FF5FFF69FF78FF82FFAAFF8CFF96FFA3
:10028000A0FFCCFFCFFFBEFFC2FFC8FF7801D3FFA6
:10029000D7FFDDFFE1FFE5FFEBFFEFFFF3FF7801A5
:1002A000F9FFFDFF760107634236B79BD8A71A39DD
:1002B000685618AEBAAB558C1D3CB7CC5763BD6DB4
:1002C000EDFD753EF6177231BF000000803F05A8B6
:1002D0004CCDB2D44EB93836A9020C50B9918688AB
:1002E000083CA6AAAA2ABE000000803F0D94010087
:1002F0000D9406000D94AB00436F6C642065787418
:10030000727573696F6E20646973616C6C6F776569
:100310006400436F6C6420657874727573696F6EE6
:1003200020616C6C6F776564004175746F726574E1
:10033000726163743A0053657474696E67206D6FFF
:10034000746F722063757272656E742E2E2E005358
:100350006574204D6963726F7374657070696E6740
:100360000054726967676572696E672077617463AC
:1003700068646F672E2049662061637469766174D2
:1003800065642C20746865207072696E74657220D3
:1003900077696C6C2072657365742E005365747494
:1003A000696E67205468726573686F6C6420546F5F
:1003B0003A00494E542050494E3A20004D323531D2
:1003C000200020746F200053657420766F6C756D6B
:1003D000657472696320657874727573696F6E20D5
:1003E000666F722065787472756465722000446966
:1003F0007361626C656420766F6C756D657472698B
:100400006320657874727573696F6E20666F7220F1
:10041000657874727564657220004D313134200046
:1004200048656174696E6720457874727564657299
:100430000050696E2063616E206E6F7420626520CB
:10044000736574206279204D34322C206D617920DF
:10045000696E20696E76616C6964206F7220696EC6
:10046000207573652E2000496C6C6567616C2053A4
:100470002076616C756520666F72204D3432005AAB
:100480002028432920746F77657220666C6F6F7225
:100490002073657420746F3A200059202842292067
:1004A000746F77657220666C6F6F7220736574204D
:1004B000746F3A2000582028412920746F776572A4
:1004C00020666C6F6F722073657420746F3A200021
:1004D000526F64205261646975732073657420746F
:1004E0006F3A2000473133342000506F7346726FEB
:1004F0006D53746570733A00436F6D7044656C742E
:10050000613A0043616C6962726174696F6E206D5B
:100510006F76656D656E74206973206C696D6974A2
:10052000656420746F2031306D6D2E0046697273E2
:1005300074206D6F766520746F20746F756368200A
:10054000617420782C793D302C3020746F206175D7
:10055000746F2D736574207261646975732E004326
:10056000616C6962726174696F6E206D6F76656D22
:10057000656E74206973206C696D6974656420749C
:100580006F2031306D6D2E0043616E6E6F7420737D
:1005900065742072616469757320616E6420666C95
:1005A0006F6F722061742073616D652074696D6571
:1005B0002E0043616C6962726174696F6E20636FB3
:1005C0006465206973206C696D6974656420746F5B
:1005D00020626F74746F6D20313025206F66205A51
:1005E000206865696768740052656C617469766536
:1005F00020706F736974696F6E696E670041627312
:100600006F6C75746520706F736974696F6E696E55
:10061000670047363920005A3A2000593A200058DE
:100620003A20004F464653455453204F46462042F9
:100630005920544F4F204D554348205F2054525964
:10064000494E4720414741494E3A20005365747452
:10065000696E672050726F62652053656E736974AE
:10066000697669747920546F3A005A2070726F620B
:1006700065206661696C6564206F6E2073656E73BA
:10068000697469766974793A200053657474696E87
:10069000672050726F62652053656E736974697666
:1006A00069747920546F3A005A2070726F62652025
:1006B0006661696C6564206F6E2073656E73697422
:1006C00069766974793A200053657474696E67209D
:1006D00050726F62652053656E73697469766974D0
:1006E0007920546F3A005A2070726F6265206661FB
:1006F000696C6564206F6E2073656E7369746976CA
:100700006974793A200068656865004E6577205203
:1007100061646975733A20004F6C642052616469AA
:1007200075733A200043616C63756C617465642075
:1007300052616469757320697320626164203A00B4
:1007400053657474696E672050726F6265205365DB
:100750006E736974697669747920546F3A005A200F
:1007600070726F6265206661696C6564206F6E20CF
:1007700073656E73697469766974793A200053659C
:100780007474696E672050726F62652053656E7372
:100790006974697669747920546F3A005A207072CE
:1007A0006F6265206661696C6564206F6E20736599
:1007B0006E73697469766974793A20004733322020
:1007C0000050524F42452D5A4F46465345543A0029
:1007D0004733300053657474696E672050726F62DE
:1007E000652053656E736974697669747920546FF6
:1007F0003A0050726F62657320646F206E6F7420D0
:100800006D617463682E204F666620627920004710
:10081000333020004D3131372043414C4942524161
:1008200054494F4E20434F4D504C45544500686548
:100830006865004E657720486F72697A6F6E7461E3
:100840006C205261646975733A20004F6C642048D3
:100850006F72697A6F6E74616C205261646975732E
:100860003A200043616C63756C6174656420526169
:1008700064697573206973206261643A20004D31A8
:1008800031372043414C4942524154494F4E204652
:1008900041494C45440043616C6962726174696FFF
:1008A0006E204661696C65640053657474696E6797
:1008B0002050726F62652053656E73697469766942
:1008C000747920546F3A005A2070726F6265202844
:1008D00043656E74657220506F696E74292066617D
:1008E000696C6564206F6E2073656E7369746976D8
:1008F0006974793A20004E6577205A204865696707
:1009000068743A004F6C64205A20486569676874BF
:100910003A004D3131372043414C4942524154490C
:100920004F4E204641494C45440043616C69627218
:100930006174696F6E204661696C6564005365740B
:1009400074696E672050726F62652053656E7369BB
:1009500074697669747920546F3A005A2070726F06
:100960006265202843656E74657220506F696E74ED
:1009700029206661696C6564206F6E2073656E73F3
:10098000697469766974793A200047363920005ACB
:100990003A2000593A2000583A20004D3131372092
:1009A000456E6473746F70204F666673657420457E
:1009B00072726F72004F464653455453204F46465D
:1009C00020425920544F4F204D5543482E2041621C
:1009D0006F7274696E672E2053656E7369746976E1
:1009E0006974793A20004D3131372043414C4942F6
:1009F000524154494F4E204641494C4544004361C1
:100A00006C6962726174696F6E204661696C6564BD
:100A10000053657474696E672050726F626520536D
:100A2000656E736974697669747920546F3A005AF7
:100A30002070726F626520285A20546F7765722982
:100A4000206661696C6564206F6E2073656E7369E2
:100A50007469766974793A20004D31313720434109
:100A60004C4942524154494F4E204641494C45441D
:100A70000043616C6962726174696F6E20466169DE
:100A80006C65640053657474696E672050726F62A0
:100A9000652053656E736974697669747920546F43
:100AA0003A005A2070726F626520285920546F777F
:100AB000657229206661696C6564206F6E207365BC
:100AC0006E73697469766974793A20004D313137F3
:100AD0002043414C4942524154494F4E20464149DE
:100AE0004C45440043616C6962726174696F6E20A9
:100AF0004661696C65640053657474696E67205063
:100B0000726F62652053656E736974697669747972
:100B100020546F3A005A2070726F62652028582066
:100B2000546F77657229206661696C6564206F6E09
:100B30002073656E73697469766974793A20004729
:100B40003420533130004D3130342053300A4D3190
:100B500034302053300A4D31303700657865637585
:100B6000746547436F6465202F2071756575654412
:100B7000656C74614D6F76652072657475726E7305
:100B8000206572726F7200696973326468206163F4
:100B900063656C65726F6D6574657220696E6974EA
:100BA00069616C697A696E672E2E2E0061636365D8
:100BB0006C65726F6D657465722069326320726551
:100BC0006376206572726F722E002076616C756597
:100BD0003A2000726561642072656720006163637A
:100BE000656C65726F6D6574657220777269746586
:100BF00020693263206572726F722E0061636365D3
:100C00006C65726F6D657465722073656E642069C2
:100C10003263206572726F722E00000001002500A1
:100C200030001D000C001E00240031001C000B00D1
:100C3000180023002F001B000A0017000D004700BA
:100C40000300040022002B001A00410042000000B3
:100C500002003500457874722E00436F6E66696736
:100C60003A004F6E65206865617465722073656532
:100C70006D73206465636F75706C65642066726F58
:100C80006D20746865726D6973746F72202D2064B5
:100C9000697361626C696E6720616C6C20666F724B
:100CA00020736166657479210048656174657220FE
:100CB0006465636F75706C65640043726561746927
:100CC0006F6E206661696C65640044697265637467
:100CD0006F727920637265617465640044656C6548
:100CE00074696F6E206661696C65640046696C6545
:100CF0002064656C6574656400446F6E6520736183
:100D000076696E672066696C652E00577269746932
:100D10006E6720746F2066696C653A20006F70659D
:100D20006E206661696C65642C2046696C653A20AA
:100D3000004E6F74205344207072696E74696E6740
:100D4000005344207072696E74696E672062797412
:100D500065200066696C652E6F70656E206661693E
:100D60006C65640046696C652073656C65637465C9
:100D700064002053697A653A0046696C65206F709B
:100D8000656E65643A00456E642066696C65206C2A
:100D900069737400426567696E2066696C65206CD2
:100DA000697374006572726F722077726974696E0C
:100DB0006720746F2066696C6500534420696E6912
:100DC00074206661696C00616476616E6365204CB5
:100DD000205B303D6F66665D006578747275646592
:100DE0007220636F6F6C6572207370656564205B41
:100DF000302D3235355D0064697374616E63652032
:100E0000746F2072657472616374207768656E20F8
:100E100068656174696E67205B6D6D5D0074656DFA
:100E2000702E20666F722072657472616374696FD0
:100E30006E207768656E2068656174696E67205BF7
:100E4000435D0074656D702E2073746162696C6916
:100E50007A652074696D65205B735D00592D6F663E
:100E600066736574205B73746570735D00582D6FD5
:100E70006666736574205B73746570735D005049BA
:100E800044206D61782076616C7565205B302D3271
:100E900035355D0050494420442D6761696E00502E
:100EA000494420492D6761696E0050494420502D06
:100EB0006761696E2F646561642D74696D650050AA
:100EC0004944206472697665206D696E005049441A
:100ED000206472697665206D6178006865617420B0
:100EE0006D616E61676572205B302D335D006163FB
:100EF00063656C65726174696F6E205B6D6D2F73D5
:100F00005E325D007374617274206665656472613F
:100F10007465205B6D6D2F735D006D61782E2066AA
:100F200065656472617465205B6D6D2F735D007320
:100F30007465707320706572206D6D00436F7272FE
:100F40002E20646961676F6E616C2043205B6D6D5C
:100F50005D00436F72722E20646961676F6E616C11
:100F60002042205B6D6D5D00436F72722E206469BC
:100F700061676F6E616C2041205B6D6D5D004D613E
:100F800078207072696E7461626C65207261646948
:100F90007573205B6D6D5D00546F776572205A200C
:100FA000656E6473746F70206F6666736574205B22
:100FB00073746570735D00546F7765722059206596
:100FC0006E6473746F70206F6666736574205B73F4
:100FD000746570735D00546F776572205820656E7C
:100FE0006473746F70206F6666736574205B7374CE
:100FF0006570735D005365676D656E74732F732044
:10100000666F722074726176656C005365676D65FA
:101010006E74732F7320666F72207072696E7469BC
:101020006E6700486F72697A6F6E74616C20726FC0
:10103000642072616469757320617420302C3020E3
:101040005B6D6D5D00446961676F6E616C20726FEE
:1010500064206C656E677468205B6D6D5D00486F21
:101060006D696E67206665656472617465205B6D8D
:101070006D2F735D004D61782E2066656564726129
:101080007465205B6D6D2F735D0053746570732004
:10109000706572206D6D0054726176656C206163BD
:1010A00063656C65726174696F6E205B6D6D2F7323
:1010B0005E325D00416363656C65726174696F6E79
:1010C000205B6D6D2F735E325D004D61782E206A5E
:1010D00065726B205B6D6D2F735D005A206D6178BA
:1010E000206C656E677468205B6D6D5D0059206DC6
:1010F0006178206C656E677468205B6D6D5D00586B
:10110000206D6178206C656E677468205B6D6D5D25
:10111000005A20686F6D6520706F73205B6D6D5D88
:10112000005920686F6D6520706F73205B6D6D5D79
:10113000005820686F6D6520706F73205B6D6D5D6A
:101140000053746F702073746570706572206166EF
:1011500074657220696E6163746976697479205B65
:101160006D732C303D6F66665D004D61782E206991
:101170006E6163746976652074696D65205B6D735B
:101180002C303D6F66665D005072696E746572202A
:10119000616374697665205B735D0046696C616D9F
:1011A000656E74207072696E746564205B6D5D009D
:1011B000416476616E6365642055736572004261B7
:1011C000756472617465004550523A332000455091
:1011D000523A3220004550523A3120004550523A9E
:1011E00030200050726F746F636F6C20766572737D
:1011F000696F6E206368616E6765642C2075706727
:10120000726164696E6700436F6E666967757261CB
:1012100074696F6E20726573657420746F206465E5
:101220006661756C74732E00436F6E6669677572C4
:101230006174696F6E206C6F616465642066726FA3
:101240006D20454550524F4D2E00436F6E666967C5
:1012500075726174696F6E2073746F726564207447
:101260006F20454550524F4D2E004175746F6C658F
:1012700076656C206163746976652028312F30298A
:10128000005A2D70726F6265205933005A2D7072AA
:101290006F6265205833005A2D70726F6265205955
:1012A00032005A2D70726F6265205832005A2D70CC
:1012B000726F6265205931005A2D70726F6265201D
:1012C0005831005A2D70726F626520782D792D7318
:1012D00070656564205B6D6D2F735D005A2D7072B3
:1012E0006F6265207370656564205B6D6D2F735D43
:1012F000005A2D70726F6265206F66667365742088
:1013000079205B6D6D5D005A2D70726F6265206F84
:1013100066667365742078205B6D6D5D004D617845
:101320002E207A2D70726F6265202D2062656420F8
:10133000646973742E205B6D6D5D005A2D70726F41
:10134000626520686569676874205B6D6D5D007714
:10135000616974005072696E7465722068656967AE
:1013600068743A005A2D70726F6265206661696C0C
:101370006564005472616E73666F726D6174696F3B
:101380006E206D61747269783A004175746F6C6596
:1013900076656C696E672064697361626C65640070
:1013A0004175746F6C6576656C696E6720656E61FA
:1013B000626C6564004175746F6C6576656C206D58
:1013C0006174726978207265736574000047323801
:1013D0002F6E47315A32352F6E005A2D70726F6260
:1013E000652073746174653A005265736574205AA0
:1013F00020686569676874005A2D70726F62652095
:1014000061766572616765206865696768743A002E
:10141000205374657020566172696174696F6E2023
:1014200066726F6D2050726F626520746F20626506
:10143000642044697374616E63653A005A2D70725A
:101440006F62653A005072696E74657220736574DC
:1014500020696E746F206472792072756E206D6FD2
:10146000646520756E74696C207265737461727442
:1014700021003A20776F726B696E67003A207465BD
:101480006D702073656E736F72206465666563743A
:1014900000657874727564657220004D54454D5036
:1014A0003A00504944204175746F74756E6520662A
:1014B000696E6973686564202120506C61636520E2
:1014C000746865204B702C204B6920616E64204B42
:1014D0006420636F6E7374616E747320696E207420
:1014E000686520436F6E66696775726174696F6EB7
:1014F0002E68206F7220454550524F4D0050494490
:10150000204175746F74756E65206661696C6564E1
:10151000212074696D656F757400504944204175D0
:10152000746F74756E65206661696C656421205402
:10153000656D706572617475726520746F2068697D
:10154000676800204B643A2000204B693A20002055
:101550004B703A200020436C6173736963205049DB
:1015600044002054753A2000204B753A2000206D2D
:1015700061783A2000206D696E3A200020643A209C
:101580000020626961733A2000504944204175741B
:101590006F74756E65207374617274005461726744
:1015A000657445787472004E6F206D6F76652069A2
:1015B0006E2064656C7461207365676D656E742060
:1015C00077697468203E2031207365676D656E749D
:1015D0002E20546869732073686F756C64206E6583
:1015E0007665722068617070656E20616E64206D32
:1015F000617920636175736520612070726F626C20
:10160000656D210044656C74612052616469757375
:1016100020432830293A0044656C7461205261648B
:1016200069757320422830293A0044656C74612042
:1016300052616469757320412830293A00416C7009
:1016400068612043283930293A00416C7068612074
:101650004228333330293A00416C706861204128B8
:10166000323130293A00546F77657220333A005492
:101670006F77657220323A00546F77657220313A85
:1016800000496E76616C69642064656C74612063E6
:101690006F6F7264696E617465202D206D6F766561
:1016A0002069676E6F726564006C696E6561722097
:1016B0004C3A00454550524F4D2075706461746539
:1016C00064002C2073706565643D00206C696E6554
:1016D00061722073746570733A004A65726B3A00E8
:1016E0007A5F6D61783A00795F6D61783A00785F72
:1016F0006D61783A004C200048200020697320007A
:1017000020746F2000536574206F75747075743A7F
:1017100020004D53312C4D53322050696E730045DB
:10172000313A0045303A005A3A00593A0020002C2C
:1017300000206D696E0020686F7572732000206450
:1017400061797320006D20005072696E74696E6754
:101750002074696D653A005072696E746564206624
:10176000696C616D656E743A0046616E7370656593
:10177000643A00482E205261646975733A00466CE1
:101780006F774D756C7469706C793A00537065654C
:10179000644D756C7469706C793A00202F002F00CD
:1017A0003A0020403A00543A0020453A00205A3A84
:1017B0000020593A0020583A00583A0046726565B0
:1017C0002052414D3A00556E6B6E6F776E20636FFD
:1017D0006D6D616E643A00536F6674776172652057
:1017E0005265736574005761746368646F67205253
:1017F000657365740042726F776E206F7574205246
:10180000657365740045787465726E616C2052650D
:1018100073657400506F77657255700073746172F0
:101820007400424C4B2000736B6970200020676F7E
:101830007420004572726F723A65787065637465E2
:1018400064206C696E6520005344207265616420D9
:101850006572726F7200205200204A0020490020F9
:101860005000205300204600204500205A002059F7
:1018700000205800446F6E65207072696E74696E46
:10188000672066696C6500466F726D6174206572D1
:10189000726F720057726F6E6720636865636B7357
:1018A000756D004563686F3A00526573656E643A02
:1018B000005761726E696E673A00496E666F3A0052
:1018C0004572726F723A00494E46004E414E006FAB
:1018D0006B004649524D574152455F4E414D453A86
:1018E00052657065746965725F302E39322E322010
:1018F0004649524D574152455F444154453A323072
:10190000313730333136204D414348494E455F54DD
:101910005950453A4861636B657220483220002077
:101920006465672E204300206D6561737572656480
:1019300020004572726F723A436F756C64206E6F4F
:101940007420686F6C642074656D70657261747565
:1019500072652000206D730020616674657220003E
:101960004572726F723A54656D702E2072616973A0
:10197000656420746F20736C6F772E2052697365D5
:10198000203D20004739310A4731452D3138304656
:10199000363030300A473930004D31313720457804
:1019A00074727564657220300A54300A4D383420E0
:1019B00050340A4739310A473145313732463630DB
:1019C00030300A47314535463530300A4739300026
:1019D0001C151C140000002243141F1FE41D901D41
:1019E000201DD01C000000000000481C3C1BEC1A0D
:1019F000701AF4190400081D900058091C01B00762
:101A0000A801C80634023006C002C0054C036805B0
:101A1000D80318056404D004F00498047C0560041D
:101A200008063004940600042007D003AC07A8037E
:101A300038088003C408580350093003DC09080340
:101A4000680AD802F40AB002800B88020C0C60020B
:101A5000980C3002240DF801B00DC0013C0E80013D
:101A6000C80E3001540FB800B40F2800E00F00007A
:101A70000400401D900060091C01B007A801D006B9
:101A800034023806C002C8054C036805D80318059F
:101A90006404D804F00498047C056004080630044B
:101AA000940600042007D003AC07A803380880037D
:101AB000C408580350093003DC090803680AE0022F
:101AC000F40AB802800B88020C0C6002980C3002F9
:101AD000240DF801B00DC0013C0E8001C80E30018C
:101AE000540FB800B40F2800E00F000004000016E7
:101AF000D800C006AC0178058002C0045403480435
:101B00002804E803FC049803D0055003A406180336
:101B10007807D8024C08A80220097002F40938029C
:101B2000C80A08029C0BD001700C9001440D5001B2
:101B3000180EF800EC0E8800C00F00000400681DAD
:101B40004C00500B94005809DC0050082401A807F1
:101B50006C012807B401C006FC0170064402280687
:101B60008C02F005D402B8051C03880564035805EF
:101B7000AC033005F40310053C04E8048404C804F5
:101B8000CC04A804140590045C057004A405580452
:101B9000EC053804340620047C060804C406F0036F
:101BA0000C07D8035407C8039C07B003E407980345
:101BB0002C08800374087003BC0858030409480308
:101BC0004C09300394091803DC090803240AF002C5
:101BD0006C0AE002B40AC802FC0AB002440BA0027C
:101BE0008C0B8802D40B70021C0C5802640C40024F
:101BF000AC0C2802F40C10023C0DF001840DD8014D
:101C0000CC0DB801140E98015C0E7001A40E4801B1
:101C1000EC0E1801340FD8007C0F8800C40F0800A8
:101C2000FC0F0000000000000000000000000000A9
:101C300000000000000000000000000000000000A4
:101C400000000000000000000000401F4500600987
:101C50004F0010095C00C0086B0070087D00200870
:101C60009200D007AC008007CC003007DE00E00611
:101C7000230190065E014006A601F005FF01A005C4
:101C80006D025005F30200059603B0045A04600487
:101C9000400510044806C0036E077003A80820031F
:101CA000EB09D002230B8002410C3002390DE00118
:101CB000040E9001A20E4001170FF000690FA00062
:101CC000A20F5000C60F0000DD0FB0FFEB0F60FF4A
:101CD0000400700DD8004804AC0158038002D802FB
:101CE0005403800228043802FC040002D005C80115
:101CF000A4069801780770014C08480120091801D2
:101D0000F409F000C80AC8009C0BA000700C700019
:101D1000440D3800180E0000EC0EA8FFC00FE8FEBE
:101D20000400001B54006009640010097400C0081E
:101D3000840070089C002008B800D007D8008007F5
:101D4000000130072C01E00668019006AC01400656
:101D50000002F0056802A005E002500574030005CA
:101D60002404B004F0046004DC051004E406C0039D
:101D70000408700330092003780B8002600DE00135
:101D8000A80E4001680FA000C00F0000E80F60FF20
:101D90000400801AD8009808AC0120078002500681
:101DA0005403C80528045805FC040005D005B004F8
:101DB000A4066804780728044C08E8032009B00347
:101DC000F4097003C80A38039C0BF802700CB002C7
:101DD000440D6802180E0802EC0E8801C00F88003E
:101DE000F00F00000000A00F5C00600969001009FE
:101DF0007900C0088C007008A2002008BD00D00740
:101E0000DE008007050130073401E0066D01900611
:101E1000B20140060702F0056D02A005E802500578
:101E20007B0300052B04B004F8046004EB06C00338
:101E3000350920037F0B8002650DE001B00E4001E3
:101E40001D0FF000480FC8006C0FA000ED0F60FFE1
:101E5000FE0F48FE005344206572726F722066695F
:101E6000786564005344206572726F7220646964FF
:101E7000206E6F74207265636F7665722100534423
:101E80002052656164204572726F7200000000008C
:101E900000000000000000000000000024F403D94E
:101EA00050C38EB1C2A23D96828B3582127AE37204
:101EB000816CCB66A861015DC758EB546151204E1F
:101EC0001E4B5648C14559431A41013F093D2F3B1E
:101ED0007139CD374036C93465331432D430A32F2D
:101EE000802E6B2D632C672B752A8E29B028DC275A
:101EF00010274B268F25D9242B248223E02243222E
:101F0000AC211A218D200420801F001F841E0C1E6E
:101F1000971D261DB81C4E1CE61B821B201BC11AD8
:101F2000641A0A1AB2195D190A19B9186A181C1824
:101F3000D11788174017FA16B51673163116F11512
:101F4000B31576153A150015C7148F1458142214BA
:101F5000EE13BA13881356132513F612C7129912EB
:101F60006C1240121512EB11C11198117011481129
:101F70002111FB10D610B1108D10691046102410DD
:101F80000210E10FC00FA00F800F610F420F230F4F
:101F9000060FE80ECB0EAF0E930E770E5C0E410EC1
:101FA000270E0D0EF30DDA0DC10DA80D900D780D55
:101FB000600D490D320D1B0D050DEF0CD90CC30C36
:101FC000AE0C990C850C700C5C0C480C350C210C7B
:101FD0000E0CFB0BE80BD60BC40BB20BA00B8E0B3D
:101FE0007D0B6B0B5A0B4A0B390B290B180B080B8B
:101FF000F80AE90AD90ACA0ABB0AAC0A9D0A8E0A7B
:10200000800A710A630A550A470A390A2C0A1E0A0D
:10201000110A040AF709EA09DD09D009C409B70958
:10202000AB099F09920987097B096F096309580960
:102030004C09410936092B09200915090A0900092B
:10204000F508EB08E008D608CC08C208B808AE08C6
:10205000A4089A08900887087D0874086B0861082E
:1020600058084F0846083D0834082C0823081A0869
:10207000120809080108F807F007E807E007D80781
:10208000D007C807C007B807B007A807A107000016
:10209000420FA1071605D0030D038B022E02E801A3
:1020A000B2018601630145012C0117010401F4000E
:1020B0005072696E74657220526561647900507265
:1020C000696E746572205265616479005072696E40
:1020D00074657220526561647900207A3A00207933
:1020E0003A0020783A00696E20717565756544651F
:1020F0006C74614D6F766520746F2063616C6375DD
:102100006C61746544656C74615375625365676D89
:10211000656E74732072657475726E732065727269
:102120006F722E00432068697420666C6F6F7200B6
:1021300043706F732078207371756172652000435E
:10214000706F732078207374657073200043706F14
:1021500073207920737175617265200043706F730D
:1021600020792073746570732000422068697420A0
:10217000666C6F6F720042706F7320782073717598
:10218000617265200042706F7320782073746570EF
:1021900073200042706F73207920737175617265CE
:1021A000200042706F732079207374657073200073
:1021B000412068697420666C6F6F720041706F73A4
:1021C000207820737175617265200041706F7320F3
:1021D00078207374657073200041706F73207920CC
:1021E000737175617265200041706F73207920737F
:1021F0007465707320006D6F766552656C617469EB
:10220000766544697374616E6365496E5374657075
:1022100073202F20717565756544656C74614D6F11
:1022200076652072657475726E73206572726F7256
:10223000004D617854656D703A004469616D657454
:1022400065723A00416363656C65726174696F6EB3
:102250003A004D617853706565643A004A65726B67
:102260003A004D617842656454656D703A00507271
:10227000696E746572547970653A44656C74610076
:102280005A54726176656C416363656C3A005954C7
:10229000726176656C416363656C3A005854726193
:1022A00076656C416363656C3A005A5072696E746E
:1022B000416363656C3A00595072696E744163639F
:1022C000656C3A00585072696E74416363656C3A8C
:1022D000005A53697A653A005953697A653A005849
:1022E00053697A653A005A4D61783A00594D6178E0
:1022F0003A00584D61783A005A4D696E3A00594D8E
:10230000696E3A00584D696E3A004A65726B5859C9
:102310003A005072696E746C696E654361636865FA
:102320003A00454550524F4D3A004175746F6C6507
:1023300076656C3A005A50726F62653A0043617379
:10234000654C69676874733A00537570706F727486
:102350004C6F63616C46696C616D656E7463686136
:102360006E67653A00537570706F7274473130470D
:1023700031313A005A486F6D654469723A005948E4
:102380006F6D654469723A0058486F6D65446972B3
:102390003A00536F667477617265506F7765725358
:1023A00077697463683A004C43443A0046616E3A78
:1023B000005344436172643A004865617465644245
:1023C00065643A004D6978696E6745787472756422
:1023D00065723A004E756D45787472756465723A2F
:1023E00000496E7075744275666665723A004261A6
:1023F0007564726174653A004E6F20636173652085
:102400006C6967687473004D31313420007A7072E2
:102410006F62696E672E2E2E0064656C61792031C3
:1024200030306D732E00686F6D65417869732000E0
:10243000686F6D6541786973202F207175657565CA
:1024400044656C74614D6F76652072657475726E4B
:1024500073206572726F7200486F6D652044656C01
:102460007461005072696E7465723A3A736574757E
:102470007020006D6F7665546F5265616C202F205F
:10248000717565756544656C74614D6F7665207214
:10249000657475726E73206572726F72006D6F76FF
:1024A00065546F202F20717565756544656C746186
:1024B0004D6F76652072657475726E7320657272E9
:1024C0006F72005374657070657220446973616245
:1024D0006C6564004B696C6C6564006973506F7364
:1024E0006974696F6E416C6C6F776564200055701C
:1024F0006C6F6164696E672E2E2E0000534420704D
:1025000072696E742073746F7070656420627920D4
:10251000757365722E005344206361726420696E86
:10252000736572746564005344204361726420696A
:102530006E73657274656400534420436172642055
:1025400072656D6F76656400534420636172642028
:1025500072656D6F76656400000021104220633063
:102560008440A550C660E770088129914AA16BB1EB
:102570008CC1ADD1CEE1EFF1311210027332522293
:10258000B5529442F772D662399318837BB35AA33B
:10259000BDD39CC3FFF3DEE3622443342004011463
:1025A000E664C774A44485546AA54BB5288509958B
:1025B000EEE5CFF5ACC58DD5533672261116300633
:1025C000D776F6669556B4465BB77AA719973887DB
:1025D000DFF7FEE79DD7BCC7C448E5588668A778F3
:1025E0004008611802282338CCC9EDD98EE9AFF92B
:1025F000488969990AA92BB9F55AD44AB77A966AD3
:10260000711A500A333A122AFDDBDCCBBFFB9EEB7A
:10261000799B588B3BBB1AABA66C877CE44CC55CA2
:10262000222C033C600C411CAEED8FFDECCDCDDDCA
:102630002AAD0BBD688D499D977EB66ED55EF44E72
:10264000133E322E511E700E9FFFBEEFDDDFFCCF1A
:102650001BBF3AAF599F788F8891A981CAB1EBA16E
:102660000CD12DC14EF16FE18010A100C230E320EA
:102670000450254046706760B9839893FBA3DAB392
:102680003DC31CD37FE35EF3B1029012F322D2323A
:102690003542145277625672EAB5CBA5A895898562
:1026A0006EF54FE52CD50DC5E234C324A01481048A
:1026B0006674476424540544DBA7FAB79987B89732
:1026C0005FE77EF71DC73CD7D326F2369106B016DA
:1026D00057667676154634564CD96DC90EF92FE9F2
:1026E000C899E9898AB9ABA944586548067827682A
:1026F000C018E1088238A3287DCB5CDB3FEB1EFBD2
:10270000F98BD89BBBAB9ABB754A545A376A167A79
:10271000F10AD01AB32A923A2EFD0FED6CDD4DCDA1
:10272000AABD8BADE89DC98D267C076C645C454CC9
:10273000A23C832CE01CC10C1FEF3EFF5DCF7CDF71
:102740009BAFBABFD98FF89F176E367E554E745E19
:10275000932EB23ED10EF01E7C3C3E5E2B3D3F2FB1
:102760005B5D3B2C2A225C00526571756573745069
:10277000617573653A004D31313720494E534552EA
:10278000542053442043415244004D3131372053AB
:10279000442043415244204552524F520055495F14
:1027A000414354494F4E5F5345545F4D4541535546
:1027B0005245445F4F524947494E20004E6F2053C7
:1027C0004420436172640053687574204F6666202C
:1027D000414C4C20486561747300507265686561B6
:1027E0007420414253005072656865617420504CFA
:1027F000410055495F414354494F4E5F484F4D4555
:102800005F5A200055495F414354494F4E5F484F3E
:102810004D455F59200055495F414354494F4E5F34
:10282000484F4D455F58200055495F414354494F3B
:102830004E5F484F4D45414C4C200055495F414348
:1028400054494F4E5F5A504F534954494F4E5F467B
:102850004153545F4E4F54455354200055495F41F6
:102860004354494F4E5F5A504F534954494F4E5F5E
:102870004E4F54455354200055495F414354494FEE
:102880004E5F45504F534954494F4E200055495FC4
:10289000414354494F4E5F5A504F534954494F4E4C
:1028A0005F46415354200055495F414354494F4EC0
:1028B0005F59504F534954494F4E5F46415354203E
:1028C0000055495F414354494F4E5F58504F53495B
:1028D00054494F4E5F46415354200055495F414390
:1028E00054494F4E5F5A504F534954494F4E200060
:1028F00055495F414354494F4E5F59504F534954D6
:10290000494F4E200055495F414354494F4E5F584F
:10291000504F534954494F4E200042616E67426107
:102920006E6700536C6F7742616E67004465616447
:102930002054696D650050494400003A00206461EC
:102940007973200050657263656E74205072696EF1
:102950007465643A0020646566200046572044612F
:102960007465203230313730333136004861636B63
:102970006572204832005365654D65434E430048FB
:1029800061636B6572204832000736BD355535F8F6
:1029900034416374696F6E3A256C61000400030072
:1029A0004E6F00596573004E2F41004F6666004F11
:1029B0006E000000003FCDCC4C3D0AD7A33B6F1208
:1029C000033A5265706574696572207620302E393D
:1029D000322E3200004014548025000040380000A0
:1029E000004B00008070000000960000C0DA00007C
:1029F00000E10000002C010008B2010000C201004B
:102A000000F401000084030090D0030000E80300FC
:102A10000008070020A1070000100E0040420F0030
:102A200060E3160000000000110A0411040A1111ED
:102A3000001C1F11111F0000040A0A0A0E1F1F0E9E
:102A4000001F1111111F0000001F1F1F1F1F00007A
:102A5000040A040000000000040E15041C0000001D
:102A60000200000600672A7F32CD2A4E2FA02AA13D
:102A70002F0F2B02000007007A2A7F32882A4E2F60
:102A8000A02AA12FD92EB42A8F2A024F300000503D
:102A900072696E7465722053657474696E67730031
:102AA000A72A023D31000041646A757374205465A1
:102AB0006D707300BB2A02E52A0000416476616EE6
:102AC0006365642053657474696E677300D42A0269
:102AD000683000005072696E7465722053657474BA
:102AE000696E6773000200000900EC2A7F32FA2B3E
:102AF000E62BD62BC62BFE2AAF2B972B0F2B052BA5
:102B0000027C2E0000446562756767696E67001677
:102B10002B026031000043616C6962726174696FFD
:102B20006E204D656E750003102702002E2B392B89
:102B3000322B402B0000000000512B000000000051
:102B40006C6F6164656420662E20454550524F4D80
:102B500000436F6E66696775726174696F6E00031A
:102B600010270200662B712B6A2B782B00000000C7
:102B700000892B000000000073746F726564206987
:102B80006E20454550524F4D00436F6E6669677524
:102B9000726174696F6E009E2B03070400004C6F16
:102BA00061642066726F6D20454550524F4D00B6EE
:102BB0002B030604000053746F726520746F204568
:102BC0004550524F4D00CD2B02092C000045787422
:102BD000727564657200DD2B02102E00004665657B
:102BE000647261746500ED2B023C2E00004163634A
:102BF000656C65726174696F6E00012C025C2D005A
:102C00000047656E6572616C000200001000102CB8
:102C10007F32482D342D222D112DFC2CCD2CE52C6E
:102C2000B62CA32C8F2C7E2C6D2C582C432C302CA6
:102C3000372C042F040000504944204D61783A2578
:102C40005844004A2C04260400004472697665202A
:102C50004D61783A25584D005F2C0425040000444E
:102C600072697665204D696E3A25586D00742C04A2
:102C70002404000050494420443A25586400852C1F
:102C8000042304000050494420493A25586900961D
:102C90002C042204000044542F50494420503A256B
:102CA000587000AA2C042D040000436F6E74726FDC
:102CB0006C3A25586800BD2C044604000041647637
:102CC000616E6365206C696E3A25586C00D42C04E3
:102CD0004D0400005761697420556E6974733A257C
:102CE00058556D6D00EC2C044C040000576169745C
:102CF0002054656D702E255854024300032D042E78
:102D0000040000537461622E54696D653A2558774A
:102D100000182D042A040000416363656C3A2558AD
:102D20004100292D042B0400004D61782046523AC1
:102D3000255846003B2D042C040000537461727426
:102D40002046523A255866004F2D042904000053AE
:102D5000746570732F4D4D3A2553650002000004D1
:102D600000632D7F32982D802D6B2D722D02AC2D9E
:102D700000004D61782E20496E61637469766500AC
:102D8000872D02DE2D000053746570706572204936
:102D90006E616374697665009F2D04100400004223
:102DA000617564726174653A256F630003580402AB
:102DB00000B32DBE2DB72DC52D0000000000CF2D76
:102DC00000000000005B735D20303D4F66660044EC
:102DD00069732E2041667465723A2569700003207C
:102DE000040200E52DF02DE92DF72D000000000074
:102DF000012E00000000005B735D20303D4F6666D1
:102E0000004469732E2041667465723A2569730027
:102E10000200000300172E7F322D2E1D2E242E04BB
:102E200013040000486F6D653A25665A00342E047D
:102E3000160400004D61783A25667A00020000040D
:102E400000432E7F326B2E5B2E4B2E522E040E042F
:102E500000004A65726B3A25616A00622E040D0417
:102E600000004D6F76653A25615A00722E040A04FF
:102E700000005072696E743A25617A000200000504
:102E800000832E7F32C62EB32EA02E8D2E942E03BD
:102E9000350400004472792072756E3A256464002E
:102EA000A72E03340400004572726F7273203A2516
:102EB000646500BA2E0333040000496E666F20205B
:102EC000203A25646900CD2E033204000045636872
:102ED0006F2020203A25646F00E02E02ED2E0000C6
:102EE00053442043617264204D656E7500020000FA
:102EF0000600F42E7F324E2F3B2F252F132F002F4D
:102F0000072F03F403010244656C6574652066694C
:102F10006C65001A2F026D2F020053746F702050E1
:102F200072696E74002C2F03F7030400436F6E74F4
:102F3000696E7565205072696E7400422F03F60346
:102F400002045061757365205072696E7400552FCC
:102F500003F503010253656C6563742053442046F6
:102F6000696C650001000001006B2F7F32020000D8
:102F70000300742F8F2F852F7A2F812F0354240263
:102F800000596573008C2F03E80300004E6F009614
:102F90002F010000000053746F70205072696E742E
:102FA00000A82F02B92F000041646A75737420468F
:102FB000616E207370656564000200000700C02F19
:102FC0007F32373023300E30F92FE42FCE2FD52F1C
:102FD000031E0400005365742046616E20313030BA
:102FE00025252500EB2F031D0400005365742046A2
:102FF000616E203735252525000030031C040000B4
:103000005365742046616E20353025252500153026
:10301000031B0400005365742046616E2032352581
:103020002525002A30031A0408005475726E2046C4
:10303000616E204F6666003E300452040000466117
:103040006E2073706565643A254673252525000258
:1030500000000A0056307F32B4309B301231FF300E
:10306000E5306B32CD3025310200000A006F307F31
:1030700032B4309B301231FF30E5306B328330CDCB
:103080003025318A3003B20F0000556E6C6F636BD0
:103090002046756C6C204D656E7500A230044804A6
:1030A0000000466C6F772020526174653A256F6688
:1030B00025252500BB30041F04000053706565649E
:1030C00020526174653A256F6D25252500D43003A3
:1030D0004204001044697361626C6520537465702A
:1030E0007065727300EC3003380400005368757427
:1030F000204F666620414C4C204865617473000681
:1031000031034704000050726568656174204142D4
:10311000530019310337040000507265686561740B
:1031200020504C41002C31033604000041545820FB
:10313000706F776572206F6E2F6F666600020000F9
:10314000030044317F3248314F31043D0400004ECA
:103150004F5A2054656D703A2020254530024300B7
:10316000020000060067317F329D3173316B3235CA
:103170003289317A310421040000482E20526164E2
:10318000697573203A256F6800903103AC0F000019
:10319000536574205A204F726967696E00A431022A
:1031A000B531000046756C6C2043616C69627261D8
:1031B00074696F6E000200000400BC317F32F2318E
:1031C000DD31C431CB3103B10F0000426567696E58
:1031D0002043616C6962726174696F6E00E431034F
:1031E000B50F00004245442041524520434C454123
:1031F0004E00F93103B40F00004D414B45205355AB
:103200005245204E4F5A5A4C4520260002000006D7
:103210000013327F326B325932473235321F322639
:10322000320298320000457874722E20706F7369F4
:1032300074696F6E003C3202F93300005A20506FFF
:10324000736974696F6E004E32024E34000059206B
:10325000506F736974696F6E00603202A3340000AE
:103260005820506F736974696F6E00723203FD03EA
:103270000000486F6D65205072696E74657200863B
:103280003203E803000050726576696F757320534E
:10329000637265656E20010003F00304009F32BC79
:1032A00032B532AE32A732C3320000000000D13254
:1032B0000000000000E2320000000000F1320000D7
:1032C000000000255566206D207072696E7465647B
:1032D0000020453A2565632F25456302437E256F0F
:1032E00043003120636C69636B203D2031206D6D9C
:1032F00000453A257833206D6D0003FC030400017E
:10330000331E331733103309332533000000000018
:103310002633000000000036330000000000463372
:103320000000000000004D617820656E6473746FCA
:10333000703A25735A004D696E20656E6473746F20
:10334000703A25737A005A3A257832206D6D000361
:10335000FB030400563373336C3365335E337A33C7
:1033600000000000007B3300000000008B330000F1
:103370000000009B330000000000004D61782065D4
:103380006E6473746F703A257359004D696E2065D1
:103390006E6473746F703A25737900593A257831E9
:1033A000206D6D0003FA030400AB33C833C133BA98
:1033B00033B333CF330000000000D03300000000EF
:1033C00000E0330000000000F033000000000000C7
:1033D0004D617820656E6473746F703A2573580080
:1033E0004D696E20656E6473746F703A2573780052
:1033F000583A257830206D6D0003EF030400003447
:103400001D3416340F340834243400000000002525
:103410003400000000003534000000000045340096
:1034200000000000004D617820656E6473746F7059
:103430003A25735A004D696E20656E6473746F701F
:103440003A25737A005A3A257832206D6D0003EEE2
:10345000030400553472346B3464345D34793400C1
:10346000000000007A3400000000008A34000000F0
:1034700000009A340000000000004D617820656E65
:103480006473746F703A257359004D696E20656ED0
:103490006473746F703A25737900593A2578312036
:1034A0006D6D0003ED030400AA34C734C034B93491
:1034B000B234CE340000000000CF34000000000021
:1034C000DF340000000000EF340000000000004D79
:1034D000617820656E6473746F703A257358004D7F
:1034E000696E20656E6473746F703A257378005846
:1034F0003A257830206D6D000000000400FF341C78
:103500003515350E35073523350000000000293507
:1035100000000000003D35000000000041350000C3
:10352000000000255566206D00546F74616C2046C4
:10353000696C616D656E7420557365640025557402
:1035400000546F74616C205072696E74696E6720EC
:1035500054696D650000000004005C3579357235F2
:103560006B356435803500000000008A35000000AE
:10357000000098350000000000AA3500000000009F
:103580004861636B6572204832005072696E7465E1
:1035900072204D6F64656C00465720446174653A33
:1035A000203230313730333136004657205665727D
:1035B00073696F6E3A20302E39322E3200000000CF
:1035C0000400C435E135DA35D335CC35E8350000B3
:1035D000000000EC350000000000F53500000000A0
:1035E00000FE350000000000256F73005A3A257870
:1035F00032206D6D00593A257831206D6D00583AB2
:10360000257830206D6D0000000004000E362B364A
:1036100024361D36163632360000000000363600DD
:10362000000000003F360000000000583600000097
:103630000000256F73005A3A257832206D6D0053D3
:10364000706565643A256F6D25252520466C6F777A
:103650003A256F66252525004E4F5A3A2565632089
:103660005461726765743A254563000000000000EC
:10367000000000000000FF0000010000000A0B0233
:10368000090C0D0E080703040100000000000000F3
:10369000000000000000000000000000000000002A
:1036A00000000000000000121110000000000000E7
:1036B000000000000000000000000000000000000A
:1036C0000001021020200808102040102040800235
:1036D0000102010804020101020408102040808058
:1036E00040201008040201800402018040201008DC
:1036F00004020108040201010204081020408001B4
:103700000204081020408005050505070508080883
:1037100008020202020A0A08080404040401010162
:10372000010101010103030303030303030407076A
:10373000070C0C0C0C0C0C0C0C0202020206060608
:1037400006060606060B0B0B0B0B0B0B0B000020E3
:10375000002300260029002C002F00320000010069
:103760000003010601090100002200250028002BAA
:10377000002E003100340002010000050108010B99
:103780000100002100240027002A002D0030003312
:103790000001010000040107010A01024E414E49E7
:1037A0004E495459494E46CDCCCC3D0AD7233C17FF
:1037B000B7D13877CC2B329595E6241FB14F0A004C
:1037C0000020410000C84200401C4620BCBE4CCA3C
:1037D0001B0E5AAEC59D74007A76C9B0ABBCD8FB3F
:1037E00011241FBECFEFD1E2DEBFCDBF00E00CBF82
:1037F00013E0A0E0B2E0E8ECFAE102E00BBF02C0A7
:1038000007900D92A633B107D9F72EE1A6E3B3E0F6
:1038100001C01D92A932B207E1F717E3C0EED7E36A
:1038200000E006C022970109FE010BBF0F94DD08DE
:10383000C83DD10780E00807A9F70F949E000D94BA
:10384000620D0C940000CF93DF9300D01F92CDB790
:10385000DEB744E050E0BC01CE0101960F941E0D8E
:1038600069817A818B819C810F900F900F900F90CE
:10387000DF91CF910895179A0895169A0895159A91
:10388000089588E493E0DFCFCF92DF92EF92FF922A
:10389000CF93DF9300D01F921F92CDB7DEB76B019D
:1038A0007C01609331187093321880933318909391
:1038B00034180E941299C982DA82EB82FC8244E0B9
:1038C00050E065E773E0CE0101960F94400D23E0D0
:1038D000B701A60180ED94E00E94E64C0E9458508A
:1038E000682F88E690E06D830F942E0D6D81681728
:1038F00021F088E690E00F94490D0F900F900F9003
:103900000F900F90DF91CF91FF90EF90DF90CF90CD
:103910000895CF93DF931F92CDB7DEB7BC018DE73B
:1039200093E00F945C0D0E945850682F88E690E059
:1039300069830F942E0D6981681739F088E690E04D
:103940000F90DF91CF910D94490D0F90DF91CF91A2
:103950000895CF93DF931F92CDB7DEB7BC018FE7F9
:1039600093E00F945C0D0E945850682F88E690E019
:1039700069830F942E0D6981681739F088E690E00D
:103980000F90DF91CF910D94490D0F90DF91CF9162
:103990000895CF93DF931F92CDB7DEB7BC0181E8C6
:1039A00093E00F945C0D0E945850682F88E690E0D9
:1039B00069830F942E0D6981681739F088E690E0CD
:1039C0000F90DF91CF910D94490D0F90DF91CF9122
:1039D0000895CF93C82F809147048823D1F0109287
:1039E00047040E94F4659091900291509093900248
:1039F000911109C080919102833010F40E949B655F
:103A000085E0809390026C2F83E79CE1CF910C942A
:103A10005FF9CF91089580910E06882349F00E94A6
:103A20009E6F80E0D6DF83E79CE10E945EF9F3CFD2
:103A300008954F925F926F927F928F929F92AF9272
:103A4000BF92CF92DF92EF92FF920F931F93CF938B
:103A5000DF9300D01F92CDB7DEB78C018091AB18F9
:103A60009091AC18A091AD18B091AE1889839A834B
:103A7000AB83BC83C090AF18D090B018E090B11861
:103A8000F090B2188090B3189090B418A090B51828
:103A9000B090B6189C01AD01BC01CD010F940F0888
:103AA00081110FC149805A806B807C80E89477F83F
:103AB0002FEF3FEF4FE75FE7C301B2010F940F080D
:103AC00081110BC02FEF3FEF4FE75FE7C301B2015A
:103AD0000F94BC0418160CF4F4C0A7019601C7019A
:103AE000B6010F940F088111ECC026013701E8944C
:103AF00077F82FEF3FEF4FE75FE7C301B2010F9475
:103B00000F0881110BC02FEF3FEF4FE75FE7C301B5
:103B1000B2010F94BC0418160CF4D3C0A501940193
:103B2000C501B4010F940F088111CBC024013501E8
:103B3000E89477F82FEF3FEF4FE75FE7C301B2015B
:103B40000F940F0881110BC02FEF3FEF4FE75FE796
:103B5000C301B2010F94BC0418160CF4B2C020913A
:103B60008318309184184091851850918618698186
:103B70007A818B819C810F9458042B013C01209108
:103B80008718309188184091891850918A18C70178
:103B9000B6010F9458046B017C0120918B18309171
:103BA0008C1840918D1850918E18C501B4010F9456
:103BB00058044B015C0180910B19882329F020E700
:103BC00032E441E25DE304C020E030E040E85FE33E
:103BD000C301B2010F946407AB01BC0122E089EB81
:103BE00097E10E94234D80910B19882329F020E74B
:103BF00032E441E25DE304C020E030E040E85FE30E
:103C0000C701B6010F946407AB01BC0122E081EB50
:103C100097E10E94234D80910B19882329F020E71A
:103C200032E441E25DE304C020E030E040E85FE3DD
:103C3000C501B4010F946407AB01BC0123E08DEA18
:103C400097E10E94234D6091C3187091C418809130
:103C5000C5189091C6180F948F05209107193091BF
:103C600008194091091950910A190F94640720917D
:103C70000B19222329F020E732E441E25DE304C07E
:103C800020E030E040E85FE30F946407AB01BC0143
:103C900024E089EA97E10F900F900F900F90DF9149
:103CA000CF911F910F91FF90EF90DF90CF90BF9039
:103CB000AF909F908F907F906F905F904F900C94FB
:103CC000E64CC8010E940C4B4ACFCF92DF92EF9294
:103CD000FF92CF93DF93EC01893191053CF0C53F12
:103CE00081E0D8072CF0C4EFD1E002C0C9E1D0E0F8
:103CF000BE01882777FD8095982F0F948F056B0163
:103D00007C016091BB177091BC17882777FD809567
:103D1000982F0F948F059B01AC01C701B6010F943A
:103D2000C3049B01AC016091BD177091BE178091D7
:103D3000BF179091C0170F9464076093BD177093DD
:103D4000BE178093BF179093C017D093BC17C09332
:103D5000BB17BE018CE897E1DF91CF91FF90EF9008
:103D6000DF90CF900C94CE4BCF92DF92EF92FF92E8
:103D70006B017C0120E030E040E752E40F94BC048A
:103D800087FD11C020E030E046E153E4C701B601F1
:103D90000F94F00618166CF4C12CD12C86E1E82E95
:103DA00083E4F82E06C0C12CD12C90E7E92E92E4D2
:103DB000F92EC0923118D0923218E0923318F09256
:103DC000341822E0B701A60183E797E1FF90EF9056
:103DD000DF90CF900C94E64C8F929F92AF92BF925F
:103DE000CF92DF92EF92FF92CF93DF93EC01893174
:103DF000910534F0893C91052CF0C8ECD0E002C06C
:103E0000C9E1D0E0D093BA17C093B917E091360357
:103E1000F0913703E258FF4FC080D180E280F380F9
:103E200020E030E0A901C701B6010F94BC04AE0147
:103E3000662757FD6095762F18165CF0CB01BA0106
:103E40000F948F052AE037ED43E25CE30F9464079B
:103E500024C0CB01BA010F948F052AE037ED43E26D
:103E60005CE30F94640720E030E040E850E40F94F6
:103E700064074B015C01A7019601C701B6010F94CD
:103E800064072BED3FE049E450E40F9464079B0185
:103E9000AC01C501B4010F94C3046093A5027093F3
:103EA000A6028093A7029093A802BE018EE797E135
:103EB000DF91CF91FF90EF90DF90CF90BF90AF90C8
:103EC0009F908F900C94CE4BCF93DF9320917F18CF
:103ED00097FD0DC0EC018F3F910519F014F0CFEF65
:103EE000D0E0209721F0286020937F1805C0277F1D
:103EF00020937F18C0E0D0E061118DDD80916717BD
:103F000090E0C817D90729F0BE0189E697E10E9421
:103F1000CE4BC0936717DF91CF9108954F925F9278
:103F20006F927F928F929F92AF92BF92CF92DF92C9
:103F3000EF92FF92CF93DF9300D01F92CDB7DEB701
:103F40002FE632E143E85AE36091A3177091A4177A
:103F50008091A5179091A6170F9464076B017C01BF
:103F600081E890E070DC9B01AC01C701B6010F94C1
:103F70005804AB01BC0122E087E597E10E94234D84
:103F800085E497E10E94D34AE0910A02F0910B0286
:103F900020E030E040E751E46385748585859685AF
:103FA0000F94F00618160CF46BC020E030E0A90165
:103FB0008DE790E029833A834B835C830F94360D21
:103FC0004B015C0129813A814B815C81820E931EF9
:103FD000A41EB51EC501B40120E831E541E050E062
:103FE0000F94900860E87EEA8EEF9FEF0F942B0805
:103FF0006B017C01C80CD91CEA1CFB1CBA01A9018D
:1040000088E497E10E94F44BC701B60120E13EE04D
:1040100040E050E00F94900849015A01BA01A9010B
:104020008EE397E10E94F44BA0EFB1EFA50194015C
:104030000F94D9086C0D7D1D8E1D9F1D2CE330E063
:1040400040E050E00F949008BA01A90186E397E19F
:104050000E94F44B81E397E10F900F900F900F9027
:10406000DF91CF91FF90EF90DF90CF90BF90AF9016
:104070009F908F907F906F905F904F900C94EB4A41
:104080000E942FFEC090A717D090A817E090A91704
:10409000F090AA176C197D098E099F0928EE33E06C
:1040A00040E050E00F946E0883CF811102C08EE291
:1040B00007C0813011F48DE203C0823019F48CE224
:1040C0000C94EFFE0895EAE0F1E08081886080833F
:1040D00080818061808380818062808364E670E07B
:1040E0008EE20E94EFFE64E670E08DE20E94EFFE39
:1040F00062E870E08CE20E94EFFEE1E2F1E0808194
:10410000887F81608083089567FD43C08230E9F035
:1041100028F4882341F0813061F03BC0833009F1FD
:10412000843059F136C0662311F0A19A69C0A19874
:1041300067C080910801662311F0806801C08F7705
:104140008093080147FF3AC05FC080910801662351
:1041500011F0806401C08F7B8093080147FF34C059
:1041600055C080910801662311F0886001C0877FE7
:104170008093080147FF32C046C080910501662345
:1041800011F0806401C08F7B8093050147FF2EC032
:104190003CC047FD3BC08230B9F028F4882341F091
:1041A000813061F008958330C9F08430F9F00895CA
:1041B000442311F0A09A0895A0980895442311F083
:1041C000A29A0895A298089580910801442311F0BD
:1041D000806201C08F7D809308010895809108015D
:1041E000442311F08061F7CF8F7EF5CF80910501D8
:1041F000442311F0806401C08F7B809305010895F2
:1042000047FFD6CF0895089508950895089564301E
:1042100079F028F4613041F0623041F0089568305F
:1042200051F0603141F0089540E003C040E004C027
:1042300041E060E002C041E061E066CFCF93DF93F0
:1042400082E197E10E94EB4A62B36695617070E08B
:1042500089EB97E10E94C24B62B3617070E08FE21C
:1042600097E10E94CE4BC6E0D1E08881992787FD77
:104270009095692F661F6627661F70E08AE297E1B6
:104280000E94C24B62B362FB662760F970E08FE266
:1042900097E10E94CE4B688166FB662760F970E06B
:1042A00087E297E10E94C24B688165FB662760F94F
:1042B00070E08FE297E10E94CE4B688163FB662736
:1042C00060F970E083E297E10E94C24B68816295D9
:1042D000617070E08FE297E10E94CE4BC3E0D1E0C5
:1042E000688166FB662760F970E08FE197E10E94C4
:1042F000C24B688166FB662760F970E08FE297E148
:10430000DF91CF910C94CE4BFF920F931F93CF93DD
:10431000DF9300D01F921F92CDB7DEB785E0E8EFA4
:10432000F2E0DE01119601900D928A95E1F7989ADC
:104330009A9A80910701806280930701809107011A
:10434000806180930701809104018064809304015F
:104350008E010F5F1F4FF12CF80161918F018F2D9E
:1043600056DFF394F5E0FF12F7CF0F900F900F9008
:104370000F900F90DF91CF911F910F91FF900895B3
:104380000C946F730E945A732091080230910902B5
:104390008217930724F490930902809308020895EA
:1043A00060910802709109028091060290910702C3
:1043B0006817790744F470930702609306028CEB48
:1043C00097E10C94CE4B0895CF93C82F69E170E02C
:1043D00080E39DE10E94C3FB6C2F80E39DE10E947E
:1043E00064FB60E080E39DE10E94C4FB882329F028
:1043F0008CEF9BE0CF910C94EB4ACF910895CF9333
:10440000DF93D82FC62F69E170E080E39DE10E9421
:10441000C3FB6D2F80E39DE10E9464FB6C2F80E362
:104420009DE10E9464FB80E39DE10E94D6FB88230E
:1044300031F08DED9BE0DF91CF910C94EB4ADF9151
:10444000CF9108951F93CF93DF93182FBDDF41E0E5
:1044500050E069E170E080E39DE10E94B7FB80E3FA
:104460009DE10E940DFB892BA1F080E39DE10E945C
:1044700015FBEC01612F70E083ED9BE00E94C24BC5
:10448000BE0177278AEC9BE0DF91CF911F910C94BE
:10449000CE4B8CEA9BE0DF91CF911F910C94EB4ABD
:1044A00087E89BE00E94EB4A80E39DE10E94A2FB2B
:1044B0008FE0C8DF81E3C6DF80E2C4DF6CE980E221
:1044C0009EDF80E2BFDF82E2BDDF60E482E297DF51
:1044D00082E2B8DF85E2B6DF60E085E290DF85E268
:1044E000B1DF83E2AFDF60E383E289DF83E2AADF4B
:1044F00084E2A8DF6AE484E282DF84E2A3DF80E36F
:10450000A1DF60E280E37BDF80E39CDF81E39ADF71
:1045100082E398DF64E182E372DF82E393DF83E387
:1045200091DF60E083E36BDF83E38CDF84E38ADF8A
:1045300060E084E364DF84E385DF86E383DF62E3B6
:1045400086E35DDF86E37EDF87E37CDF60E087E391
:1045500056DF87E377DF88E375DF60E188E34FDFCD
:1045600088E370DF89E36EDF8AE36CDF62E38AE36E
:1045700046DF8AE367CF81E365DF85E363DF89E3B5
:1045800061DF8DE25FCF6DE08CE195E00E940E72FD
:104590006AE08CE195E00C940E72E0913603F091A4
:1045A000370342A953A964A975A922E086EA97E1D5
:1045B0000E94234DE0913603F091370346A957A995
:1045C00060AD71AD20E08BE997E10E94234DE09151
:1045D0008F02EF3F29F4E0913603F0913703E08139
:1045E000F0E0EC59F84E608170E082EA97E10E94B9
:1045F000C24BC9CF2F923F924F925F926F927F92A0
:104600008F929F92AF92BF92CF92DF92EF92FF92E2
:104610000F931F93CF93DF93CDB7DEB729970FB6D4
:10462000F894DEBF0FBECDBF5C01DC0116968D9104
:104630009C9117978C38910509F48BC608F0E7C058
:104640008235910509F42FC408F08AC08A3191059A
:1046500009F4D1C208F03FC08531910509F449C27F
:1046600078F48231910509F423C28431910509F46B
:1046700024C2419711F00C941F3317981698D0C597
:104680008731910509F46DC208F44FC28831910554
:1046900009F495C2499711F00C941F3360E080E152
:1046A00099E129960FB6F894DEBF0FBECDBFDF911A
:1046B000CF911F910F91FF90EF90DF90CF90BF901F
:1046C000AF909F908F907F906F905F904F903F90B2
:1046D0002F900C9476B78E31910509F4E9C218F544
:1046E0008C31910509F4BCC210F00C94563380E172
:1046F00099E129960FB6F894DEBF0FBECDBFDF91CA
:10470000CF911F910F91FF90EF90DF90CF90BF90CE
:10471000AF909F908F907F906F905F904F903F9061
:104720002F900C94C5BB8A32910509F41BC328F461
:10473000809709F4EAC20C941F338035910509F47F
:104740009DC38135910511F00C941F3364D99B9A58
:10475000809181188F7B80938118A39A0C94563393
:104760008B36910511F40C94572C38F58C35910546
:1047700009F4A4C460F48435910509F49DC308F4D8
:1047800096C38535910509F475C40C941F3388369A
:10479000910509F448C530F48336910509F4F2C453
:1047A0000C941F338936910509F427C68A36910582
:1047B00011F40C94462C0C941F338337910511F49B
:1047C0000C94A72C80F48F36910511F40C94782C5E
:1047D0008237910511F40C94C52C8D36910511F09A
:1047E0000C941F332CC68537910511F40C94C82CFA
:1047F00010F40C94002C8737910511F40C94F32CD1
:104800008837910511F40C94362D0C941F338530A4
:10481000B1E09B0711F40C94403008F0B0C08F3C1D
:10482000910511F40C94DA2E08F041C08A3C9105F0
:1048300011F40C940D2E70F4883C910511F40C9435
:104840005C2D10F00C94AF2D8E3B910509F4CBC775
:104850000C941F338C3C910511F40C94642E10F4CD
:104860000C94522E8D3C910511F40C94C02E8E3C6C
:10487000910511F00C941F33C50129960FB6F894D9
:10488000DEBF0FBECDBFDF91CF911F910F91FF9083
:10489000EF90DF90CF90BF90AF909F908F907F90E0
:1048A0006F905F904F903F902F900C94A8568F3D43
:1048B000910511F40C94952F88F48C3D910511F419
:1048C0000C94422F8D3D910511F40C946A2F813D7B
:1048D000910511F00C941F330C94222F893E910501
:1048E00011F40C94AA2F40F5883E910511F00C9418
:1048F0001F3360916C1770916D178BEC96E10E94DD
:10490000C24B409168175091691760916A17709176
:104910006B1722E082EC96E10E94E64C10926D1734
:1049200010926C17109268171092691710926A17FC
:1049300010926B170C9456338B3F910511F40C9425
:10494000E32F8430914011F00C941F3329960FB659
:10495000F894DEBF0FBECDBFDF91CF911F910F91B5
:10496000FF90EF90DF90CF90BF90AF909F908F908F
:104970007F906F905F904F903F902F9091CD8E35AC
:1049800021E0920711F40C949731C0F58E3241E08A
:10499000940711F40C94E33098F48931A1E09A075C
:1049A00011F40C9498308C32B1E09B0711F40C9404
:1049B000A8308630914011F00C941F330C94623073
:1049C0008034F1E09F0711F40C94553138F48F32A4
:1049D000914011F40C9422310C941F33813441E046
:1049E000940711F40C9459318234914011F00C94D5
:1049F0001F3380E00E949BAC0C946E318239A1E0A1
:104A00009A0711F40C94823298F58836E1E09E07FB
:104A100011F40C944E3238F48336914011F40C9416
:104A200008320C941F33803931E0930711F40C9451
:104A300068328139914011F00C941F3329960FB6DA
:104A4000F894DEBF0FBECDBFDF91CF911F910F91C4
:104A5000FF90EF90DF90CF90BF90AF909F908F909E
:104A60007F906F905F904F903F902F900C94BEAAD4
:104A7000853F51E0950711F40C94B23260F4843F05
:104A8000914011F00C941F3380E00E946F508AE433
:104A900092E10C94BD32863FE1E09E0711F40C9444
:104AA000D7328C38934011F40C94F1320C941F33AC
:104AB0000E943B1C0E943D1C8CC280E199E129961A
:104AC0000FB6F894DEBF0FBECDBFDF91CF911F911F
:104AD0000F91FF90EF90DF90CF90BF90AF909F909D
:104AE0008F907F906F905F904F903F902F900C949D
:104AF00009BB80E199E129960FB6F894DEBF0FBE9D
:104B0000CDBFDF91CF911F910F91FF90EF90DF907C
:104B1000CF90BF90AF909F908F907F906F905F905D
:104B20004F903F902F900C94F8B680E199E1299630
:104B30000FB6F894DEBF0FBECDBFDF91CF911F91AE
:104B40000F91FF90EF90DF90CF90BF90AF909F902C
:104B50008F907F906F905F904F903F902F900C942C
:104B6000FDB6D5018D919C9197FD02C00C945633F2
:104B700060E080E199E10E94FBC5F501EE5AFF4F2C
:104B80006081718140E080E199E129960FB6F89447
:104B9000DEBF0FBECDBFDF91CF911F910F91FF9070
:104BA000EF90DF90CF90BF90AF909F908F907F90CD
:104BB0006F905F904F903F902F900C943CBB80E1A2
:104BC00099E129960FB6F894DEBF0FBECDBFDF91F5
:104BD000CF911F910F91FF90EF90DF90CF90BF90FA
:104BE000AF909F908F907F906F905F904F903F908D
:104BF0002F900C9465B7F5018081918192FD02C0E0
:104C00000C945633468D578D60A171A180917A190D
:104C1000882311F40C9456334093711950937219F0
:104C2000609373197093741980E599E129960FB612
:104C3000F894DEBF0FBECDBFDF91CF911F910F91D2
:104C4000FF90EF90DF90CF90BF90AF909F908F90AC
:104C50007F906F905F904F903F902F900C9441C445
:104C6000D5018D919C9197FD02C00C945633F501AE
:104C7000EE5AFF4F6081718180E199E129960FB66C
:104C8000F894DEBF0FBECDBFDF91CF911F910F9182
:104C9000FF90EF90DF90CF90BF90AF909F908F905C
:104CA0007F906F905F904F903F902F900C94E9BB56
:104CB000F5018081918197FD02C00C94563360E02C
:104CC00080E199E10E94FBC5F501EE5AFF4F60813A
:104CD000718180E199E129960FB6F894DEBF0FBE8D
:104CE000CDBFDF91CF911F910F91FF90EF90DF909B
:104CF000CF90BF90AF909F908F907F906F905F907C
:104D00004F903F902F900C944ABCD5018D919C916F
:104D100097FD02C00C94563360E080E199E10E9457
:104D2000FBC5F501EE5AFF4F6081718180E199E189
:104D300029960FB6F894DEBF0FBECDBFDF91CF919D
:104D40001F910F91FF90EF90DF90CF90BF90AF90A9
:104D50009F908F907F906F905F904F903F902F909B
:104D60000C9478BCF5012081318133FD02C00C9494
:104D7000563312A1E12EF3A0EAE1FCE0449150E0A9
:104D80004E155F0509F45EC032964CE0EE38F4072C
:104D9000A9F7F7FC57C032FF2CC0D5015E964D91A4
:104DA0005D916D917C9191974F3F51056105710522
:104DB00009F0E0F461E0812F0F940700F501668DA2
:104DC000812F0F944000D5015E966D917C915F9785
:104DD000812F0E94EFFEB70185E097E10E94C24B50
:104DE000F501668D778D80E097E112C087E694E04B
:104DF0002BC062E0812F0F940700B70180E097E19C
:104E00000E94C24B812F0F947500BC018BEF96E17D
:104E100029960FB6F894DEBF0FBECDBFDF91CF91BC
:104E20001F910F91FF90EF90DF90CF90BF90AF90C8
:104E30009F908F907F906F905F904F903F902F90BA
:104E40000C94CE4B81E394E029960FB6F894DEBF24
:104E50000FBECDBFDF91CF911F910F91FF90EF90CB
:104E6000DF90CF90BF90AF909F908F907F906F908A
:104E70005F904F903F902F900C940C4B0E940B1D15
:104E80000E942FFE60936E1770936F1780937017B8
:104E9000909371179B9A80918118806480938118F8
:104EA000A3980C9456331092C7180C94563381E093
:104EB0008093C7180C945633D5018D919C9111970E
:104EC00092FF14C05E962D913D914D915C9191970A
:104ED000A8EEB3E00F94CD086093990270939A0204
:104EE00080939B0290939C020C94563393FFA5C031
:104EF000F50182A193A1A4A1B5A182309105A105DC
:104F0000B10509F466C02CF50097A105B10509F4B7
:104F100046C00197A105B10511F00C9456332996AE
:104F20000FB6F894DEBF0FBECDBFDF91CF911F91BA
:104F30000F91FF90EF90DF90CF90BF90AF909F9038
:104F40008F907F906F905F904F903F902F900C9438
:104F50003D1C83309105A105B10509F454C00497A7
:104F6000A105B10511F00C94563329960FB6F894AB
:104F7000DEBF0FBECDBFDF91CF911F910F91FF908C
:104F8000EF90DF90CF90BF90AF909F908F907F90E9
:104F90006F905F904F903F902F900C94245E2996D5
:104FA0000FB6F894DEBF0FBECDBFDF91CF911F913A
:104FB0000F91FF90EF90DF90CF90BF90AF909F90B8
:104FC0008F907F906F905F904F903F902F900C94B8
:104FD0003B1C29960FB6F894DEBF0FBECDBFDF9104
:104FE000CF911F910F91FF90EF90DF90CF90BF90E6
:104FF000AF909F908F907F906F905F904F903F9079
:105000002F900C943F1C29960FB6F894DEBF0FBE6C
:10501000CDBFDF91CF911F910F91FF90EF90DF9067
:10502000CF90BF90AF909F908F907F906F905F9048
:105030004F903F902F900C94165E0E940B1D81E0C4
:1050400029960FB6F894DEBF0FBECDBFDF91CF918A
:105050001F910F91FF90EF90DF90CF90BF90AF9096
:105060009F908F907F906F905F904F903F902F9088
:105070000C94AA98D5018D919C91119792FF14C020
:105080005E962D913D914D915C919197A8EEB3E084
:105090000F94CD0860939D0270939E0280939F02AF
:1050A0009093A0020C94563310929D0210929E028F
:1050B00010929F021092A0020C945633F501808149
:1050C00083FF0CC082859385A485B5858093E70214
:1050D0009093E802A093E902B093EA02D5018C9183
:1050E00084FF0EC01E968D919D910D90BC91A02DB8
:1050F0008093EB029093EC02A093ED02B093EE024A
:10510000F501808185FF0CC082899389A489B589C6
:105110008093EF029093F002A093F102B093F20219
:105120000E941299D5018C9186FD02C00C945633D1
:10513000209136033091370356968D919D910D90B5
:10514000BC91A02DF90181879287A387B4878081C4
:1051500029960FB6F894DEBF0FBECDBFDF91CF9179
:105160001F910F91FF90EF90DF90CF90BF90AF9085
:105170009F908F907F906F905F904F903F902F9077
:105180000C94565CD501ED91FC911197F2FF0DC086
:105190005E962D913D914D915C919197A8EEB3E073
:1051A0000F94CD086B017C0106C040E1C42E47E29C
:1051B000D42EE12CF12CE3FD0E943B1CF5018081F3
:1051C00084FD0E943D1CD5018C9185FD0E943F1CF1
:1051D0000E942FFE2B013C014C0C5D1C6E1C7F1CA1
:1051E0000E942FFEA3019201261B370B480B590B7F
:1051F000DA01C901803A9648A140B10518F40E942D
:10520000089EEECFD5018C9183FD1798F501808122
:1052100084FD1698D5018C9185FD02C00C945633FF
:1052200015980C9456330E94CC6581110C9456331A
:105230000E942FFE60936E1770936F178093701704
:10524000909371178091AA0283FF02C00C94563389
:10525000F5018081918193FF02C00C94423392FF4B
:105260000AC0868D978DA0A1B1A1892B8A2B8B2B8B
:1052700011F40C944233D5018D919C91119792FDBC
:1052800002C00C9456339C012227317091FF23C039
:10529000232B89F011E020E030E0A9015A966D91AE
:1052A0007D918D919C915D970F94F00618160CF0EE
:1052B00010E0212F01C020E085010C5A1F4FF5019D
:1052C000668D778D80A191A129870F948F052985FF
:1052D000D8014C9124C0232B81F011E020E030E074
:1052E000A901F501628D738D848D958D0F94F00663
:1052F00018160CF010E0212F01C020E000913603B9
:1053000010913703D5015E966D917D918D919C91A1
:10531000919729870F948F052985F8014081299657
:105320000FB6F894DEBF0FBECDBFDF91CF911F91B6
:105330000F91FF90EF90DF90CF90BF90AF909F9034
:105340008F907F906F905F904F903F902F900C9434
:105350008A610E94CC6581110C9456330E942FFE05
:1053600060936E1770936F178093701790937117F7
:105370008091AA0283FF02C00C945633D5018D910F
:105380009C91119792FD02C00C94563390FF11C06E
:1053900011E020E030E0A9015A966D917D918D9148
:1053A0009C915D970F94F00618160CF010E0412FB9
:1053B00001C040E0F501668D778D80A191A14987FC
:1053C0000F948F05498529960FB6F894DEBF0FBE5E
:1053D000CDBFDF91CF911F910F91FF90EF90DF90A4
:1053E000CF90BF90AF909F908F907F906F905F9085
:1053F0004F903F902F900C94105ED5018D919C9111
:1054000033E0969587953A95E1F7817029960FB626
:10541000F894DEBF0FBECDBFDF91CF911F910F91EA
:10542000FF90EF90DF90CF90BF90AF909F908F90C4
:105430007F906F905F904F903F902F90AEC80E94EA
:10544000CC6581110C9456330E942FFE60936E1729
:1054500070936F1780937017909371178091AA02C1
:1054600083FF02C00C94563340E060E274E083E7AF
:105470009CE10E9465DC83E79CE10E94B9DF0E9409
:105480000B1D2090360330903703F5018081918108
:1054900091FF09C0EC5AFF4F2081211104C02CE07C
:1054A000222E22E0322E92FF1EC090FF0FC011E08C
:1054B00020E030E0A901D5015A966D917D918D9142
:1054C0009C915D970F94F00618160CF010E0F50112
:1054D000668D778D80A191A10F948F05212FD10129
:1054E0004C910E948A61F10126A937A940AD51ADC6
:1054F00062A973A984A995A90F9457042B013C01B3
:1055000020E030E0A9010F94F006181664F420E0C2
:1055100030E040EA50E4C301B2010F94BC0487FFBD
:105520000EC00C94563320E030E040EA50ECC3014A
:10553000B2010F94F006181614F40C945633992403
:105540009394D101D0962D913C91D1979E968D91B7
:105550009C919F97821793070CF0912C0E942FFE2D
:105560006D837E838F83988710E0412C512C32010C
:105570000E942FFE69837A838B839C8360936E17CE
:1055800070936F178093701790937117DC01CB01A4
:105590002D813E814F815885821B930BA40BB50B47
:1055A000893E9340A105B10558F080E00E94CD22CC
:1055B00089819A81AB81BC818D839E83AF83B887BB
:1055C00081E00E94E91C80913603909137032816F0
:1055D000390609F064C0D1019396ED90FC90949740
:1055E0001E141F040CF05BC0111158C0992009F45F
:1055F00077C091966D917C919297882777FD8095E1
:10560000982F0F948F059B01AC01F10162A973A93A
:1056100084A995A90F94F006181614F00C944F3332
:10562000662777276E197F09882777FD8095982F41
:105630000F948F052091F3023091F4024091F5020E
:105640005091F6020F9464070F945C051F921F920D
:10565000D10152962C9152972F9351962C9151979C
:105660002F9350962C9150972F931F962C912F93F8
:105670005B016C01E12CF12C870120E030E0A901F5
:1056800060E070E0CB010E949D900F900F900F9012
:105690000F900F900F9011E00C944F3311E04114D4
:1056A00051046104710409F050C09920F1F020E028
:1056B00030E040E85FE3F10166A977A980AD91ADE4
:1056C0000F9457049B01AC01D101D2966D917D914D
:1056D0008D919C91D5970F94F00687FF1FC045CF01
:1056E000411451046104710481F520E030E040E888
:1056F0005FE3F10166A977A980AD91AD0F945804DD
:105700009B01AC01D101D2966D917D918D919C91BF
:10571000D5970F94BC0418160CF427CFF101A78D70
:10572000B0A128EE33E00F94C7082B013C0129817A
:105730003A814B815C81420E531E641E751E4114DA
:1057400051046104710409F413CFD301C20129810A
:105750003A814B815C81821B930BA40BB50B8115A5
:105760009449A543B74708F403CF1123E1F1809191
:1057700036039091370328163906A9F5D10193967F
:105780006D917C919497882777FD8095982F0F9441
:105790008F052091F3023091F4024091F50250916F
:1057A000F6020F9464070F945C051F921F92F1019B
:1057B00022892F9321892F9320892F9327852F9337
:1057C0005B016C01E12CF12C870120E030E0A901A4
:1057D00060E070E0CB010E949D900F900F900F90C1
:1057E0000F900F900F901092DC1C0E942FFE609380
:1057F0006E1770936F17809370179093711756C739
:105800008091AA0283FD52C70E942FFE4B015C01CA
:105810000E942FFE681979098A099B09693E734025
:105820008105910538F080E00E94CD220E942FFE74
:105830004B015C0181E00E94E91C00910A02109179
:105840000B02D8011B964D905D906D907C901E9739
:1058500020E030E040EF51E4C301B2010F94F006C4
:1058600018160CF023C7F801278130854185528531
:10587000C301B2010F9457049F7720E030E040E865
:105880005FE30F94F00618161CF210C7D5018D9136
:105890009C91119793FB662760F992FF05C05E9675
:1058A0008D919C915F970AC08FEF90E007C0F50142
:1058B000618163FB662760F980E090E029960FB66E
:1058C000F894DEBF0FBECDBFDF91CF911F910F9136
:1058D000FF90EF90DF90CF90BF90AF909F908F9010
:1058E0007F906F905F904F903F902F900C94641F2B
:1058F000D5018D919C91119792FF04C05E962C91D9
:105900002093AA0293FF12C0F50182A193A1A4A142
:10591000B5A12091AA02181619061A061B0614F43E
:10592000822B02C0815082238093AA028091AA0216
:1059300083FFBCC620E040E060E070E0CB010E9445
:105940008A6120E040E060E070E0CB01E8CC82EDCD
:1059500098E10E94EB4A29960FB6F894DEBF0FBE7D
:10596000CDBFDF91CF911F910F91FF90EF90DF900E
:10597000CF90BF90AF909F908F907F906F905F90EF
:105980004F903F902F900C948E1F8AE194E05EC35D
:10599000D5018D919C9197FF89C6F501EE5AFF4F75
:1059A0006081718140E083E79CE10E94DEDC83E757
:1059B0009CE129960FB6F894DEBF0FBECDBFDF91F4
:1059C000CF911F910F91FF90EF90DF90CF90BF90FC
:1059D000AF909F908F907F906F905F904F903F908F
:1059E0002F900C94B9DF0E940B1D8EEE96E10E9461
:1059F000D34A379903C085EF96E102C088EF96E15C
:105A00000E94D34A87EE96E10E94D34A029B03C0CC
:105A100088EF96E102C085EF96E10E94D34A80EEBE
:105A200096E10E94D34A019903C085EF96E102C036
:105A300088EF96E10E94D34A29960FB6F894DEBF0C
:105A40000FBECDBFDF91CF911F910F91FF90EF90CF
:105A5000DF90CF90BF90AF909F908F907F906F908E
:105A60005F904F903F902F900C94C322F50180815E
:105A7000918188279C7081159C4009F017C6F5011B
:105A800062A1868D29960FB6F894DEBF0FBECDBFFA
:105A9000DF91CF911F910F91FF90EF90DF90CF900A
:105AA000BF90AF909F908F907F906F905F904F903E
:105AB0003F902F900C9499D3E0913603F0913703E7
:105AC0002081D5018D919C9191FF06C0F501EC5A82
:105AD000FF4F8081882311F0822F01C080E0F50103
