:100000000C94AA1C0C94DB1C0C94DB1C0C94DB1CC5
:100010000C94DB1C0C94DB1C0C94DB1C0C94DB1C84
:100020000C94DB1C0C94DB1C0C94DB1C0C94DB1C74
:100030000C94DB1C0D946A090C94DB1C0C94DB1CE7
:100040000C94DB1C0C942A770C94DB1C0C94DB1CAA
:100050000C94DB1C0C94B5780C94CD770D9458035C
:100060000C94DB1C0C940D790C9437790C94DB1CEC
:100070000C94DB1C0C94DB1C0C94DB1C0C94DB1C24
:100080000C94DB1C0C94DB1C0C94DB1C0C94DB1C14
:100090000C94DB1C0C94DB1C0C94DB1C0D942A02CE
:1000A0000C94DB1C0C94DB1C0C94DB1C0C94DB1CF4
:1000B0000C94DB1C0C94DB1C0C94DB1C0C94DB1CE4
:1000C0000C94DB1C0C94DB1C0C94DB1C0C94DB1CD4
:1000D0000C94DB1C0C94DB1C0C94DB1C0C94DB1CC4
:1000E0000C94DB1C6170797079707970797079701B
:1000F00079707970797079707970797079707970B8
:1001000079707970797079707970797079707970A7
:100110007970797079707970507002700C70866F98
:10012000797032703C7079707970976F746F7970F4
:100130002870797046701E701670797079707970B9
:10014000E46FEE6FF86F797079707970797079700B
:100150007970797079707970507002700C70866F58
:10016000797032703C7079707970976F746F7970B4
:100170002870797046701E70167079707970797079
:10018000E46FEE6FF86F52E7E3E776E8C7E962F8ED
:1001900062F862F862F862F862F862F862F862F88F
:1001A0000FE94BE989E962F862F862F862F862F8EF
:1001B00062F862F862F862F862F862F8EEEC50ED0C
:1001C000B0ED10EE70EED0EE30EF62F8ACF3B4EFBD
:1001D0002AF09DF00FF181F1F3F165F2D2F23FF3D5
:1001E00062F862F862F862F862F871EB3EEC94EB48
:1001F000F4F361F4CDF43AF55BF59DF5CFF501F636
:100200005AF6B5F60EF767F788F77CF562F862F8EC
:1002100062F862F862F862F862F862F862F862F80E
:1002200062F862F811EB40EB62F862F862F862F88B
:1002300062F862F862F862F80AF862F80DEC62F8A7
:1002400062F862F8B2F7E0F762F862F862F862F812
:1002500045E762F862F80AEAADEAF1EA96ECB8011D
:100260007C01B401BE01C80182018801A401AA0178
:1002700094017E01C001B0018E0182017A01A801C2
:100280007801B6019A018A018001BA01BC017601A8
:100290009001A0019C01B2018401A601C601BC012C
:1002A00096018601AC0107634236B79BD8A71A397D
:1002B000685618AEBAAB558C1D3CB7CC5763BD6DB4
:1002C000EDFD753EF6177231BF000000803F05A8B6
:1002D0004CCDB2D44EB93836A9020C50B9918688AB
:1002E000083CA6AAAA2ABE000000803F0D9446053D
:1002F0000D9413050D94FF040D948B040D94D204FA
:100300000D9435050D941D050D945E050D94700535
:100310000D94AE040D9431050D949B000D94F504DD
:100320000D944A050D9488000D94C8040D946C0535
:100330000D944B010D9442050D9454050D94AA00A3
:100340000D9450050D9480000D94B6040D94620533
:100350000D9409050D94BE040D9474050D941E06AC
:100360000D94EB040D9458050D9490040D943F05E5
:100370000D9486040D943B050D9479050D949A0413
:100380000D94DC040D94D7000D94AB000D9466051C
:100390000D94A404436F6C6420657874727573695E
:1003A0006F6E20646973616C6C6F77656400436F76
:1003B0006C6420657874727573696F6E20616C6C03
:1003C0006F776564004175746F72657472616374F0
:1003D0003A0053657474696E67206D6F746F722094
:1003E00063757272656E742E2E2E00536574204DE7
:1003F0006963726F7374657070696E6700547269B7
:1004000067676572696E67207761746368646F6798
:100410002E204966206163746976617465642C20BE
:10042000746865207072696E7465722077696C6C8F
:100430002072657365742E0053657474696E67204D
:100440005468726573686F6C6420546F3A00494E4B
:10045000542050494E3A20004D323531200020744E
:100460006F200053657420766F6C756D65747269CA
:100470006320657874727573696F6E20666F722081
:100480006578747275646572200044697361626C8A
:10049000656420766F6C756D65747269632065782C
:1004A00074727573696F6E20666F722065787472EE
:1004B0007564657220004D313134200048656174E7
:1004C000696E67204265640048656174696E6720E3
:1004D00045787472756465720050696E2063616E50
:1004E000206E6F7420626520736574206279204DE0
:1004F00034322C206D617920696E20696E76616CD2
:100500006964206F7220696E207573652E20004922
:100510006C6C6567616C20532076616C7565206634
:100520006F72204D3432005A2028432920746F778F
:10053000657220666C6F6F722073657420746F3AF9
:100540002000592028422920746F77657220666C3C
:100550006F6F722073657420746F3A2000582028E2
:10056000412920746F77657220666C6F6F722073FB
:10057000657420746F3A2000526F64205261646980
:1005800075732073657420746F3A200047313334DB
:100590002000506F7346726F6D53746570733A002C
:1005A000436F6D7044656C74613A0043616C6962BD
:1005B000726174696F6E206D6F76656D656E742003
:1005C0006973206C696D6974656420746F203130C3
:1005D0006D6D2E004669727374206D6F76652074A0
:1005E0006F20746F75636820617420782C793D30BA
:1005F0002C3020746F206175746F2D7365742072B8
:1006000061646975732E0043616C6962726174691B
:100610006F6E206D6F76656D656E74206973206CEA
:10062000696D6974656420746F2031306D6D2E00C2
:1006300043616E6E6F7420736574207261646975B6
:100640007320616E6420666C6F6F7220617420731A
:10065000616D652074696D652E0043616C6962721D
:100660006174696F6E20636F6465206973206C69C3
:100670006D6974656420746F20626F74746F6D208F
:10068000313025206F66205A2068656967687400DC
:1006900052656C617469766520706F736974696FF7
:1006A0006E696E67004162736F6C75746520706F60
:1006B000736974696F6E696E670047363920005A36
:1006C0003A2000593A2000583A20004F46465345F8
:1006D0005453204F464620425920544F4F204D55E9
:1006E0004348205F20545259494E472041474149D1
:1006F0004E3A200053657474696E672050726F62C1
:10070000652053656E736974697669747920546FD6
:100710003A005A2070726F6265206661696C656488
:10072000206F6E2073656E73697469766974793AA7
:10073000200053657474696E672050726F62652083
:1007400053656E736974697669747920546F3A00E1
:100750005A2070726F6265206661696C6564206FF3
:100760006E2073656E73697469766974793A2000D6
:1007700053657474696E672050726F6265205365AB
:100780006E736974697669747920546F3A005A20DF
:1007900070726F6265206661696C6564206F6E209F
:1007A00073656E73697469766974793A2000686557
:1007B0006865004E6577205261646975733A200060
:1007C0004F6C64205261646975733A200043616C18
:1007D00063756C6174656420526164697573206926
:1007E0007320626164203A0053657474696E6720F7
:1007F00050726F62652053656E73697469766974AF
:100800007920546F3A005A2070726F6265206661D9
:10081000696C6564206F6E2073656E7369746976A8
:100820006974793A200053657474696E6720507258
:100830006F62652053656E73697469766974792097
:10084000546F3A005A2070726F6265206661696C5D
:100850006564206F6E2073656E7369746976697460
:10086000793A2000473332200050524F42452D5AEA
:100870004F46465345543A0047333000536574742D
:10088000696E672050726F62652053656E7369747C
:10089000697669747920546F3A0050726F6265739B
:1008A00020646F206E6F74206D617463682E204F1A
:1008B0006666206279200047333020004D313137A1
:1008C0002043414C4942524154494F4E20434F4DE1
:1008D000504C4554450068656865004E6577204872
:1008E0006F72697A6F6E74616C205261646975739E
:1008F0003A20004F6C6420486F72697A6F6E7461A1
:100900006C205261646975733A200043616C6375B1
:100910006C61746564205261646975732069732029
:100920006261643A20004D3131372043414C4942E5
:10093000524154494F4E204641494C454400436181
:100940006C6962726174696F6E204661696C65647E
:100950000053657474696E672050726F626520532E
:10096000656E736974697669747920546F3A005AB8
:100970002070726F6265202843656E746572205026
:100980006F696E7429206661696C6564206F6E20E2
:1009900073656E73697469766974793A20004E657F
:1009A00077205A204865696768743A004F6C642064
:1009B0005A204865696768743A004D3131372043E1
:1009C000414C4942524154494F4E204641494C45C1
:1009D000440043616C6962726174696F6E204661A4
:1009E000696C65640053657474696E672050726F3A
:1009F00062652053656E73697469766974792054F1
:100A00006F3A005A2070726F6265202843656E74D9
:100A1000657220506F696E7429206661696C656427
:100A2000206F6E2073656E73697469766974793AA4
:100A3000200047363920005A3A2000593A20005801
:100A40003A20004D31313720456E6473746F702049
:100A50004F6666736574204572726F72004F46462A
:100A600053455453204F464620425920544F4F205F
:100A70004D5543482E2041626F7274696E672E2077
:100A800053656E73697469766974793A20004D31E3
:100A900031372043414C4942524154494F4E204640
:100AA00041494C45440043616C6962726174696FED
:100AB0006E204661696C65640053657474696E6785
:100AC0002050726F62652053656E73697469766930
:100AD000747920546F3A005A2070726F6265202832
:100AE0005A20546F77657229206661696C656420AD
:100AF0006F6E2073656E73697469766974793A20D4
:100B0000004D3131372043414C4942524154494F05
:100B10004E204641494C45440043616C6962726114
:100B200074696F6E204661696C6564005365747406
:100B3000696E672050726F62652053656E736974C9
:100B4000697669747920546F3A005A2070726F6226
:100B50006520285920546F77657229206661696C79
:100B60006564206F6E2073656E736974697669744D
:100B7000793A20004D3131372043414C49425241AE
:100B800054494F4E204641494C45440043616C69ED
:100B900062726174696F6E204661696C65640053AE
:100BA000657474696E672050726F62652053656E5C
:100BB000736974697669747920546F3A005A2070A9
:100BC000726F626520285820546F776572292066FD
:100BD00061696C6564206F6E2073656E73697469FA
:100BE000766974793A2000473420533130004D3112
:100BF00030342053300A4D3134302053300A4D31D7
:100C00003037006578656375746547436F646520A8
:100C10002F20717565756544656C74614D6F7665DF
:100C20002072657475726E73206572726F720069DE
:100C3000697332646820616363656C65726F6D65AA
:100C400074657220696E697469616C697A696E672E
:100C50002E2E2E00616363656C65726F6D65746521
:100C600072206932632072656376206572726F72DA
:100C70002E002076616C75653A20007265616420F3
:100C80007265672000616363656C65726F6D657482
:100C900065722077726974652069326320657272AB
:100CA0006F722E00616363656C65726F6D6574654C
:100CB000722073656E6420693263206572726F7290
:100CC0002E0000000100250030001D000C001E0059
:100CD000240031001C000B00180023002F001B0013
:100CE0000A0017000D0047000300040022002B003B
:100CF0001A0041004200000002003500457874727D
:100D00002E00436F6E6669673A004F6E6520686516
:100D100061746572207365656D73206465636F75BA
:100D2000706C65642066726F6D20746865726D69A1
:100D300073746F72202D2064697361626C696E67D1
:100D400020616C6C20666F72207361666574792116
:100D500000486561746572206465636F75706C65C9
:100D600064004372656174696F6E206661696C65C9
:100D700064004469726563746F727920637265619F
:100D80007465640044656C6574696F6E20666169A2
:100D90006C65640046696C652064656C65746564A7
:100DA00000446F6E6520736176696E672066696CBA
:100DB000652E0057726974696E6720746F206669CA
:100DC0006C653A20006F70656E206661696C6564C1
:100DD0002C2046696C653A20004E6F7420534420E5
:100DE0007072696E74696E67005344207072696E28
:100DF00074696E672062797465200066696C652E7F
:100E00006F70656E206661696C65640046696C652B
:100E10002073656C6563746564002053697A653A74
:100E20000046696C65206F70656E65643A00456EBA
:100E3000642066696C65206C69737400426567693B
:100E40006E2066696C65206C697374006572726FE0
:100E5000722077726974696E6720746F2066696C9E
:100E60006500534420696E6974206661696C006195
:100E70006476616E6365204C205B303D6F66665D15
:100E800000657874727564657220636F6F6C65724B
:100E9000207370656564205B302D3235355D0064EC
:100EA000697374616E636520746F2072657472611A
:100EB0006374207768656E2068656174696E672069
:100EC0005B6D6D5D0074656D702E20666F722072B3
:100ED000657472616374696F6E207768656E2068EF
:100EE000656174696E67205B435D0074656D702E8B
:100EF0002073746162696C697A652074696D65201C
:100F00005B735D00592D6F6666736574205B737447
:100F10006570735D00582D6F6666736574205B7332
:100F2000746570735D00504944206D61782076616E
:100F30006C7565205B302D3235355D00504944209D
:100F4000442D6761696E0050494420492D676169ED
:100F50006E0050494420502D6761696E2F646561B1
:100F6000642D74696D65005049442064726976652A
:100F7000206D696E00504944206472697665206D69
:100F800061780068656174206D616E6167657220CB
:100F90005B302D335D00616363656C6572617469FC
:100FA0006F6E205B6D6D2F735E325D0073746172C6
:100FB00074206665656472617465205B6D6D2F7366
:100FC0005D006D61782E20666565647261746520D0
:100FD0005B6D6D2F735D0073746570732070657247
:100FE000206D6D0042656420504944206D61782079
:100FF00076616C7565205B302D3235355D0042655C
:10100000642050494420442D6761696E0042656444
:101010002050494420492D6761696E004265642073
:1010200050494420502D6761696E0042656420502C
:101030004944206472697665206D696E004265647A
:1010400020504944206472697665206D61780042C1
:1010500065642048656174204D616E61676572202A
:101060005B302D335D00436F72722E2064696167BF
:101070006F6E616C2043205B6D6D5D00436F72721B
:101080002E20646961676F6E616C2042205B6D6D1C
:101090005D00436F72722E20646961676F6E616CD0
:1010A0002041205B6D6D5D004D6178207072696E2E
:1010B0007461626C6520726164697573205B6D6D2B
:1010C0005D00546F776572205A20656E6473746F8B
:1010D00070206F6666736574205B73746570735DF2
:1010E00000546F776572205920656E6473746F7059
:1010F000206F6666736574205B73746570735D0042
:10110000546F776572205820656E6473746F702019
:101110006F6666736574205B73746570735D0053EE
:1011200065676D656E74732F7320666F72207472BD
:101130006176656C005365676D656E74732F7320FF
:10114000666F72207072696E74696E6700486F72A4
:10115000697A6F6E74616C20726F64207261646969
:10116000757320617420302C30205B6D6D5D004400
:101170006961676F6E616C20726F64206C656E6769
:101180007468205B6D6D5D00486F6D696E672066E9
:1011900065656472617465205B6D6D2F735D004DD4
:1011A00061782E206665656472617465205B6D6D83
:1011B0002F735D00537465707320706572206D6DC0
:1011C0000054726176656C20616363656C65726161
:1011D00074696F6E205B6D6D2F735E325D004163CD
:1011E00063656C65726174696F6E205B6D6D2F73E2
:1011F0005E325D004D61782E206A65726B205B6DFA
:101200006D2F735D005A206D6178206C656E677478
:1012100068205B6D6D5D0059206D6178206C656E96
:10122000677468205B6D6D5D0058206D6178206C7F
:10123000656E677468205B6D6D5D005A20686F6D28
:101240006520706F73205B6D6D5D005920686F6D58
:101250006520706F73205B6D6D5D005820686F6D49
:101260006520706F73205B6D6D5D0053746F70202F
:101270007374657070657220616674657220696E42
:101280006163746976697479205B6D732C303D6F8E
:1012900066665D004D61782E20696E6163746976C3
:1012A000652074696D65205B6D732C303D6F6666DB
:1012B0005D005072696E7465722061637469766551
:1012C000205B735D0046696C616D656E74207072A1
:1012D000696E746564205B6D5D00416476616E6368
:1012E000656420557365720042617564726174654E
:1012F000004550523A3320004550523A32200045C2
:1013000050523A3120004550523A30200050726F0E
:10131000746F636F6C2076657273696F6E2063689B
:10132000616E6765642C20757067726164696E67B1
:1013300000436F6E66696775726174696F6E2072C3
:101340006573657420746F2064656661756C747371
:101350002E00436F6E66696775726174696F6E20E7
:101360006C6F616465642066726F6D2045455052F4
:101370004F4D2E00436F6E66696775726174696FB9
:101380006E2073746F72656420746F2045455052EF
:101390004F4D2E004175746F6C6576656C206163EE
:1013A000746976652028312F3029005A2D70726FAC
:1013B0006265205933005A2D70726F626520583370
:1013C000005A2D70726F6265205932005A2D70726A
:1013D0006F6265205832005A2D70726F6265205915
:1013E00031005A2D70726F6265205831005A2D708D
:1013F000726F626520782D792D7370656564205B4E
:101400006D6D2F735D005A2D70726F626520737061
:10141000656564205B6D6D2F735D005A2D70726F72
:101420006265206F66667365742079205B6D6D5D03
:10143000005A2D70726F6265206F66667365742046
:1014400078205B6D6D5D004D61782E207A2D707275
:101450006F6265202D2062656420646973742E209C
:101460005B6D6D5D005A2D70726F626520686569F5
:10147000676874205B6D6D5D007761697400507200
:10148000696E746572206865696768743A005A2DE0
:1014900070726F6265206661696C65640054726188
:1014A0006E73666F726D6174696F6E206D617472B8
:1014B00069783A004175746F6C6576656C696E6722
:1014C0002064697361626C6564004175746F6C655A
:1014D00076656C696E6720656E61626C656400415B
:1014E00075746F6C6576656C206D617472697820B7
:1014F000726573657400004732382F6E47315A3277
:10150000352F6E005A2D70726F626520737461748E
:10151000653A005265736574205A2068656967688A
:1015200074005A2D70726F62652061766572616712
:1015300065206865696768743A0020537465702097
:10154000566172696174696F6E2066726F6D2050AA
:10155000726F626520746F206265642044697374E1
:10156000616E63653A005A2D70726F62653A005081
:1015700072696E7465722073657420696E746F2071
:101580006472792072756E206D6F646520756E745B
:10159000696C207265737461727421003A20776FF0
:1015A000726B696E67003A2074656D702073656EAA
:1015B000736F722064656665637400657874727514
:1015C000646572200068656174656420626564000A
:1015D0004D54454D503A00504944204175746F7444
:1015E000756E652066696E69736865642021205098
:1015F0006C61636520746865204B702C204B6920FA
:10160000616E64204B6420636F6E7374616E7473DB
:1016100020696E2074686520436F6E666967757215
:101620006174696F6E2E68206F7220454550524F6D
:101630004D00504944204175746F74756E65206685
:1016400061696C6564212074696D656F7574005003
:101650004944204175746F74756E65206661696CCC
:101660006564212054656D706572617475726520C2
:10167000746F206869676800204B643A2000204B33
:10168000693A2000204B703A200020436C6173734C
:10169000696320504944002054753A2000204B755E
:1016A0003A2000206D61783A2000206D696E3A2062
:1016B0000020643A200020626961733A200050499A
:1016C00044204175746F74756E6520737461727413
:1016D000005461726765744265643A0054617267D0
:1016E000657445787472004E6F206D6F7665206961
:1016F0006E2064656C7461207365676D656E74201F
:1017000077697468203E2031207365676D656E745B
:101710002E20546869732073686F756C64206E6541
:101720007665722068617070656E20616E64206DF0
:10173000617920636175736520612070726F626CDE
:10174000656D210044656C74612052616469757334
:1017500020432830293A0044656C7461205261644A
:1017600069757320422830293A0044656C74612001
:1017700052616469757320412830293A00416C70C8
:1017800068612043283930293A00416C7068612033
:101790004228333330293A00416C70686120412877
:1017A000323130293A00546F77657220333A005451
:1017B0006F77657220323A00546F77657220313A44
:1017C00000496E76616C69642064656C74612063A5
:1017D0006F6F7264696E617465202D206D6F766520
:1017E0002069676E6F726564006C696E6561722056
:1017F0004C3A00454550524F4D20757064617465F8
:1018000064002C2073706565643D00206C696E6512
:1018100061722073746570733A004A65726B3A00A6
:101820007A5F6D61783A00795F6D61783A00785F30
:101830006D61783A004C2000482000206973200038
:1018400020746F2000536574206F75747075743A3E
:1018500020004D53312C4D53322050696E7300459A
:10186000313A0045303A005A3A00593A0020002CEB
:1018700000206D696E0020686F757273200020640F
:1018800061797320006D20005072696E74696E6713
:101890002074696D653A005072696E7465642066E3
:1018A000696C616D656E743A0046616E7370656552
:1018B000643A00482E205261646975733A00466CA0
:1018C0006F774D756C7469706C793A00537065650B
:1018D000644D756C7469706C793A00202F002F008C
:1018E0003A0020524157002042403A0020403A003E
:1018F00020423A00543A0020453A00205A3A00204B
:10190000593A0020583A00583A004672656520520C
:10191000414D3A00556E6B6E6F776E20636F6D6D43
:10192000616E643A00536F66747761726520526528
:10193000736574005761746368646F6720526573E0
:1019400065740042726F776E206F757420526573F4
:1019500065740045787465726E616C2052657365BC
:101960007400506F77657255700073746172740003
:10197000424C4B2000736B6970200020676F74200D
:10198000004572726F723A657870656374656420A1
:101990006C696E6520005344207265616420657235
:1019A000726F7200205200204A002049002050002F
:1019B000205300204600204500205A0020590020D6
:1019C0005800446F6E65207072696E74696E67208E
:1019D00066696C6500466F726D6174206572726F26
:1019E000720057726F6E6720636865636B73756D05
:1019F000004563686F3A00526573656E643A00573C
:101A000061726E696E673A00496E666F3A004572A0
:101A1000726F723A00494E46004E414E006F6B00A5
:101A20004649524D574152455F4E414D453A5265E8
:101A30007065746965725F302E39322E32204649E6
:101A4000524D574152455F444154453A3230313747
:101A500030333136204D414348494E455F5459504B
:101A6000453A4F52494F4E2044656C746120002026
:101A70006465672E204300206D656173757265642F
:101A800020004572726F723A436F756C64206E6FFE
:101A90007420686F6C642074656D70657261747514
:101AA00072652000206D73002061667465722000ED
:101AB0004572726F723A54656D702E20726169734F
:101AC000656420746F20736C6F772E205269736584
:101AD000203D20004739310A4731452D3138304605
:101AE000363030300A473930004D313137204578B3
:101AF00074727564657220300A54300A4D3834208F
:101B000050340A4739310A47314531373246363089
:101B100030300A47314535463530300A47393000D4
:101B20001C151C140000002243141F1F341FE01E4C
:101B3000701E201E000000000000981D8C1C3C1C24
:101B4000C01B441B0400081D900058091C01B0076D
:101B5000A801C80634023006C002C0054C0368055F
:101B6000D80318056404D004F00498047C056004CC
:101B700008063004940600042007D003AC07A8032D
:101B800038088003C408580350093003DC090803EF
:101B9000680AD802F40AB002800B88020C0C6002BA
:101BA000980C3002240DF801B00DC0013C0E8001EC
:101BB000C80E3001540FB800B40F2800E00F000029
:101BC0000400401D900060091C01B007A801D00668
:101BD00034023806C002C8054C036805D80318054E
:101BE0006404D804F00498047C05600408063004FA
:101BF000940600042007D003AC07A803380880032C
:101C0000C408580350093003DC090803680AE002DD
:101C1000F40AB802800B88020C0C6002980C3002A7
:101C2000240DF801B00DC0013C0E8001C80E30013A
:101C3000540FB800B40F2800E00F00000400001695
:101C4000D800C006AC0178058002C00454034804E3
:101C50002804E803FC049803D0055003A4061803E5
:101C60007807D8024C08A80220097002F40938024B
:101C7000C80A08029C0BD001700C9001440D500161
:101C8000180EF800EC0E8800C00F00000400681D5C
:101C90004C00500B94005809DC0050082401A807A0
:101CA0006C012807B401C006FC0170064402280636
:101CB0008C02F005D402B8051C038805640358059E
:101CC000AC033005F40310053C04E8048404C804A4
:101CD000CC04A804140590045C057004A405580401
:101CE000EC053804340620047C060804C406F0031E
:101CF0000C07D8035407C8039C07B003E4079803F4
:101D00002C08800374087003BC08580304094803B6
:101D10004C09300394091803DC090803240AF00273
:101D20006C0AE002B40AC802FC0AB002440BA0022A
:101D30008C0B8802D40B70021C0C5802640C4002FD
:101D4000AC0C2802F40C10023C0DF001840DD801FB
:101D5000CC0DB801140E98015C0E7001A40E480160
:101D6000EC0E1801340FD8007C0F8800C40F080057
:101D7000FC0F000000000000000000000000000058
:101D80000000000000000000000000000000000053
:101D900000000000000000000000401F4500600936
:101DA0004F0010095C00C0086B0070087D0020081F
:101DB0009200D007AC008007CC003007DE00E006C0
:101DC000230190065E014006A601F005FF01A00573
:101DD0006D025005F30200059603B0045A04600436
:101DE000400510044806C0036E077003A8082003CE
:101DF000EB09D002230B8002410C3002390DE001C7
:101E0000040E9001A20E4001170FF000690FA00010
:101E1000A20F5000C60F0000DD0FB0FFEB0F60FFF8
:101E20000400700DD8004804AC0158038002D802A9
:101E30005403800228043802FC040002D005C801C3
:101E4000A4069801780770014C0848012009180180
:101E5000F409F000C80AC8009C0BA000700C7000C8
:101E6000440D3800180E0000EC0EA8FFC00FE8FE6D
:101E70000400001B54006009640010097400C008CD
:101E8000840070089C002008B800D007D8008007A4
:101E9000000130072C01E00668019006AC01400605
:101EA0000002F0056802A005E00250057403000579
:101EB0002404B004F0046004DC051004E406C0034C
:101EC0000408700330092003780B8002600DE001E4
:101ED000A80E4001680FA000C00F0000E80F60FFCF
:101EE0000400801AD8009808AC0120078002500630
:101EF0005403C80528045805FC040005D005B004A7
:101F0000A4066804780728044C08E8032009B003F5
:101F1000F4097003C80A38039C0BF802700CB00275
:101F2000440D6802180E0802EC0E8801C00F8800EC
:101F3000F00F00000000A00F5C00600969001009AC
:101F40007900C0088C007008A2002008BD00D007EE
:101F5000DE008007050130073401E0066D019006C0
:101F6000B20140060702F0056D02A005E802500527
:101F70007B0300052B04B004F8046004EB06C003E7
:101F8000350920037F0B8002650DE001B00E400192
:101F90001D0FF000480FC8006C0FA000ED0F60FF90
:101FA000FE0F48FE00025344206572726F72206675
:101FB00069786564005344206572726F72206469A9
:101FC00064206E6F74207265636F766572210053B2
:101FD000442052656164204572726F7200000000F7
:101FE0000000000000000000000000000024F403D6
:101FF000D950C38EB1C2A23D96828B3582127AE34C
:1020000072816CCB66A861015DC758EB54615120A9
:102010004E1E4B5648C14559431A41013F093D2FB9
:102020003B7139CD374036C93465331432D430A3CF
:102030002F802E6B2D632C672B752A8E29B028DC00
:102040002710274B268F25D9242B248223E02243D7
:1020500022AC211A218D200420801F001F841E0C19
:102060001E971D261DB81C4E1CE61B821B201BC183
:102070001A641A0A1AB2195D190A19B9186A181CD1
:1020800018D11788174017FA16B51673163116F1BE
:1020900015B31576153A150015C7148F1458142268
:1020A00014EE13BA13881356132513F612C7129998
:1020B000126C1240121512EB11C1119811701148D7
:1020C000112111FB10D610B1108D1069104610248B
:1020D000100210E10FC00FA00F800F610F420F23FD
:1020E0000F060FE80ECB0EAF0E930E770E5C0E416F
:1020F0000E270E0D0EF30DDA0DC10DA80D900D7803
:102100000D600D490D320D1B0D050DEF0CD90CC3E3
:102110000CAE0C990C850C700C5C0C480C350C2129
:102120000C0E0CFB0BE80BD60BC40BB20BA00B8EEA
:102130000B7D0B6B0B5A0B4A0B390B290B180B0839
:102140000BF80AE90AD90ACA0ABB0AAC0A9D0A8E28
:102150000A800A710A630A550A470A390A2C0A1EBC
:102160000A110A040AF709EA09DD09D009C409B706
:1021700009AB099F09920987097B096F096309580F
:10218000094C09410936092B09200915090A0900DA
:1021900009F508EB08E008D608CC08C208B808AE74
:1021A00008A4089A08900887087D0874086B0861DD
:1021B0000858084F0846083D0834082C0823081A18
:1021C00008120809080108F807F007E807E007D82F
:1021D00007D007C807C007B807B007A807A10700BE
:1021E00000420FA1071605D0030D038B022E02E853
:1021F00001B2018601630145012C0117010401F4BC
:10220000004F52494F4E205265616479004F524948
:102210004F4E205265616479004F52494F4E205213
:102220006561647900207A3A0020793A0020783A92
:1022300000696E20717565756544656C74614D6FDC
:10224000766520746F2063616C63756C617465449E
:10225000656C74615375625365676D656E74732048
:1022600072657475726E73206572726F722E0043A0
:102270002068697420666C6F6F720043706F732002
:102280007820737175617265200043706F732078D8
:10229000207374657073200043706F73207920730E
:1022A0007175617265200043706F732079207374BB
:1022B0006570732000422068697420666C6F6F72CD
:1022C0000042706F73207820737175617265200011
:1022D00042706F73207820737465707320004270B1
:1022E0006F73207920737175617265200042706F81
:1022F00073207920737465707320004120686974BD
:1023000020666C6F6F720041706F7320782073715C
:1023100075617265200041706F7320782073746559
:102320007073200041706F73207920737175617232
:1023300065200041706F732079207374657073207D
:10234000006D6F766552656C61746976654469737A
:1023500074616E6365496E5374657073202F2071CC
:102360007565756544656C74614D6F766520726541
:102370007475726E73206572726F72004D6178545D
:10238000656D703A004469616D657465723A00412B
:102390006363656C65726174696F6E3A004D617854
:1023A00053706565643A004A65726B3A004D617816
:1023B00042656454656D703A005072696E7465725E
:1023C000547970653A44656C7461005A5472617650
:1023D000656C416363656C3A005954726176656C53
:1023E000416363656C3A005854726176656C416371
:1023F00063656C3A005A5072696E74416363656C30
:102400003A00595072696E74416363656C3A0058C2
:102410005072696E74416363656C3A005A53697A0D
:10242000653A005953697A653A005853697A653AB2
:10243000005A4D61783A00594D61783A00584D6123
:10244000783A005A4D696E3A00594D696E3A005813
:102450004D696E3A004A65726B58593A005072697C
:102460006E746C696E6543616368653A00454550FA
:10247000524F4D3A004175746F6C6576656C3A0049
:102480005A50726F62653A00436173654C696768C0
:1024900074733A00537570706F72744C6F63616C33
:1024A00046696C616D656E746368616E67653A005C
:1024B000537570706F72744731304731313A005A3A
:1024C000486F6D654469723A0059486F6D6544699B
:1024D000723A0058486F6D654469723A00536F66EE
:1024E0007477617265506F7765725377697463684A
:1024F0003A004C43443A0046616E3A00534443610B
:1025000072643A004865617465644265643A004DDE
:102510006978696E6745787472756465723A004EC1
:10252000756D45787472756465723A00496E7075A0
:10253000744275666665723A0042617564726174D0
:10254000653A004E6F2063617365206C696768743B
:1025500073004D31313420007A70726F62696E679A
:102560002E2E2E0064656C6179203130306D732E13
:1025700000686F6D65417869732000686F6D654113
:10258000786973202F20717565756544656C746179
:102590004D6F76652072657475726E732065727208
:1025A0006F7200486F6D652044656C7461005072F5
:1025B000696E7465723A3A736574757020006D6F58
:1025C0007665546F5265616C202F20717565756555
:1025D00044656C74614D6F76652072657475726EBA
:1025E00073206572726F72006D6F7665546F202F65
:1025F00020717565756544656C74614D6F766520F5
:1026000072657475726E73206572726F72005374A6
:1026100065707065722044697361626C6564004B1B
:10262000696C6C6564006973506F736974696F6E6F
:10263000416C6C6F776564200055706C6F616469E4
:102640006E672E2E2E00005344207072696E742027
:1026500073746F7070656420627920757365722E73
:10266000005344206361726420696E7365727465FF
:1026700064005344204361726420696E7365727410
:10268000656400534420436172642072656D6F7607
:10269000656400534420636172642072656D6F76D7
:1026A00065640000002110422063308440A550C6BC
:1026B00060E770088129914AA16BB18CC1ADD1CE80
:1026C000E1EFF13112100273325222B5529442F707
:1026D00072D662399318837BB35AA3BDD39CC3FFD0
:1026E000F3DEE36224433420040114E664C774A4D7
:1026F0004485546AA54BB528850995EEE5CFF5AC20
:10270000C58DD55336722611163006D776F66695E6
:1027100056B4465BB77AA719973887DFF7FEE79D6F
:10272000D7BCC7C448E5588668A778400861180236
:10273000282338CCC9EDD98EE9AFF9488969990ABF
:10274000A92BB9F55AD44AB77A966A711A500A3346
:102750003A122AFDDBDCCBBFFB9EEB799B588B3B0F
:10276000BB1AABA66C877CE44CC55C222C033C6096
:102770000C411CAEED8FFDECCDCDDD2AAD0BBD685F
:102780008D499D977EB66ED55EF44E133E322E5126
:102790001E700E9FFFBEEFDDDFFCCF1BBF3AAF59AF
:1027A0009F788F8891A981CAB1EBA10CD12DC14E20
:1027B000F16FE18010A100C230E3200450254046B3
:1027C000706760B9839893FBA3DAB33DC31CD37FD2
:1027D000E35EF3B1029012F322D232354214527703
:1027E000625672EAB5CBA5A89589856EF54FE52CA2
:1027F000D50DC5E234C324A0148104667447642453
:10280000540544DBA7FAB79987B8975FE77EF71DB1
:10281000C73CD7D326F2369106B0165766767615A2
:102820004634564CD96DC90EF92FE9C899E9898A01
:10283000B9ABA94458654806782768C018E10882F2
:1028400038A3287DCB5CDB3FEB1EFBF98BD89BBB11
:10285000AB9ABB754A545A376A167AF10AD01AB342
:102860002A923A2EFD0FED6CDD4DCDAABD8BADE861
:102870009DC98D267C076C645C454CA23C832CE092
:102880001CC10C1FEF3EFF5DCF7CDF9BAFBABFD9F1
:102890008FF89F176E367E554E745E932EB23ED1E2
:1028A0000EF01E7C3C3E5E2B3D3F2F5B5D3B2C2A99
:1028B000225C005265717565737450617573653A79
:1028C000004D31313720494E534552542053442056
:1028D00043415244004D313137205344204341524B
:1028E00044204552524F520055495F414354494F8D
:1028F0004E5F5345545F4D454153555245445F4FDC
:10290000524947494E20004E6F2053442043617284
:10291000640053687574204F666620414C4C204813
:10292000656174730050726568656174204142533B
:10293000005072656865617420504C410055495FD4
:10294000414354494F4E5F484F4D455F5A20005513
:10295000495F414354494F4E5F484F4D455F5920B1
:102960000055495F414354494F4E5F484F4D455FC5
:1029700058200055495F414354494F4E5F484F4DE1
:1029800045414C4C200055495F414354494F4E5FEF
:102990005A504F534954494F4E5F464153545F4E2E
:1029A0004F54455354200055495F414354494F4EBD
:1029B0005F5A504F534954494F4E5F4E4F54455301
:1029C00054200055495F414354494F4E5F45504F95
:1029D000534954494F4E200055495F414354494F94
:1029E0004E5F5A504F534954494F4E5F46415354DE
:1029F000200055495F414354494F4E5F59504F5352
:102A00004954494F4E5F46415354200055495F4158
:102A10004354494F4E5F58504F534954494F4E5FAE
:102A200046415354200055495F414354494F4E5F3E
:102A30005A504F534954494F4E200055495F414326
:102A400054494F4E5F59504F534954494F4E2000FF
:102A500055495F414354494F4E5F58504F53495475
:102A6000494F4E200042616E6742616E6700536CB1
:102A70006F7742616E6700446561642054696D65DB
:102A80000050494400003A002064617973200050EE
:102A9000657263656E74205072696E7465643A0085
:102AA00020646566200046572044617465203230FA
:102AB000313730333136004F52494F4E2044656C28
:102AC0007461005365654D65434E43004F52494F55
:102AD0004E2044656C74610072372837BE3661360B
:102AE000416374696F6E3A256C6100040003004E07
:102AF0006F00596573004E2F41004F6666004F6EA0
:102B0000000000003FCDCC4C3D0AD7A33B6F120321
:102B10003A5265706574696572207620302E3932BC
:102B20002E32000040145480250000403800000080
:102B30004B00008070000000960000C0DA0000002A
:102B4000E10000002C010008B2010000C2010000F9
:102B5000F401000084030090D0030000E8030000AB
:102B600008070020A1070000100E0040420F00607F
:102B7000E3160000000000110A0411040A111100FC
:102B80001C1F11111F0000040A0A0A0E1F1F0E004D
:102B90001F1111111F0000001F1F1F1F1F00000425
:102BA0000A040000000000040E15041C00000002CE
:102BB00000000600B62BE8331C2C9D30EF2BF030C4
:102BC0005E2C0200000700C92BE833D72B9D30EFA5
:102BD0002BF0302830032CDE2B029E310000507287
:102BE000696E7465722053657474696E677300F65C
:102BF0002B028C32000041646A7573742054656D39
:102C00007073000A2C02342C0000416476616E63FC
:102C100065642053657474696E677300232C02B772
:102C20003100005072696E74657220536574746966
:102C30006E67730002000009003B2CE833492D3514
:102C40002D252D152D4D2CFE2CE62C5E2C542C0202
:102C5000CB2F0000446562756767696E6700652C5D
:102C600002C932000043616C6962726174696F6EFF
:102C7000204D656E750003102702007D2C882C8185
:102C80002C8F2C0000000000A02C00000000006C25
:102C90006F6164656420662E20454550524F4D009B
:102CA000436F6E66696775726174696F6E000310B9
:102CB000270200B52CC02CB92CC72C000000000046
:102CC000D82C000000000073746F72656420696E78
:102CD00020454550524F4D00436F6E6669677572CF
:102CE0006174696F6E00ED2C03070400004C6F6186
:102CF000642066726F6D20454550524F4D00052D82
:102D0000030604000053746F726520746F204545FC
:102D100050524F4D001C2D02582D00004578747202
:102D200075646572002C2D025F2F00004665656496
:102D300072617465003C2D028B2F00004163636556
:102D40006C65726174696F6E00502D02AB2E0000CD
:102D500047656E6572616C0002000010005F2DE82F
:102D600033972E832E712E602E4B2E1C2E342E0563
:102D70002EF22DDE2DCD2DBC2DA72D922D7F2D8653
:102D80002D042F040000504944204D61783A255805
:102D90004400992D04260400004472697665204D94
:102DA00061783A25584D00AE2D0425040000447288
:102DB000697665204D696E3A25586D00C32D04244F
:102DC00004000050494420443A25586400D42D049E
:102DD0002304000050494420493A25586900E52D54
:102DE000042204000044542F50494420503A2558EE
:102DF0007000F92D042D040000436F6E74726F6C27
:102E00003A255868000C2E0446040000416476619F
:102E10006E6365206C696E3A25586C00232E044D54
:102E20000400005761697420556E6974733A25581F
:102E3000556D6D003B2E044C0400005761697420F1
:102E400054656D702E255854024300522E042E04F2
:102E50000000537461622E54696D653A25587700FD
:102E6000672E042A040000416363656C3A255841CB
:102E700000782E042B0400004D61782046523A253C
:102E80005846008A2E042C0400005374617274208A
:102E900046523A255866009E2E04290400005374B9
:102EA0006570732F4D4D3A255365000200000400F4
:102EB000B22EE833E72ECF2EBA2EC12E02FB2E0003
:102EC000004D61782E20496E61637469766500D685
:102ED0002E022D2F00005374657070657220496EAC
:102EE00061637469766500EE2E041004000042618F
:102EF0007564726174653A256F63000358040200BB
:102F0000022F0D2F062F142F00000000001E2F008F
:102F1000000000005B735D20303D4F666600446931
:102F2000732E2041667465723A256970000320048F
:102F30000200342F3F2F382F462F00000000005092
:102F40002F00000000005B735D20303D4F6666007F
:102F50004469732E2041667465723A2569730002D4
:102F600000000300662FE8337C2F6C2F732F0413AF
:102F7000040000486F6D653A25665A00832F0416D9
:102F80000400004D61783A25667A000200000400D2
:102F9000922FE833BA2FAA2F9A2FA12F040E0400E4
:102FA000004A65726B3A25616A00B12F040D040076
:102FB000004D6F76653A25615A00C12F040A04005E
:102FC000005072696E743A25617A000200000500B3
:102FD000D22FE83315300230EF2FDC2FE32F0335EB
:102FE0000400004472792072756E3A25646400F61C
:102FF0002F03340400004572726F7273203A256407
:10300000650009300333040000496E666F202020FC
:103010003A256469001C3003320400004563686F80
:103020002020203A25646F002F30023C30000053EE
:10303000442043617264204D656E750002000006F5
:10304000004330E8339D308A30743062304F305660
:103050003003F403010244656C6574652066696C95
:103060006500693002BC30020053746F70205072EA
:10307000696E74007B3003F7030400436F6E74695C
:103080006E7565205072696E7400913003F603020C
:10309000045061757365205072696E7400A430032A
:1030A000F503010253656C6563742053442046693F
:1030B0006C65000100000100BA30E8330200000333
:1030C00000C330DE30D430C930D030035424020085
:1030D00059657300DB3003E80300004E6F00E530F4
:1030E000010000000053746F70205072696E74000C
:1030F000F730020831000041646A7573742046613C
:103100006E2073706565640002000007000F31E8EF
:1031100033863172315D31483133311D3124310311
:103120001E0400005365742046616E203130302546
:103130002525003A31031D040000536574204661C3
:103140006E203735252525004F31031C0400005320
:1031500065742046616E20353025252500643103D5
:103160001B0400005365742046616E20323525250E
:1031700025007931031A0408005475726E204661E7
:103180006E204F6666008D31045204000046616E69
:103190002073706565643A25467325252500020075
:1031A000000A00A531E8330332EA3161324E32348D
:1031B00032D4331C3274320200000A00BE31E833CC
:1031C0000332EA3161324E323432D433D2311C32DE
:1031D0007432D93103B20F0000556E6C6F636B20EF
:1031E00046756C6C204D656E7500F1310448040025
:1031F00000466C6F772020526174653A256F662512
:103200002525000A32041F04000053706565642000
:10321000526174653A256F6D2525250023320342DE
:1032200004001044697361626C65205374657070AA
:10323000657273003B3203380400005368757420D4
:103240004F666620414C4C204865617473005532CE
:103250000347040000507265686561742041425361
:10326000006832033704000050726568656174209D
:10327000504C41007B32033604000041545820700A
:103280006F776572206F6E2F6F6666000200000414
:10329000009332E833B1329932A032043C0400008A
:1032A0004245442054656D703A2020254562024312
:1032B00000B832043D0400004E4F5A2054656D7032
:1032C0003A20202545300243000200000600D0329B
:1032D000E8330633DC32D4339E33F232E332042156
:1032E000040000482E20526164697573203A256FEE
:1032F0006800F93203AC0F0000536574205A204F68
:10330000726967696E000D33021E33000046756CEA
:103310006C2043616C6962726174696F6E000200B7
:103320000004002533E8335B3346332D3334330355
:10333000B10F0000426567696E2043616C6962727B
:103340006174696F6E004D3303B50F000042454450
:103350002041524520434C45414E00623303B40F97
:1033600000004D414B452053555245204E4F5A5A6F
:103370004C4520260002000006007C33E833D4339D
:10338000C233B0339E3388338F330201340000459B
:103390007874722E20706F736974696F6E00A53334
:1033A00002623500005A20506F736974696F6E00B5
:1033B000B73302B73500005920506F736974696FD5
:1033C0006E00C933020C3600005820506F736974C8
:1033D000696F6E00DB3303FD030000486F6D6520ED
:1033E0005072696E74657200EF3303E80300005099
:1033F000726576696F75732053637265656E20011F
:103400000003F0030400083425341E34173410344C
:103410002C3400000000003A3400000000004B345F
:1034200000000000005A340000000000255566200E
:103430006D207072696E7465640020453A2565637D
:103440002F25456302437E256F43003120636C695D
:10345000636B203D2031206D6D00453A2578332087
:103460006D6D0003FC0304006A34873480347934C2
:1034700072348E3400000000008F34000000000021
:103480009F340000000000AF340000000000004D39
:10349000617820656E6473746F703A25735A004DBD
:1034A000696E20656E6473746F703A25737A005A82
:1034B0003A257832206D6D0003FB030400BF34DC35
:1034C00034D534CE34C734E3340000000000E43493
:1034D0000000000000F4340000000000043500008B
:1034E000000000004D617820656E6473746F703A5F
:1034F000257359004D696E20656E6473746F703A60
:1035000025737900593A257831206D6D0003FA034F
:103510000400143531352A3523351C353835000083
:1035200000000039350000000000493500000000AF
:103530000059350000000000004D617820656E6480
:1035400073746F703A257358004D696E20656E6410
:1035500073746F703A25737800583A257830206D6F
:103560006D0003EF030400693586357F35783571CA
:10357000358D3500000000008E3500000000009EF3
:10358000350000000000AE350000000000004D6175
:103590007820656E6473746F703A25735A004D69B4
:1035A0006E20656E6473746F703A25737A005A3AB0
:1035B000257832206D6D0003EE030400BE35DB3547
:1035C000D435CD35C635E2350000000000E33500C6
:1035D00000000000F335000000000003360000008A
:1035E0000000004D617820656E6473746F703A2539
:1035F0007359004D696E20656E6473746F703A255F
:10360000737900593A257831206D6D0003ED03047C
:103610000013363036293622361B36373600000086
:1036200000003836000000000048360000000000AE
:1036300058360000000000004D617820656E64730C
:10364000746F703A257358004D696E20656E64730F
:10365000746F703A25737800583A257830206D6D74
:10366000000000000400683685367E3677367036F6
:103670008C36000000000092360000000000A636E4
:103680000000000000AA360000000000255566205A
:103690006D00546F74616C2046696C616D656E7469
:1036A00020557365640025557400546F74616C2057
:1036B0005072696E74696E672054696D6500000010
:1036C000000400C536E236DB36D436CD36E93600A6
:1036D00000000000F5360000000000033700000085
:1036E0000000153700000000004F52494F4E2044A3
:1036F000656C7461005072696E746572204D6F6400
:10370000656C00465720446174653A203230313789
:10371000303331360046572056657273696F6E3A02
:1037200020302E39322E320000000004002F374C9A
:103730003745373E373737533700000000005737DB
:103740000000000000603700000000006937000042
:10375000000000256F73005A3A257832206D6D0005
:10376000593A257831206D6D00583A257830206D12
:103770006D000000000400793796378F3788378155
:10378000379D370000000000A1370000000000BA9C
:10379000370000000000CD370000000000256F73E7
:1037A0000053706565643A256F6D25252520466CAC
:1037B0006F773A256F66252525004245443A2565F1
:1037C00062205461726765743A254562004E4F5A13
:1037D0003A256563205461726765743A2545630034
:1037E0000000000000000000000000FF00000100D9
:1037F00000000A0B02090C0D0E080703040100006B
:1038000000000000000000000000000000000000B8
:103810000000000000000000000000001211100075
:103820000000000000000000000000000000000098
:1038300000000000000001021020200808102040B5
:103840001020408002010201080402010102040864
:1038500010204080804020100804020180040201F2
:10386000804020100804020108040201010204083B
:103870001020408001020408102040800505050545
:10388000070508080808020202020A0A08080404D8
:103890000404010101010101010103030303030306
:1038A0000303040707070C0C0C0C0C0C0C0C020295
:1038B000020206060606060606060B0B0B0B0B0B92
:1038C0000B0B000020002300260029002C002F00F5
:1038D000320000010000030106010901000022007E
:1038E000250028002B002E003100340002010000CA
:1038F000050108010B0100002100240027002A0017
:103900002D003000330001010000040107010A010D
:10391000024E414E494E495459494E46CDCCCC3DBC
:103920000AD7233C17B7D13877CC2B329595E624AC
:103930001FB14F0A000020410000C84200401C4651
:1039400020BCBE4CCA1B0E5AAEC59D74E7793DB46F
:103950001FC0980111241FBECFEFD1E2DEBFCDBF43
:1039600000E00CBF13E0A0E0B2E0EEEAF5E202E016
:103970000BBF02C007900D92A638B107D9F72EE110
:10398000A6E8B3E001C01D92AE37B207E1F719E334
:10399000C4E5D9E300E006C022970109FE010BBF90
:1039A0000F94500ECC34D10780E00807A9F70F948C
:1039B00011060D94D5120C940000CF93DF9300D024
:1039C0001F92CDB7DEB744E050E0BC01CE010196B6
:1039D0000F94911269817A818B819C810F900F9055
:1039E0000F900F90DF91CF9108958091F90283FBA2
:1039F000882780F90895179A0895169A0895159AB8
:103A0000089588E493E0D9CFCF92DF92EF92FF92AE
:103A1000CF93DF9300D01F921F92CDB7DEB76B011B
:103A20007C01609386187093871880938818909310
:103A300089180E94869CC982DA82EB82FC8244E06B
:103A400050E065E773E0CE0101960F94B31223E0D6
:103A5000B701A60188E795E00E94BB4E0E945A522A
:103A6000682F88E690E06D830F94A1126D8168172E
:103A700021F088E690E00F94BC120F900F900F9009
:103A80000F900F90DF91CF91FF90EF90DF90CF904C
:103A90000895CF93DF931F92CDB7DEB7BC018DE7BA
:103AA00093E00F94CF120E945A52682F88E690E05C
:103AB00069830F94A1126981681739F088E690E054
:103AC0000F90DF91CF910D94BC120F90DF91CF91A9
:103AD0000895CF93DF931F92CDB7DEB7BC018FE778
:103AE00093E00F94CF120E945A52682F88E690E01C
:103AF00069830F94A1126981681739F088E690E014
:103B00000F90DF91CF910D94BC120F90DF91CF9168
:103B10000895CF93DF931F92CDB7DEB7BC0181E844
:103B200093E00F94CF120E945A52682F88E690E0DB
:103B300069830F94A1126981681739F088E690E0D3
:103B40000F90DF91CF910D94BC120F90DF91CF9128
:103B50000895CF93C82F80919C048823D1F01092B0
:103B60009C040E94F9689091DF0291509093DF02CB
:103B7000911109C08091E002833010F40E948668A0
:103B800085E08093DF026C2F88EC9CE1CF910C9450
:103B9000D2FECF91089580916306882349F00E9458
:103BA000E77280E0D6DF88EC9CE10E94D1FEF3CF83
:103BB00008954F925F926F927F928F929F92AF92F1
:103BC000BF92CF92DF92EF92FF920F931F93CF930A
:103BD000DF9300D01F92CDB7DEB78C018091001922
:103BE00090910119A0910219B091031989839A83C8
:103BF000AB83BC83C0900419D0900519E0900619DE
:103C0000F09007198090081990900919A0900A194E
:103C1000B0900B199C01AD01BC01CD010F94820D38
:103C200081110FC149805A806B807C80E89477F8BD
:103C30002FEF3FEF4FE75FE7C301B2010F94820D13
:103C400081110BC02FEF3FEF4FE75FE7C301B201D8
:103C50000F942F0A18160CF4F4C0A7019601C7019F
:103C6000B6010F94820D8111ECC026013701E89452
:103C700077F82FEF3FEF4FE75FE7C301B2010F94F3
:103C8000820D81110BC02FEF3FEF4FE75FE7C301BC
:103C9000B2010F942F0A18160CF4D3C0A501940199
:103CA000C501B4010F94820D8111CBC024013501EF
:103CB000E89477F82FEF3FEF4FE75FE7C301B201DA
:103CC0000F94820D81110BC02FEF3FEF4FE75FE79D
:103CD000C301B2010F942F0A18160CF4B2C0209140
:103CE000D8183091D9184091DA185091DB186981B1
:103CF0007A818B819C810F94CB092B013C0120910F
:103D0000DC183091DD184091DE185091DF18C701A2
:103D1000B6010F94CB096B017C012091E018309122
:103D2000E1184091E2185091E318C501B4010F94D5
:103D3000CB094B015C0180916019882329F020E7B1
:103D400032E441E25DE304C020E030E040E85FE3BC
:103D5000C301B2010F94D70CAB01BC0122E087E094
:103D600099E10E94F84E80916019882329F020E79C
:103D700032E441E25DE304C020E030E040E85FE38C
:103D8000C701B6010F94D70CAB01BC0122E08FEF45
:103D900098E10E94F84E80916019882329F020E76D
:103DA00032E441E25DE304C020E030E040E85FE35C
:103DB000C501B4010F94D70CAB01BC0123E08BEF1C
:103DC00098E10E94F84E609118197091191980912C
:103DD0001A1990911B190F94020B20915C193091C4
:103DE0005D1940915E1950915F190F94D70C209185
:103DF0006019222329F020E732E441E25DE304C0A8
:103E000020E030E040E85FE30F94D70CAB01BC0149
:103E100024E087EF98E10F900F900F900F90DF91C3
:103E2000CF911F910F91FF90EF90DF90CF90BF90B7
:103E3000AF909F908F907F906F905F904F900C9479
:103E4000BB4EC8010E94E14C4ACFCF92DF92EF9265
:103E5000FF92CF93DF93EC01893191053CF0C53F90
:103E600081E0D8072CF0C4EFD1E002C0C9E1D0E076
:103E7000BE01882777FD8095982F0F94020B6B0168
:103E80007C016091101870911118882777FD80953A
:103E9000982F0F94020B9B01AC01C701B6010F9440
:103EA000360A9B01AC016091121870911318809131
:103EB0001418909115180F94D70C609312187093E2
:103EC00013188093141890931518D0931118C09359
:103ED0001018BE018CEC98E1DF91CF91FF90EF902C
:103EE000DF90CF900C94A34DCF92DF92EF92FF9290
:103EF0006B017C0120E030E040E752E40F942F0A90
:103F000087FD11C020E030E046E153E4C701B6016F
:103F10000F94630C18166CF4C12CD12C86E1E82E9A
:103F200083E4F82E06C0C12CD12C90E7E92E92E450
:103F3000F92EC0928618D0928718E0928818F092D5
:103F4000891822E0B701A60183EB98E1FF90EF907A
:103F5000DF90CF900C94BB4E8F929F92AF92BF9206
:103F6000CF92DF92EF92FF92CF93DF93EC018931F2
:103F7000910534F0893C91052CF0C8ECD0E002C0EA
:103F8000C9E1D0E0D0930F18C0930E18E0918603DA
:103F9000F0918703E258FF4FC080D180E280F38028
:103FA00020E030E0A901C701B6010F942F0AAE014D
:103FB000662757FD6095762F18165CF0CB01BA0185
:103FC0000F94020B2AE037ED43E25CE30F94D70C29
:103FD00024C0CB01BA010F94020B2AE037ED43E273
:103FE0005CE30F94D70C20E030E040E850E40F94FD
:103FF000D70C4B015C01A7019601C701B6010F94D4
:10400000D70C2BED3FE049E450E40F94D70C9B0113
:10401000AC01C501B4010F94360A6093F4027093A9
:10402000F5028093F6029093F702BE018EEB98E1C1
:10403000DF91CF91FF90EF90DF90CF90BF90AF9046
:104040009F908F900C94A34DCF93DF932091D41821
:1040500097FD0DC0EC018F3F910519F014F0CFEFE3
:10406000D0E0209721F028602093D41805C0277F46
:104070002093D418C0E0D0E061118DDD8091BC1791
:1040800090E0C817D90729F0BE0189EA98E10E949B
:10409000A34DC093BC17DF91CF9108954F925F92CB
:1040A0006F927F928F929F92AF92BF92CF92DF9248
:1040B000EF92FF92CF93DF9300D01F92CDB7DEB780
:1040C0002FE632E143E85AE36091F8177091F9174F
:1040D0008091FA179091FB170F94D70C6B017C011C
:1040E00081E890E06ADC9B01AC01C701B6010F9446
:1040F000CB09AB01BC0122E087E998E10E94F84EB0
:1041000085E898E10E94A84CE0910A02F0910B0228
:1041100020E030E040E751E463857485858596852D
:104120000F94630C18160CF46BC020E030E0A9016A
:104130008DE790E029833A834B835C830F94A91227
:104140004B015C0129813A814B815C81820E931E77
:10415000A41EB51EC501B40120E831E541E050E0E0
:104160000F94030E60E87EEA8EEF9FEF0F949E0D92
:104170006B017C01C80CD91CEA1CFB1CBA01A9010B
:1041800088E898E10E94C94DC701B60120E13EE0F0
:1041900040E050E00F94030E49015A01BA01A90111
:1041A0008EE798E10E94C94DA0EFB1EFA5019401FF
:1041B0000F944C0E6C0D7D1D8E1D9F1D2CE330E069
:1041C00040E050E00F94030EBA01A90186E798E1A0
:1041D0000E94C94D81E798E10F900F900F900F90CA
:1041E000DF91CF91FF90EF90DF90CF90BF90AF9095
:1041F0009F908F907F906F905F904F900C94C04CE9
:104200000F94A203C090FC17D090FD17E090FE170A
:10421000F090FF176C197D098E099F0928EE33E095
:1042200040E050E00F94E10D83CF811102C08EE297
:1042300007C0813011F48DE203C0823019F48CE2A2
:104240000D9462040895EAE0F1E080818860808343
:104250008081806180838081806280836CE370E0F4
:104260008EE20F9462046CE370E08DE20F946204BE
:1042700062E870E08CE20F946204E1E2F1E0808198
:10428000887F81608083089567FD43C08230E9F0B4
:1042900028F4882341F0813061F03BC0833009F17C
:1042A000843059F136C0662311F0A19A69C0A198F3
:1042B00067C080910801662311F0806801C08F7784
:1042C0008093080147FF3AC05FC0809108016623D0
:1042D00011F0806401C08F7B8093080147FF34C0D8
:1042E00055C080910801662311F0886001C0877F66
:1042F0008093080147FF32C046C0809105016623C4
:1043000011F0806401C08F7B8093050147FF2EC0B0
:104310003CC047FD3BC08230B9F028F4882341F00F
:10432000813061F008958330C9F08430F9F0089548
:10433000442311F0A09A0895A0980895442311F001
:10434000A29A0895A298089580910801442311F03B
:10435000806201C08F7D80930801089580910801DB
:10436000442311F08061F7CF8F7EF5CF8091050156
:10437000442311F0806401C08F7B80930501089570
:1043800047FFD6CF0895089508950895089564309D
:1043900079F028F4613041F0623041F008956830DE
:1043A00051F0603141F0089540E003C040E004C0A6
:1043B00041E060E002C041E061E066CFCF93DF936F
:1043C00082E598E10E94C04C62B36695617070E02E
:1043D00087E099E10E94974D62B3617070E08FE6CB
:1043E00098E10E94A34DC6E0D1E08881992787FD1E
:1043F0009095692F661F6627661F70E08AE698E130
:104400000E94974D62B362FB662760F970E08FE609
:1044100098E10E94A34D688166FB662760F970E011
:1044200087E698E10E94974D688165FB662760F9F1
:1044300070E08FE698E10E94A34D688163FB6627D8
:1044400060F970E083E698E10E94974D688162957B
:10445000617070E08FE698E10E94A34DC3E0D1E067
:10446000688166FB662760F970E08FE598E10E943D
:10447000974D688166FB662760F970E08FE698E1EA
:10448000DF91CF910C94A34DFF920F931F93CF9385
:10449000DF9300D01F921F92CDB7DEB785E0E7E42F
:1044A000F3E0DE01119601900D928A95E1F7989A5A
:1044B0009A9A809107018062809307018091070199
:1044C00080618093070180910401806480930401DE
:1044D0008E010F5F1F4FF12CF80161918F018F2D1D
:1044E00056DFF394F5E0FF12F7CF0F900F900F9087
:1044F0000F900F90DF91CF911F910F91FF90089532
:104500000C94B8760E94A37620910802309109029B
:104510008217930724F49093090280930802089568
:104520006091080270910902809106029091070241
:104530006817790744F470930702609306028AE0D3
:1045400099E10C94A34D0895CF93C82F69E170E0D1
:1045500085E89DE10F9436016C2F85E89DE10F946D
:10456000D70060E085E89DE10F943701882329F0AA
:1045700084EA9CE0CF910C94C04CCF910895CF93E6
:10458000DF93D82FC62F69E170E085E89DE10F9495
:1045900036016D2F85E89DE10F94D7006C2F85E8DB
:1045A0009DE10F94D70085E89DE10F944901882390
:1045B00031F085E89CE0DF91CF910C94C04CDF9105
:1045C000CF9108951F93CF93DF93182FBDDF41E064
:1045D00050E069E170E085E89DE10F942A0185E8EB
:1045E0009DE10F948000892BA1F085E89DE10F9457
:1045F0008800EC01612F70E08BE79CE00E94974DF2
:10460000BE01772782E79CE0DF91CF911F910C9448
:10461000A34D84E59CE0DF91CF911F910C94C04C99
:104620008FE29CE00E94C04C85E89DE10F9415014B
:104630008FE0C8DF81E3C6DF80E2C4DF6CE980E29F
:104640009EDF80E2BFDF82E2BDDF60E482E297DFCF
:1046500082E2B8DF85E2B6DF60E085E290DF85E2E6
:10466000B1DF83E2AFDF60E383E289DF83E2AADFC9
:1046700084E2A8DF6AE484E282DF84E2A3DF80E3ED
:10468000A1DF60E280E37BDF80E39CDF81E39ADFF0
:1046900082E398DF64E182E372DF82E393DF83E306
:1046A00091DF60E083E36BDF83E38CDF84E38ADF09
:1046B00060E084E364DF84E385DF86E383DF62E335
:1046C00086E35DDF86E37EDF87E37CDF60E087E310
:1046D00056DF87E377DF88E375DF60E188E34FDF4C
:1046E00088E370DF89E36EDF8AE36CDF62E38AE3ED
:1046F00046DF8AE367CF81E365DF85E363DF89E334
:1047000061DF8DE25FCF6DE081E795E00E94577534
:104710006AE081E795E00C945775CF93C82FE0913C
:104720008603F091870342A953A964A975A922E0E1
:1047300084EF98E10E94F84EE0918603F0918703A0
:1047400046A957A960AD71AD20E08BED98E10E94BC
:10475000F84E0E948A60AB01BC0122E080EF98E134
:104760000E94F84E4091190250911A0260911B026A
:1047700070911C0220E08BED98E10E94F84ECC2352
:1047800091F061E070E082EE98E10E94974D6CEF4D
:104790007FE08091110290911202681B790B80EEEC
:1047A00098E10E94974DE0910E02F0E0E754F84E38
:1047B000608170E087EE98E10E94974DE091DE0203
:1047C000EF3F29F4E0918603F0918703E081F0E068
:1047D000E754F84E608170E08CEE98E10E94974DAE
:1047E000CF9191CF2F923F924F925F926F927F9293
:1047F0008F929F92AF92BF92CF92DF92EF92FF92F1
:104800000F931F93CF93DF93CDB7DEB729970FB6E2
:10481000F894DEBF0FBECDBF5C01DC0116968D9112
:104820009C9117978C38910509F48AC608F0E7C067
:104830008235910509F42FC408F08AC08A319105A8
:1048400009F4D1C208F03FC08531910509F449C28D
:1048500078F48231910509F423C28431910509F479
:1048600024C2419711F00C94F13417981698D0C5D2
:104870008731910509F46DC208F44FC28831910562
:1048800009F495C2499711F00C94F13460E085E683
:1048900099E129960FB6F894DEBF0FBECDBFDF9128
:1048A000CF911F910F91FF90EF90DF90CF90BF902D
:1048B000AF909F908F907F906F905F904F903F90C0
:1048C0002F900C94EABA8E31910509F4E9C218F5DB
:1048D0008C31910509F4BCC210F00C942A3585E6A0
:1048E00099E129960FB6F894DEBF0FBECDBFDF91D8
:1048F000CF911F910F91FF90EF90DF90CF90BF90DD
:10490000AF909F908F907F906F905F904F903F906F
:104910002F900C9439BF8A32910509F41BC328F4F7
:10492000809709F4EAC20C94F1348035910509F4BA
:104930009DC38135910511F00C94F1342CD99B9ACB
:104940008091D6188F7B8093D618A39A0C942A3521
:104950008B36910511F40C94232E38F58C35910586
:1049600009F4A4C460F48435910509F49DC308F4E6
:1049700096C38535910509F475C40C94F1348836D5
:10498000910509F448C530F48336910509F4F2C461
:104990000C94F1348936910509F425C68A369105BF
:1049A00011F40C94122E0C94F1348337910511F408
:1049B0000C94742E80F48F36910511F40C94442ECF
:1049C0008237910511F40C94922E8D36910511F0D9
:1049D0000C94F1342AC68537910511F40C94952E68
:1049E00010F40C949C2D8737910511F40C94C02E73
:1049F0008837910511F40C94032F0C94F134853011
:104A0000B1E09B0711F40C94113208F0B0C08F3C58
:104A1000910511F40C94AB3008F041C08A3C91052B
:104A200011F40C94DA2F70F4883C910511F40C9475
:104A3000292F10F00C947C2F8E3B910509F4CBC7E5
:104A40000C94F1348C3C910511F40C94313010F439
:104A50000C941F308D3C910511F40C9491308E3CD8
:104A6000910511F00C94F134C50129960FB6F89414
:104A7000DEBF0FBECDBFDF91CF911F910F91FF9091
:104A8000EF90DF90CF90BF90AF909F908F907F90EE
:104A90006F905F904F903F902F900C94F9588F3DFE
:104AA000910511F40C94663188F48C3D910511F454
:104AB0000C9413318D3D910511F40C943B31813DE3
:104AC000910511F00C94F1340C94F330893E91056A
:104AD00011F40C947B3140F5883E910511F00C9453
:104AE000F1346091C1177091C2178BE098E10E9478
:104AF000974D4091BD175091BE176091BF177091AF
:104B0000C01722E082E098E10E94BB4E1092C217CB
:104B10001092C1171092BD171092BE171092BF17B6
:104B20001092C0170C942A358B3F910511F40C9408
:104B3000B4318430914011F00C94F13429960FB6C1
:104B4000F894DEBF0FBECDBFDF91CF911F910F91C3
:104B5000FF90EF90DF90CF90BF90AF909F908F909D
:104B60007F906F905F904F903F902F9059CD8E35F2
:104B700021E0920711F40C946933C0F58E3241E0C4
:104B8000940711F40C94B43298F48931A1E09A0797
:104B900011F40C9469328C32B1E09B0711F40C943F
:104BA00079328630914011F00C94F1340C94333208
:104BB0008034F1E09F0711F40C94273338F48F32DE
:104BC000914011F40C94F3320C94F134813441E0AF
:104BD000940711F40C942B338234914011F00C940F
:104BE000F13480E00E940FB00C9440338239A1E090
:104BF0009A0711F40C94543498F58836E1E09E0736
:104C000011F40C94203438F48336914011F40C9450
:104C1000DA330C94F134803931E0930711F40C94B9
:104C20003A348139914011F00C94F13429960FB641
:104C3000F894DEBF0FBECDBFDF91CF911F910F91D2
:104C4000FF90EF90DF90CF90BF90AF909F908F90AC
:104C50007F906F905F904F903F902F900C9432AE6A
:104C6000853F51E0950711F40C94843460F4843F3F
:104C7000914011F00C94F13480E00E94715284E76D
:104C800093E10C948F34863FE1E09E0711F40C947D
:104C9000A9348C38934011F40C94C3340C94F1343F
:104CA0000E94FB1C0E94FD1C8CC285E699E129969E
:104CB0000FB6F894DEBF0FBECDBFDF91CF911F912D
:104CC0000F91FF90EF90DF90CF90BF90AF909F90AB
:104CD0008F907F906F905F904F903F902F900C94AB
:104CE0007DBE85E699E129960FB6F894DEBF0FBE2A
:104CF000CDBFDF91CF911F910F91FF90EF90DF908B
:104D0000CF90BF90AF909F908F907F906F905F906B
:104D10004F903F902F900C946CBA85E699E12996BC
:104D20000FB6F894DEBF0FBECDBFDF91CF911F91BC
:104D30000F91FF90EF90DF90CF90BF90AF909F903A
:104D40008F907F906F905F904F903F902F900C943A
:104D500071BAD5018D919C9197FD02C00C942A35B2
:104D600060E085E699E10E946FC9F501EE5AFF4FB8
:104D70006081718140E085E699E129960FB6F8944B
:104D8000DEBF0FBECDBFDF91CF911F910F91FF907E
:104D9000EF90DF90CF90BF90AF909F908F907F90DB
:104DA0006F905F904F903F902F900C94B0BE85E62F
:104DB00099E129960FB6F894DEBF0FBECDBFDF9103
:104DC000CF911F910F91FF90EF90DF90CF90BF9008
:104DD000AF909F908F907F906F905F904F903F909B
:104DE0002F900C94D9BAF5018081918192FD02C077
:104DF0000C942A35468D578D60A171A18091CF19F1
:104E0000882311F40C942A354093C6195093C7197E
:104E10006093C8197093C91985EA99E129960FB66C
:104E2000F894DEBF0FBECDBFDF91CF911F910F91E0
:104E3000FF90EF90DF90CF90BF90AF909F908F90BA
:104E40007F906F905F904F903F902F900C94B5C7DC
:104E5000D5018D919C9197FD02C00C942A35F501E6
:104E6000EE5AFF4F6081718185E699E129960FB670
:104E7000F894DEBF0FBECDBFDF91CF911F910F9190
:104E8000FF90EF90DF90CF90BF90AF909F908F906A
:104E90007F906F905F904F903F902F900C945DBFEC
:104EA000F5018081918197FD02C00C942A3560E064
:104EB00085E699E10E946FC9F501EE5AFF4F6081C6
:104EC000718185E699E129960FB6F894DEBF0FBE91
:104ED000CDBFDF91CF911F910F91FF90EF90DF90A9
:104EE000CF90BF90AF909F908F907F906F905F908A
:104EF0004F903F902F900C94BEBFD5018D919C9107
:104F000097FD02C00C942A3560E085E699E10E9485
:104F10006FC9F501EE5AFF4F6081718185E699E115
:104F200029960FB6F894DEBF0FBECDBFDF91CF91AB
:104F30001F910F91FF90EF90DF90CF90BF90AF90B7
:104F40009F908F907F906F905F904F903F902F90A9
:104F50000C94ECBFF5012081318133FD02C00C942B
:104F60002A3512A1E12EF3A0E2ECFCE0449150E0DE
:104F70004E155F0509F45EC032964DE0E633F40746
:104F8000A9F7F7FC57C032FF2CC0D5015E964D91B2
:104F90005D916D917C9191974F3F51056105710530
:104FA00009F0E0F461E0812F0F947A05F501668D38
:104FB000812F0F94B305D5015E966D917C915F971B
:104FC000812F0F946204B70185E498E10E94974D08
:104FD000F501668D778D80E498E112C08FE095E051
:104FE0002BC062E0812F0F947A05B70180E498E12D
:104FF0000E94974D812F0F94E805BC018BE398E147
:1050000029960FB6F894DEBF0FBECDBFDF91CF91CA
:105010001F910F91FF90EF90DF90CF90BF90AF90D6
:105020009F908F907F906F905F904F903F902F90C8
:105030000C94A34D89ED94E029960FB6F894DEBF49
:105040000FBECDBFDF91CF911F910F91FF90EF90D9
:10505000DF90CF90BF90AF909F908F907F906F9098
:105060005F904F903F902F900C94E14C0E94CB1D8D
:105070000F94A2036093C3177093C4178093C5174E
:105080009093C6179B9A8091D61880648093D61807
:10509000A3980C942A3510921C190C942A3581E09F
:1050A00080931C190C942A35D5018D919C911197F0
:1050B00092FF14C05E962D913D914D915C91919718
:1050C000A8EEB3E00F94400E6093E8027093E902FB
:1050D0008093EA029093EB020C942A3593FFA5C0CB
:1050E000F50182A193A1A4A1B5A182309105A105EA
:1050F000B10509F466C02CF50097A105B10509F4C6
:1051000046C00197A105B10511F00C942A352996E6
:105110000FB6F894DEBF0FBECDBFDF91CF911F91C8
:105120000F91FF90EF90DF90CF90BF90AF909F9046
:105130008F907F906F905F904F903F902F900C9446
:10514000FD1C83309105A105B10509F454C00497F5
:10515000A105B10511F00C942A3529960FB6F894E3
:10516000DEBF0FBECDBFDF91CF911F910F91FF909A
:10517000EF90DF90CF90BF90AF909F908F907F90F7
:105180006F905F904F903F902F900C94A160299664
:105190000FB6F894DEBF0FBECDBFDF91CF911F9148
:1051A0000F91FF90EF90DF90CF90BF90AF909F90C6
:1051B0008F907F906F905F904F903F902F900C94C6
:1051C000FB1C29960FB6F894DEBF0FBECDBFDF9152
:1051D000CF911F910F91FF90EF90DF90CF90BF90F4
:1051E000AF909F908F907F906F905F904F903F9087
:1051F0002F900C94FF1C29960FB6F894DEBF0FBEBB
:10520000CDBFDF91CF911F910F91FF90EF90DF9075
:10521000CF90BF90AF909F908F907F906F905F9056
:105220004F903F902F900C9493600E94CB1D81E093
:1052300029960FB6F894DEBF0FBECDBFDF91CF9198
:105240001F910F91FF90EF90DF90CF90BF90AF90A4
:105250009F908F907F906F905F904F903F902F9096
:105260000C94179CD5018D919C91119792FF14C0BD
:105270005E962D913D914D915C919197A8EEB3E092
:105280000F94400E6093EC027093ED028093EE0257
:105290009093EF020C942A351092EC021092ED02DA
:1052A0001092EE021092EF020C942A35F5018081E3
:1052B00083FF0CC082859385A485B58580933603D2
:1052C00090933703A0933803B0933903D5018C91A1
:1052D00084FF0EC01E968D919D910D90BC91A02DC6
:1052E00080933A0390933B03A0933C03B0933D0318
:1052F000F501808185FF0CC082899389A489B589D5
:1053000080933E0390933F03A0934003B0934103E7
:105310000E94869CD5018C9186FD02C00C942A3592
:10532000209186033091870356968D919D910D9023
:10533000BC91A02DF90181879287A387B4878081D2
:1053400029960FB6F894DEBF0FBECDBFDF91CF9187
:105350001F910F91FF90EF90DF90CF90BF90AF9093
:105360009F908F907F906F905F904F903F902F9085
:105370000C94D05ED501ED91FC911197F2FF0DC018
:105380005E962D913D914D915C919197A8EEB3E081
:105390000F94400E6B017C0106C040E1C42E47E231
:1053A000D42EE12CF12CE3FD0E94FB1CF501808141
:1053B00084FD0E94FD1CD5018C9185FD0E94FF1C7F
:1053C0000F94A2032B013C014C0C5D1C6E1C7F1C36
:1053D0000F94A203A3019201261B370B480B590B14
:1053E000DA01C901803A9648A140B10518F40E943B
:1053F0007CA1EECFD5018C9183FD1798F5018081BA
:1054000084FD1698D5018C9185FD02C00C942A3537
:1054100015980C942A350E94B76881110C942A358E
:105420000F94A2036093C3177093C4178093C5179A
:105430009093C6170E94F51C81110C942A35F50132
:105440008081918193FF02C00C94143592FF0AC0B1
:10545000868D978DA0A1B1A1892B8A2B8B2B11F45E
:105460000C941435D5018D919C91119792FD02C039
:105470000C942A359C012227317091FF23C0232BE5
:1054800089F011E020E030E0A9015A966D917D91FC
:105490008D919C915D970F94630C18160CF010E0A1
:1054A000212F01C020E085010C5A1F4FF501668DA8
:1054B000778D80A191A129870F94020B2985D801AE
:1054C0004C9124C0232B81F011E020E030E0A901B1
:1054D000F501628D738D848D958D0F94630C181674
:1054E0000CF010E0212F01C020E000918603109104
:1054F0008703D5015E966D917D918D919C919197D9
:1055000029870F94020B2985F801408129960FB64F
:10551000F894DEBF0FBECDBFDF91CF911F910F91E9
:10552000FF90EF90DF90CF90BF90AF909F908F90C3
:105530007F906F905F904F903F902F900C940764F6
:105540000E94B76881110C942A350F94A2036093CE
:10555000C3177093C4178093C5179093C6170E9402
:10556000F51C81110C942A35D5018D919C911197D0
:1055700092FD02C00C942A3590FF11C011E020E08A
:1055800030E0A9015A966D917D918D919C915D9726
:105590000F94630C18160CF010E0412F01C040E08E
:1055A000F501668D778D80A191A149870F94020B3B
:1055B000498529960FB6F894DEBF0FBECDBFDF91A7
:1055C000CF911F910F91FF90EF90DF90CF90BF9000
:1055D000AF909F908F907F906F905F904F903F9093
:1055E0002F900C94D064D5018D919C9133E09695C9
:1055F00087953A95E1F7817029960FB6F894DEBF4A
:105600000FBECDBFDF91CF911F910F91FF90EF9013
:10561000DF90CF90BF90AF909F908F907F906F90D2
:105620005F904F903F902F9078C80E94B76881118B
:105630000C942A350F94A2036093C3177093C41778
:105640008093C5179093C6170E94F51C81110C9486
:105650002A3540E068EC74E088EC9CE10E94F1DFC0
:1056600088EC9CE10E9445E30E94CB1D20908603BC
:1056700030908703F5018081918191FF09C0EC5A38
:10568000FF4F2081211104C02BE5222E22E0322E73
:1056900092FF1EC090FF0FC011E020E030E0A90192
:1056A000D5015A966D917D918D919C915D970F9446
:1056B000630C18160CF010E0F501668D778D80A153
:1056C00091A10F94020B212FD1014C910E940764EC
:1056D000F10126A937A940AD51AD62A973A984A9EA
:1056E00095A90F94CA092B013C0120E030E0A901E3
:1056F0000F94630C181664F420E030E040EA50E4A4
:10570000C301B2010F942F0A87FF0EC00C942A35F3
:1057100020E030E040EA50ECC301B2010F94630C8A
:10572000181614F40C942A3599249394D101D09628
:105730002D913C91D1979E968D919C919F97821728
:1057400093070CF0912C0F94A2036D837E838F83BB
:10575000988710E0412C512C32010F94A2036983E9
:105760007A838B839C836093C3177093C417809351
:10577000C5179093C617DC01CB012D813E814F8167
:105780005885821B930BA40BB50B893E9340A10552
:10579000B10558F080E00E948D2389819A81AB8108
:1057A000BC818D839E83AF83B88781E00E94A91D51
:1057B00080918603909187032816390609F064C00A
:1057C000D1019396ED90FC9094971E141F040CF059
:1057D0005BC0111158C0992009F477C091966D9162
:1057E0007C919297882777FD8095982F0F94020BD4
:1057F0009B01AC01F10162A973A984A995A90F9439
:10580000630C181614F00C942135662777276E194F
:105810007F09882777FD8095982F0F94020B2091A0
:1058200042033091430340914403509145030F9448
:10583000D70C0F94CF0A1F921F92D10152962C9130
:1058400052972F9351962C9151972F9350962C91BC
:1058500050972F931F962C912F935B016C01E12C95
:10586000F12C870120E030E0A90160E070E0CB017D
:105870000E940A940F900F900F900F900F900F902E
:1058800011E00C94213511E04114510461047104BC
:1058900009F050C09920F1F020E030E040E85FE3EB
:1058A000F10166A977A980AD91AD0F94CA099B015A
:1058B000AC01D101D2966D917D918D919C91D5973E
:1058C0000F94630C87FF1FC045CF4114510461043E
:1058D000710481F520E030E040E85FE3F10166A962
:1058E00077A980AD91AD0F94CB099B01AC01D1019B
:1058F000D2966D917D918D919C91D5970F942F0AA1
:1059000018160CF427CFF101A78DB0A128EE33E0D3
:105910000F943A0E2B013C0129813A814B815C8125
:10592000420E531E641E751E41145104610471041D
:1059300009F413CFD301C20129813A814B815C81E3
:10594000821B930BA40BB50B81159449A543B74754
:1059500008F403CF112309F4E2C0809186039091EB
:1059600087032816390609F0DAC0D10193966D91A4
:105970007C919497882777FD8095982F0F94020B40
:1059800020914203309143034091440350914503D9
:105990000F94D70C0F94CF0A1F921F92F101228906
:1059A0002F9321892F9320892F9327852F935B0194
:1059B0006C01E12CF12C870120E030E0A90160E0CE
:1059C00070E0CB010E940A940F900F900F900F90FF
:1059D0000F900F90A4C00E94F51C81110C942A35E1
:1059E00040E06CEB74E088EC9CE10E94F1DF88EC15
:1059F0009CE10E9445E30E94CB1DD5018D919C91B5
:105A0000119792FF1FC090FF11C011E020E030E01D
:105A1000A9015A966D917D918D919C915D970F94FE
:105A2000630C18160CF010E0412F01C040E0F501A6
:105A3000668D778D80A191A149870F94020B4985CE
:105A40000E94D0642091190230911A0240911B02E9
:105A500050911C02609115027091160280911702FC
:105A6000909118020F94CA092B013C0120E030E00C
:105A7000A9010F94630C18165CF420E030E040EAB2
:105A800050E4C301B2010F942F0A87FF0CC0E2C794
:105A900020E030E040EA50ECC301B2010F94630C07
:105AA00018160CF4D7C70F94A2032B013C0120E079
:105AB00030E040E05FE36091150270911602809142
:105AC0001702909118020F94CB092091190230917E
:105AD0001A0240911B0250911C020F942F0A87FF5B
