:100000000C94C31C0C94F41C0C94F41C0C94F41C61
:100010000C94F41C0C94F41C0C94F41C0C94F41C20
:100020000C94F41C0C94F41C0C94F41C0C94F41C10
:100030000C94F41C0D94CB090C94F41C0C94F41C3B
:100040000C94F41C0C947B770C94F41C0C94F41C0E
:100050000C94F41C0C9406790C941E780D94B9033E
:100060000C94F41C0C945E790C9488790C94F41C18
:100070000C94F41C0C94F41C0C94F41C0C94F41CC0
:100080000C94F41C0C94F41C0C94F41C0C94F41CB0
:100090000C94F41C0C94F41C0C94F41C0D948B0222
:1000A0000C94F41C0C94F41C0C94F41C0C94F41C90
:1000B0000C94F41C0C94F41C0C94F41C0C94F41C80
:1000C0000C94F41C0C94F41C0C94F41C0C94F41C70
:1000D0000C94F41C0C94F41C0C94F41C0C94F41C60
:1000E0000C94F41CB270CA70CA70CA70CA70CA701C
:1000F000CA70CA70CA70CA70CA70CA70CA70CA7030
:10010000CA70CA70CA70CA70CA70CA70CA70CA701F
:10011000CA70CA70CA70CA70A17053705D70D76F10
:10012000CA7083708D70CA70CA70E86FC56FCA706C
:100130007970CA7097706F706770CA70CA70CA7031
:1001400035703F704970CA70CA70CA70CA70CA7080
:10015000CA70CA70CA70CA70A17053705D70D76FD0
:10016000CA7083708D70CA70CA70E86FC56FCA702C
:100170007970CA7097706F706770CA70CA70CA70F1
:1001800035703F704970B5E746E8D9E82AEAC4F807
:10019000C4F8C4F8C4F8C4F8C4F8C4F8C4F8C4F87F
:1001A00072E9AEE9ECE9C4F8C4F8C4F8C4F8C4F8DC
:1001B000C4F8C4F8C4F8C4F8C4F8C4F850EDB2EDFB
:1001C00012EE72EED2EE32EF92EFC4F80EF416F0A9
:1001D0008CF0FFF071F1E3F155F2C7F234F3A1F3C3
:1001E000C4F8C4F8C4F8C4F8C4F8D3EBA0ECF6EB38
:1001F00056F4C3F42FF59CF5BDF5FFF531F663F623
:10020000BCF617F770F7C9F7EAF7DEF5C4F8C4F8DB
:10021000C4F8C4F8C4F8C4F8C4F8C4F8C4F8C4F8FE
:10022000C4F8C4F874EBA3EBC4F8C4F8C4F8C4F879
:10023000C4F8C4F8C4F8C4F86CF8C4F86FECC4F897
:10024000C4F8C4F814F842F8C4F8C4F8C4F8C4F800
:10025000A8E7C4F8C4F86DEA10EB54EBF8ECBA0167
:100260008E018C01C00194019C01C401AA01960178
:1002700098019A01880178018A019C018201B201EA
:10028000B801AE01BE01B40184017E01A601900156
:10029000A801A001A201C6017A018001C801A6013E
:1002A0009201B0017C0107634236B79BD8A71A3987
:1002B000685618AEBAAB558C1D3CB7CC5763BD6DB4
:1002C000EDFD753EF6177231BF000000803F05A8B6
:1002D0004CCDB2D44EB93836A9020C50B9918688AB
:1002E000083CA6AAAA2ABE000000803F0D9438014F
:1002F0000D944C050D94BF050D94D5050D949C05EA
:100300000D94C3050D9460050D9496050D94AC01F4
:100310000D943D050D9456050D94F1040D94EC04D7
:100320000D94A7050D94CD050D9405050D941F059D
:100330000D9429050D9433050D947E050D94E90067
:100340000D94B1050D94B5050D947F060D94DA0555
:100350000D94AB050D9417050D940C010D94A0059B
:100360000D94D1050D946A050D9492050D94E1004C
:100370000D9474050D94E7040D940B010D94A305E1
:100380000D94FB040D94FC000D940F050D94B9051C
:100390000D94C705436F6C6420657874727573693A
:1003A0006F6E20646973616C6C6F77656400436F76
:1003B0006C6420657874727573696F6E20616C6C03
:1003C0006F776564004175746F72657472616374F0
:1003D0003A0053657474696E67206D6F746F722094
:1003E00063757272656E742E2E2E00536574204DE7
:1003F0006963726F7374657070696E6700547269B7
:1004000067676572696E67207761746368646F6798
:100410002E204966206163746976617465642C20BE
:10042000746865207072696E7465722077696C6C8F
:100430002072657365742E0053657474696E67204D
:100440005468726573686F6C6420546F3A00494E4B
:10045000542050494E3A20004D323531200020744E
:100460006F200053657420766F6C756D65747269CA
:100470006320657874727573696F6E20666F722081
:100480006578747275646572200044697361626C8A
:10049000656420766F6C756D65747269632065782C
:1004A00074727573696F6E20666F722065787472EE
:1004B0007564657220004D313134200048656174E7
:1004C000696E67204265640048656174696E6720E3
:1004D00045787472756465720050696E2063616E50
:1004E000206E6F7420626520736574206279204DE0
:1004F00034322C206D617920696E20696E76616CD2
:100500006964206F7220696E207573652E20004922
:100510006C6C6567616C20532076616C7565206634
:100520006F72204D3432005A2028432920746F778F
:10053000657220666C6F6F722073657420746F3AF9
:100540002000592028422920746F77657220666C3C
:100550006F6F722073657420746F3A2000582028E2
:10056000412920746F77657220666C6F6F722073FB
:10057000657420746F3A2000526F64205261646980
:1005800075732073657420746F3A200047313334DB
:100590002000506F7346726F6D53746570733A002C
:1005A000436F6D7044656C74613A0043616C6962BD
:1005B000726174696F6E206D6F76656D656E742003
:1005C0006973206C696D6974656420746F203130C3
:1005D0006D6D2E004669727374206D6F76652074A0
:1005E0006F20746F75636820617420782C793D30BA
:1005F0002C3020746F206175746F2D7365742072B8
:1006000061646975732E0043616C6962726174691B
:100610006F6E206D6F76656D656E74206973206CEA
:10062000696D6974656420746F2031306D6D2E00C2
:1006300043616E6E6F7420736574207261646975B6
:100640007320616E6420666C6F6F7220617420731A
:10065000616D652074696D652E0043616C6962721D
:100660006174696F6E20636F6465206973206C69C3
:100670006D6974656420746F20626F74746F6D208F
:10068000313025206F66205A2068656967687400DC
:1006900052656C617469766520706F736974696FF7
:1006A0006E696E67004162736F6C75746520706F60
:1006B000736974696F6E696E670047363920005A36
:1006C0003A2000593A2000583A20004F46465345F8
:1006D0005453204F464620425920544F4F204D55E9
:1006E0004348205F20545259494E472041474149D1
:1006F0004E3A200053657474696E672050726F62C1
:10070000652053656E736974697669747920546FD6
:100710003A005A2070726F6265206661696C656488
:10072000206F6E2073656E73697469766974793AA7
:10073000200053657474696E672050726F62652083
:1007400053656E736974697669747920546F3A00E1
:100750005A2070726F6265206661696C6564206FF3
:100760006E2073656E73697469766974793A2000D6
:1007700053657474696E672050726F6265205365AB
:100780006E736974697669747920546F3A005A20DF
:1007900070726F6265206661696C6564206F6E209F
:1007A00073656E73697469766974793A2000686557
:1007B0006865004E6577205261646975733A200060
:1007C0004F6C64205261646975733A200043616C18
:1007D00063756C6174656420526164697573206926
:1007E0007320626164203A0053657474696E6720F7
:1007F00050726F62652053656E73697469766974AF
:100800007920546F3A005A2070726F6265206661D9
:10081000696C6564206F6E2073656E7369746976A8
:100820006974793A200053657474696E6720507258
:100830006F62652053656E73697469766974792097
:10084000546F3A005A2070726F6265206661696C5D
:100850006564206F6E2073656E7369746976697460
:10086000793A2000473332200050524F42452D5AEA
:100870004F46465345543A0047333000536574742D
:10088000696E672050726F62652053656E7369747C
:10089000697669747920546F3A0050726F6265739B
:1008A00020646F206E6F74206D617463682E204F1A
:1008B00066662062792000202D2050524F4245204C
:1008C0004F46465345543A00506F696E74200047B6
:1008D000333020004D3131372043414C49425241A1
:1008E00054494F4E20434F4D504C45544500686588
:1008F0006865004E657720486F72697A6F6E746123
:100900006C205261646975733A20004F6C64204812
:100910006F72697A6F6E74616C205261646975736D
:100920003A200043616C63756C61746564205261A8
:1009300064697573206973206261643A20004D31E7
:1009400031372043414C4942524154494F4E204691
:1009500041494C45440043616C6962726174696F3E
:100960006E204661696C65640053657474696E67D6
:100970002050726F62652053656E73697469766981
:10098000747920546F3A005A2070726F6265202883
:1009900043656E74657220506F696E7429206661BC
:1009A000696C6564206F6E2073656E736974697617
:1009B0006974793A20004E6577205A204865696746
:1009C00068743A004F6C64205A20486569676874FF
:1009D0003A004D3131372043414C4942524154494C
:1009E0004F4E204641494C45440043616C69627258
:1009F0006174696F6E204661696C6564005365744B
:100A000074696E672050726F62652053656E7369FA
:100A100074697669747920546F3A005A2070726F45
:100A20006265202843656E74657220506F696E742C
:100A300029206661696C6564206F6E2073656E7332
:100A4000697469766974793A200047363920005A0A
:100A50003A2000593A2000583A20004F4646534564
:100A60005453204F464620425920544F4F204D5555
:100A700043482E2041626F7274696E67004D3131B8
:100A8000372043414C4942524154494F4E20464140
:100A9000494C45440043616C6962726174696F6ED0
:100AA000204661696C65640053657474696E6720E3
:100AB00050726F62652053656E73697469766974EC
:100AC0007920546F3A005A2070726F626520285A5C
:100AD00020546F77657229206661696C6564206FA8
:100AE0006E2073656E73697469766974793A200053
:100AF0004D3131372043414C4942524154494F4EC8
:100B0000204641494C45440043616C6962726174FE
:100B1000696F6E204661696C656400536574746921
:100B20006E672050726F62652053656E73697469D9
:100B30007669747920546F3A005A2070726F62653A
:100B400020285920546F77657229206661696C6589
:100B500064206F6E2073656E736974697669747949
:100B60003A20004D3131372043414C4942524154E3
:100B7000494F4E204641494C45440043616C6962EF
:100B8000726174696F6E204661696C6564005365BB
:100B90007474696E672050726F62652053656E735E
:100BA0006974697669747920546F3A005A207072BA
:100BB0006F626520285820546F776572292066611E
:100BC000696C6564206F6E2073656E7369746976F5
:100BD0006974793A2000473420533130004D313068
:100BE000342053300A4D3134302053300A4D3130E7
:100BF00037006578656375746547436F6465202FBA
:100C000020717565756544656C74614D6F766520FE
:100C100072657475726E73206572726F72006969A5
:100C20007332646820616363656C65726F6D6574AF
:100C3000657220696E697469616C697A696E672E84
:100C40002E2E00616363656C65726F6D65746572ED
:100C5000206932632072656376206572726F722E2E
:100C6000002076616C75653A2000726561642072BF
:100C700065672000616363656C65726F6D6574659F
:100C80007220777269746520693263206572726FB1
:100C9000722E00616363656C65726F6D6574657259
:100CA0002073656E6420693263206572726F722EE4
:100CB0000000000100250030001D000C001E002473
:100CC0000031001C000B00180023002F001B000A3D
:100CD0000017000D0047000300040022002B001A3B
:100CE0000041004200000002003500457874722E79
:100CF00000436F6E6669673A004F6E6520686561F4
:100D0000746572207365656D73206465636F7570BB
:100D10006C65642066726F6D20746865726D6973AE
:100D2000746F72202D2064697361626C696E672034
:100D3000616C6C20666F7220736166657479210046
:100D4000486561746572206465636F75706C656475
:100D5000004372656174696F6E206661696C6564D9
:100D6000004469726563746F72792063726561749F
:100D700065640044656C6574696F6E206661696CBA
:100D800065640046696C652064656C657465640023
:100D9000446F6E6520736176696E672066696C6565
:100DA0002E0057726974696E6720746F2066696CD3
:100DB000653A20006F70656E206661696C65642C11
:100DC0002046696C653A20004E6F742053442070B1
:100DD00072696E74696E67005344207072696E7434
:100DE000696E672062797465200066696C652E6F94
:100DF00070656E206661696C65640046696C65208B
:100E000073656C6563746564002053697A653A00A4
:100E100046696C65206F70656E65643A00456E6466
:100E20002066696C65206C69737400426567696E41
:100E30002066696C65206C697374006572726F72EC
:100E40002077726974696E6720746F2066696C65BB
:100E500000534420696E6974206661696C006164A6
:100E600076616E6365204C205B303D6F66665D0089
:100E7000657874727564657220636F6F6C6572203B
:100E80007370656564205B302D3235355D006469B3
:100E90007374616E636520746F2072657472616330
:100EA00074207768656E2068656174696E67205B81
:100EB0006D6D5D0074656D702E20666F72207265B9
:100EC0007472616374696F6E207768656E206865FF
:100ED0006174696E67205B435D0074656D702E20E0
:100EE00073746162696C697A652074696D65205BF1
:100EF000735D00592D6F6666736574205B7374654E
:100F000070735D00582D6F6666736574205B737433
:100F10006570735D00504944206D61782076616C86
:100F20007565205B302D3235355D005049442044D5
:100F30002D6761696E0050494420492D6761696ED3
:100F40000050494420502D6761696E2F64656164CB
:100F50002D74696D6500504944206472697665207E
:100F60006D696E00504944206472697665206D6138
:100F7000780068656174206D616E61676572205BE1
:100F8000302D335D00616363656C65726174696FF8
:100F90006E205B6D6D2F735E325D007374617274D1
:100FA000206665656472617465205B6D6D2F735D8D
:100FB000006D61782E206665656472617465205BE2
:100FC0006D6D2F735D007374657073207065722092
:100FD0006D6D0042656420504944206D6178207633
:100FE000616C7565205B302D3235355D004265647E
:100FF0002050494420442D6761696E004265642099
:1010000050494420492D6761696E00426564205053
:10101000494420502D6761696E0042656420504943
:1010200044206472697665206D696E0042656420B3
:10103000504944206472697665206D61780042658C
:10104000642048656174204D616E61676572205B44
:10105000302D335D00436F72722E20646961676FBB
:101060006E616C2043205B6D6D5D00436F72722E6C
:1010700020646961676F6E616C2042205B6D6D5DFD
:1010800000436F72722E20646961676F6E616C201D
:1010900041205B6D6D5D004D6178207072696E74EA
:1010A00061626C6520726164697573205B6D6D5D52
:1010B00000546F776572205A20656E6473746F7088
:1010C000206F6666736574205B73746570735D0072
:1010D000546F776572205920656E6473746F702049
:1010E0006F6666736574205B73746570735D00541E
:1010F0006F776572205820656E6473746F70206F0F
:101100006666736574205B73746570735D00536508
:10111000676D656E74732F7320666F7220747261D1
:1011200076656C005365676D656E74732F7320660A
:101130006F72207072696E74696E6700486F7269B1
:101140007A6F6E74616C20726F642072616469756D
:101150007320617420302C30205B6D6D5D0044691C
:1011600061676F6E616C20726F64206C656E67746E
:1011700068205B6D6D5D00486F6D696E6720666508
:10118000656472617465205B6D6D2F735D004D61E8
:10119000782E206665656472617465205B6D6D2FC5
:1011A000735D00537465707320706572206D6D00FF
:1011B00054726176656C20616363656C65726174FD
:1011C000696F6E205B6D6D2F735E325D00416363EE
:1011D000656C65726174696F6E205B6D6D2F735EF7
:1011E000325D004D61782E206A65726B205B6D6DFB
:1011F0002F735D005A206D6178206C656E6774688E
:10120000205B6D6D5D0059206D6178206C656E67A7
:101210007468205B6D6D5D0058206D6178206C6591
:101220006E677468205B6D6D5D005A20686F6D6538
:1012300020706F73205B6D6D5D005920686F6D6568
:1012400020706F73205B6D6D5D005820686F6D6559
:1012500020706F73205B6D6D5D0053746F70207331
:1012600074657070657220616674657220696E6164
:1012700063746976697479205B6D732C303D6F6699
:10128000665D004D61782E20696E616374697665D4
:101290002074696D65205B6D732C303D6F66665DF3
:1012A000005072696E74657220616374697665209E
:1012B0005B735D0046696C616D656E742070726968
:1012C0006E746564205B6D5D00416476616E63657C
:1012D00064205573657200426175647261746500C3
:1012E0004550523A3320004550523A322000455082
:1012F000523A3120004550523A30200050726F74FB
:101300006F636F6C2076657273696F6E20636861BE
:101310006E6765642C20757067726164696E670022
:10132000436F6E66696775726174696F6E2072656E
:1013300073657420746F2064656661756C74732EB8
:1013400000436F6E66696775726174696F6E206CB9
:101350006F616465642066726F6D20454550524F21
:101360004D2E00436F6E66696775726174696F6EAA
:101370002073746F72656420746F20454550524F1E
:101380004D2E004175746F6C6576656C20616374D9
:101390006976652028312F3029005A2D70726F62CE
:1013A00065205933005A2D70726F626520583300E2
:1013B0005A2D70726F6265205932005A2D70726F0B
:1013C0006265205832005A2D70726F626520593163
:1013D000005A2D70726F6265205831005A2D70725C
:1013E0006F626520782D792D7370656564205B6D63
:1013F0006D2F735D005A2D70726F6265207370657A
:101400006564205B6D6D2F735D005A2D70726F6285
:1014100065206F66667365742079205B6D6D5D0075
:101420005A2D70726F6265206F66667365742078DE
:10143000205B6D6D5D004D61782E207A2D70726F8E
:101440006265202D2062656420646973742E205BC0
:101450006D6D5D005A2D70726F62652068656967F9
:101460006874205B6D6D5D0077616974005072690E
:101470006E746572206865696768743A005A2D70E9
:10148000726F6265206661696C6564005472616E9A
:1014900073666F726D6174696F6E206D61747269CD
:1014A000783A004175746F6C6576656C696E67207B
:1014B00064697361626C6564004175746F6C657614
:1014C000656C696E6720656E61626C65640041756C
:1014D000746F6C6576656C206D61747269782072CA
:1014E0006573657400004732382F6E47315A3235C4
:1014F0002F6E005A2D70726F62652073746174656F
:101500003A005265736574205A206865696768748B
:10151000005A2D70726F6265206176657261676531
:10152000206865696768743A0020537465702056B6
:101530006172696174696F6E2066726F6D2050729E
:101540006F626520746F2062656420446973746102
:101550006E63653A005A2D70726F62653A00507280
:10156000696E7465722073657420696E746F20648F
:1015700072792072756E206D6F646520756E746966
:101580006C207265737461727421003A20776F72F7
:101590006B696E67003A2074656D702073656E73B9
:1015A0006F72206465666563740065787472756433
:1015B0006572200068656174656420626564004D31
:1015C00054454D503A00504944204175746F74752C
:1015D0006E652066696E6973686564202120506CB1
:1015E00061636520746865204B702C204B69206115
:1015F0006E64204B6420636F6E7374616E7473202D
:10160000696E2074686520436F6E666967757261E4
:1016100074696F6E2E68206F7220454550524F4D91
:1016200000504944204175746F74756E6520666181
:10163000696C6564212074696D656F75740050492B
:1016400044204175746F74756E65206661696C65C0
:1016500064212054656D70657261747572652074C3
:101660006F206869676800204B643A2000204B694E
:101670003A2000204B703A200020436C617373695C
:101680006320504944002054753A2000204B753A9D
:101690002000206D61783A2000206D696E3A2000AC
:1016A00020643A200020626961733A200050494466
:1016B000204175746F74756E652073746172740067
:1016C0005461726765744265643A0054617267657B
:1016D0007445787472004E6F206D6F766520696E68
:1016E0002064656C7461207365676D656E74207726
:1016F000697468203E2031207365676D656E742EB5
:1017000020546869732073686F756C64206E657609
:1017100065722068617070656E20616E64206D6115
:101720007920636175736520612070726F626C65EA
:101730006D210044656C7461205261646975732089
:10174000432830293A0044656C7461205261646911
:10175000757320422830293A0044656C7461205228
:10176000616469757320412830293A00416C7068C2
:10177000612043283930293A00416C706861204269
:1017800028333330293A00416C7068612041283297
:101790003130293A00546F77657220333A00546F24
:1017A00077657220323A00546F77657220313A00C3
:1017B000496E76616C69642064656C746120636F46
:1017C0006F7264696E617465202D206D6F7665207F
:1017D00069676E6F726564006C696E656172204C3A
:1017E0003A00454550524F4D2075706461746564F0
:1017F000002C2073706565643D00206C696E656126
:10180000722073746570733A004A65726B3A007A9D
:101810005F6D61783A00795F6D61783A00785F6D4D
:1018200061783A004C200048200020697320002095
:10183000746F2000536574206F75747075743A204E
:10184000004D53312C4D53322050696E7300453199
:101850003A0045303A005A3A00593A0020002C002C
:10186000206D696E0020686F7572732000206461BE
:10187000797320006D20005072696E74696E672064
:1018800074696D653A005072696E746564206669AA
:101890006C616D656E743A0046616E737065656467
:1018A0003A00482E205261646975733A00466C6FA5
:1018B000774D756C7469706C793A00537065656426
:1018C0004D756C7469706C793A00202F002F003AC6
:1018D0000020524157002042403A0020403A002068
:1018E000423A00543A0020453A00205A3A00205922
:1018F0003A0020583A00583A004672656520524135
:101900004D3A00556E6B6E6F776E20636F6D6D6133
:101910006E643A00536F6674776172652052657326
:101920006574005761746368646F672052657365FE
:10193000740042726F776E206F7574205265736504
:10194000740045787465726E616C205265736574BD
:1019500000506F7765725570007374617274004245
:101960004C4B2000736B6970200020676F7420005F
:101970004572726F723A6578706563746564206C45
:10198000696E65200053442072656164206572723F
:101990006F7200205200204A002049002050002091
:1019A0005300204600204500205A002059002058AE
:1019B00000446F6E65207072696E74696E67206690
:1019C000696C6500466F726D6174206572726F722A
:1019D0000057726F6E6720636865636B73756D0087
:1019E0004563686F3A00526573656E643A005761EB
:1019F000726E696E673A00496E666F3A00457272A0
:101A00006F723A00494E46004E414E006F6B0046E1
:101A100049524D574152455F4E414D453A526570CE
:101A200065746965725F302E39322E322046495214
:101A30004D574152455F444154453A323031373079
:101A4000313330204D414348494E455F545950454C
:101A50003A4F52494F4E2044656C74612000206417
:101A600065672E204300206D656173757265642083
:101A7000004572726F723A436F756C64206E6F74BA
:101A800020686F6C642074656D7065726174757226
:101A9000652000206D73002061667465722000452A
:101AA00072726F723A54656D702E2072616973653F
:101AB0006420746F20736C6F772E205269736520D9
:101AC0003D20004739310A4731452D3138304636FF
:101AD0003030300A473930004D3131372045787485
:101AE000727564657220300A54300A4D38342050C3
:101AF000340A4739310A47314531373346363030B9
:101B0000300A47314535463530300A473930001CF8
:101B1000151C140000002243141F1F231FCF1E5F3B
:101B20001E0F1E000000000000871D7B1C2B1CAF39
:101B30001B331B0400081D900058091C01B007A8A6
:101B400001C80634023006C002C0054C036805D83F
:101B50000318056404D004F00498047C05600408AC
:101B6000063004940600042007D003AC07A803380D
:101B7000088003C408580350093003DC09080368CF
:101B80000AD802F40AB002800B88020C0C6002989A
:101B90000C3002240DF801B00DC0013C0E8001C8CC
:101BA0000E3001540FB800B40F2800E00F000004FD
:101BB00000401D900060091C01B007A801D0063448
:101BC000023806C002C8054C036805D8031805642E
:101BD00004D804F00498047C0560040806300494DA
:101BE0000600042007D003AC07A80338088003C40C
:101BF00008580350093003DC090803680AE002F4BE
:101C00000AB802800B88020C0C6002980C30022487
:101C10000DF801B00DC0013C0E8001C80E3001541A
:101C20000FB800B40F2800E00F000004000016D821
:101C300000C006AC0178058002C0045403480428A3
:101C400004E803FC049803D0055003A406180378A5
:101C500007D8024C08A80220097002F4093802C80B
:101C60000A08029C0BD001700C9001440D50011821
:101C70000EF800EC0E8800C00F00000400681D4C38
:101C800000500B94005809DC0050082401A8076C90
:101C9000012807B401C006FC017006440228068C26
:101CA00002F005D402B8051C03880564035805AC8E
:101CB000033005F40310053C04E8048404C804CC94
:101CC00004A804140590045C057004A4055804ECF1
:101CD000053804340620047C060804C406F0030C0E
:101CE00007D8035407C8039C07B003E40798032CE4
:101CF00008800374087003BC085803040948034CA7
:101D000009300394091803DC090803240AF0026C63
:101D10000AE002B40AC802FC0AB002440BA0028C1A
:101D20000B8802D40B70021C0C5802640C4002ACED
:101D30000C2802F40C10023C0DF001840DD801CCEB
:101D40000DB801140E98015C0E7001A40E4801EC50
:101D50000E1801340FD8007C0F8800C40F0800FC57
:101D60000F00000000000000000000000000000064
:101D70000000000000000000000000000000000063
:101D8000000000000000000000401F450060094FF7
:101D90000010095C00C0086B0070087D00200892EC
:101DA00000D007AC008007CC003007DE00E006233F
:101DB0000190065E014006A601F005FF01A0056D39
:101DC000025005F30200059603B0045A0460044073
:101DD0000510044806C0036E077003A8082003EB33
:101DE00009D002230B8002410C3002390DE00104BE
:101DF0000E9001A20E4001170FF000690FA000A283
:101E00000F5000C60F0000DD0FB0FFEB0F60FF04A6
:101E100000700DD8004804AC0158038002D8025469
:101E200003800228043802FC040002D005C801A483
:101E3000069801780770014C08480120091801F440
:101E400009F000C80AC8009C0BA000700C70004488
:101E50000D3800180E0000EC0EA8FFC00FE8FE04BD
:101E600000001B54006009640010097400C008845D
:101E70000070089C002008B800D007D80080070038
:101E80000130072C01E00668019006AC0140060015
:101E900002F0056802A005E0025005740300052465
:101EA00004B004F0046004DC051004E406C003047C
:101EB00008700330092003780B8002600DE001A850
:101EC0000E4001680FA000C00F0000E80F60FF0483
:101ED00000801AD8009808AC0120078002500654F0
:101EE00003C80528045805FC040005D005B004A467
:101EF000066804780728044C08E8032009B003F4B6
:101F0000097003C80A38039C0BF802700CB0024435
:101F10000D6802180E0802EC0E8801C00F8800F050
:101F20000F00000000A00F5C006009690010097933
:101F300000C0088C007008A2002008BD00D007DE99
:101F4000008007050130073401E0066D019006B2FC
:101F50000140060702F0056D02A005E80250057B6E
:101F60000300052B04B004F8046004EB06C003353D
:101F70000920037F0B8002650DE001B00E40011DBA
:101F80000FF000480FC8006C0FA000ED0F60FFFEBF
:101F90000F48FE00025344206572726F722066691A
:101FA000786564005344206572726F7220646964BE
:101FB000206E6F74207265636F76657221005344E2
:101FC0002052656164204572726F7200000000004B
:101FD00000000000000000000000000024F403D90D
:101FE00050C38EB1C2A23D96828B3582127AE372C3
:101FF000816CCB66A861015DC758EB546151204EDE
:102000001E4B5648C14559431A41013F093D2F3BDC
:102010007139CD374036C93465331432D430A32FEB
:10202000802E6B2D632C672B752A8E29B028DC2718
:1020300010274B268F25D9242B248223E0224322EC
:10204000AC211A218D200420801F001F841E0C1E2D
:10205000971D261DB81C4E1CE61B821B201BC11A97
:10206000641A0A1AB2195D190A19B9186A181C18E3
:10207000D11788174017FA16B51673163116F115D1
:10208000B31576153A150015C7148F145814221479
:10209000EE13BA13881356132513F612C7129912AA
:1020A0006C1240121512EB11C111981170114811E8
:1020B0002111FB10D610B1108D106910461024109C
:1020C0000210E10FC00FA00F800F610F420F230F0E
:1020D000060FE80ECB0EAF0E930E770E5C0E410E80
:1020E000270E0D0EF30DDA0DC10DA80D900D780D14
:1020F000600D490D320D1B0D050DEF0CD90CC30CF5
:10210000AE0C990C850C700C5C0C480C350C210C39
:102110000E0CFB0BE80BD60BC40BB20BA00B8E0BFB
:102120007D0B6B0B5A0B4A0B390B290B180B080B49
:10213000F80AE90AD90ACA0ABB0AAC0A9D0A8E0A39
:10214000800A710A630A550A470A390A2C0A1E0ACC
:10215000110A040AF709EA09DD09D009C409B70917
:10216000AB099F09920987097B096F09630958091F
:102170004C09410936092B09200915090A090009EA
:10218000F508EB08E008D608CC08C208B808AE0885
:10219000A4089A08900887087D0874086B086108ED
:1021A00058084F0846083D0834082C0823081A0828
:1021B000120809080108F807F007E807E007D80740
:1021C000D007C807C007B807B007A807A1070000D5
:1021D000420FA1071605D0030D038B022E02E80162
:1021E000B2018601630145012C0117010401F400CD
:1021F0004F52494F4E205265616479004F52494F0A
:102200004E205265616479004F52494F4E2052650D
:1022100061647900207A3A0020793A0020783A0007
:10222000696E20717565756544656C74614D6F7676
:102230006520746F2063616C63756C6174654465BF
:102240006C74615375625365676D656E747320724B
:10225000657475726E73206572726F722E00432002
:1022600068697420666C6F6F720043706F732078BA
:1022700020737175617265200043706F7320782040
:102280007374657073200043706F732079207371CD
:1022900075617265200043706F73207920737465D7
:1022A00070732000422068697420666C6F6F720042
:1022B00042706F73207820737175617265200042DF
:1022C000706F732078207374657073200042706F94
:1022D00073207920737175617265200042706F738D
:1022E0002079207374657073200041206869742020
:1022F000666C6F6F720041706F7320782073717518
:10230000617265200041706F73207820737465706E
:1023100073200041706F732079207371756172654D
:10232000200041706F7320792073746570732000F2
:102330006D6F766552656C61746976654469737416
:10234000616E6365496E5374657073202F207175DB
:1023500065756544656C74614D6F76652072657452
:1023600075726E73206572726F72004D617854657C
:102370006D703A004469616D657465723A0041633D
:1023800063656C65726174696F6E3A004D61785374
:10239000706565643A004A65726B3A004D61784237
:1023A000656454656D703A005072696E746572545C
:1023B0007970653A44656C7461005A54726176654F
:1023C0006C416363656C3A005954726176656C4187
:1023D0006363656C3A005854726176656C4163635F
:1023E000656C3A005A5072696E74416363656C3A69
:1023F00000595072696E74416363656C3A005850BD
:1024000072696E74416363656C3A005A53697A6508
:102410003A005953697A653A005853697A653A0027
:102420005A4D61783A00594D61783A00584D6178BB
:102430003A005A4D696E3A00594D696E3A00584D4E
:10244000696E3A004A65726B58593A005072696E6B
:10245000746C696E6543616368653A004545505226
:102460004F4D3A004175746F6C6576656C3A005A51
:1024700050726F62653A00436173654C69676874B6
:10248000733A00537570706F72744C6F63616C4671
:10249000696C616D656E746368616E67653A00535F
:1024A0007570706F72744731304731313A005A4855
:1024B0006F6D654469723A0059486F6D6544697281
:1024C0003A0058486F6D654469723A00536F6674FC
:1024D00077617265506F7765725377697463683A94
:1024E000004C43443A0046616E3A005344436172E3
:1024F000643A004865617465644265643A004D69F8
:1025000078696E6745787472756465723A004E75C5
:102510006D45787472756465723A00496E707574B1
:102520004275666665723A004261756472617465EF
:102530003A004E6F2063617365206C69676874733D
:10254000004D31313420007A70726F62696E672EEF
:102550002E2E0064656C6179203130306D732E0051
:10256000686F6D65417869732000686F6D654178AB
:102570006973202F20717565756544656C74614DB4
:102580006F76652072657475726E73206572726FF6
:102590007200486F6D652044656C7461005072690B
:1025A0006E7465723A3A736574757020006D6F765B
:1025B00065546F5265616C202F2071756575654497
:1025C000656C74614D6F76652072657475726E739B
:1025D000206572726F72006D6F7665546F202F20C8
:1025E000717565756544656C74614D6F76652072B3
:1025F000657475726E73206572726F7200537465C4
:10260000707065722044697361626C6564004B6927
:102610006C6C6564006973506F736974696F6E41A7
:102620006C6C6F776564200055706C6F6164696EC7
:10263000672E2E2E00005344207072696E74207332
:10264000746F7070656420627920757365722E00F6
:102650004739312F6E4731205A2D31302E302045E9
:10266000352E312046313530302F6E4739302F6EC0
:10267000004739312F6E4731205A31302E302045F6
:102680002D352E302046313530302F6E4739302FE2
:102690006E005344206361726420696E73657274C6
:1026A0006564005344204361726420696E736572EF
:1026B00074656400534420436172642072656D6FD9
:1026C00076656400534420636172642072656D6FA7
:1026D0007665640000002110422063308440A550DC
:1026E000C660E770088129914AA16BB18CC1ADD158
:1026F000CEE1EFF13112100273325222B552944200
:10270000F772D662399318837BB35AA3BDD39CC3A7
:10271000FFF3DEE36224433420040114E664C7744B
:10272000A44485546AA54BB528850995EEE5CFF5F7
:10273000ACC58DD55336722611163006D776F6669F
:102740009556B4465BB77AA719973887DFF7FEE747
:102750009DD7BCC7C448E5588668A778400861186B
:1027600002282338CCC9EDD98EE9AFF94889699997
:102770000AA92BB9F55AD44AB77A966A711A500A3F
:10278000333A122AFDDBDCCBBFFB9EEB799B588BE7
:102790003BBB1AABA66C877CE44CC55C222C033C8B
:1027A000600C411CAEED8FFDECCDCDDD2AAD0BBD37
:1027B000688D499D977EB66ED55EF44E133E322EDF
:1027C000511E700E9FFFBEEFDDDFFCCF1BBF3AAF87
:1027D000599F788F8891A981CAB1EBA10CD12DC1E5
:1027E0004EF16FE18010A100C230E320045025407B
:1027F00046706760B9839893FBA3DAB33DC31CD3DB
:102800007FE35EF3B1029012F322D23235421452CA
:1028100077625672EAB5CBA5A89589856EF54FE526
:102820002CD50DC5E234C324A0148104667447641A
:1028300024540544DBA7FAB79987B8975FE77EF77A
:102840001DC73CD7D326F2369106B016576676766A
:10285000154634564CD96DC90EF92FE9C899E98946
:102860008AB9ABA94458654806782768C018E108BA
:102870008238A3287DCB5CDB3FEB1EFBF98BD89B1A
:10288000BBAB9ABB754A545A376A167AF10AD01A0A
:10289000B32A923A2EFD0FED6CDD4DCDAABD8BAD66
:1028A000E89DC98D267C076C645C454CA23C832C5A
:1028B000E01CC10C1FEF3EFF5DCF7CDF9BAFBABFBA
:1028C000D98FF89F176E367E554E745E932EB23EAA
:1028D000D10EF01E7C3C3E5E2B3D3F2F5B5D3B2CC2
:1028E0002A225C0052657175657374506175736559
:1028F0003A004D31313720494E534552542053440C
:102900002043415244004D3131372053442043414C
:102910005244204552524F520055495F4143544959
:102920004F4E5F5345545F4D454153555245445FAB
:102930004F524947494E20004E6F20534420436177
:1029400072640053687574204F666620414C4C20B9
:102950004865617473005072656865617420414216
:1029600053005072656865617420504C41005549B0
:102970005F414354494F4E5F484F4D455F5A2000D9
:1029800055495F414354494F4E5F484F4D455F594C
:10299000200055495F414354494F4E5F484F4D45D4
:1029A0005F58200055495F414354494F4E5F484F9F
:1029B0004D45414C4C200055495F414354494F4ED1
:1029C0005F5A504F534954494F4E5F464153545FED
:1029D0004E4F54455354200055495F414354494F8D
:1029E0004E5F5A504F534954494F4E5F4E4F5445D6
:1029F0005354200055495F414354494F4E5F455061
:102A00004F534954494F4E200055495F4143544963
:102A10004F4E5F5A504F534954494F4E5F464153B2
:102A200054200055495F414354494F4E5F59504F20
:102A3000534954494F4E5F46415354200055495F16
:102A4000414354494F4E5F58504F534954494F4E9C
:102A50005F46415354200055495F414354494F4E0E
:102A60005F5A504F534954494F4E200055495F41DA
:102A70004354494F4E5F59504F534954494F4E208C
:102A80000055495F414354494F4E5F58504F534999
:102A900054494F4E200042616E6742616E67005399
:102AA0006C6F7742616E6700446561642054696DA4
:102AB000650050494400003A0020646179732000A9
:102AC00050657263656E74205072696E7465643A05
:102AD00000206465662000465720446174652032FA
:102AE00030313730313330004F52494F4E2044653A
:102AF0006C7461005365654D65434E43004F524908
:102B00004F4E2044656C746100A3375937EF3692FD
:102B100036416374696F6E3A256C610004000300EE
:102B20004E6F00596573004E2F41004F6666004F8F
:102B30006E000000003FCDCC4C3D0AD7A33B6F1286
:102B4000033A5265706574696572207620302E39BB
:102B5000322E32000040145480250000403800001E
:102B6000004B00008070000000960000C0DA0000FA
:102B700000E10000002C010008B2010000C20100C9
:102B800000F401000084030090D0030000E803007B
:102B90000008070020A1070000100E0040420F00AF
:102BA00060E3160000000000110A0411040A11116C
:102BB000001C1F11111F0000040A0A0A0E1F1F0E1D
:102BC000001F1111111F0000001F1F1F1F1F0000F9
:102BD000040A040000000000040E15041C0000009C
:102BE0000200000600E72B19344D2CCE30202C219A
:102BF000318F2C0200000700FA2B1934082CCE303C
:102C0000202C21315930342C0F2C02CF31000050B0
:102C100072696E7465722053657474696E677300AF
:102C2000272C02BD32000041646A7573742054651C
:102C30006D7073003B2C02652C0000416476616E60
:102C40006365642053657474696E677300542C0265
:102C5000E83100005072696E7465722053657474B7
:102C6000696E67730002000009006C2C19347A2D1C
:102C7000662D562D462D7E2C2F2D172D8F2C852C15
:102C800002FC2F0000446562756767696E670096F5
:102C90002C02FA32000043616C6962726174696FE0
:102CA0006E204D656E75000310270200AE2CB92C06
:102CB000B22CC02C0000000000D12C00000000004D
:102CC0006C6F6164656420662E20454550524F4DFF
:102CD00000436F6E66696775726174696F6E000399
:102CE00010270200E62CF12CEA2CF82C0000000042
:102CF00000092D000000000073746F726564206984
:102D00006E20454550524F4D00436F6E66696775A2
:102D1000726174696F6E001E2D03070400004C6F12
:102D200061642066726F6D20454550524F4D0036EC
:102D30002D030604000053746F726520746F2045E4
:102D40004550524F4D004D2D02892D00004578749D
:102D50007275646572005D2D02902F0000466565F6
:102D60006472617465006D2D02BC2F0000416363C5
:102D7000656C65726174696F6E00812D02DC2E00D6
:102D80000047656E6572616C000200001000902DB6
:102D90001934C82EB42EA22E912E7C2E4D2E652EC7
:102DA000362E232E0F2EFE2DED2DD82DC32DB02D1A
:102DB000B72D042F040000504944204D61783A2576
:102DC000584400CA2D042604000044726976652028
:102DD0004D61783A25584D00DF2D0425040000444C
:102DE00072697665204D696E3A25586D00F42D04A0
:102DF0002404000050494420443A25586400052E1C
:102E0000042304000050494420493A25586900161B
:102E10002E042204000044542F50494420503A25E7
:102E20005870002A2E042D040000436F6E74726FD8
:102E30006C3A255868003D2E044604000041647633
:102E4000616E6365206C696E3A25586C00542E04DF
:102E50004D0400005761697420556E6974733A25FA
:102E600058556D6D006C2E044C0400005761697458
:102E70002054656D702E255854024300832E042E75
:102E8000040000537461622E54696D653A255877C9
:102E900000982E042A040000416363656C3A2558AB
:102EA0004100A92E042B0400004D61782046523ABF
:102EB00025584600BB2E042C040000537461727424
:102EC0002046523A25586600CF2E042904000053AC
:102ED000746570732F4D4D3A255365000200000450
:102EE00000E32E1934182F002FEB2EF22E022C2F78
:102EF00000004D61782E20496E616374697665002B
:102F0000072F025E2F0000537465707065722049B0
:102F10006E616374697665001F2F0410040000421F
:102F2000617564726174653A256F63000358040229
:102F300000332F3E2F372F452F00000000004F2F6A
:102F400000000000005B735D20303D4F666600446A
:102F500069732E2041667465723A256970000320FA
:102F6000040200652F702F692F772F0000000000EA
:102F7000812F00000000005B735D20303D4F6666CE
:102F8000004469732E2041667465723A25697300A6
:102F90000200000300972F1934AD2F9D2FA42F049A
:102FA00013040000486F6D653A25665A00B42F047B
:102FB000160400004D61783A25667A00020000048C
:102FC00000C32F1934EB2FDB2FCB2FD22F040E048D
:102FD00000004A65726B3A25616A00E22F040D0415
:102FE00000004D6F76653A25615A00F22F040A04FD
:102FF00000005072696E743A25617A000200000583
:1030000000033019344630333020300D3014300393
:10301000350400004472792072756E3A25646400AC
:10302000273003340400004572726F7273203A2512
:103030006465003A300333040000496E666F202057
:10304000203A256469004D3003320400004563686E
:103050006F2020203A25646F006030026D30000040
:1030600053442043617264204D656E750002000078
:10307000060074301934CE30BB30A5309330803028
:10308000873003F403010244656C6574652066694A
:103090006C65009A3002ED30020053746F7020505E
:1030A00072696E7400AC3003F7030400436F6E74F2
:1030B000696E7565205072696E7400C23003F60344
:1030C00002045061757365205072696E7400D530CA
:1030D00003F503010253656C656374205344204675
:1030E000696C65000100000100EB3019340200003A
:1030F0000300F4300F310531FA300131035424025A
:1031000000596573000C3103E80300004E6F001690
:1031100031010000000053746F70205072696E74AA
:10312000002831023931000041646A757374204609
:10313000616E207370656564000200000700403115
:103140001934B731A3318E31793164314E31553173
:10315000031E0400005365742046616E2031303038
:10316000252525006B31031D04000053657420469E
:10317000616E203735252525008031031C040000B1
:103180005365742046616E20353025252500953124
:10319000031B0400005365742046616E2032352500
:1031A000252500AA31031A0408005475726E2046C2
:1031B000616E204F666600BE310452040000466115
:1031C0006E2073706565643A2546732525250002D7
:1031D00000000A00D631193434321B3292327F3269
:1031E000653205344D32A5320200000A00EF311974
:1031F0003434321B3292327F326532053403324D21
:1032000032A5320A3203B20F0000556E6C6F636B49
:103210002046756C6C204D656E75002232044804A2
:103220000000466C6F772020526174653A256F6606
:10323000252525003B32041F04000053706565649A
:1032400020526174653A256F6D252525005432039F
:103250004204001044697361626C652053746570A8
:1032600070657273006C3203380400005368757423
:10327000204F666620414C4C20486561747300867F
:103280003203470400005072656865617420414252
:103290005300993203370400005072656865617409
:1032A00020504C4100AC32033604000041545820F9
:1032B000706F776572206F6E2F6F66660002000078
:1032C0000400C4321934E232CA32D132043C040060
:1032D000004245442054656D703A20202545620225
:1032E0004300E932043D0400004E4F5A2054656DFE
:1032F000703A2020254530024300020000060001FC
:1033000033193437330D330534CF332333143304B7
:1033100021040000482E20526164697573203A250B
:103320006F68002A3303AC0F0000536574205A20E5
:103330004F726967696E003E33024F330000467575
:103340006C6C2043616C6962726174696F6E00021B
:1033500000000400563319348C3377335E33653301
:1033600003B10F0000426567696E2043616C6962BA
:10337000726174696F6E007E3303B50F00004245C1
:10338000442041524520434C45414E00933303B401
:103390000F00004D414B452053555245204E4F5A8A
:1033A0005A4C452026000200000600AD33193405B2
:1033B00034F333E133CF33B933C033023234000056
:1033C000457874722E20706F736974696F6E00D6C1
:1033D0003302933500005A20506F736974696F6E21
:1033E00000E83302E83500005920506F73697469B2
:1033F0006F6E00FA33023D3600005820506F73693B
:1034000074696F6E000C3403FD030000486F6D6536
:10341000205072696E74657200203403E803000066
:1034200050726576696F75732053637265656E209F
:10343000010003F0030400393456344F344834415A
:10344000345D3400000000006B3400000000007C9C
:103450003400000000008B34000000000025556699
:10346000206D207072696E7465640020453A256590
:10347000632F25456302437E256F43003120636C33
:1034800069636B203D2031206D6D00453A2578330E
:10349000206D6D0003FC0304009B34B834B134AAE2
:1034A00034A334BF340000000000C034000000002A
:1034B00000D0340000000000E034000000000000F4
:1034C0004D617820656E6473746F703A25735A008D
:1034D0004D696E20656E6473746F703A25737A005F
:1034E0005A3A257832206D6D0003FB030400F03456
:1034F0000D350635FF34F834143500000000001592
:1035000035000000000025350000000000353500C2
:1035100000000000004D617820656E6473746F7068
:103520003A257359004D696E20656E6473746F702F
:103530003A25737900593A257831206D6D0003FAE8
:10354000030400453562355B3554354D356935002A
:10355000000000006A3500000000007A350000001D
:1035600000008A350000000000004D617820656E83
:103570006473746F703A257358004D696E20656EE0
:103580006473746F703A25737800583A2578302048
:103590006D6D0003EF0304009A35B735B035A935DA
:1035A000A235BE350000000000BF3500000000005D
:1035B000CF350000000000DF350000000000004DA6
:1035C000617820656E6473746F703A25735A004D8C
:1035D000696E20656E6473746F703A25737A005A51
:1035E0003A257832206D6D0003EE030400EF350CB0
:1035F000360536FE35F73513360000000000143668
:1036000000000000002436000000000034360000F6
:10361000000000004D617820656E6473746F703A2D
:10362000257359004D696E20656E6473746F703A2E
:1036300025737900593A257831206D6D0003ED032B
:103640000400443661365A3653364C36683600002C
:10365000000000693600000000007936000000001C
:103660000089360000000000004D617820656E641E
:1036700073746F703A257358004D696E20656E64DF
:1036800073746F703A25737800583A257830206D3E
:103690006D0000000004009936B636AF36A836A19A
:1036A00036BD360000000000C3360000000000D721
:1036B000360000000000DB360000000000255566E3
:1036C000206D00546F74616C2046696C616D656E8D
:1036D0007420557365640025557400546F74616CD3
:1036E000205072696E74696E672054696D650000C0
:1036F00000000400F63613370C370537FE361A374C
:1037000000000000002637000000000034370000F1
:10371000000000463700000000004F52494F4E2085
:1037200044656C7461005072696E746572204D6FEF
:1037300064656C00465720446174653A203230312C
:1037400037303133300046572056657273696F6EDB
:103750003A20302E39322E3200000000040060374B
:103760007D3776376F376837843700000000008870
:10377000370000000000913700000000009A370079
:1037800000000000256F73005A3A257832206D6DD5
:1037900000593A257831206D6D00583A257830204F
:1037A0006D6D000000000400AA37C737C037B93775
:1037B000B237CE370000000000D237000000000012
:1037C000EB370000000000FE370000000000256F0E
:1037D000730053706565643A256F6D252525204675
:1037E0006C6F773A256F66252525004245443A25BA
:1037F0006562205461726765743A254562004E4FD8
:103800005A3A256563205461726765743A254563A9
:10381000000000000000000000000000FF000001A8
:103820000000000A0B02090C0D0E0807030401003A
:103830000000000000000000000000000000000088
:103840000000000000000000000000000012111045
:103850000000000000000000000000000000000068
:1038600000000000000000010210202008081020C5
:1038700040102040800201020108040201010204FC
:1038800008102040808040201008040201800402BB
:103890000180402010080402010804020101020412
:1038A0000810204080010204081020408005050512
:1038B00005070508080808020202020A0A080804A7
:1038C00004040401010101010101010303030303D5
:1038D000030303040707070C0C0C0C0C0C0C0C0264
:1038E00002020206060606060606060B0B0B0B0B6B
:1038F0000B0B0B000020002300260029002C002FBA
:10390000003200000100000301060109010000224D
:1039100000250028002B002E003100340002010099
:1039200000050108010B0100002100240027002AE6
:10393000002D003000330001010000040107010ADE
:1039400001024E414E494E495459494E46CDCCCCC8
:103950003D0AD7233C17B7D13877CC2B329595E663
:10396000241FB14F0A000020410000C84200401C43
:103970004620BCBE4CCA1B0E5AAEC59D7400387A98
:103980008EB482C0860111241FBECFEFD1E2DEBF0C
:10399000CDBF00E00CBF13E0A0E0B2E0E0E7F6E24C
:1039A00002E00BBF02C007900D92A638B107D9F70D
:1039B0002EE1A6E8B3E001C01D92A23AB207E1F7FA
:1039C00019E3C6E8D9E300E006C022970109FE0129
:1039D0000BBF0F94B10ECE37D10780E00807A9F7CF
:1039E0000F9472060D9436130C940000CF93DF935E
:1039F00000D01F92CDB7DEB744E050E0BC01CE014D
:103A000001960F94F21269817A818B819C810F90CB
:103A10000F900F900F90DF91CF9108958091F90250
:103A200083FB882780F90895179A0895169A0895B8
:103A3000159A089588E493E0D9CFCF92DF92EF9260
:103A4000FF92CF93DF9300D01F921F92CDB7DEB7C6
:103A50006B017C016093AA187093AB188093AC182B
:103A60009093AD180E94D79CC982DA82EB82FC82C7
:103A700044E050E065E773E0CE0101960F94141323
:103A800023E0B701A60188E795E00E940C4F0E9451
:103A9000AB52682F88E690E06D830F9402136D811E
:103AA000681721F088E690E00F941D130F900F9097
:103AB0000F900F900F90DF91CF91FF90EF90DF90DC
:103AC000CF900895CF93DF931F92CDB7DEB7BC019F
:103AD0008DE793E00F9430130E94AB52682F88E675
:103AE00090E069830F9402136981681739F088E6C2
:103AF00090E00F90DF91CF910D941D130F90DF9107
:103B0000CF910895CF93DF931F92CDB7DEB7BC015D
:103B10008FE793E00F9430130E94AB52682F88E632
:103B200090E069830F9402136981681739F088E681
:103B300090E00F90DF91CF910D941D130F90DF91C6
:103B4000CF910895CF93DF931F92CDB7DEB7BC011D
:103B500081E893E00F9430130E94AB52682F88E6FF
:103B600090E069830F9402136981681739F088E641
:103B700090E00F90DF91CF910D941D130F90DF9186
:103B8000CF910895CF93C82F8091C0048823D1F09E
:103B90001092C0040E944A699091DF029150909364
:103BA000DF02911109C08091E002833010F40E947D
:103BB000D76885E08093DF026C2F8CEE9CE1CF917B
:103BC0000C9433FFCF91089580918706882349F0A4
:103BD0000E94387380E0D6DF8CEE9CE10E9432FFB9
:103BE000F3CF08954F925F926F927F928F929F9240
:103BF000AF92BF92CF92DF92EF92FF920F931F93FB
:103C0000CF93DF9300D01F92CDB7DEB78C018091A8
:103C1000241990912519A0912619B091271989830B
:103C20009A83AB83BC83C0902819D0902919E09067
:103C30002A19F0902B1980902C1990902D19A09092
:103C40002E19B0902F199C01AD01BC01CD010F942C
:103C5000E30D81110FC149805A806B807C80E8940C
:103C600077F82FEF3FEF4FE75FE7C301B2010F9403
:103C7000E30D81110BC02FEF3FEF4FE75FE7C3016B
:103C8000B2010F94900A18160CF4F4C0A701960123
:103C9000C701B6010F94E30D8111ECC02601370175
:103CA000E89477F82FEF3FEF4FE75FE7C301B201EA
:103CB0000F94E30D81110BC02FEF3FEF4FE75FE74C
:103CC000C301B2010F94900A18160CF4D3C0A501D9
:103CD0009401C501B4010F94E30D8111CBC02401FF
:103CE0003501E89477F82FEF3FEF4FE75FE7C30127
:103CF000B2010F94E30D81110BC02FEF3FEF4FE79F
:103D00005FE7C301B2010F94900A18160CF4B2C019
:103D10002091FC183091FD184091FE185091FF1829
:103D200069817A818B819C810F942C0A2B013C0143
:103D300020910019309101194091021950910319F5
:103D4000C701B6010F942C0A6B017C012091041964
:103D5000309105194091061950910719C501B40118
:103D60000F942C0A4B015C0180918419882329F05F
:103D700020E732E441E25DE304C020E030E040E8C7
:103D80005FE3C301B2010F94380DAB01BC0122E027
:103D900086EF98E10E94494F80918419882329F089
:103DA00020E732E441E25DE304C020E030E040E897
:103DB0005FE3C701B6010F94380DAB01BC0122E0EF
:103DC0008EEE98E10E94494F80918419882329F052
:103DD00020E732E441E25DE304C020E030E040E867
:103DE0005FE3C501B4010F94380DAB01BC0123E0C2
:103DF0008AEE98E10E94494F60913C1970913D19FB
:103E000080913E1990913F190F94630B2091801976
:103E10003091811940918219509183190F94380D76
:103E200020918419222329F020E732E441E25DE366
:103E300004C020E030E040E85FE30F94380DAB01B0
:103E4000BC0124E086EE98E10F900F900F900F9048
:103E5000DF91CF911F910F91FF90EF90DF90CF9066
:103E6000BF90AF909F908F907F906F905F904F909A
:103E70000C940C4FC8010E94324D4ACFCF92DF9272
:103E8000EF92FF92CF93DF93EC01893191053CF0E3
:103E9000C53F81E0D8072CF0C4EFD1E002C0C9E1F2
:103EA000D0E0BE01882777FD8095982F0F94630B93
:103EB0006B017C016091341870913518882777FD6B
:103EC0008095982F0F94630B9B01AC01C701B6013D
:103ED0000F94970A9B01AC016091361870913718C6
:103EE00080913818909139180F94380D60933618D6
:103EF000709337188093381890933918D0933518E9
:103F0000C0933418BE018BEB98E1DF91CF91FF9005
:103F1000EF90DF90CF900C94F44DCF92DF92EF9220
:103F2000FF926B017C0120E030E040E752E40F9407
:103F3000900A87FD11C020E030E046E153E4C7015C
:103F4000B6010F94C40C18166CF4C12CD12C86E168
:103F5000E82E83E4F82E06C0C12CD12C90E7E92E80
:103F600092E4F92EC092AA18D092AB18E092AC1845
:103F7000F092AD1822E0B701A60182EA98E1FF9025
:103F8000EF90DF90CF900C940C4F8F929F92AF9256
:103F9000BF92CF92DF92EF92FF92CF93DF93EC012B
:103FA0008931910534F0893C91052CF0C8ECD0E0C2
:103FB00002C0C9E1D0E0D0933318C0933218E09129
:103FC000AA03F091AB03E258FF4FC080D180E2809A
:103FD000F38020E030E0A901C701B6010F94900AF8
:103FE000AE01662757FD6095762F18165CF0CB0161
:103FF000BA010F94630B2AE037ED43E25CE30F94C0
:10400000380D24C0CB01BA010F94630B2AE037EDC1
:1040100043E25CE30F94380D20E030E040E850E4E8
:104020000F94380D4B015C01A7019601C701B60141
:104030000F94380D2BED3FE049E450E40F94380D18
:104040009B01AC01C501B4010F94970A6093F4027F
:104050007093F5028093F6029093F702BE018DEA09
:1040600098E1DF91CF91FF90EF90DF90CF90BF90DC
:10407000AF909F908F900C94F44DCF93DF9320914D
:10408000F81897FD0DC0EC018F3F910519F014F061
:10409000CFEFD0E0209721F028602093F81805C0DA
:1040A000277F2093F818C0E0D0E061118DDD80916A
:1040B000E01790E0C817D90729F0BE0188E998E118
:1040C0000E94F44DC093E017DF91CF9108954F9275
:1040D0005F926F927F928F929F92AF92BF92CF9298
:1040E000DF92EF92FF92CF93DF9300D01F92CDB774
:1040F000DEB72FE632E143E85AE360911C18709175
:104100001D1880911E1890911F180F94380D6B0187
:104110007C0181E890E06ADC9B01AC01C701B6013B
:104120000F942C0AAB01BC0122E086E898E10E94C2
:10413000494F84E798E10E94F94CE0910A02F0911E
:104140000B0220E030E040E751E46385748585850B
:1041500096850F94C40C18160CF46BC020E030E068
:10416000A9018DE790E029833A834B835C830F9408
:104170000A134B015C0129813A814B815C81820EDB
:10418000931EA41EB51EC501B40120E831E541E02F
:1041900050E00F94640E60E87EEA8EEF9FEF0F947C
:1041A000FF0D6B017C01C80CD91CEA1CFB1CBA0179
:1041B000A90187E798E10E941A4EC701B60120E1E4
:1041C0003EE040E050E00F94640E49015A01BA010C
:1041D000A9018DE698E10E941A4EA0EFB1EFA5016A
:1041E00094010F94AD0E6C0D7D1D8E1D9F1D2CE353
:1041F00030E040E050E00F94640EBA01A90185E67A
:1042000098E10E941A4E80E698E10F900F900F906F
:104210000F90DF91CF91FF90EF90DF90CF90BF9004
:10422000AF909F908F907F906F905F904F900C9485
:10423000114D0F940304C0902018D0902118E090E5
:104240002218F09023186C197D098E099F0928EE19
:1042500033E040E050E00F94420E83CF811102C062
:104260008EE207C0813011F48DE203C0823019F470
:104270008CE20D94C3040895EAE0F1E08081886047
:1042800080838081806180838081806280836CE311
:1042900070E08EE20F94C3046CE370E08DE20F9443
:1042A000C30462E870E08CE20F94C304E1E2F1E041
:1042B0008081887F81608083089567FD43C082305C
:1042C000E9F028F4882341F0813061F03BC083306D
:1042D00009F1843059F136C0662311F0A19A69C002
:1042E000A19867C080910801662311F0806801C021
:1042F0008F778093080147FF3AC05FC08091080123
:10430000662311F0806401C08F7B8093080147FF12
:1043100034C055C080910801662311F0886001C047
:10432000877F8093080147FF32C046C08091050116
:10433000662311F0806401C08F7B8093050147FFE5
:104340002EC03CC047FD3BC08230B9F028F4882322
:1043500041F0813061F008958330C9F08430F9F084
:104360000895442311F0A09A0895A0980895442335
:1043700011F0A29A0895A29808958091080144230B
:1043800011F0806201C08F7D8093080108958091B3
:104390000801442311F08061F7CF8F7EF5CF809123
:1043A0000501442311F0806401C08F7B80930501D7
:1043B000089547FFD6CF0895089508950895089564
:1043C000643079F028F4613041F0623041F00895B2
:1043D000683051F0603141F0089540E003C040E0A2
:1043E00004C041E060E002C041E061E066CFCF93ED
:1043F000DF9381E498E10E94114D62B3669561708C
:1044000070E086EF98E10E94E84D62B3617070E061
:104410008EE598E10E94F44DC6E0D1E088819927AD
:1044200087FD9095692F661F6627661F70E089E5F6
:1044300098E10E94E84D62B362FB662760F970E084
:104440008EE598E10E94F44D688166FB662760F96D
:1044500070E086E598E10E94E84D688165FB66277B
:1044600060F970E08EE598E10E94F44D688163FB8D
:10447000662760F970E082E598E10E94E84D688166
:104480006295617070E08EE598E10E94F44DC3E0A2
:10449000D1E0688166FB662760F970E08EE498E100
:1044A0000E94E84D688166FB662760F970E08EE542
:1044B00098E1DF91CF910C94F44DFF920F931F93ED
:1044C000CF93DF9300D01F921F92CDB7DEB785E068
:1044D000E7E4F3E0DE01119601900D928A95E1F791
:1044E000989A9A9A8091070180628093070180913F
:1044F00007018061809307018091040180648093AB
:1045000004018E010F5F1F4FF12CF80161918F01A3
:104510008F2D56DFF394F5E0FF12F7CF0F900F9039
:104520000F900F900F90DF91CF911F910F91FF90FF
:1045300008950C9409770E94F47620910802309136
:1045400009028217930724F49093090280930802CA
:10455000089560910802709109028091060290917D
:1045600007026817790744F4709307026093060204
:1045700089EF98E10C94F44D0895CF93C82F69E129
:1045800070E089EA9DE10F9497016C2F89EA9DE123
:104590000F94380160E089EA9DE10F949801882327
:1045A00029F083E99CE0CF910C94114DCF910895AF
:1045B000CF93DF93D82FC62F69E170E089EA9DE1A0
:1045C0000F9497016D2F89EA9DE10F9438016C2FAC
:1045D00089EA9DE10F94380189EA9DE10F94AA01CF
:1045E000882331F084E79CE0DF91CF910C94114D4A
:1045F000DF91CF9108951F93CF93DF93182FBDDFE5
:1046000041E050E069E170E089EA9DE10F948B019F
:1046100089EA9DE10F94E100892BA1F089EA9DE1EF
:104620000F94E900EC01612F70E08AE69CE00E94A3
:10463000E84DBE01772781E69CE0DF91CF911F9185
:104640000C94F44D83E49CE0DF91CF911F910C9486
:10465000114D8EE19CE00E94114D89EA9DE10F947D
:1046600076018FE0C8DF81E3C6DF80E2C4DF6CE95A
:1046700080E29EDF80E2BFDF82E2BDDF60E482E2B3
:1046800097DF82E2B8DF85E2B6DF60E085E290DFA7
:1046900085E2B1DF83E2AFDF60E383E289DF83E2BB
:1046A000AADF84E2A8DF6AE484E282DF84E2A3DF97
:1046B00080E3A1DF60E280E37BDF80E39CDF81E3D6
:1046C0009ADF82E398DF64E182E372DF82E393DFC3
:1046D00083E391DF60E083E36BDF83E38CDF84E3DC
:1046E0008ADF60E084E364DF84E385DF86E383DFE1
:1046F00062E386E35DDF86E37EDF87E37CDF60E005
:1047000087E356DF87E377DF88E375DF60E188E3DF
:104710004FDF88E370DF89E36EDF8AE36CDF62E3FB
:104720008AE346DF8AE367CF81E365DF85E363DF02
:1047300089E361DF8DE25FCF6DE085E995E00E945E
:10474000A8756AE085E995E00C94A875CF93C82F09
:10475000E091AA03F091AB0342A953A964A975A9FA
:1047600022E083EE98E10E94494FE091AA03F09184
:10477000AB0346A957A960AD71AD20E08AEC98E182
:104780000E94494F0E94DB60AB01BC0122E08FED2B
:1047900098E10E94494F4091190250911A0260918C
:1047A0001B0270911C0220E08AEC98E10E94494FA4
:1047B000CC2391F061E070E081ED98E10E94E84D3A
:1047C0006CEF7FE08091110290911202681B790BCF
:1047D0008FEC98E10E94E84DE0910E02F0E0E35288
:1047E000F84E608170E086ED98E10E94E84DE0911E
:1047F000DE02EF3F29F4E091AA03F091AB03E081E0
:10480000F0E0E352F84E608170E08BED98E10E9499
:10481000E84DCF9191CF2F923F924F925F926F923E
:104820007F928F929F92AF92BF92CF92DF92EF9240
:10483000FF920F931F93CF93DF93CDB7DEB72997E6
:104840000FB6F894DEBF0FBECDBF5C01DC0116963B
:104850008D919C9117978C38910509F48AC608F0C0
:10486000E7C08235910509F42FC408F08AC08A3167
:10487000910509F4D1C208F03FC08531910509F4D2
:1048800049C278F48231910509F423C2843191053B
:1048900009F424C2419711F00C940A351798169820
:1048A000D0C58731910509F46DC208F44FC2883133
:1048B000910509F495C2499711F00C940A3560E00E
:1048C00089E899E129960FB6F894DEBF0FBECDBFF7
:1048D000DF91CF911F910F91FF90EF90DF90CF90DC
:1048E000BF90AF909F908F907F906F905F904F9010
:1048F0003F902F900C943BBB8E31910509F4E9C297
:1049000018F58C31910509F4BCC210F00C944335B4
:1049100089E899E129960FB6F894DEBF0FBECDBFA6
:10492000DF91CF911F910F91FF90EF90DF90CF908B
:10493000BF90AF909F908F907F906F905F904F90BF
:104940003F902F900C949CBF8A32910509F41BC3B1
:1049500028F4809709F4EAC20C940A358035910551
:1049600009F49DC38135910511F00C940A352CD9B9
:104970009B9A8091FA188F7B8093FA18A39A0C94D3
:1049800043358B36910511F40C943C2E38F58C355B
:10499000910509F4A4C460F48435910509F49DC31C
:1049A00008F496C38535910509F475C40C940A354D
:1049B0008836910509F448C530F48336910509F429
:1049C000F2C40C940A358936910509F425C68A3655
:1049D000910511F40C942B2E0C940A358337910514
:1049E00011F40C948D2E80F48F36910511F40C94F3
:1049F0005D2E8237910511F40C94AB2E8D36910506
:104A000011F00C940A352AC68537910511F40C94DF
:104A1000AE2E10F40C94B52D8737910511F40C943B
:104A2000D92E8837910511F40C941C2F0C940A355B
:104A30008530B1E09B0711F40C942A3208F0B0C025
:104A40008F3C910511F40C94C43008F041C08A3CAD
:104A5000910511F40C94F32F70F4883C910511F436
:104A60000C94422F10F00C94952F8E3B910509F475
:104A7000CBC70C940A358C3C910511F40C944A3048
:104A800010F40C9438308D3C910511F40C94AA303C
:104A90008E3C910511F00C940A35C50129960FB68C
:104AA000F894DEBF0FBECDBFDF91CF911F910F9164
:104AB000FF90EF90DF90CF90BF90AF909F908F903E
:104AC0007F906F905F904F903F902F900C944A5939
:104AD0008F3D910511F40C947F3188F48C3D910544
:104AE00011F40C942C318D3D910511F40C9454313A
:104AF000813D910511F00C940A350C940C31893EDE
:104B0000910511F40C94943140F5883E910511F013
:104B10000C940A356091E5177091E6178AEF97E1DA
:104B20000E94E84D4091E1175091E2176091E31720
:104B30007091E41722E081EF97E10E940C4F1092F0
:104B4000E6171092E5171092E1171092E2171092F3
:104B5000E3171092E4170C9443358B3F910511F441
:104B60000C94CD318430914011F00C940A35299683
:104B70000FB6F894DEBF0FBECDBFDF91CF911F916E
:104B80000F91FF90EF90DF90CF90BF90AF909F90EC
:104B90008F907F906F905F904F903F902F9059CD66
:104BA0008E3521E0920711F40C948233C0F58E32D9
:104BB00041E0940711F40C94CD3298F48931A1E0CE
:104BC0009A0711F40C9482328C32B1E09B0711F4F5
:104BD0000C9492328630914011F00C940A350C946A
:104BE0004C328034F1E09F0711F40C94403338F4D8
:104BF0008F32914011F40C940C330C940A358134AB
:104C000041E0940711F40C9444338234914011F044
:104C10000C940A3580E00E9460B00C9459338239BC
:104C2000A1E09A0711F40C946D3498F58836E1E010
:104C30009E0711F40C94393438F48336914011F402
:104C40000C94F3330C940A35803931E0930711F456
:104C50000C9453348139914011F00C940A35299603
:104C60000FB6F894DEBF0FBECDBFDF91CF911F917D
:104C70000F91FF90EF90DF90CF90BF90AF909F90FB
:104C80008F907F906F905F904F903F902F900C94FB
:104C900083AE853F51E0950711F40C949D3460F488
:104CA000843F914011F00C940A3580E00E94C2527A
:104CB00083E693E10C94A834863FE1E09E0711F46B
:104CC0000C94C2348C38934011F40C94DC340C9462
:104CD0000A350E94141D0E94161D8CC289E899E1B4
:104CE00029960FB6F894DEBF0FBECDBFDF91CF91EE
:104CF0001F910F91FF90EF90DF90CF90BF90AF90FA
:104D00009F908F907F906F905F904F903F902F90EB
:104D10000C94E0BE89E899E129960FB6F894DEBFBD
:104D20000FBECDBFDF91CF911F910F91FF90EF90FC
:104D3000DF90CF90BF90AF909F908F907F906F90BB
:104D40005F904F903F902F900C94BDBA89E899E105
:104D500029960FB6F894DEBF0FBECDBFDF91CF917D
:104D60001F910F91FF90EF90DF90CF90BF90AF9089
:104D70009F908F907F906F905F904F903F902F907B
:104D80000C94C2BAD5018D919C9197FD02C00C94F0
:104D9000433560E089E899E10E94D2C9F501EE5AF5
:104DA000FF4F6081718140E089E899E129960FB653
:104DB000F894DEBF0FBECDBFDF91CF911F910F9151
:104DC000FF90EF90DF90CF90BF90AF909F908F902B
:104DD0007F906F905F904F903F902F900C9413BFF7
:104DE00089E899E129960FB6F894DEBF0FBECDBFD2
:104DF000DF91CF911F910F91FF90EF90DF90CF90B7
:104E0000BF90AF909F908F907F906F905F904F90EA
:104E10003F902F900C942ABBF5018081918192FDE7
:104E200002C00C944335468D578D60A171A18091CD
:104E3000F319882311F40C9443354093EA195093E5
:104E4000EB196093EC197093ED1989EC99E12996AF
:104E50000FB6F894DEBF0FBECDBFDF91CF911F918B
:104E60000F91FF90EF90DF90CF90BF90AF909F9009
:104E70008F907F906F905F904F903F902F900C9409
:104E800018C8D5018D919C9197FD02C00C944335B3
:104E9000F501EE5AFF4F6081718189E899E1299609
:104EA0000FB6F894DEBF0FBECDBFDF91CF911F913B
:104EB0000F91FF90EF90DF90CF90BF90AF909F90B9
:104EC0008F907F906F905F904F903F902F900C94B9
:104ED000C0BFF5018081918197FD02C00C944335DC
:104EE00060E089E899E10E94D2C9F501EE5AFF4FCE
:104EF0006081718189E899E129960FB6F894DEBF47
:104F00000FBECDBFDF91CF911F910F91FF90EF901A
:104F1000DF90CF90BF90AF909F908F907F906F90D9
:104F20005F904F903F902F900C9421C0D5018D91B0
:104F30009C9197FD02C00C94433560E089E899E1AB
:104F40000E94D2C9F501EE5AFF4F6081718189E854
:104F500099E129960FB6F894DEBF0FBECDBFDF9161
:104F6000CF911F910F91FF90EF90DF90CF90BF9066
:104F7000AF909F908F907F906F905F904F903F90F9
:104F80002F900C944FC0F5012081318133FD02C078
:104F90000C94433512A1E12EF3A0E1EBFCE0449127
:104FA00050E04E155F0509F45EC032964DE0E532E3
:104FB000F407A9F7F7FC57C032FF2CC0D5015E9665
:104FC0004D915D916D917C9191974F3F5105610598
:104FD000710509F0E0F461E0812F0F94DB05F50124
:104FE000668D812F0F941406D5015E966D917C918C
:104FF0005F97812F0F94C304B70184E398E10E9467
:10500000E84DF501668D778D8FE298E112C08FE053
:1050100095E02BC062E0812F0F94DB05B7018FE292
:1050200098E10E94E84D812F0F944906BC018AE265
:1050300098E129960FB6F894DEBF0FBECDBFDF9181
:10504000CF911F910F91FF90EF90DF90CF90BF9085
:10505000AF909F908F907F906F905F904F903F9018
:105060002F900C94F44D89ED94E029960FB6F894A6
:10507000DEBF0FBECDBFDF91CF911F910F91FF908B
:10508000EF90DF90CF90BF90AF909F908F907F90E8
:105090006F905F904F903F902F900C94324D0E94F4
:1050A000E41D0F9403046093E7177093E81780934F
:1050B000E9179093EA179B9A8091FA18806480937D
:1050C000FA18A3980C944335109240190C94433568
:1050D00081E0809340190C944335D5018D919C91CA
:1050E000119792FF14C05E962D913D914D915C9168
:1050F0009197A8EEB3E00F94A10E6093E80270932D
:10510000E9028093EA029093EB020C94433593FFFB
:10511000A5C0F50182A193A1A4A1B5A182309105FA
:10512000A105B10509F466C02CF50097A105B105EC
:1051300009F446C00197A105B10511F00C9443355F
:1051400029960FB6F894DEBF0FBECDBFDF91CF9189
:105150001F910F91FF90EF90DF90CF90BF90AF9095
:105160009F908F907F906F905F904F903F902F9087
:105170000C94161D83309105A105B10509F454C0A6
:105180000497A105B10511F00C94433529960FB68B
:10519000F894DEBF0FBECDBFDF91CF911F910F916D
:1051A000FF90EF90DF90CF90BF90AF909F908F9047
:1051B0007F906F905F904F903F902F900C94F26093
:1051C00029960FB6F894DEBF0FBECDBFDF91CF9109
:1051D0001F910F91FF90EF90DF90CF90BF90AF9015
:1051E0009F908F907F906F905F904F903F902F9007
:1051F0000C94141D29960FB6F894DEBF0FBECDBFD8
:10520000DF91CF911F910F91FF90EF90DF90CF90A2
:10521000BF90AF909F908F907F906F905F904F90D6
:105220003F902F900C94181D29960FB6F894DEBF6E
:105230000FBECDBFDF91CF911F910F91FF90EF90E7
:10524000DF90CF90BF90AF909F908F907F906F90A6
:105250005F904F903F902F900C94E4600E94E41D6B
:1052600081E029960FB6F894DEBF0FBECDBFDF9167
:10527000CF911F910F91FF90EF90DF90CF90BF9053
:10528000AF909F908F907F906F905F904F903F90E6
:105290002F900C94689CD5018D919C91119792FF51
:1052A00014C05E962D913D914D915C919197A8EE21
:1052B000B3E00F94A10E6093EC027093ED02809323
:1052C000EE029093EF020C9443351092EC02109290
:1052D000ED021092EE021092EF020C944335F501AC
:1052E000808183FF0CC082859385A485B5858093DA
:1052F000360390933703A0933803B0933903D50155
:105300008C9184FF0EC01E968D919D910D90BC9145
:10531000A02D80933A0390933B03A0933C03B0935A
:105320003D03F501808185FF0CC082899389A489A2
:10533000B58980933E0390933F03A0934003B093BD
:1053400041030E94D79CD5018C9186FD02C00C942C
:1053500043352091AA033091AB0356968D919D91D0
:105360000D90BC91A02DF90181879287A387B48706
:10537000808129960FB6F894DEBF0FBECDBFDF91B6
:10538000CF911F910F91FF90EF90DF90CF90BF9042
:10539000AF909F908F907F906F905F904F903F90D5
:1053A0002F900C94215FD501ED91FC911197F2FFA4
:1053B0000DC05E962D913D914D915C919197A8EE17
:1053C000B3E00F94A10E6B017C0106C040E1C42E36
:1053D00047E2D42EE12CF12CE3FD0E94141DF501CF
:1053E000808184FD0E94161DD5018C9185FD0E944F
:1053F000181D0F9403042B013C014C0C5D1C6E1C0A
:105400007F1C0F940304A3019201261B370B480B4A
:10541000590BDA01C901803A9648A140B10518F448
:105420000E94CDA1EECFD5018C9183FD1798F50197
:10543000808184FD1698D5018C9185FD02C00C9465
:10544000433515980C9443350E94086981110C94DA
:1054500043350F9403046093E7177093E817809324
:10546000E9179093EA170E940E1D81110C944335A1
:10547000F5018081918193FF02C00C942D3592FF3C
:105480000AC0868D978DA0A1B1A1892B8A2B8B2B69
:1054900011F40C942D35D5018D919C91119792FDAD
:1054A00002C00C9443359C012227317091FF23C028
:1054B000232B89F011E020E030E0A9015A966D918C
:1054C0007D918D919C915D970F94C40C18160CF0F2
:1054D00010E0212F01C020E085010C5A1F4FF5017B
:1054E000668D778D80A191A129870F94630B298503
:1054F000D8014C9124C0232B81F011E020E030E052
:10550000A901F501628D738D848D958D0F94C40C66
:1055100018160CF010E0212F01C020E00091AA0322
:105520001091AB03D5015E966D917D918D919C910B
:10553000919729870F94630B2985F801408129965B
:105540000FB6F894DEBF0FBECDBFDF91CF911F9194
:105550000F91FF90EF90DF90CF90BF90AF909F9012
:105560008F907F906F905F904F903F902F900C9412
:1055700058640E94086981110C9443350F94030408
:105580006093E7177093E8178093E9179093EA17F1
:105590000E940E1D81110C944335D5018D919C9173
:1055A000119792FD02C00C94433590FF11C011E099
:1055B00020E030E0A9015A966D917D918D919C91EA
:1055C0005D970F94C40C18160CF010E0412F01C029
:1055D00040E0F501668D778D80A191A149870F94F8
:1055E000630B498529960FB6F894DEBF0FBECDBF79
:1055F000DF91CF911F910F91FF90EF90DF90CF90AF
:10560000BF90AF909F908F907F906F905F904F90E2
:105610003F902F900C942165D5018D919C9133E0A2
:10562000969587953A95E1F7817029960FB6F8948B
:10563000DEBF0FBECDBFDF91CF911F910F91FF90C5
:10564000EF90DF90CF90BF90AF909F908F907F9022
:105650006F905F904F903F902F9078C80E9408699C
:1056600081110C9443350F9403046093E7177093F2
:10567000E8178093E9179093EA170E940E1D811195
:105680000C94433540E068EC74E08CEE9CE10E94A1
:1056900054E08CEE9CE10E94A8E30E94E41D20905F
:1056A000AA033090AB03F5018081918191FF09C07D
:1056B000EC5AFF4F2081211104C02BE5222E22E05D
:1056C000322E92FF1EC090FF0FC011E020E030E0AC
:1056D000A901D5015A966D917D918D919C915D970F
:1056E0000F94C40C18160CF010E0F501668D778D40
:1056F00080A191A10F94630B212FD1014C910E94A5
:105700005864F10126A937A940AD51AD62A973A92A
:1057100084A995A90F942B0A2B013C0120E030E0CD
:10572000A9010F94C40C181664F420E030E040EA9C
:1057300050E4C301B2010F94900A87FF0EC00C948D
:10574000433520E030E040EA50ECC301B2010F9451
:10575000C40C181614F40C94433599249394D10175
:10576000D0962D913C91D1979E968D919C919F972B
:10577000821793070CF0912C0F9403046D837E83A2
:105780008F83988710E0412C512C32010F94030431
:1057900069837A838B839C836093E7177093E81700
:1057A0008093E9179093EA17DC01CB012D813E81AC
:1057B0004F815885821B930BA40BB50B893E9340F8
:1057C000A105B10558F080E00E94A62389819A8145
:1057D000AB81BC818D839E83AF83B88781E00E94BB
:1057E000C21D8091AA039091AB032816390609F0D7
:1057F00064C0D1019396ED90FC9094971E141F0401
:105800000CF05BC0111158C0992009F477C0919633
:105810006D917C919297882777FD8095982F0F94B2
:10582000630B9B01AC01F10162A973A984A995A93D
:105830000F94C40C181614F00C943A356627772789
:105840006E197F09882777FD8095982F0F94630B39
:10585000209142033091430340914403509145030A
:105860000F94380D0F94300B1F921F92D101529656
:105870002C9152972F9351962C9151972F9350968C
:105880002C9150972F931F962C912F935B016C01B5
:10589000E12CF12C870120E030E0A90160E070E00C
:1058A000CB010E945B940F900F900F900F900F9080
:1058B0000F9011E00C943A3511E041145104610449
:1058C000710409F050C09920F1F020E030E040E888
:1058D0005FE3F10166A977A980AD91AD0F942B0A22
:1058E0009B01AC01D101D2966D917D918D919C91DE
:1058F000D5970F94C40C87FF1FC045CF41145104A6
:105900006104710481F520E030E040E85FE3F101DB
:1059100066A977A980AD91AD0F942C0A9B01AC01CB
:10592000D101D2966D917D918D919C91D5970F94D7
:10593000900A18160CF427CFF101A78DB0A128EE1C
:1059400033E00F949B0E2B013C0129813A814B815E
:105950005C81420E531E641E751E41145104610485
:10596000710409F413CFD301C20129813A814B811B
:105970005C81821B930BA40BB50B81159449A54345
:10598000B74708F403CF112309F4E2C08091AA03BA
:105990009091AB032816390609F0DAC0D10193962D
:1059A0006D917C919497882777FD8095982F0F941F
:1059B000630B209142033091430340914403509183
:1059C00045030F94380D0F94300B1F921F92F10175
:1059D00022892F9321892F9320892F9327852F9315
:1059E0005B016C01E12CF12C870120E030E0A90182
:1059F00060E070E0CB010E945B940F900F900F90DD
:105A00000F900F900F90A4C00E940E1D81110C9456
:105A1000433540E06CEB74E08CEE9CE10E9454E076
:105A20008CEE9CE10E94A8E30E94E41DD5018D91BB
:105A30009C91119792FF1FC090FF11C011E020E0D0
:105A400030E0A9015A966D917D918D919C915D9761
:105A50000F94C40C18160CF010E0412F01C040E068
:105A6000F501668D778D80A191A149870F94630B15
:105A700049850E9421652091190230911A024091B6
:105A80001B0250911C0260911502709116028091C8
:105A90001702909118020F942B0A2B013C0120E071
:105AA00030E0A9010F94C40C18165CF420E030E03B
:105AB00040EA50E4C301B2010F94900A87FF0CC082
:105AC000E2C720E030E040EA50ECC301B2010F949D
:105AD000C40C18160CF4D7C70F9403042B013C0117
