:100000000C94F01C0C94211D0C94211D0C94211DAA
:100010000C94211D0C94211D0C94211D0C94211D68
:100020000C94211D0C94211D0C94211D0C94211D58
:100030000C94211D0C941FDB0C94211D0C94211D8C
:100040000C94211D0C9402960C94211D0C94211DDE
:100050000C94211D0C944FCD0C94BBCD0C94FEDB65
:100060000C94211D0C9425CD0C94F5CC0C94211DE1
:100070000C94211D0C94211D0C94211D0C94211D08
:100080000C94211D0C94211D0C94211D0C94211DF8
:100090000C94211D0C94211D0C94211D0C9448DC02
:1000A0000C94211D0C94211D0C94211D0C94211DD8
:1000B0000C94211D0C94211D0C94211D0C94211DC8
:1000C0000C94211D0C94211D0C94211D0C94211DB8
:1000D0000C94211D0C94211D0C94211D0C94211DA8
:1000E0000C94211D6B207020752081208D201A21F9
:1000F0009920A120A920B520C120CD20DE20EA2012
:100100001A21F62002210E2107619A612B625B639E
:10011000657165716571657165716571657165712F
:100120006571BB62EF6225636571657165716571AB
:100130006571657165716571657165716571D266AD
:1001400036679867FA675C68BE68206965710A6DF2
:100150008C69EA69486AA66A046B626BC06B2E6C94
:100160009C6C6571657165716571657120651A6654
:100170004465536D836DEE6D596E726EAF6EE26EB7
:10018000166F6C6FC56F1B7075709D708B6E65718F
:1001900065716571657165716571657165716571AF
:1001A0006571657165718F64BF64EE6465716571B9
:1001B0006571657165716571657110716571EB656A
:1001C000657165716571C370EB706571657165719D
:1001D0006571FA60657165719E63336471647666FA
:1001E000F4B40CB50CB50CB50CB50CB50CB50CB520
:1001F0000CB50CB50CB50CB50CB50CB50CB50CB5F7
:100200000CB50CB50CB50CB50CB50CB50CB50CB5E6
:100210000CB50CB5E3B495B49FB41CB40CB5C5B41F
:10022000CFB40CB50CB52CB40AB40CB5BBB40CB53A
:10023000D9B4B1B4A9B40CB50CB50CB577B481B4CC
:100240008BB40CB50CB50CB50CB50CB50CB50CB528
:100250000CB50CB5E3B495B49FB41CB40CB5C5B4DF
:10026000CFB40CB50CB52CB40AB40CB5BBB40CB5FA
:10027000D9B4B1B4A9B40CB50CB50CB577B481B48C
:100280008BB46AD96DD95CD960D966D9A4D971D932
:1002900075D97BD97FD983D989D98DD991D9A4D959
:1002A00097D99BD99FD907634236B79BD8A71A39EC
:1002B000685618AEBAAB558C1D3CB7CC5763BD6DB4
:1002C000EDFD753EF6177231BF000000803F05A8B6
:1002D0004CCDB2D44EB93836A9020C50B9918688AB
:1002E000083CA6AAAA2ABE000000803F0D94BE01C9
:1002F000456E642066696C65206C697374004265A4
:1003000067696E2066696C65206C6973740053447C
:10031000207072696E74696E67206279746520005E
:100320004E6F74205344207072696E74696E67005A
:100330004372656174696F6E206661696C65640003
:100340004469726563746F72792063726561746564
:100350006400616476616E6365204C205B303D6FA4
:1003600066665D00657874727564657220636F6F90
:100370006C6572207370656564205B302D32353595
:100380005D0064697374616E636520746F207265CB
:100390007472616374207768656E20686561746942
:1003A0006E67205B6D6D5D0074656D702E20666FED
:1003B000722072657472616374696F6E207768650C
:1003C0006E2068656174696E67205B435D007465CB
:1003D0006D702E2073746162696C697A652074692E
:1003E0006D65205B735D00592D6F666673657420C3
:1003F0005B73746570735D00582D6F66667365740A
:10040000205B73746570735D00504944206D6178A2
:100410002076616C7565205B302D3235355D00507E
:10042000494420442D6761696E0050494420492D9C
:100430006761696E0050494420502D6761696E2FD5
:10044000646561642D74696D65005049442064726F
:10045000697665206D696E00504944206472697642
:1004600065206D61780068656174206D616E6167FB
:100470006572205B302D335D00616363656C65726E
:100480006174696F6E205B6D6D2F735E325D0073FA
:1004900074617274206665656472617465205B6D59
:1004A0006D2F735D006D61782E20666565647261E5
:1004B0007465205B6D6D2F735D00737465707320C0
:1004C000706572206D6D0042656420504944206D56
:1004D00061782076616C7565205B302D3235355D35
:1004E000004265642050494420442D6761696E00D4
:1004F0004265642050494420492D6761696E00427D
:1005000065642050494420502D6761696E00426542
:100510006420504944206472697665206D696E00DC
:1005200042656420504944206472697665206D619B
:1005300078004265642048656174204D616E616792
:100540006572205B302D335D004175746F6C65768C
:10055000656C206163746976652028312F3029002D
:100560005A2D70726F6265205933005A2D70726F68
:100570006265205833005A2D70726F6265205932BF
:10058000005A2D70726F6265205832005A2D7072B9
:100590006F6265205931005A2D70726F6265205864
:1005A00031005A2D70726F6265206F6666736574D4
:1005B0002079205B6D6D5D005A2D70726F62652031
:1005C0006F66667365742078205B6D6D5D005A2DD3
:1005D00070726F626520782D792D73706565642067
:1005E0005B6D6D2F735D005A2D70726F62652073A5
:1005F00070656564205B6D6D2F735D004D61782EB5
:10060000207A2D70726F6265202D206265642064EF
:100610006973742E205B6D6D5D005A2D70726F6270
:100620006520686569676874205B6D6D5D00436F68
:1006300072722E20646961676F6E616C2043205B6B
:100640006D6D5D00436F72722E20646961676F6E1D
:10065000616C2042205B6D6D5D00436F72722E20D5
:10066000646961676F6E616C2041205B6D6D5D0038
:1006700044656C746120526164697573204328304D
:10068000293A0044656C7461205261646975732075
:10069000422830293A0044656C74612052616469D3
:1006A000757320412830293A00416C7068612043FD
:1006B000283930293A00416C706861204228333370
:1006C00030293A00416C706861204128323130296C
:1006D0003A00546F776572205A20656E6473746FA8
:1006E00070206F6666736574205B73746570735DEC
:1006F00000546F776572205920656E6473746F7053
:10070000206F6666736574205B73746570735D003B
:10071000546F776572205820656E6473746F702013
:100720006F6666736574205B73746570735D0053E8
:1007300065676D656E74732F7320666F72207072BB
:10074000696E74696E67005365676D656E74732FAB
:100750007320666F722074726176656C004D6178EB
:10076000207072696E7461626C6520726164697573
:1007700073205B6D6D5D00486F72697A6F6E746196
:100780006C20726F642072616469757320617420DB
:10079000302C30205B6D6D5D00446961676F6E6168
:1007A0006C20726F64206C656E677468205B6D6D81
:1007B0005D0054726176656C20616363656C65727F
:1007C0006174696F6E205B6D6D2F735E325D0041E9
:1007D0006363656C65726174696F6E205B6D6D2F0C
:1007E000735E325D005A206D6178206C656E6774AF
:1007F00068205B6D6D5D0059206D6178206C656EC1
:10080000677468205B6D6D5D0058206D6178206CA9
:10081000656E677468205B6D6D5D005A20686F6D52
:100820006520706F73205B6D6D5D005920686F6D82
:100830006520706F73205B6D6D5D005820686F6D73
:100840006520706F73205B6D6D5D004D61782E20AB
:100850006A65726B205B6D6D2F735D00486F6D690B
:100860006E67206665656472617465205B6D6D2FCF
:10087000735D004D61782E206665656472617465F4
:10088000205B6D6D2F735D00537465707320706510
:1008900072206D6D0053746F702073746570706595
:1008A0007220616674657220696E6163746976692D
:1008B0007479205B6D732C303D6F66665D004D6111
:1008C000782E20696E6163746976652074696D6540
:1008D000205B6D732C303D6F66665D005072696EF3
:1008E00074657220616374697665205B735D004690
:1008F000696C616D656E74207072696E74656420D8
:100900005B6D5D00416476616E636564205573655F
:100910007200426175647261746500436F6C64209B
:10092000657874727573696F6E20646973616C6C3D
:100930006F77656400436F6C6420657874727573BB
:10094000696F6E20616C6C6F77656400504944205C
:100950004175746F74756E65206661696C6564219C
:100960002074696D656F7574005049442041757439
:100970006F74756E65206661696C656421205465CD
:100980006D706572617475726520746F2068696737
:100990006800204B643A2000204B693A2000204B2D
:1009A000703A200020436C6173736963205049449E
:1009B000002054753A2000204B753A2000206D61CC
:1009C000783A2000206D696E3A200020643A2000B9
:1009D00020626961733A2000504944204175746F68
:1009E00074756E652073746172740045313A004508
:1009F000303A005A3A00593A00583A004D53312CD7
:100A00004D53322050696E73004E6F2063617365E1
:100A1000206C6967687473004D617854656D703A35
:100A2000004469616D657465723A00416363656C89
:100A300065726174696F6E3A004D617853706565D7
:100A4000643A004A65726B3A004D617842656454BD
:100A5000656D703A005072696E7465725479706594
:100A60003A44656C7461005A54726176656C4163F6
:100A700063656C3A005954726176656C41636365D5
:100A80006C3A005854726176656C416363656C3AE8
:100A9000005A5072696E74416363656C3A00595034
:100AA00072696E74416363656C3A00585072696E86
:100AB00074416363656C3A005A53697A653A005928
:100AC00053697A653A005853697A653A005A4D611C
:100AD000783A00594D61783A00584D61783A005A99
:100AE0004D696E3A00594D696E3A00584D696E3A3B
:100AF000004A65726B58593A005072696E746C699D
:100B00006E6543616368653A00454550524F4D3A02
:100B1000004175746F6C6576656C3A005A50726F5F
:100B200062653A00436173654C69676874733A00A3
:100B3000537570706F72744C6F63616C46696C6151
:100B40006D656E746368616E67653A0053757070A9
:100B50006F72744731304731313A005A486F6D65D2
:100B60004469723A0059486F6D654469723A005899
:100B7000486F6D654469723A00536F6674776172AD
:100B800065506F7765725377697463683A004C43B8
:100B9000443A0046616E3A005344436172643A003D
:100BA0004865617465644265643A004D6978696EB0
:100BB0006745787472756465723A004E756D457854
:100BC0007472756465723A00496E70757442756628
:100BD0006665723A0042617564726174653A0043F9
:100BE0006F6E66696775726174696F6E2072657386
:100BF000657420746F2064656661756C74732E0073
:100C000053657474696E67206D6F746F72206375BD
:100C10007272656E742E2E2E00436F6E6669677554
:100C2000726174696F6E206C6F61646564206672B6
:100C30006F6D20454550524F4D2E00436F6E6669D3
:100C40006775726174696F6E2073746F726564206A
:100C5000746F20454550524F4D2E00536574204D02
:100C60006963726F7374657070696E67005472693E
:100C700067676572696E67207761746368646F6720
:100C80002E204966206163746976617465642C2046
:100C9000746865207072696E7465722077696C6C17
:100CA0002072657365742E0053657474696E6720D5
:100CB0005468726573686F6C6420546F3A00494ED3
:100CC000542050494E3A20004D32353120006C6995
:100CD0006E656172204C3A002C2073706565643D2E
:100CE00000206C696E6561722073746570733A00E0
:100CF0004A65726B3A0020746F2000536574207649
:100D00006F6C756D65747269632065787472757344
:100D1000696F6E20666F7220657874727564657293
:100D2000200044697361626C656420766F6C756D38
:100D3000657472696320657874727573696F6E206B
:100D4000666F7220657874727564657220007A5FD0
:100D50006D61783A004C2000482000795F6D617821
:100D60003A00785F6D61783A004D313134200046A9
:100D700049524D574152455F4E414D453A5265707B
:100D800065746965725F302E39322E3220464952C1
:100D90004D574152455F444154453A323031373026
:100DA000323038204D414348494E455F54595045F3
:100DB0003A526F73746F636B204D41582076332025
:100DC0004475616C200048656174696E67204265F6
:100DD000640048656174696E672045787472756453
:100DE00065720050696E2063616E206E6F742062C0
:100DF0006520736574206279204D34322C206D613A
:100E00007920696E20696E76616C6964206F72204A
:100E1000696E207573652E20002069732000496C6F
:100E20006C6567616C20532076616C756520666F18
:100E300072204D34320020746F2000536574206F8F
:100E400075747075743A20000000010025003000B0
:100E50001D000C001800240031001C000B001700BE
:100E600023002F001B000A001E000D00FFFF0900D9
:100E7000030022002B001A004100420021002A003A
:100E800019003F00400000000200350058202841B2
:100E90002920746F77657220666C6F6F722073659E
:100EA0007420746F3A2000592028422920746F77EB
:100EB000657220666C6F6F722073657420746F3A70
:100EC00020005A2028432920746F77657220666CB1
:100ED0006F6F722073657420746F3A20004731334E
:100EE000342000506F7346726F6D53746570733A9F
:100EF000002C00436F6D7044656C74613A00546F50
:100F000077657220333A00546F77657220323A0069
:100F1000546F77657220313A0043616C6962726187
:100F200074696F6E206D6F76656D656E7420697380
:100F3000206C696D6974656420746F2031306D6D4B
:100F40002E004669727374206D6F766520746F2071
:100F5000746F75636820617420782C793D302C3073
:100F600020746F206175746F2D73657420726164D5
:100F70006975732E0043616C6962726174696F6E8A
:100F8000206D6F76656D656E74206973206C696D78
:100F90006974656420746F2031306D6D2E0043617B
:100FA0006E6E6F742073657420726164697573204E
:100FB000616E6420666C6F6F722061742073616D66
:100FC000652074696D652E0043616C69627261749D
:100FD000696F6E20636F6465206973206C696D6949
:100FE00074656420746F20626F74746F6D2031308B
:100FF00025206F66205A206865696768740052650D
:101000006C617469766520706F736974696F6E695D
:101010006E67004162736F6C75746520706F7369E1
:1010200074696F6E696E670047363920005A3A203E
:1010300000593A2000583A20004F46465345545331
:10104000204F464620425920544F4F204D5543488B
:10105000205F20545259494E4720414741494E3A5A
:10106000200053657474696E672050726F6265204A
:1010700053656E736974697669747920546F3A00A8
:101080005A2070726F6265206661696C6564206FBA
:101090006E2073656E73697469766974793A20009D
:1010A00053657474696E672050726F626520536572
:1010B0006E736974697669747920546F3A005A20A6
:1010C00070726F6265206661696C6564206F6E2066
:1010D00073656E73697469766974793A2000536533
:1010E0007474696E672050726F62652053656E7309
:1010F0006974697669747920546F3A005A20707265
:101100006F6265206661696C6564206F6E2073652F
:101110006E73697469766974793A200068656865E8
:10112000004E6577205261646975733A20004F6CF8
:1011300064205261646975733A200043616C637581
:101140006C617465642052616469757320697320F1
:10115000626164203A0053657474696E672050724E
:101160006F62652053656E7369746976697479205E
:10117000546F3A005A2070726F6265206661696C24
:101180006564206F6E2073656E7369746976697427
:10119000793A200053657474696E672050726F62EB
:1011A000652053656E736974697669747920546F2C
:1011B0003A005A2070726F6265206661696C6564DE
:1011C000206F6E2073656E73697469766974793AFD
:1011D0002000473332200050524F42452D5A4F468F
:1011E000465345543A004733300053657474696E72
:1011F000672050726F62652053656E7369746976FB
:1012000069747920546F3A0050726F62657320647C
:101210006F206E6F74206D617463682E204F666658
:10122000206279200047333020004D313137204390
:10123000414C4942524154494F4E20434F4D504C2E
:101240004554450068656865004E657720486F72B3
:10125000697A6F6E74616C205261646975733A20AB
:10126000004F6C6420486F72697A6F6E74616C20F5
:101270005261646975733A200043616C63756C61F7
:1012800074656420526164697573206973206261BA
:10129000643A20005A2D70726F6265206176657223
:1012A000616765206865696768743A004D31313758
:1012B0002043414C4942524154494F4E20464149F6
:1012C0004C45440043616C6962726174696F6E20C1
:1012D0004661696C65640053657474696E6720507B
:1012E000726F62652053656E73697469766974798B
:1012F00020546F3A005A2070726F6265202843654F
:101300006E74657220506F696E7429206661696C15
:101310006564206F6E2073656E7369746976697495
:10132000793A20004E6577205A20486569676874CD
:101330003A004F6C64205A204865696768743A0027
:101340004D3131372043414C4942524154494F4E6F
:10135000204641494C45440043616C6962726174A6
:10136000696F6E204661696C6564005365747469C9
:101370006E672050726F62652053656E7369746981
:101380007669747920546F3A005A2070726F6265E2
:10139000202843656E74657220506F696E74292031
:1013A0006661696C6564206F6E2073656E73697425
:1013B00069766974793A200047363920005A3A2014
:1013C00000593A2000583A20004F4646534554539E
:1013D000204F464620425920544F4F204D554348F8
:1013E0002E2041626F7274696E6700526573657476
:1013F000205A20686569676874004D313137204391
:10140000414C4942524154494F4E204641494C4576
:10141000440043616C6962726174696F6E20466159
:10142000696C65640053657474696E672050726FEF
:1014300062652053656E73697469766974792054A6
:101440006F3A005A2070726F626520285A20546FDC
:1014500077657229206661696C6564206F6E207300
:10146000656E73697469766974793A20004D31311B
:10147000372043414C4942524154494F4E20464146
:10148000494C45440043616C6962726174696F6ED6
:10149000204661696C65640053657474696E6720E9
:1014A00050726F62652053656E73697469766974F2
:1014B0007920546F3A005A2070726F626520285963
:1014C00020546F77657229206661696C6564206FAE
:1014D0006E2073656E73697469766974793A200059
:1014E0004D3131372043414C4942524154494F4ECE
:1014F000204641494C45440043616C696272617405
:10150000696F6E204661696C656400536574746927
:101510006E672050726F62652053656E73697469DF
:101520007669747920546F3A005A2070726F626540
:1015300020285820546F77657229206661696C6590
:1015400064206F6E2073656E73697469766974794F
:101550003A2000473420533130004D31303420538D
:10156000300A4D3134302053300A4D313037006568
:1015700078656375746547436F6465202F207175C6
:1015800065756544656C74614D6F76652072657430
:1015900075726E73206572726F7200556E6B6E6F2E
:1015A000776E20636F6D6D616E643A004175746F84
:1015B000726574726163743A00526F6420526164A0
:1015C0006975732073657420746F3A2000616363DA
:1015D000656C65726F6D657465722077726974658C
:1015E00020693263206572726F722E0061636365D9
:1015F0006C65726F6D657465722073656E642069C9
:101600003263206572726F722E002076616C756590
:101610003A2000726561642072656720006163632F
:10162000656C65726F6D65746572206932632072D6
:10163000656376206572726F722E00696973326419
:101640006820616363656C65726F6D657465722097
:10165000696E697469616C697A696E672E2E2E00F5
:101660004D54454D503A00206465672E20430020BC
:101670006D6561737572656420004572726F723AB0
:10168000436F756C64206E6F7420686F6C64207497
:10169000656D70657261747572652000206D7300F0
:1016A00020616674657220004572726F723A5465EB
:1016B0006D702E2072616973656420746F20736C85
:1016C0006F772E2052697365203D20004F6E652094
:1016D000686561746572207365656D732064656308
:1016E0006F75706C65642066726F6D2074686572CA
:1016F0006D6973746F72202D2064697361626C6907
:101700006E6720616C6C20666F7220736166657411
:10171000792100486561746572206465636F757036
:101720006C65640020453A00205A3A0020400020B1
:10173000540020403A002042403A002052415700D5
:1017400020423A00202F00543A0053706565644DE2
:10175000756C7469706C793A00466C6F774D756C76
:101760007469706C793A0046616E73706565643AAD
:1017700000206D696E0020686F7572732000206410
:1017800061797320005072696E74696E67207469A4
:101790006D653A006D20005072696E746564206654
:1017A000696C616D656E743A00482E2052616469FF
:1017B00075733A008025000040380000004B00009F
:1017C0008070000000960000C0DA000000E1000018
:1017D000002C010008B2010000C2010000F4010069
:1017E0000084030090D0030000E803000008070015
:1017F00020A1070000100E0040420F0060E3160019
:101800000000000055495F414354494F4E5F5A5014
:101810004F534954494F4E5F464153545F4E4F54C6
:10182000455354200055495F414354494F4E5F5A38
:10183000504F534954494F4E5F4E4F5445535420D7
:101840000055495F414354494F4E5F45504F5349FE
:1018500054494F4E200055495F414354494F4E5F14
:101860005A504F534954494F4E5F464153542000FC
:1018700055495F414354494F4E5F59504F53495466
:10188000494F4E5F46415354200055495F414354F0
:10189000494F4E5F58504F534954494F4E5F464150
:1018A0005354200055495F414354494F4E5F5A50AD
:1018B0004F534954494F4E200055495F41435449C5
:1018C0004F4E5F59504F534954494F4E2000554990
:1018D0005F414354494F4E5F58504F534954494F0D
:1018E0004E2000110A0411040A1111001C1F1111CD
:1018F0001F0000040A0A0A0E1F1F0E001F111111FB
:101900001F0000001F1F1F1F1F0000040A0400000B
:10191000000000040E15041C000000526570657480
:10192000696572207620302E39322E3200465720DB
:101930004461746520323031373032303800526FB4
:1019400073746F636B4D41587633005365654D6515
:10195000434E4300526F73746F636B204D415820A8
:101960007633204475616C00536F667477617265DD
:10197000205265736574005761746368646F6720F3
:1019800052657365740042726F776E206F757420B4
:1019900052657365740045787465726E616C20528F
:1019A0006573657400506F776572557000000002B2
:1019B000467265652052414D3A005072696E7465F9
:1019C000723A3A73657475702000737461727400B2
:1019D0006572726F722077726974696E6720746FB6
:1019E0002066696C6500504944204175746F7475B8
:1019F0006E652066696E6973686564202120506C8D
:101A000061636520746865204B702C204B692061F0
:101A10006E64204B6420636F6E7374616E74732008
:101A2000696E2074686520436F6E666967757261C0
:101A300074696F6E2E68206F7220454550524F4D6D
:101A400000446F6E6520736176696E672066696C0D
:101A5000652E0057726974696E6720746F2066691D
:101A60006C653A200055706C6F6164696E672E2E4C
:101A70002E006F70656E206661696C65642C20466F
:101A8000696C653A200044656C6574696F6E206608
:101A900061696C65640046696C652064656C657499
:101AA000656400436F6E6669673A00534420696E4F
:101AB0006974206661696C0057726F6E6720636895
:101AC00065636B73756D00255566206D00546F74EA
:101AD000616C2046696C616D656E74205573656438
:101AE0000025557400546F74616C205072696E74D7
:101AF000696E672054696D6500526F73746F636B14
:101B0000204D4158207633204475616C0050726935
:101B10006E746572204D6F64656C00465720446199
:101B200074653A2032303137303230380046572031
:101B300056657273696F6E3A20302E39322E32003C
:101B4000256F73005A3A257832206D6D00593A2579
:101B50007831206D6D00583A257830206D6D002564
:101B60006F730053706565643A256F6D25252520D8
:101B7000466C6F773A256F66252525004245443A25
:101B8000256562205461726765743A254562004E8E
:101B90004F5A3A256563205461726765743A25454A
:101BA0006300C71A0000000000CD1A00000000000A
:101BB000E11A0000000000E51A0000000000F91A18
:101BC00000000000000D1B00000000001B1B0000B7
:101BD0000000002D1B0000000000401B0000000062
:101BE00000441B00000000004D1B000000000056D8
:101BF0001B00000000005F1B0000000000631B00D2
:101C0000000000007C1B00000000008F1B00000093
:101C10000000B71BB01BA91BA21BD31BCC1BC51BF1
:101C2000BE1BEF1BE81BE11BDA1B0B1C041CFD1B7E
:101C3000F61B0000000400121C00000004001A1C27
:101C40000000000400221C00000004002A1C473988
:101C5000310A4731452D31383046363030300A4769
:101C60003930004D313137204578747275646572B2
:101C700020310A54310A4D38342050340A47393162
:101C80000A47314531373246363030300A47314520
:101C900035463530300A473930004739310A473147
:101CA000452D31383046363030300A473930004D16
:101CB00031313720457874727564657220300A546A
:101CC000300A4D38342050340A4739310A473145FB
:101CD00031373246363030300A47314535463530B7
:101CE000300A47393000471C401C391C321C426105
:101CF0006E6742616E6700536C6F7742616E67007A
:101D0000446561642054696D6500504944000400D5
:101D10000300003A00206461797320004E2F4100D7
:101D200050657263656E74205072696E7465643AB2
:101D3000002064656620004E6F00596573004F6691
:101D400066004F6E00432068697420666C6F6F7286
:101D50000043706F73207820737175617265200085
:101D600043706F7320782073746570732000437024
:101D70006F73207920737175617265200043706FF5
:101D80007320792073746570732000422068697431
:101D900020666C6F6F720042706F732078207371D1
:101DA00075617265200042706F73207820737465CE
:101DB0007073200042706F732079207371756172A7
:101DC00065200042706F73207920737465707320F2
:101DD00000412068697420666C6F6F720041706FFB
:101DE00073207820737175617265200041706F7384
:101DF0002078207374657073200041706F732079B0
:101E000020737175617265200041706F73207920B5
:101E1000737465707320000000420FA1071605D08F
:101E2000030D038B022E02E801B201860163014516
:101E3000012C0117010401F4000000000000000063
:101E400000000000000000000024F403D950C38EFD
:101E5000B1C2A23D96828B3582127AE372816CCB3D
:101E600066A861015DC758EB546151204E1E4B5668
:101E700048C14559431A41013F093D2F3B7139CDB6
:101E8000374036C93465331432D430A32F802E6BDB
:101E90002D632C672B752A8E29B028DC2710274B41
:101EA000268F25D9242B248223E0224322AC211A19
:101EB000218D200420801F001F841E0C1E971D26CC
:101EC0001DB81C4E1CE61B821B201BC11A641A0A7B
:101ED0001AB2195D190A19B9186A181C18D117888D
:101EE000174017FA16B51673163116F115B3157695
:101EF000153A150015C7148F1458142214EE13BA8E
:101F000013881356132513F612C71299126C124038
:101F1000121512EB11C1119811701148112111FB0A
:101F200010D610B1108D106910461024100210E167
:101F30000FC00FA00F800F610F420F230F060FE895
:101F40000ECB0EAF0E930E770E5C0E410E270E0DCC
:101F50000EF30DDA0DC10DA80D900D780D600D4931
:101F60000D320D1B0D050DEF0CD90CC30CAE0C99E9
:101F70000C850C700C5C0C480C350C210C0E0CFB09
:101F80000BE80BD60BC40BB20BA00B8E0B7D0B6BAF
:101F90000B5A0B4A0B390B290B180B080BF80AE9E3
:101FA0000AD90ACA0ABB0AAC0A9D0A8E0A800A71BB
:101FB0000A630A550A470A390A2C0A1E0A110A043A
:101FC0000AF709EA09DD09D009C409B709AB099F75
:101FD00009920987097B096F09630958094C09416E
:101FE0000936092B09200915090A090009F508EB2A
:101FF00008E008D608CC08C208B808AE08A4089AB9
:1020000008900887087D0874086B08610858084F15
:102010000846083D0834082C0823081A0812080945
:10202000080108F807F007E807E007D807D007C855
:1020300007C007B807B007A807A107526F73746FEE
:10204000636B4D415820526561647900526F73741F
:102050006F636B4D415820526561647900526F7314
:10206000746F636B4D415820526561647900424C36
:102070004B20005B735D20303D4F66660044697302
:102080002E2041667465723A256970005B735D208D
:10209000303D4F6666004469732E20416674657258
:1020A0003A25697300732000000000007D200000C5
:1020B0000000008C200000000000962000000000BE
:1020C00000AC20A520BA20B320426567696E20438A
:1020D000616C6962726174696F6E004245442041AF
:1020E000524520434C45414E004D414B45205355F0
:1020F0005245204E4F5A5A4C4520260044727920B2
:1021000072756E3A256464004572726F7273203A7C
:1021100025646500496E666F2020203A25646900B9
:102120004563686F2020203A25646F0050494420A1
:102130004D61783A255844004472697665204D61B6
:10214000783A25584D004472697665204D696E3A9B
:1021500025586D0050494420443A255864005049A0
:102160004420493A2558690044542F50494420508E
:102170003A25587000436F6E74726F6C3A25586838
:1021800000416476616E6365206C696E3A25586C17
:1021900000576169742054656D702E2558540243B0
:1021A000005761697420556E6974733A2558556DEE
:1021B0006D00537461622E54696D653A255877003D
:1021C000416363656C3A255841004D617820465261
:1021D0003A2558460053746172742046523A255885
:1021E000660053746570732F4D4D3A255365005941
:1021F0002D4F66667365743A25587900582D4F66E1
:10220000667365743A25587800486F6D653A25669F
:102210005A004D61783A25667A004A65726B3A2514
:10222000616A004D6F76653A25615A005072696E99
:10223000743A25617A000358040200C1204D617888
:102240002E20496E616374697665000320040200E4
:10225000C5205374657070657220496E616374693E
:1022600076650042617564726174653A256F63003A
:10227000C92003B10F0000DB2003B50F0000E920E7
:1022800003B40F0000FC20033504000008210334D0
:102290000400001421033304000020210332040051
:1022A000002C21042F0400003821042604000046DD
:1022B000210425040000542104240400005E2104AC
:1022C00023040000682104220400007521042D0469
:1022D0000000812104460400009121044C04000008
:1022E000A121044D040000B221042E040000C021ED
:1022F000042A040000CA21042B040000D521042C68
:10230000040000E2210429040000EF210428040055
:1023100000FC210427040000092204130400001219
:102320002204160400001A22040E040000232204D2
:102330000D0400002C22040A0400003D2202362273
:1023400000005222024B220000632204100400000D
:10235000A32A7E2277227022A32A9A2293228C22F9
:102360008522A32A7D29762911230A230323FC220F
:10237000F522EE22E722E022D922D222CB22C42269
:10238000BD22B622AF22A822A122A32A1F231823EE
:10239000A32A34232D232623A32A492342233B2384
:1023A000536574205A204F726967696E00482E2069
:1023B000526164697573203A256F68000200000459
:1023C00000502346756C6C2043616C6962726174C5
:1023D000696F6E004C6F61642066726F6D204545B9
:1023E00050524F4D0053746F726520746F204545F5
:1023F00050524F4D0002000005005823446562759D
:102400006767696E670002000014006223457874F4
:1024100072756465720002000003008A23466565D8
:1024200064726174650002000004009023416363DC
:10243000656C65726174696F6E000200000400983B
:102440002347656E6572616C005365742046616E4A
:1024500020313030252525005365742046616E20DB
:102460003735252525005365742046616E203530AB
:10247000252525005365742046616E2032352525BB
:1024800025005475726E2046616E204F66660046C8
:10249000616E2073706565643A25467325252500B5
:1024A000255566206D207072696E74656400204544
:1024B0003A2565632F25456302437E256F4300312E
:1024C00020636C69636B203D2031206D6D00453ABF
:1024D000257833206D6D00596573004E6F0053747D
:1024E0006F70205072696E7400A02303AC0F00005F
:1024F000AD230421040000C32302BC230000D42325
:102500000307040000E5230306040000FC2302F592
:102510002300000D2402062400001D2402162400BE
:10252000002D2402262400004124023A2400004900
:1025300024031E0400005824031D04000066240325
:102540001C0400007424031B0400008224031A04EA
:1025500008008F240452040000A0240000000000A2
:10256000AE240000000000BF240000000000CE24C4
:102570000000000000D7240354240200DB2403E8F9
:10258000030000DE240100000000A32AF724F02449
:10259000AE295A29E924A32A282521251A251325FD
:1025A0000C250525FE242229A32A52254B25442546
:1025B0003D2536252F25A32AD129CA29C329BC297F
:1025C000B529AE29A0296E256725602559258325C3
:1025D0007C25752502000006008A2543616C69622E
:1025E000726174696F6E204D656E75005072696E10
:1025F0007465722053657474696E6773000200001D
:1026000009009625416476616E63656420536574A4
:1026100074696E67730053442043617264204D6592
:102620006E75000200000700A82541646A75737486
:102630002046616E2073706565640041646A75733D
:10264000742054656D7073000200000900B62550B7
:1026500072696E7465722053657474696E67730075
:1026600003F0030400C625457874722E20706F7342
:102670006974696F6E005A20506F736974696F6E68
:10268000005920506F736974696F6E005820506F45
:10269000736974696F6E004245442054656D703AE9
:1026A00020202545620243002558312053656C6582
:1026B000637420457874722E2031002558302053E1
:1026C000656C65637420457874722E2030004578FF
:1026D0007472756465722031204F666600536875A8
:1026E0007420446F776E204E6F7A7A6C6500546563
:1026F0006D702E2031203A202025453102430054B0
:10270000656D702E2030203A202025453002430090
:1027100044697361626C652053746570706572738F
:1027200000556E6C6F636B2046756C6C204D656E4A
:102730007500486F6D65205072696E746572005344
:10274000687574204F666620414C4C204865617462
:102750007300507265686561742041425300507285
:10276000656865617420504C4100466C6F7720208D
:10277000526174653A256F6625252500537065659D
:102780006420526174653A256F6D25252500004D42
:10279000617820656E6473746F703A25735A004DCA
:1027A000696E20656E6473746F703A25737A005A8F
:1027B0003A257832206D6D00004D617820656E6499
:1027C00073746F703A257359004D696E20656E649D
:1027D00073746F703A25737900593A257831206DFA
:1027E0006D00004D617820656E6473746F703A25DA
:1027F0007358004D696E20656E6473746F703A256E
:10280000737800583A257830206D6D00004D61785E
:1028100020656E6473746F703A25735A004D696E4B
:1028200020656E6473746F703A25737A005A3A2586
:102830007832206D6D00004D617820656E64737490
:102840006F703A257359004D696E20656E6473741C
:102850006F703A25737900593A257831206D6D00F3
:10286000004D617820656E6473746F703A257358FB
:10287000004D696E20656E6473746F703A257378CD
:1028800000583A257830206D6D0044656C6574659C
:102890002066696C65000200000300CE2553746F4A
:1028A00070205072696E7400436F6E74696E756546
:1028B000205072696E7400506175736520507269A2
:1028C0006E740053656C6563742053442046696CD4
:1028D000650050726576696F757320536372656524
:1028E0006E2001006C6F6164656420662E20454592
:1028F00050524F4D00436F6E66696775726174691F
:102900006F6E0073746F72656420696E2045455068
:10291000524F4D00436F6E66696775726174696FDF
:102920006E00DB2502D4250000EC2502252C0000DA
:10293000042602FD250000162602562C00002A2639
:1029400002232600003B26021E2C00004F260248D0
:1029500026000067260260260000762602412C0031
:1029600000812602482C00008C26024F2C00009784
:1029700026043C040000A8260301040000BB260333
:1029800045040000CE26033B040000DD26033A0484
:102990000000EE26043E040000FF26043D04000073
:1029A00010270342040010212703B20F0000322732
:1029B00003FD0300003F27033804000052270347AC
:1029C0000400005E2703370400006A27044804005F
:1029D000007C27041F0400008E2700000000008FE9
:1029E0002700000000009F270000000000AF270024
:1029F00000000000B8270000000000B92700000018
:102A00000000C9270000000000D9270000000000D6
:102A1000E2270000000000E3270000000000F32789
:102A20000000000000032800000000000C28000047
:102A30000000000D2800000000001D28000000001C
:102A4000002D28000000000036280000000000379C
:102A50002800000000004728000000000057280060
:102A60000000000060280000000000612800000055
:102A70000000712800000000008128000000000014
:102A80008A2803F40301029D280296280200A82840
:102A900003F7030400B72803F6030204C32803F571
:102AA000030102D22803E8030000E428000000002C
:102AB00000F52800000000000329000000000014B9
:102AC000290000000000A32A29299C2A45293E2923
:102AD0002229A32A4C299C2A45293E293729302915
:102AE000A32AAE29682961295A295329A32A992999
:102AF00092298B2984297D2976296F29A32AD12916
:102B0000CA29C329BC29B529AE29A729A029ED299D
:102B1000E629DF29D829092A022AFB29F429252AAE
:102B20001E2A172A102A412A3A2A332A2C2A5D2AD9
:102B3000562A4F2A482A792A722A6B2A642AA32AFB
:102B40009C2A952A8E2A872A802AA32AB12AAA2A71
:102B5000BF2AB82A4739312F6E4731205A2D3130DC
:102B60002E302045352E312046313530302F6E47FE
:102B700039302F6E004739312F6E4731205A3130AE
:102B80002E3020452D352E302046313530302F6EF9
:102B90004739302F6E000200000600C62A020000EE
:102BA0000700D22A5265717565737450617573653B
:102BB0003A004D31313720494E5345525420534449
:102BC0002043415244004D3131372053442043418A
:102BD0005244204552524F520055495F4143544997
:102BE0004F4E5F5345545F4D454153555245445FE9
:102BF0004F524947494E2000454550524F4D207590
:102C0000706461746564005072696E7465722068E6
:102C100065696768743A000200000600E02A020055
:102C2000000800EC2A0200000900FC2A03FC03044F
:102C3000000E2B03FB030400162B03FA0304001EF3
:102C40002B03EF030400262B03EE0304002E2B03BB
:102C5000ED030400362B02000006003E2B4E6F20D1
:102C6000534420436172640001000001004A2B03B9
:102C7000102702004C2B0310270200502B536875BD
:102C800074204F666620414C4C2048656174730087
:102C900050726568656174204142530050726568E6
:102CA00065617420504C410055495F414354494F80
:102CB0004E5F484F4D455F5A200055495F41435490
:102CC000494F4E5F484F4D455F59200055495F4180
:102CD0004354494F4E5F484F4D455F58200055497A
:102CE0005F414354494F4E5F484F4D45414C4C2046
:102CF00000416374696F6E3A256C61005344206330
:102D000061726420696E7365727465640053442057
:102D10004361726420696E73657274656400534424
:102D200020436172642072656D6F76656400534460
:102D300020636172642072656D6F76656400686FF0
:102D40006D65417869732000686F6D6541786973BE
:102D5000202F20717565756544656C74614D6F76C3
:102D6000652072657475726E73206572726F720081
:102D7000486F6D652044656C7461004175746F6CBB
:102D80006576656C696E672064697361626C656401
:102D9000004175746F6C6576656C696E6720656E51
:102DA00061626C6564004175746F6C6576656C205A
:102DB0006D6174726978207265736574006973500F
:102DC0006F736974696F6E416C6C6F776564200016
:102DD0007C3C3E5E2B3D3F2F5B5D3B2C2A225C0002
:102DE0004563686F3A00446F6E65207072696E7457
:102DF000696E672066696C65005344206572726F66
:102E000072206669786564005344206572726F723F
:102E100020646964206E6F74207265636F766572DA
:102E2000210053442052656164204572726F720024
:102E300053442072656164206572726F720077611D
:102E4000697400466F726D6174206572726F7200F2
:102E5000205200204A00204900205000205300202A
:102E60004600204500205A002059002058006D6F70
:102E7000766552656C617469766544697374616ED8
:102E80006365496E5374657073202F207175657585
:102E90006544656C74614D6F7665207265747572FA
:102EA0006E73206572726F72000400081D900058E6
:102EB000091C01B007A801C80634023006C002C0D0
:102EC000054C036805D80318056404D004F0049881
:102ED000047C05600408063004940600042007D032
:102EE00003AC07A80338088003C40858035009300E
:102EF00003DC090803680AD802F40AB002800B88D0
:102F0000020C0C6002980C3002240DF801B00DC0C8
:102F1000013C0E8001C80E3001540FB800B40F28D8
:102F200000E00F00000400401D900060091C01B08B
:102F300007A801D00634023806C002C8054C036851
:102F400005D80318056404D804F00498047C0560CF
:102F50000408063004940600042007D003AC07A838
:102F60000338088003C408580350093003DC0908FB
:102F700003680AE002F40AB802800B88020C0C60B5
:102F800002980C3002240DF801B00DC0013C0E80F7
:102F900001C80E3001540FB800B40F2800E00F0034
:102FA0000004000016D800C006AC0178058002C0FD
:102FB00004540348042804E803FC049803D0055093
:102FC00003A40618037807D8024C08A80220097049
:102FD00002F4093802C80A08029C0BD001700C9058
:102FE00001440D5001180EF800EC0E8800C00F00CF
:102FF000000400681D4C00500B94005809DC005080
:10300000082401A8076C012807B401C006FC017060
:1030100006440228068C02F005D402B8051C038879
:103020000564035805AC033005F40310053C04E8BF
:10303000048404C804CC04A804140590045C05703E
:1030400004A4055804EC053804340620047C060862
:1030500004C406F0030C07D8035407C8039C07B048
:1030600003E40798032C08800374087003BC085815
:1030700003040948034C09300394091803DC0908C8
:1030800003240AF0026C0AE002B40AC802FC0AB087
:1030900002440BA0028C0B8802D40B70021C0C584B
:1030A00002640C4002AC0C2802F40C10023C0DF03F
:1030B00001840DD801CC0DB801140E98015C0E707E
:1030C00001A40E4801EC0E1801340FD8007C0F88C3
:1030D00000C40F0800FC0F0000000000000000000A
:1030E00000000000000000000000000000000000E0
:1030F0000000000000000000000000000000004090
:103100001F450060094F0010095C00C0086B00708B
:10311000087D0020089200D007AC008007CC00306A
:1031200007DE00E006230190065E014006A601F0DE
:1031300005FF01A0056D025005F30200059603B0DE
:10314000045A046004400510044806C0036E07706A
:1031500003A8082003EB09D002230B8002410C30A6
:1031600002390DE001040E9001A20E4001170FF08C
:1031700000690FA000A20F5000C60F0000DD0FB0C5
:10318000FFEB0F60FF0400700DD8004804AC01583D
:10319000038002D8025403800228043802FC040091
:1031A00002D005C801A4069801780770014C0848B0
:1031B0000120091801F409F000C80AC8009C0BA0FE
:1031C00000700C7000440D3800180E0000EC0EA8C2
:1031D000FFC00FE8FE0400001B54006009640010EB
:1031E000097400C008840070089C002008B800D052
:1031F00007D8008007000130072C01E00668019025
:1032000006AC0140060002F0056802A005E002508D
:1032100005740300052404B004F0046004DC051008
:1032200004E406C0030408700330092003780B800F
:1032300002600DE001A80E4001680FA000C00F0061
:1032400000E80F60FF0400801AD8009808AC012045
:1032500007800250065403C80528045805FC0400E2
:1032600005D005B004A4066804780728044C08E8D3
:10327000032009B003F4097003C80A38039C0BF853
:1032800002700CB002440D6802180E0802EC0E88A1
:1032900001C00F8800F00F00000000A00F5C00606C
:1032A00009690010097900C0088C007008A200208C
:1032B00008BD00D007DE008007050130073401E0BB
:1032C000066D019006B20140060702F0056D02A0EE
:1032D00005E80250057B0300052B04B004F80460E8
:1032E00004EB06C003350920037F0B8002650DE067
:1032F00001B00E40011D0FF000480FC8006C0FA078
:1033000000ED0F60FFFE0F48FE457874722E0045F9
:1033100050523A3320004550523A32200045505224
:103320003A3120004550523A3020003A0054617240
:10333000676574457874720054617267657442659C
:10334000643A0099324532D53185310000000000E1
:1033500000FD30F12FA12F252FA92E1C151C1400C4
:1033600000002243141F1F5072696E74657220732F
:10337000657420696E746F206472792072756E2096
:103380006D6F646520756E74696C2072657374610D
:10339000727421003A20776F726B696E67003A2071
:1033A00074656D702073656E736F722064656665F9
:1033B0006374006578747275646572200068656175
:1033C0007465642062656400000000000000000075
:1033D000000000FF000001004B696C6C6564005345
:1033E0007465707065722044697361626C65640015
:1033F0006D6F7665546F5265616C202F2071756515
:10340000756544656C74614D6F7665207265747581
:10341000726E73206572726F7200494E46004E41A3
:103420004E0050726F746F636F6C207665727369B3
:103430006F6E206368616E6765642C2075706772BB
:103440006164696E67005472616E73666F726D615C
:1034500074696F6E206D61747269783A00000021A2
:1034600000240027002A002D003000330001010055
:1034700000040107010A0100002200250028002B9A
:10348000002E003100340002010000050108010B8C
:1034900001000020002300260029002C002F00320C
:1034A00000000100000301060109010505050507EB
:1034B0000508080808020202020A0A0808040404AF
:1034C00004010101010101010103030303030303DB
:1034D00003040707070C0C0C0C0C0C0C0C0202026A
:1034E0000206060606060606060B0B0B0B0B0B0B5D
:1034F0000B010210202008081020401020408002FC
:103500000102010804020101020408102040808029
:1035100040201008040201800402018040201008AD
:103520000402010804020101020408102040800185
:103530000204081020408000000A0B02090C0D0E46
:103540000807030401000000000000000000000064
:10355000000000000000000000000000000000006B
:103560000000001211100000000000000000000028
:103570000000000000000000000000000002000049
:10358000003FCDCC4C3D0AD7A33B6F12033A00005D
:103590002110422063308440A550C660E770088146
:1035A00029914AA16BB18CC1ADD1CEE1EFF13112BD
:1035B000100273325222B5529442F772D662399396
:1035C00018837BB35AA3BDD39CC3FFF3DEE362240D
:1035D000433420040114E664C774A44485546AA5E6
:1035E0004BB528850995EEE5CFF5ACC58DD553369D
:1035F000722611163006D776F6669556B4465BB736
:103600007AA719973887DFF7FEE79DD7BCC7C4486C
:10361000E5588668A7784008611802282338CCC985
:10362000EDD98EE9AFF9488969990AA92BB9F55AFC
:10363000D44AB77A966A711A500A333A122AFDDBD5
:10364000DCCBBFFB9EEB799B588B3BBB1AABA66CCC
:10365000877CE44CC55C222C033C600C411CAEED25
:103660008FFDECCDCDDD2AAD0BBD688D499D977EDC
:10367000B66ED55EF44E133E322E511E700E9FFF75
:10368000BEEFDDDFFCCF1BBF3AAF599F788F88912B
:10369000A981CAB1EBA10CD12DC14EF16FE180100F
:1036A000A100C230E3200450254046706760B98312
:1036B0009893FBA3DAB33DC31CD37FE35EF3B1025F
:1036C0009012F322D2323542145277625672EAB522
:1036D000CBA5A89589856EF54FE52CD50DC5E234AF
:1036E000C324A01481046674476424540544DBA7F2
:1036F000FAB79987B8975FE77EF71DC73CD7D326FF
:10370000F2369106B01657667676154634564CD981
:103710006DC90EF92FE9C899E9898AB9ABA944584E
:10372000654806782768C018E1088238A3287DCB51
:103730005CDB3FEB1EFBF98BD89BBBAB9ABB754A9E
:10374000545A376A167AF10AD01AB32A923A2EFDE1
:103750000FED6CDD4DCDAABD8BADE89DC98D267CEE
:10376000076C645C454CA23C832CE01CC10C1FEF31
:103770003EFF5DCF7CDF9BAFBABFD98FF89F176E3E
:10378000367E554E745E932EB23ED10EF01E004032
:103790001454526573656E643A0020676F7420009C
:1037A0004572726F723A6578706563746564206CF7
:1037B000696E652000736B697020006F6B00576144
:1037C000726E696E673A00207A3A0020793A0020DA
:1037D000783A00496E76616C69642064656C746146
:1037E00020636F6F7264696E617465202D206D6F48
:1037F00076652069676E6F726564004E6F206D6F2D
:10380000766520696E2064656C7461207365676DF0
:10381000656E742077697468203E20312073656777
:103820006D656E742E20546869732073686F756CB3
:1038300064206E657665722068617070656E2061C7
:103840006E64206D617920636175736520612070FD
:10385000726F626C656D2100696E207175657565AA
:1038600044656C74614D6F766520746F2063616C84
:1038700063756C61746544656C74615375625365FE
:10388000676D656E74732072657475726E732065F2
:1038900072726F722E006D6F7665546F202F2071DB
:1038A0007565756544656C74614D6F7665207265EC
:1038B0007475726E73206572726F7200004D3131D3
:1038C00034200020593A0020583A00205374657083
:1038D00020566172696174696F6E2066726F6D2027
:1038E00050726F626520746F206265642044697352
:1038F00074616E63653A005A2D70726F62653A00AA
:103900005A2D70726F6265206661696C6564007A19
:1039100070726F62696E672E2E2E0064656C61791D
:10392000203130306D732E005A2D70726F62652019
:1039300073746174653A004732382F6E47315A32DA
:10394000352F6E00005344207072696E74207374BA
:103950006F7070656420627920757365722E002027
:10396000002F0046696C652073656C65637465643F
:10397000002053697A653A0046696C65206F70656E
:103980006E65643A0066696C652E6F70656E2066C0
:1039900061696C656400496E666F3A004572726FCA
:1039A000723A004E414E494E495459494E46CDCC8B
:1039B000CC3D0AD7233C17B7D13877CC2B3295951D
:1039C000E6241FB14F0A000020410000C842004019
:1039D0001C4620BCBE4CCA1B0E5AAEC59D74760157
:1039E00011241FBECFEFD1E2DEBFCDBF00E00CBF80
:1039F00014E0A0E0B2E0ECE9F6E102E00BBF02C0A7
:103A000007900D92AA31B107D9F72FE1AAE1B4E0EE
:103A100001C01D92A731B207E1F71CE1C0EFDCE164
:103A200000E006C021970109802FFE010F9490024B
:103A3000CF3ED10780E00807A9F70E946FFC0D94E4
:103A40004C0B0C9400002F923F924F925F926F921A
:103A50007F928F929F92AF92BF92CF92DF92EF921E
:103A6000FF920F931F93CF93DF93CDB7DEB7CA5862
:103A7000D1090FB6F894DEBF0FBECDBF8C01DC01BB
:103A800016968D919C9117978C38910509F4C5C5B0
:103A900008F09FC08235910509F405C408F04BC0B9
:103AA0008A31910509F40DC240F58531910509F47B
:103AB000D4C1A0F48231910509F496C184319105F5
:103AC00009F49AC1419711F00C94B7350E943C5DFE
:103AD0000E943A5D0E94385D0C949D3987319105B2
:103AE00009F4C5C108F4BFC18831910509F4D5C1F5
:103AF000499709F4D6C10C94B7358E31910509F474
:103B000037C240F48C31910509F422C208F4F8C19F
:103B10000C949D398A32910509F487C228F4809764
:103B200009F43BC20C94B7358035910510F00C9424
:103B30009D390C94B7358B36910509F4FDC630F5E7
:103B40008C35910509F43DC460F48435910509F480
:103B5000B3C308F4ACC38535910509F40EC40C94C5
:103B6000B7358836910509F4CAC430F48336910517
:103B700009F473C40C94B7358936910509F487C5E7
:103B80008A36910509F4C7C60C94B7358337910579
:103B900009F417C770F48F36910509F4D9C6823736
:103BA000910509F416C78D36910511F00C94B735BF
:103BB0007BC58537910509F412C708F457C68737C6
:103BC000910509F434C78837910509F461C70C944D
:103BD000B7358530B1E09B0711F40C94392A08F011
:103BE0007EC08F3C910511F40C94442928F58A3C41
:103BF000910509F4FCC760F4883C910509F459C7A4
:103C000008F0B0C78E3B910509F480C50C94B73518
:103C10008C3C910511F40C94552610F40C94392623
:103C20008D3C910511F40C94A6268E3C910511F45F
:103C30000C9402290C94B7358F3D910511F40C9426
:103C4000B72988F48C3D910511F40C9490298D3D91
:103C5000910511F40C94A229813D910511F00C9469
:103C6000B7350C947829893E910511F40C94CF292D
:103C700040F5883E910511F00C94B73560912E0700
:103C800070912F0781EE9CE00E9416D940912A077F
:103C900050912B0760912C0770912D0722E088ED41
:103CA0009CE00E94A2D810922F0710922E0710922B
:103CB0002A0710922B0710922C0710922D070C94B4
:103CC0009D398B3F910511F40C94F2298430914079
:103CD00011F00C94B7350E94175C0C949D398E3509
:103CE00021E0920711F40C942430C0F58E3241E0AB
:103CF000940711F40C940D2D98F48931A1E09A07E2
:103D000011F40C94672A8C32B1E09B0711F40C94E7
:103D1000772A8630914011F00C94B7350C94452ADF
:103D20008034F1E09F0711F40C94F12F38F48F32B6
:103D3000914011F40C94342D0C94B735813441E04A
:103D4000940711F40C94F52F8234914011F00C94E7
:103D5000B73580E00E9436AB0C940E308239A1E07A
:103D60009A0711F40C940A33E8F48836E1E09E07D0
:103D700011F40C94EF3038F48336914011F40C9424
:103D8000E2300C94B735803931E0930711F40C948C
:103D900007338139914011F00C94B7350E9436B346
:103DA0000C949D39853F51E0950711F40C943D33F7
:103DB00070F4843F914011F00C94B73580E00E947C
:103DC0007CD08BE39CE00E9436FC0C949D39863FAE
:103DD000E1E09E0711F40C944B338C38934011F4BE
:103DE0000C948F350C94B7350E94425D0E94405D63
:103DF0000E943E5D0C949D391E8E19A28EEF92E0BA
:103E00000E9421D960E08EEB99E00E94D9A763EC73
:103E100079E0CE014E960E944CE419821C82CE01BC
:103E20004E960E94F6A71092D81E88ED9EE19AAF9A
:103E300089AF8DE1FE017E96DE01119601900D9213
:103E40008A95E1F760E0CE0101960E94E2FA80EFE8
:103E500092E00E9421D90C949D391092270A0E9469
:103E6000DF770C949D390E94D7780C949D39D80146
:103E70008D919C9197FD02C00C949D3960E08EEB72
:103E800099E00E94D9A7F801EE5AFF4F60E08081C7
:103E900091810E9461FA0C949D390E940D7C0C94D2
:103EA0009D398091280A882311F40C949D3982E071
:103EB0008093270A8091C60584608093C6050C9480
:103EC0009D39F8018081918192FD02C00C949D3949
:103ED000468D578D60A171A18091280A882311F425
:103EE0000C949D3940931F0A5093200A6093210A35
:103EF0007093220A8EEF99E00E94D0DE0C949D39D7
:103F00008091280A8823F1F0C0901F0AD090200ADF
:103F1000E090210AF090220A8EE093E00E947ED386
:103F2000C701B6010E9419D340911B0A50911C0A87
:103F300060911D0A70911E0A81E699E30E94BDD826
:103F40000C949D3980E293E00E9421D90C949D3914
:103F5000D8018D919C9197FD02C00C949D39F80178
:103F6000EE5AFF4F808191810E940B7A0C949D390B
:103F7000F8018081918197FD02C00C949D3960E029
:103F80008EEB99E00E94D9A7F801EE5AFF4F80818D
:103F900091810E9496790C949D39D8018D919C91C4
:103FA00097FD02C00C949D3960E08EEB99E00E9471
:103FB000D9A7F801EE5AFF4FC080D1808091280A1E
:103FC000882311F40C949D391092270A8EEF99E002
:103FD0000E94CBA61E8E19A219821C82EE24E394A5
:103FE0008E010F5F1F4F9E01255C3F4FA60161EEC2
:103FF00079E0CE014E960E9448E6882381F0AE011A
:10400000455C5F4FB801CE014E960E94A2AA88235C
:1040100031F080E493E00E9421D90C949D3980E333
:1040200093E00E9421D90C949D39F80120813181BF
:1040300033FD02C00C949D39D2A0AD2CB3A0E8E4AE
:10404000FEE0849190E08A159B0509F426C1329622
:104050004EE0E03DF407A9F7B7FC1FC132FF0AC1EB
:10406000F801868D978DA0A1B1A18F3F9105A10583
:10407000B10511F008F0F8C061E08D2D0E947EDBE3
:10408000D8015E966C918D2D0E94ADDAF801F68C08
:10409000E78C8F2C9E2C61E08D2D0E947EDB81149D
:1040A000910409F4CBC0FFEF8F16910409F4C8C046
:1040B000F501FF27E95CFA4CE4918E2F90E0FC01BA
:1040C0003197E231F10508F0B5C08827EE58FF4F6F
:1040D0008F4F0D94900284B5806884BDF7BCB4C046
:1040E00084B5806284BDF8BCAFC0809180008068D8
:1040F000809380008F2D9E2D90938900809388005F
:10410000A3C0809180008062809380008F2D9E2DBF
:1041100090938B0080938A0097C080918000886084
:10412000809380008F2D9E2D90938D0080938C0026
:104130008BC08091B00080688093B000F092B30093
:1041400083C08091B00080628093B000F092B40090
:104150007BC0809190008068809390008F2D9E2D71
:1041600090939900809398006FC080919000806236
:10417000809390008F2D9E2D90939B0080939A00AA
:1041800063C0809190008860809390008F2D9E2D59
:1041900090939D0080939C0057C08091A000806800
:1041A0008093A0008091A0008F7B8093A0008F2D32
:1041B0009E2D9093A9008093A80046C08091A000F6
:1041C00080628093A0008F2D9E2D9093AB008093F2
:1041D000AA003AC08091A00088608093A0008F2D33
:1041E0009E2D9093AD008093AC002EC08091200155
:1041F0008068809320018F2D9E2D909329018093BC
:10420000280122C0809120018062809320018F2D9F
:104210009E2D90932B0180932A0116C0809120013E
:104220008860809320018F2D9E2D90932D01809387
:104230002C010AC020E88216910414F460E001C049
:1042400061E08D2D0E94ADDAB5018BE39EE00E9406
:1042500016D9D8015E966D917C915F9786E39EE0BA
:104260000E94F1D80C949D398EE19EE00E942AFCB8
:104270000C949D3962E08D2D0E947EDBB50186E3B2
:104280009EE00E9416D98D2D0E9485DABC0189E13D
:104290009EE00E94F1D80C949D3983EE9DE00E942F
:1042A0002AFC0C949D39109224070C949D3981E0CE
:1042B000809324070C949D39F8018081918192FFAD
:1042C00012C0268D378D40A151A1A8EEB3E00F9406
:1042D000330B6093240270932502809326029093FF
:1042E00027020C949D3993FF41C0F80182A193A14C
:1042F000A4A1B5A182309105A105B10511F174F415
:104300000097A105B105C9F00197A105B10511F00C
:104310000C949D390E94405D0C949D398330910529
:10432000A105B10591F00497A105B10511F00C9418
:104330009D390E94D7BF0C949D390E94425D0C9418
:104340009D390E943E5D0C949D39E0912107F091CA
:104350002207858587FF02C00C949D3961E0968510
:10436000911160E00E94ADDA0C949D390E942F5BA0
:1043700081E00E94B2C70C949D39D8018D919C9127
:10438000119792FF14C05E962D913D914D915C91D5
:104390009197A8EEB3E00F94330B609320027093D3
:1043A000210280932202909323020C949D39109253
:1043B00020021092210210922202109223020C94E9
:1043C0009D39F801808183FF0CC042855385648547
:1043D000758540930C0250930D0260930E0270930A
:1043E0000F0284FF0FC0D8011E964D915D916D9113
:1043F0007C915197409310025093110260931202E6
:104400007093130285FF0DC0F80182899389A489F6
:10441000B5898093140290931502A0931602B0936D
:1044200017020E94F1C7D8018C9186FD02C00C943E
:104430009D39209121073091220756968D919D91AB
:104440000D90BC91A02DF90181879287A387B48735
:1044500080810E9494C00C949D39D801ED91FC910B
:104460001197F2FF0DC05E962D913D914D915C919B
:104470009197A8EEB3E00F94330B6B017C0106C05B
:10448000F0E1CF2EF7E2DF2EE12CF12CE3FD0E94CC
:10449000425DF801808184FD0E94405DD8018C91CD
:1044A00085FD0E943E5D0E94F2DBC60ED71EE81E0F
:1044B000F91E0E94F2DBA7019601261B370B480B61
:1044C000590BDA01C901803A9648A140B10518F4A8
:1044D0000E94CAACEECFD8018C9183FD0E943C5D56
:1044E000F801808184FD0E943A5DD8018C9185FDA0
:1044F00002C00C949D390E94385D0C949D390E9435
:1045000090BD81110C949D390E94F2DB60934104AF
:104510007093420480934304909344040E94445D4A
:1045200081110C949D39F8018081918193FF02C023
:104530000C94C43592FF0AC0868D978DA0A1B1A1BD
:10454000892B8A2B8B2B11F40C94C435D8018D91B7
:104550009C9192FD02C00C949D3991FF35C0A091B1
:104560002107B0912207F801EC5AFF4F90818C91FE
:1045700098130C949D39F12CF8018081918190FF62
:104580000DC0EE24E39420E030E0A901628D738D2C
:10459000848D958D0F949D0418160CF0E12CD80194
:1045A0005E966D917D918D919C9191970F94AB0941
:1045B0002E2D4F2D0E94B1C3B1E0FB1611F40C94C7
:1045C0009D39FF24F394D8CFF12CF801808191819B
:1045D00090FF0DC0EE24E39420E030E0A901628D4D
:1045E000738D848D958D0F949D0418160CF0E12C1D
:1045F000D8015E966D917D918D919C9191970F94CC
:10460000AB092E2D4F2D0E94B1C3B1E0FB1611F462
:104610000C949D39FF24F394D8CF0E9490BD811152
:104620000C949D390E94F2DB609341047093420424
:1046300080934304909344040E94445DF82E8111BA
:104640000C949D39F8018081918192FD02C00C94F7
:104650009D3990FF0EC0FF24F39420E030E0A901C3
:10466000628D738D848D958D0F949D0418160CF0BA
:10467000F12CD8015E966D917D918D919C919197D1
:104680000F94AB094F2D0E94EEBF0C949D39F80199
:1046900080819181E3E096958795EA95E1F78170B5
:1046A0000E948D5D0C949D390E9490BD81110C94E7
:1046B0009D390E94F2DB6093410470934204809321
:1046C0004304909344040E94445D81110C949D39ED
:1046D00060E082ED9DE00E9406E50E9462820E94F9
:1046E0002F5B8090210790902207D8018D919C919B
:1046F00091FD02C00C94C835F801EC5AFF4F20819F
:10470000223010F00C94C8350C949D390E94445D01
:10471000F82E81110C949D3960E086EC9DE00E949A
:1047200006E50E9462820E942F5BD8018D919C91C8
:10473000119792FF1CC090FF10C0FF24F39420E05B
:1047400030E0A9015A966D917D918D919C915D9774
:104750000F949D0418160CF0F12CF801668D778DDE
:1047600080A191A10F94AB094F2D0E94EEBF209123
:104770004F0230915002409151025091520260918B
:104780004B0270914C0280914D0290914E020F9419
:10479000BA026B017C0120E030E0A9010F949D0476
:1047A000181664F420E030E040EA50E4C701B60196
:1047B0000F94A50987FF0EC00C949D3920E030E0CE
:1047C00040EA50ECC701B6010F949D04181614F48A
:1047D0000C949D390E94F2DB6B017C0120E030E0FB
:1047E00040E05FE360914B0270914C0280914D027A
:1047F00090914E020F94BB0220914F0230915002D3
:1048000040915102509152020F94A50987FF20C098
:104810000E94F2DBDC01CB018C199D09AE09BF09B6
:10482000893E9340A105B10578F080E00E948D5D3E
:104830000E94F2DB6B017C0160934104709342049F
:10484000809343049093440481E00E940757C6CFAD
:10485000109261090E94F2DB60934104709342045C
:1048600080934304909344040C949D390E94445DCA
:1048700081110C949D390E94F2DB6B017C010E9436
:10488000F2DBDC01CB018C199D09AE09BF09893E21
:104890009340A105B10538F080E00E948D5D0E9433
:1048A000F2DB6B017C0181E00E9407570AED13E007
:1048B000BB24B394D8018D909D908D01F401438465
:1048C00054846584768420E030E040EF51E4C301F5
:1048D000B2010F949D041816ACF4D40117962D91D3
:1048E0003D914D915C911A97C301B2010F94BA02A8
:1048F0009F7720E030E040E85FE30F949D041816B6
:104900000CF4B12CB3E0003E1B07A1F6BB2009F468
:10491000B6CF0C949D39F8018081918193FB662775
:1049200060F992FF03C0868D978D02C08FEF90E0F3
:104930000E94395B0C949D39D80111966C9163FBF0
:10494000662760F980E090E00E94395B0C949D3905
:10495000F8018081918192FF03C0268D20930B0284
:1049600093FF12C0F80182A193A1A4A1B5A1209147
:104970000B02181619061A061B0614F4822B02C025
:104980008150822380930B020E94445D882311F49E
:104990000C949D3920E040E060E070E0CB010E9483
:1049A000B1C320E040E060E070E0CB010E94B1C301
:1049B00020E041E060E070E0CB010E94B1C30C94C4
:1049C0009D398FE69DE00E9421D90E94605E0C9483
:1049D0009D3989E69DE00E94BB550C949D39D80114
:1049E0008D919C9197FD02C00C949D39F801EE5A6F
:1049F000FF4F908181812091BD0924FD14C0A92F12
:104A0000B82F81E699E030E02D91222339F034313E
:104A100029F03F5FFC012193CF01F6CFE32FF0E0B7
:104A2000EF59F64F10820E9462820C949D390E94C9
:104A30002F5B82E69DE00E947ED30E940D5D811176
:104A400003C085E59DE002C088E59DE00E947ED31D
:104A50008BE59DE00E947ED30E94095D811103C019
:104A600085E59DE002C088E59DE00E947ED38EE44E
:104A70009DE00E947ED3379903C085E59DE002C08A
:104A800088E59DE00E947ED30E94895D0C949D394B
:104A9000D8018D919C9188279C7081159C4011F0C4
:104AA0000C949D39F80162A1868D0E9410ED0C9442
:104AB0009D39E0912107F09122078081F801408122
:104AC0005181282F51FF06C0EC5AFF4F9081923040
:104AD00008F4892FD80112969C91129792FF07C073
:104AE0009E96CD90DD90ED90FC90D19703C0C12CA7
:104AF000D12C760193FF05C0F801C2A8D3A8E4A881
:104B0000F5A8082F10E033E8839FF0011124E15F3E
:104B1000FC4FC082D182E282F382821306C0809170
:104B2000190790911A070E94F55420E030E0A9017E
:104B3000C701B6010F94A509B801811106C082E230
:104B40009DE00E94F1D80C949D398BEF9CE00E946F
:104B500016D922E0B701A60186EF9CE00E94A2D8F8
:104B60000C949D39D8018C9183FF0EC01A964D91FB
:104B70005D916D917C911D974093A7035093A8037D
:104B80006093A9037093AA0384FF0DC0F8014685C2
:104B90005785608971894093AB035093AC03609350
:104BA000AD037093AE0385FF0FC0D80152964D91AF
:104BB0005D916D917C9155974093AF035093B003F5
:104BC0006093B1037093B20386FF0DC0F80186892C
:104BD0009789A08DB18D8093B3039093B403A09374
:104BE000B503B093B6030E94F1C70C949D39D80168
:104BF0008C9183FF0EC01A964D915D916D917C91C1
:104C00001D97409397035093980360939903709373
:104C10009A0384FF0DC0F801468557856089718924
:104C200040939B0350939C0360939D0370939E035A
:104C300085FF0FC0D80152964D915D916D917C9189
:104C4000559740939F035093A0036093A1037093E3
:104C5000A20386FFC8CFF80186899789A08DB18D00
:104C60008093A3039093A403A093A503B093A603FA
:104C7000BACFD8018D919C91119792FD02C00C94EE
:104C80009D395E968D919D910D90BC91A02D8230A5
:104C90009105A105B10524F4809300020C949D397F
:104CA00082E0809300020C949D39E0912107F091FD
:104CB0002207BB96D8012D913C91119732FF1AC063
:104CC0005E964D915D916D917C91919777FF02C0B9
:104CD0000C949D3942305105610571054CF483E80F
:104CE000849FF001859FF00D1124E454FD4F02C014
:104CF000E4E4F2E023FF0BC0D8011A964D915D91D8
:104D00006D917C911D97428F538F648F758F24FF17
:104D10000BC0D8011E964D915D916D917C9151977C
:104D2000468F578F60A371A325FF0BC0D801529601
:104D30004D915D916D917C91559742A353A364A3CE
:104D400075A3CF010E944DC00C949D3962E179E0BA
:104D50008BE490E00E9452C364E079E08BE290E043
:104D60000E942FC343E06FEE78E081E890E00E945C
:104D700071C36CED78E08DE790E00E9452C36EEB5A
:104D800078E08FE490E00E9452C365E978E083E523
:104D900090E00E9452C344E068E878E08BE090E045
:104DA0000E9471C343E063E778E087E190E00E94EE
:104DB00071C343E06CE578E083E290E00E9471C348
:104DC00043E06BE478E087E290E00E9471C343E047
:104DD0006BE378E085E890E00E9471C343E06BE20A
:104DE00078E089E890E00E9471C343E06BE178E0ED
:104DF0008DE890E00E9471C343E069E078E081E9CA
:104E000090E00E9471C343E067EF77E085E990E0AE
:104E10000E9471C343E065EE77E089E990E00E946B
:104E200071C343E06FEC77E08BE390E00E9471C3C5
:104E300043E062EB77E087E490E00E9471C343E0D7
:104E400069E977E081E793E00E9471C343E067E797
:104E500077E085E793E00E9471C343E06DE577E07A
:104E60008DE993E00E9471C367E477E08BE793E0FC
:104E70000E942FC36FE277E089E793E00E942FC37F
:104E800060E177E08DE793E00E942FC361EF76E069
:104E90008FE793E00E942FC362ED76E081E893E014
:104EA0000E942FC343E064EC76E085E893E00E9423
:104EB00071C343E066EB76E089E893E00E9471C33A
:104EC00043E069EA76E08DE893E00E9471C343E035
:104ED00066E976E081E993E00E9471C343E063E80C
:104EE00076E085E993E00E9471C343E060E776E0F5
:104EF00089E993E00E9471C343E06AE576E085EAC0
:104F000093E00E9471C343E064E476E089EA93E0B1
:104F10000E9471C343E06EE276E08DEA93E00E9466
:104F200071C343E06AE176E088E293E00E9471C3D6
:104F300043E06CEF75E081EA93E00E9471C343E0C7
:104F400067EE75E08CE293E00E9471C343E06EEC83
:104F500075E088E493E00E9471C343E068EB75E07C
:104F600080E293E00E9471C343E062EA75E084E26C
:104F700093E00E9471C343E067E975E080E393E04A
:104F80000E9471C343E06CE875E084E393E00E9403
:104F900071C343E061E875E088E393E00E9471C368
:104FA00043E066E775E08CE393E00E9471C343E061
:104FB0006BE675E080E493E00E9471C343E060E635
:104FC00075E084E493E00E9471C369E475E080E7D2
:104FD00093E00E940CC362E375E08AE690E00E94D1
:104FE0000CC360E275E08BE690E00E940CC36EE0BB
:104FF00075E08CE790E00E940CC343E06FEF74E033
:105000008CE690E00E9471C343E060EF74E080E7BB
:1050100090E00E9471C343E061EE74E084E790E0A9
:105020000E9471C367EC74E088E790E00E940CC3B3
:1050300043E06AEB74E088EC90E00E9471C343E0C7
:1050400065EA74E08CEC90E00E9471C343E06FE885
:1050500074E080ED90E00E9471C343E069E774E082
:1050600084ED90E00E9471C366E674E088ED90E004
:105070000E940CC368E574E089ED90E00E940CC3C7
:105080006AE474E085EF90E00E940CC344E065E3BD
:1050900074E08AED90E00E9471C344E06AE274E03B
:1050A0008EED90E00E9471C344E06FE174E082EE07
:1050B00090E00E9471C369E074E086EE90E00E9487
:1050C0000CC368EF73E087EE90E00E9452C367EE76
:1050D00073E08BEE90E00E9452C36EEC73E08FEEB3
:1050E00090E00E942FC368EA73E08AEF90E00E948C
:1050F0002FC362E873E08CEF90E00E942FC364E658
:1051000073E08EEF90E00E940CC343E062E573E031
:1051100086EF90E00E9471C343E06AEB74E08CE29A
:1051200091E00E9471C343E065EA74E080E391E09E
:105130000E9471C343E06FE874E084E391E00E9451
:1051400071C343E069E774E088E391E00E9471C3B2
:1051500066E674E08CE391E00E940CC368E574E0BD
:105160008DE391E00E940CC36AE474E089E591E06C
:105170000E940CC344E065E374E08EE391E00E947A
:1051800071C344E06AE274E082E491E00E9471C37A
:1051900044E06FE174E086E491E00E9471C369E04D
:1051A00074E08AE491E00E940CC368EF73E08BE442
:1051B00091E00E9452C367EE73E08FE491E00E9499
:1051C00052C36EEC73E083E591E00E942FC368EA5E
:1051D00073E08EE591E00E942FC362E873E080E601
:1051E00091E00E942FC364E673E082E691E00E94A2
:1051F0000CC343E062E573E08AE591E00E9471C36D
:105200000C949D39F801808191819C0122273A708C
:1052100021153A40B9F4F801EC5AFF4F20812130B2
:1052200011F40C94883710F00C94953792FF0AC053
:10523000D8015E966C915E9792968D919C91939712
:105240000F94EC0A0E949AC3682F88E690E0C65734
:10525000DF4F6883CA58D0400F94D10AC657DF4F3A
:105260006881CA58D040681721F088E690E00F9412
:10527000EC0A0E944CD4E0912107F0912207808132
:105280000E9494C00C949D39D8018C9183FF0EC06C
:105290001A964D915D916D917C911D9740932507D4
:1052A00050932607609327077093280786FF11C045
:1052B0002091210730912207F80186899789A08DD6
:1052C000B18DF901878B908FA18FB28F80810E9461
:1052D00094C040912507509126076091270770914F
:1052E000280722E080EF9CE00E94A2D80C949D3910
:1052F000D8018D919C91119792FD02C00C949D391B
:1053000081E05E964D915D916D917C919197452BD9
:10531000462B472B09F480E00E94295D0C949D39AF
:10532000F8018081918192FF05C0868D978DA0A1A3
:10533000B1A104C084E690E0A0E0B0E00E946D5509
:105340000C949D39D8018D919C91119792FF07C0C3
:105350005E968D919D910D90BC91A02D04C084E628
:1053600090E0A0E0B0E00E94F5540C949D39F80163
:105370008081918192FD02C00C949D392FB7F894E1
:1053800040915D0550915E05868D978D840F951F28
:1053900090935E0580935D052FBF0C949D39F801B5
:1053A0008081209121073091220784FF09C08685E2
:1053B0009785A089B189F90185A396A3A7A3B0A772
:1053C000D90195964D915D916D917C91989722E0D0
:1053D0008EEC9CE00E9433D40E94895D0E9484C7B9
:1053E0000C949D39209107073091080740910907D7
:1053F00050910A0760911708709118088091190858
:1054000090911A080F94BA026093170870931808C5
:105410008093190890931A081092F7061092F806D4
:105420001092F9061092FA060E94F1C76FEC76E02E
:105430008FEE96E00E940D8580E00E9461AD409164
:105440001708509118086091190870911A0822E005
:1054500087E09CE20E94A2D880E00E947CD088EF86
:105460009BE20E9421D988EC9CE00E94BB550C94E1
:105470009D3984E00E9485DABC018EEB9CE00E949D
:10548000F1D80E94ED5B0C949D3982E30E946E5B23
:10549000F8018081918192FD02C00C949D39468D66
:1054A000578D60A171A188EA9CE00E94D7D8D801ED
:1054B0005E966C9182E30E94F55BF801668D8AE34B
:1054C0000E94F55B82E30E946E5B0C949D398DE631
:1054D0009CE00E9436FC80E00E94B2C768EC70E05D
:1054E00080E090E00E94BADB8FB7F894FFCFD8013C
:1054F0008D919C91119792FF05C05E96ED90FC9066
:105500005F9703C0EE24E394F12C93FF04C0F801ED
:10551000C2A0D3A004C068EEC62E63E0D62E809150
:10552000BF038F3421F08F3F09F06DC204C0EDE757
:10553000F5E31491E8C08FE48093BF03EDE7F5E352
:10554000E491EF3F09F45FC2E23009F472C04CF518
:10555000EE2309F451C0E13009F0D4C0109280006C
:1055600010928100809181008860809381008091F9
:105570008100816080938100EAEFF4E3E491F0E040
:10558000EE0FFF1FE958FB4C8591949190932504F1
:1055900080932404E0E4F5E3E491E093230411E034
:1055A000B4C0E43009F48BC00CF466C0E53009F0F7
:1055B000A9C01092200110922101809121018860E0
:1055C0008093210180912101816080932101EAEF84
:1055D000F4E3E491F0E0EE0FFF1FE958FB4C8591F6
:1055E000949190931C0480931B04E0E4F5E3E49110
:1055F000E0931A0415E089C014BC15BC84B5826020
:1056000084BD85B5816085BDEAEFF4E3E491F0E007
:10561000EE0FFF1FE958FB4C85919491909328045D
:1056200080932704E0E4F5E3E491E093260410E09E
:105630006CC01092B0001092B1008091B0008260F6
:105640008093B0008091B10081608093B100EAEF57
:10565000F4E3E491F0E0EE0FFF1FE958FB4C859175
:1056600094919093A00880939F08E0E4F5E3E4917F
:10567000E093A10812E049C01092900010929100AE
:105680008091910088608093910080919100816069
:1056900080939100EAEFF4E3E491F0E0EE0FFF1F56
:1056A000E958FB4C859194919093220480932104B6
:1056B000E0E4F5E3E491E093200413E026C01092C7
:1056C000A0001092A1008091A10088608093A100A9
:1056D0008091A10081608093A100EAEFF4E3E4915E
:1056E000F0E0EE0FFF1FE958FB4C859194919093E9
:1056F0001F0480931E04E0E4F5E3E491E0931D04AD
:1057000014E003C01E2F17FD7EC161E08FE40E94EC
:105710007EDB4701A12CB12C812F8D7F09F0A5C024
:1057200060E072E18AE790E0A50194010F947302B2
:1057300029013A01DA01C9010197A109B1098F3F95
:105740009105A105B10509F008F445C060E472E4D3
:105750008FE090E0A50194010F947302DA01C90172
:105760000197A109B1091230E9F48F3F9105A10514
:10577000B10509F010F40C949A3960E970ED83E0FA
:1057800090E0A50194010F947302DA01C901019719
:10579000A109B1098F3F9105A105B10509F098F55F
:1057A00023E05CC08F3F9105A105B105B1F0A8F0E1
:1057B00068E478EE81E090E0A50194010F94730213
:1057C000DA01C9010197A109B109112311F40C945F
:1057D00047390C94913921E001C022E011113EC0FB
:1057E0000DC0D301C2012AE0B595A795979587957D
:1057F0002A95D1F70197A109B10925E035B5387F80
:10580000232B25BD88C068E478EE81E090E0A501F7
:1058100094010F947302DA01C9010197A109B1093A
:105820008F3F9105A105B10509F010F40C9444399E
:1058300064E274EF80E090E0A50194010F9473029C
:10584000DA01C9010197A109B1098F3F9105A105AD
:10585000B10519F010F00C94683925E03091B100D1
:10586000387F232B2093B10046C060E072E18AE7C5
:1058700090E0A50194010F947302DA01C901019728
:10588000A109B1090097F1E0AF07B10578F068E42C
:1058900078EE81E090E0A50194010F947302DA01A3
:1058A000C9010197A109B10923E001C021E011302C
:1058B00039F430918100387F232B209381003DC043
:1058C000133039F430919100387F232B20939100CD
:1058D0005CC0143039F43091A100387F232B209321
:1058E000A10068C0153039F430912101387F232B95
:1058F0002093210174C01230A9F12CF4112359F026
:105900001130D9F080C0143009F454C0F4F11530CE
:1059100009F465C078C087BD8FEF9FEFDC018093ED
:10592000390490933A04A0933B04B0933C048091D3
:105930006E00826080936E0066C0909389008093B1
:1059400088008FEF9FEFDC0180933504909336043D
:10595000A0933704B093380480916F0082608093E5
:105960006F0051C08093B3008FEF9FEFDC018093F5
:10597000A2089093A308A093A408B093A5088091CF
:1059800070008260809370003EC090939900809375
:1059900098008FEF9FEFDC018093310490933204E5
:1059A000A0933304B093340480917100826080939B
:1059B000710029C09093A9008093A8008FEF9FEFFA
:1059C000DC0180932D0490932E04A0932F04B093B8
:1059D00030048091720082608093720014C09093B2
:1059E0002901809328018FEF9FEFDC018093290428
:1059F00090932A04A0932B04B0932C0480917300FD
:105A0000826080937300B60180E090E00E94BADB70
:105A10008FE40E94DCDA0C949D39D8012D913C91E1
:105A200011978091BD0932FF0AC05E964D915D913C
:105A30006D917C919197452B462B472B19F08068EF
:105A400091E002C08F7790E08093BD09992331F0F7
:105A500085E399E00E9421D90C949D398BE199E06E
:105A60000E9421D90C949D39F8010190F081E02D1C
:105A7000E296FFAFEEAFE297F2FF06C0D8015E9666
:105A80006D917C915F9702C066E970E0E296EEADA1
:105A9000FFADE297F3FF0BC0D80192960D911C91D8
:105AA0009397033011052CF003E010E002C000E0F2
:105AB00010E0E3960FAFE397072E000C880B990BCD
:105AC0000F94AB09A4966FAFA497A5967FAFA59747
:105AD000A6968FAFA697A7969FAFA797F801EE0F50
