:100000000C94451D0C94761D0C94761D0C94761D55
:100010000C94761D0C94761D0C94761D0C94761D14
:100020000C94761D0C94761D0C94761D0C94761D04
:100030000C94761D0D94C50D0C94761D0C94761DB4
:100040000C94761D0C94447A0C94761D0C94761DB9
:100050000C94761D0C94087C0C94E77A0D94B307ED
:100060000C94761D0C94867C0C94B07C0C94761DBC
:100070000C94761D0C94761D0C94761D0C94761DB4
:100080000C94761D0C94761D0C94761D0C94761DA4
:100090000C94761D0C94761D0C94761D0D9485069B
:1000A0000C94761D0C94761D0C94761D0C94761D84
:1000B0000C94761D0C94761D0C94761D0C94761D74
:1000C0000C94761D0C94761D0C94761D0C94761D64
:1000D0000C94761D0C94761D0C94761D0C94761D54
:1000E0000C94761D517369736973697369736973CD
:1000F0006973697369736973697369736973697320
:10010000697369736973697369736973697369730F
:1001100069736973697369734073F272FC72767202
:10012000697322732C73697369738772647269735C
:100130001873697336730E73067369736973697321
:10014000D472DE72E8726973697369736973697373
:1001500069736973697369734073F272FC727672C2
:10016000697322732C73697369738772647269731C
:100170001873697336730E730673697369736973E1
:10018000D472DE72E87249EBDAEB6DECBEED9AFCEC
:100190009AFC9AFC9AFC9AFC9AFC9AFC9AFC9AFCAF
:1001A00006ED42ED80ED9AFC9AFC9AFC9AFC9AFCD2
:1001B0009AFC9AFC9AFC9AFC9AFC9AFC26F188F12B
:1001C000E8F148F2A8F208F368F39AFCE4F7ECF3DC
:1001D00062F4D5F447F5B9F52BF69DF60AF777F7F3
:1001E0009AFC9AFC9AFC9AFC9AFCA9EF76F0CCEF68
:1001F0002CF899F805F972F993F9D5F907FA39FA53
:1002000092FAEDFA46FB9FFBC0FBB4F99AFC9AFC0C
:100210009AFC9AFC9AFC9AFC9AFC9AFC9AFC9AFC2E
:100220009AFC9AFC08EF37EF70EF9AFC9AFC9AFC64
:100230009AFC9AFC9AFC9AFC42FC9AFC45F09AFCC7
:100240009AFC9AFCEAFB18FC9AFC9AFC9AFC9AFC31
:100250003CEB9AFC9AFC01EEA4EEE8EECEF07C01B9
:100260009A01A0018601A801B0018E019001B80198
:100270008401C001AA017E01A201B0019C01C2015A
:100280007A019401C60188018C019E017601BE01AC
:10029000AC018201C4019601BC01AE01B40176013A
:1002A000A4019201BA0107634236B79BD8A71A3955
:1002B000685618AEBAAB558C1D3CB7CC5763BD6DB4
:1002C000EDFD753EF6177231BF000000803F05A8B6
:1002D0004CCDB2D44EB93836A9020C50B9918688AB
:1002E000083CA6AAAA2ABE000000803F0D94D409AB
:1002F0000D94E3040D946E090D94E1080D944609E4
:100300000D9406050D94AB090D9423090D94F50881
:100310000D948C090D9405050D9490090D9409090F
:100320000D9411090D94CB090D949A090D94B309FC
:100330000D94F6040D94E6080D945A090D9496094F
:100340000D94EB080D9450090D94C7090D94790A8A
:100350000D94FF080D9437090D94A5090D94BD095E
:100360000D9478090D9432050D94C1090D94DB04A8
:100370000D9419090D94CF090D94B9090D94A10993
:100380000D942D090D9464090D94AF090D949D09E8
:100390000D94A605436F6C6420657874727573695B
:1003A0006F6E20646973616C6C6F77656400436F76
:1003B0006C6420657874727573696F6E20616C6C03
:1003C0006F776564004175746F72657472616374F0
:1003D0003A0053657474696E67206D6F746F722094
:1003E00063757272656E742E2E2E00536574204DE7
:1003F0006963726F7374657070696E6700547269B7
:1004000067676572696E67207761746368646F6798
:100410002E204966206163746976617465642C20BE
:10042000746865207072696E7465722077696C6C8F
:100430002072657365742E0053657474696E67204D
:100440005468726573686F6C6420546F3A00494E4B
:10045000542050494E3A20004D323531200020744E
:100460006F200053657420766F6C756D65747269CA
:100470006320657874727573696F6E20666F722081
:100480006578747275646572200044697361626C8A
:10049000656420766F6C756D65747269632065782C
:1004A00074727573696F6E20666F722065787472EE
:1004B0007564657220004D313134200048656174E7
:1004C000696E67204265640048656174696E6720E3
:1004D00045787472756465720050696E2063616E50
:1004E000206E6F7420626520736574206279204DE0
:1004F00034322C206D617920696E20696E76616CD2
:100500006964206F7220696E207573652E20004922
:100510006C6C6567616C20532076616C7565206634
:100520006F72204D3432005A2028432920746F778F
:10053000657220666C6F6F722073657420746F3AF9
:100540002000592028422920746F77657220666C3C
:100550006F6F722073657420746F3A2000582028E2
:10056000412920746F77657220666C6F6F722073FB
:10057000657420746F3A2000526F64205261646980
:1005800075732073657420746F3A200047313334DB
:100590002000506F7346726F6D53746570733A002C
:1005A000436F6D7044656C74613A0043616C6962BD
:1005B000726174696F6E206D6F76656D656E742003
:1005C0006973206C696D6974656420746F203130C3
:1005D0006D6D2E004669727374206D6F76652074A0
:1005E0006F20746F75636820617420782C793D30BA
:1005F0002C3020746F206175746F2D7365742072B8
:1006000061646975732E0043616C6962726174691B
:100610006F6E206D6F76656D656E74206973206CEA
:10062000696D6974656420746F2031306D6D2E00C2
:1006300043616E6E6F7420736574207261646975B6
:100640007320616E6420666C6F6F7220617420731A
:10065000616D652074696D652E0043616C6962721D
:100660006174696F6E20636F6465206973206C69C3
:100670006D6974656420746F20626F74746F6D208F
:10068000313025206F66205A2068656967687400DC
:1006900052656C617469766520706F736974696FF7
:1006A0006E696E67004162736F6C75746520706F60
:1006B000736974696F6E696E670047363920005A36
:1006C0003A2000593A2000583A20004F46465345F8
:1006D0005453204F464620425920544F4F204D55E9
:1006E0004348205F20545259494E472041474149D1
:1006F0004E3A200053657474696E672050726F62C1
:10070000652053656E736974697669747920546FD6
:100710003A005A2070726F6265206661696C656488
:10072000206F6E2073656E73697469766974793AA7
:10073000200053657474696E672050726F62652083
:1007400053656E736974697669747920546F3A00E1
:100750005A2070726F6265206661696C6564206FF3
:100760006E2073656E73697469766974793A2000D6
:1007700053657474696E672050726F6265205365AB
:100780006E736974697669747920546F3A005A20DF
:1007900070726F6265206661696C6564206F6E209F
:1007A00073656E73697469766974793A2000686557
:1007B0006865004E6577205261646975733A200060
:1007C0004F6C64205261646975733A200043616C18
:1007D00063756C6174656420526164697573206926
:1007E0007320626164203A0053657474696E6720F7
:1007F00050726F62652053656E73697469766974AF
:100800007920546F3A005A2070726F6265206661D9
:10081000696C6564206F6E2073656E7369746976A8
:100820006974793A200053657474696E6720507258
:100830006F62652053656E73697469766974792097
:10084000546F3A005A2070726F6265206661696C5D
:100850006564206F6E2073656E7369746976697460
:10086000793A2000473332200050524F42452D5AEA
:100870004F46465345543A0047333000536574742D
:10088000696E672050726F62652053656E7369747C
:10089000697669747920546F3A0050726F6265739B
:1008A00020646F206E6F74206D617463682E204F1A
:1008B0006666206279200047333020004D313137A1
:1008C0002043414C4942524154494F4E20434F4DE1
:1008D000504C4554450068656865004E6577204872
:1008E0006F72697A6F6E74616C205261646975739E
:1008F0003A20004F6C6420486F72697A6F6E7461A1
:100900006C205261646975733A200043616C6375B1
:100910006C61746564205261646975732069732029
:100920006261643A20004D3131372043414C4942E5
:10093000524154494F4E204641494C454400436181
:100940006C6962726174696F6E204661696C65647E
:100950000053657474696E672050726F626520532E
:10096000656E736974697669747920546F3A005AB8
:100970002070726F6265202843656E746572205026
:100980006F696E7429206661696C6564206F6E20E2
:1009900073656E73697469766974793A20004E657F
:1009A00077205A204865696768743A004F6C642064
:1009B0005A204865696768743A004D3131372043E1
:1009C000414C4942524154494F4E204641494C45C1
:1009D000440043616C6962726174696F6E204661A4
:1009E000696C65640053657474696E672050726F3A
:1009F00062652053656E73697469766974792054F1
:100A00006F3A005A2070726F6265202843656E74D9
:100A1000657220506F696E7429206661696C656427
:100A2000206F6E2073656E73697469766974793AA4
:100A3000200047363920005A3A2000593A20005801
:100A40003A20004F464653455453204F46462042D5
:100A50005920544F4F204D5543482E2041626F720C
:100A600074696E67004D3131372043414C49425221
:100A70004154494F4E204641494C45440043616C26
:100A80006962726174696F6E204661696C656400A9
:100A900053657474696E672050726F626520536588
:100AA0006E736974697669747920546F3A005A20BC
:100AB00070726F626520285A20546F776572292002
:100AC0006661696C6564206F6E2073656E7369740E
:100AD00069766974793A20004D3131372043414CB1
:100AE0004942524154494F4E204641494C454400E9
:100AF00043616C6962726174696F6E204661696CF2
:100B000065640053657474696E672050726F626526
:100B10002053656E736974697669747920546F3AED
:100B2000005A2070726F626520285920546F7765D3
:100B30007229206661696C6564206F6E2073656E32
:100B400073697469766974793A20004D31313720C0
:100B500043414C4942524154494F4E204641494C31
:100B600045440043616C6962726174696F6E20462E
:100B700061696C65640053657474696E67205072B6
:100B80006F62652053656E73697469766974792044
:100B9000546F3A005A2070726F62652028582054B2
:100BA0006F77657229206661696C6564206F6E20BD
:100BB00073656E73697469766974793A2000473495
:100BC00020533130004D3130342053300A4D313410
:100BD000302053300A4D31303700657865637574C5
:100BE0006547436F6465202F2071756575654465A1
:100BF0006C74614D6F76652072657475726E7320CA
:100C00006572726F72006969733264682061636330
:100C1000656C65726F6D6574657220696E69746963
:100C2000616C697A696E672E2E2E00616363656C54
:100C300065726F6D657465722069326320726563D9
:100C400076206572726F722E002076616C75653A3F
:100C500020007265616420726567200061636365CE
:100C60006C65726F6D65746572207772697465204A
:100C7000693263206572726F722E00616363656C06
:100C800065726F6D657465722073656E642069327C
:100C900063206572726F722E000000010025003023
:100CA000001D000C001800240031001C000B001770
:100CB0000023002F001B000A001E000D00FFFF098B
:100CC00000030022002B001A004100420021002AEC
:100CD0000019003F00400000000200350045787414
:100CE000722E00436F6E6669673A004F6E6520682A
:100CF0006561746572207365656D73206465636FEB
:100D000075706C65642066726F6D20746865726DB5
:100D10006973746F72202D2064697361626C696EEF
:100D20006720616C6C20666F7220736166657479F0
:100D30002100486561746572206465636F75706C2D
:100D40006564004372656174696F6E206661696CE9
:100D50006564004469726563746F727920637265BB
:100D6000617465640044656C6574696F6E206661CA
:100D7000696C65640046696C652064656C657465C2
:100D80006400446F6E6520736176696E67206669E2
:100D90006C652E0057726974696E6720746F2066E7
:100DA000696C653A20006F70656E206661696C65DC
:100DB000642C2046696C653A20004E6F74205344C1
:100DC000207072696E74696E670053442070726996
:100DD0006E74696E672062797465200066696C655F
:100DE0002E6F70656E206661696C65640046696C83
:100DF000652073656C6563746564002053697A656A
:100E00003A0046696C65206F70656E65643A00450E
:100E10006E642066696C65206C6973740042656756
:100E2000696E2066696C65206C6973740065727206
:100E30006F722077726974696E6720746F206669BB
:100E40006C6500534420696E6974206661696C00AA
:100E5000616476616E6365204C205B303D6F666631
:100E60005D00657874727564657220636F6F6C6580
:100E700072207370656564205B302D3235355D00FE
:100E800064697374616E636520746F207265747237
:100E9000616374207768656E2068656174696E6748
:100EA000205B6D6D5D0074656D702E20666F722025
:100EB00072657472616374696F6E207768656E2005
:100EC00068656174696E67205B435D0074656D7071
:100ED0002E2073746162696C697A652074696D652E
:100EE000205B735D00592D6F6666736574205B73BC
:100EF000746570735D00582D6F6666736574205B52
:100F000073746570735D00504944206D617820767C
:100F1000616C7565205B302D3235355D005049447C
:100F200020442D6761696E0050494420492D676156
:100F3000696E0050494420502D6761696E2F6465C9
:100F400061642D74696D650050494420647269764E
:100F500065206D696E005049442064726976652091
:100F60006D61780068656174206D616E616765729E
:100F7000205B302D335D00616363656C6572617465
:100F8000696F6E205B6D6D2F735E325D00737461EF
:100F90007274206665656472617465205B6D6D2F87
:100FA000735D006D61782E2066656564726174659D
:100FB000205B6D6D2F735D007374657073207065B9
:100FC00072206D6D0042656420504944206D617847
:100FD0002076616C7565205B302D3235355D0042C1
:100FE00065642050494420442D6761696E00426564
:100FF000642050494420492D6761696E0042656450
:101000002050494420502D6761696E00426564207C
:10101000504944206472697665206D696E004265AE
:101020006420504944206472697665206D617800BF
:101030004265642048656174204D616E6167657228
:10104000205B302D335D00436F72722E2064696126
:10105000676F6E616C2043205B6D6D5D00436F7246
:10106000722E20646961676F6E616C2042205B6D37
:101070006D5D00436F72722E20646961676F6E61EF
:101080006C2041205B6D6D5D004D61782070726950
:101090006E7461626C6520726164697573205B6D4A
:1010A0006D5D00546F776572205A20656E647374AD
:1010B0006F70206F6666736574205B737465707300
:1010C0005D00546F776572205920656E6473746F8C
:1010D00070206F6666736574205B73746570735DF2
:1010E00000546F776572205820656E6473746F705A
:1010F000206F6666736574205B73746570735D0042
:101100005365676D656E74732F7320666F722074FC
:10111000726176656C005365676D656E74732F73CD
:1011200020666F72207072696E74696E6700486F16
:1011300072697A6F6E74616C20726F642072616480
:1011400069757320617420302C30205B6D6D5D00FB
:10115000446961676F6E616C20726F64206C656EAC
:10116000677468205B6D6D5D00486F6D696E672008
:101170006665656472617465205B6D6D2F735D00DB
:101180004D61782E206665656472617465205B6DC3
:101190006D2F735D00537465707320706572206DE0
:1011A0006D0054726176656C20616363656C657275
:1011B0006174696F6E205B6D6D2F735E325D0041EF
:1011C0006363656C65726174696F6E205B6D6D2F12
:1011D000735E325D004D61782E206A65726B205B14
:1011E0006D6D2F735D005A206D6178206C656E67A0
:1011F0007468205B6D6D5D0059206D6178206C65B1
:101200006E677468205B6D6D5D0058206D6178209D
:101210006C656E677468205B6D6D5D005A20686F49
:101220006D6520706F73205B6D6D5D005920686F78
:101230006D6520706F73205B6D6D5D005820686F69
:101240006D6520706F73205B6D6D5D0053746F7002
:1012500020737465707065722061667465722069B0
:101260006E6163746976697479205B6D732C303DAF
:101270006F66665D004D61782E20696E61637469EA
:1012800076652074696D65205B6D732C303D6F66EB
:10129000665D005072696E74657220616374697670
:1012A00065205B735D0046696C616D656E742070CE
:1012B00072696E746564205B6D5D00416476616E79
:1012C0006365642055736572004261756472617470
:1012D00065004550523A3320004550523A322000C2
:1012E0004550523A3120004550523A302000507259
:1012F0006F746F636F6C2076657273696F6E2063B5
:1013000068616E6765642C20757067726164696ED0
:101310006700436F6E66696775726174696F6E20EE
:10132000726573657420746F2064656661756C7492
:10133000732E00436F6E66696775726174696F6EB4
:10134000206C6F616465642066726F6D2045455046
:10135000524F4D2E00436F6E6669677572617469F6
:101360006F6E2073746F72656420746F20454550F2
:10137000524F4D2E004175746F6C6576656C20611F
:1013800063746976652028312F3029005A2D7072D8
:101390006F6265205933005A2D70726F6265205854
:1013A00033005A2D70726F6265205932005A2D70C9
:1013B000726F6265205832005A2D70726F6265201C
:1013C0005931005A2D70726F6265205831005A2DC4
:1013D00070726F626520782D792D73706565642059
:1013E0005B6D6D2F735D005A2D70726F6265207397
:1013F00070656564205B6D6D2F735D005A2D707292
:101400006F6265206F66667365742079205B6D6D11
:101410005D005A2D70726F6265206F666673657429
:101420002078205B6D6D5D004D61782E207A2D70E7
:10143000726F6265202D2062656420646973742E6A
:10144000205B6D6D5D005A2D70726F62652068655E
:1014500069676874205B6D6D5D0077616974005029
:1014600072696E746572206865696768743A005ABB
:101470002D70726F6265206661696C6564005472DC
:10148000616E73666F726D6174696F6E206D6174E9
:101490007269783A004175746F6C6576656C696E37
:1014A000672064697361626C6564004175746F6C78
:1014B0006576656C696E6720656E61626C65640057
:1014C0004175746F6C6576656C206D6174726978B6
:1014D00020726573657400004732382F6E47315AA9
:1014E00032352F6E005A2D70726F626520737461F1
:1014F00074653A005265736574205A20686569679F
:101500006874005A2D70726F626520617665726131
:101510006765206865696768743A00205374657070
:1015200020566172696174696F6E2066726F6D20FA
:1015300050726F626520746F206265642044697325
:1015400074616E63653A005A2D70726F62653A007D
:101550005072696E7465722073657420696E746F61
:10156000206472792072756E206D6F646520756ECF
:1015700074696C207265737461727421003A20770B
:101580006F726B696E67003A2074656D70207365C9
:101590006E736F722064656665637400657874723B
:1015A00075646572200068656174656420626564B5
:1015B000004D54454D503A00504944204175746FD8
:1015C00074756E652066696E697368656420212094
:1015D000506C61636520746865204B702C204B69EA
:1015E00020616E64204B6420636F6E7374616E744F
:1015F0007320696E2074686520436F6E6669677535
:10160000726174696F6E2E68206F7220454550526A
:101610004F4D00504944204175746F74756E6520BC
:101620006661696C6564212074696D656F7574000D
:10163000504944204175746F74756E652066616908
:101640006C6564212054656D706572617475726596
:1016500020746F206869676800204B643A2000207E
:101660004B693A2000204B703A200020436C617394
:1016700073696320504944002054753A2000204B80
:10168000753A2000206D61783A2000206D696E3A2D
:10169000200020643A200020626961733A200050E3
:1016A0004944204175746F74756E6520737461725E
:1016B00074005461726765744265643A00546172E3
:1016C00067657445787472004E6F206D6F76652083
:1016D000696E2064656C7461207365676D656E74F6
:1016E0002077697468203E2031207365676D656ED0
:1016F000742E20546869732073686F756C64206E53
:10170000657665722068617070656E20616E642018
:101710006D617920636175736520612070726F62FD
:101720006C656D210044656C74612052616469755B
:101730007320432830293A0044656C74612052615B
:101740006469757320422830293A0044656C7461DD
:101750002052616469757320412830293A00416C38
:101760007068612043283930293A00416C70686103
:10177000204228333330293A00416C70686120419F
:1017800028323130293A00546F77657220333A009D
:10179000546F77657220323A00546F77657220314A
:1017A0003A00496E76616C69642064656C746120EE
:1017B000636F6F7264696E617465202D206D6F7642
:1017C000652069676E6F726564006C696E65617231
:1017D000204C3A00454550524F4D2075706461745D
:1017E0006564002C2073706565643D00206C696E33
:1017F0006561722073746570733A004A65726B3A62
:10180000007A5F6D61783A00795F6D61783A0078AF
:101810005F6D61783A004C200048200020697320F9
:101820000020746F2000536574206F757470757498
:101830003A20004D53312C4D53322050696E7300C5
:1018400045313A0045303A005A3A00593A002000F2
:101850002C00206D696E0020686F75727320002067
:101860006461797320006D20005072696E74696E36
:10187000672074696D653A005072696E7465642002
:1018800066696C616D656E743A0046616E73706571
:1018900065643A00482E205261646975733A0046C7
:1018A0006C6F774D756C7469706C793A0053706524
:1018B00065644D756C7469706C793A00202F002F47
:1018C000003A0020524157002042403A0020400098
:1018D00020540020403A0020423A00543A0020456B
:1018E0003A00205A3A0020593A0020583A00583A13
:1018F00000467265652052414D3A00556E6B6E6F21
:10190000776E20636F6D6D616E643A00536F66741D
:1019100077617265205265736574005761746368FE
:10192000646F672052657365740042726F776E2032
:101930006F75742052657365740045787465726EB6
:10194000616C20526573657400506F7765725570D5
:1019500000737461727400424C4B2000736B6970A9
:10196000200020676F7420004572726F723A6578AC
:10197000706563746564206C696E65200053442053
:1019800072656164206572726F7200205200204A95
:101990000020490020500020530020460020450030
:1019A000205A00205900205800446F6E6520707244
:1019B000696E74696E672066696C6500466F726D4A
:1019C0006174206572726F720057726F6E67206368
:1019D0006865636B73756D004563686F3A005265A7
:1019E00073656E643A005761726E696E673A0049BA
:1019F0006E666F3A004572726F723A00494E460049
:101A00004E414E006F6B004649524D574152455F63
:101A10004E414D453A52657065746965725F302E6E
:101A200039322E32204649524D574152455F44418A
:101A300054453A3230313730323038204D41434806
:101A4000494E455F545950453A526F73746F636BFA
:101A5000204D4158207633204475616C200020646D
:101A600065672E204300206D656173757265642083
:101A7000004572726F723A436F756C64206E6F74BA
:101A800020686F6C642074656D7065726174757226
:101A9000652000206D73002061667465722000452A
:101AA00072726F723A54656D702E2072616973653F
:101AB0006420746F20736C6F772E205269736520D9
:101AC0003D20004739310A4731452D3138304636FF
:101AD0003030300A473930004D3131372045787485
:101AE000727564657220310A54310A4D38342050C1
:101AF000340A4739310A47314531373246363030BA
:101B0000300A47314535463530300A4739300047CD
:101B100039310A4731452D31383046363030300AB8
:101B2000473930004D31313720457874727564651E
:101B30007220300A54300A4D38342050340A473964
:101B4000310A47314531373246363030300A473175
:101B50004535463530300A473930001C151C140015
:101B600000002243141F1F6F1F1B1FAB1E5B1E00B4
:101B70000000000000D31DC71C771CFB1B7F1B044B
:101B800000081D900058091C01B007A801C80634C0
:101B9000023006C002C0054C036805D8031805646E
:101BA00004D004F00498047C056004080630049412
:101BB0000600042007D003AC07A80338088003C43C
:101BC00008580350093003DC090803680AD802F4F6
:101BD0000AB002800B88020C0C6002980C300224C0
:101BE0000DF801B00DC0013C0E8001C80E3001544B
:101BF0000FB800B40F2800E00F00000400401D9053
:101C00000060091C01B007A801D00634023806C0E4
:101C100002C8054C036805D80318056404D804F00D
:101C20000498047C0560040806300494060004202F
:101C300007D003AC07A80338088003C40858035032
:101C4000093003DC090803680AE002F40AB80280DC
:101C50000B88020C0C6002980C3002240DF801B0C5
:101C60000DC0013C0E8001C80E3001540FB800B405
:101C70000F2800E00F000004000016D800C006ACDA
:101C80000178058002C004540348042804E803FCDA
:101C9000049803D0055003A40618037807D8024C13
:101CA00008A80220097002F4093802C80A08029C38
:101CB0000BD001700C9001440D5001180EF800EC8F
:101CC0000E8800C00F00000400681D4C00500B94EB
:101CD000005809DC0050082401A8076C012807B44B
:101CE00001C006FC017006440228068C02F005D4EF
:101CF00002B8051C03880564035805AC033005F4DD
:101D00000310053C04E8048404C804CC04A80414AB
:101D10000590045C057004A4055804EC05380434EF
:101D20000620047C060804C406F0030C07D80354FC
:101D300007C8039C07B003E40798032C08800374CA
:101D4000087003BC085803040948034C0930039485
:101D5000091803DC090803240AF0026C0AE002B443
:101D60000AC802FC0AB002440BA0028C0B8802D401
:101D70000B70021C0C5802640C4002AC0C2802F4DC
:101D80000C10023C0DF001840DD801CC0DB80114EB
:101D90000E98015C0E7001A40E4801EC0E1801347F
:101DA0000FD8007C0F8800C40F0800FC0F00000053
:101DB0000000000000000000000000000000000023
:101DC0000000000000000000000000000000000013
:101DD0000000000000401F450060094F0010095C32
:101DE00000C0086B0070087D0020089200D007AC8E
:101DF000008007CC003007DE00E006230190065E7D
:101E0000014006A601F005FF01A0056D025005F393
:101E10000200059603B0045A04600440051004480B
:101E200006C0036E077003A8082003EB09D0022345
:101E30000B8002410C3002390DE001040E9001A22A
:101E40000E4001170FF000690FA000A20F5000C64E
:101E50000F0000DD0FB0FFEB0F60FF0400700DD826
:101E6000004804AC0158038002D8025403800228C1
:101E7000043802FC040002D005C801A406980178C9
:101E80000770014C08480120091801F409F000C846
:101E90000AC8009C0BA000700C7000440D3800189C
:101EA0000E0000EC0EA8FFC00FE8FE0400001B545B
:101EB000006009640010097400C008840070089C68
:101EC000002008B800D007D8008007000130072C98
:101ED00001E00668019006AC0140060002F00568CA
:101EE00002A005E0025005740300052404B004F0CC
:101EF000046004DC051004E406C003040870033029
:101F0000092003780B8002600DE001A80E400168F3
:101F10000FA000C00F0000E80F60FF0400801AD877
:101F2000009808AC012007800250065403C8052819
:101F3000045805FC040005D005B004A40668047824
:101F40000728044C08E8032009B003F4097003C80B
:101F50000A38039C0BF802700CB002440D6802189A
:101F60000E0802EC0E8801C00F8800F00F00000080
:101F700000A00F5C006009690010097900C0088C9E
:101F8000007008A2002008BD00D007DE0080070511
:101F90000130073401E0066D019006B201400607EA
:101FA00002F0056D02A005E80250057B0300052B39
:101FB00004B004F8046004EB06C003350920037F75
:101FC0000B8002650DE001B00E40011D0FF00048CE
:101FD0000FC8006C0FA000ED0F60FFFE0F48FE0061
:101FE00000025344206572726F72206669786564DE
:101FF000005344206572726F7220646964206E6FB2
:1020000074207265636F76657221005344205265B7
:102010006164204572726F720000000000000000D1
:1020200000000000000000000024F403D950C38E1B
:10203000B1C2A23D96828B3582127AE372816CCB5B
:1020400066A861015DC758EB546151204E1E4B5686
:1020500048C14559431A41013F093D2F3B7139CDD4
:10206000374036C93465331432D430A32F802E6BF9
:102070002D632C672B752A8E29B028DC2710274B5F
:10208000268F25D9242B248223E0224322AC211A37
:10209000218D200420801F001F841E0C1E971D26EA
:1020A0001DB81C4E1CE61B821B201BC11A641A0A99
:1020B0001AB2195D190A19B9186A181C18D11788AB
:1020C000174017FA16B51673163116F115B31576B3
:1020D000153A150015C7148F1458142214EE13BAAC
:1020E00013881356132513F612C71299126C124057
:1020F000121512EB11C1119811701148112111FB29
:1021000010D610B1108D106910461024100210E185
:102110000FC00FA00F800F610F420F230F060FE8B3
:102120000ECB0EAF0E930E770E5C0E410E270E0DEA
:102130000EF30DDA0DC10DA80D900D780D600D494F
:102140000D320D1B0D050DEF0CD90CC30CAE0C9907
:102150000C850C700C5C0C480C350C210C0E0CFB27
:102160000BE80BD60BC40BB20BA00B8E0B7D0B6BCD
:102170000B5A0B4A0B390B290B180B080BF80AE901
:102180000AD90ACA0ABB0AAC0A9D0A8E0A800A71D9
:102190000A630A550A470A390A2C0A1E0A110A0458
:1021A0000AF709EA09DD09D009C409B709AB099F93
:1021B00009920987097B096F09630958094C09418C
:1021C0000936092B09200915090A090009F508EB48
:1021D00008E008D608CC08C208B808AE08A4089AD7
:1021E00008900887087D0874086B08610858084F34
:1021F0000846083D0834082C0823081A0812080964
:10220000080108F807F007E807E007D807D007C873
:1022100007C007B807B007A807A1070000420FA131
:10222000071605D0030D038B022E02E801B20186CA
:1022300001630145012C0117010401F400526F7381
:10224000746F636B4D415820526561647900526F21
:1022500073746F636B4D415820526561647900520D
:102260006F73746F636B4D415820526561647900E0
:10227000207A3A0020793A0020783A00696E20717D
:102280007565756544656C74614D6F766520746F16
:102290002063616C63756C61746544656C74615333
:1022A00075625365676D656E7473207265747572BF
:1022B0006E73206572726F722E00432068697420FD
:1022C000666C6F6F720043706F7320782073717546
:1022D000617265200043706F73207820737465709D
:1022E00073200043706F732079207371756172657C
:1022F000200043706F732079207374657073200021
:10230000422068697420666C6F6F720042706F7350
:10231000207820737175617265200042706F7320A0
:1023200078207374657073200042706F7320792079
:10233000737175617265200042706F73207920732C
:10234000746570732000412068697420666C6F6F3B
:10235000720041706F73207820737175617265200F
:102360000041706F73207820737465707320004192
:10237000706F7320792073717561726520004170F0
:102380006F73207920737465707320006D6F7665AC
:1023900052656C617469766544697374616E6365D6
:1023A000496E5374657073202F207175657565448F
:1023B000656C74614D6F76652072657475726E73AD
:1023C000206572726F72004D617854656D703A00CD
:1023D0004469616D657465723A00416363656C655B
:1023E000726174696F6E3A004D617853706565640F
:1023F0003A004A65726B3A004D61784265645465F3
:102400006D703A005072696E746572547970653AF5
:1024100044656C7461005A54726176656C41636303
:10242000656C3A005954726176656C416363656C02
:102430003A005854726176656C416363656C3A008A
:102440005A5072696E74416363656C3A00595072F8
:10245000696E74416363656C3A00585072696E74BA
:10246000416363656C3A005A53697A653A0059537F
:10247000697A653A005853697A653A005A4D61782D
:102480003A00594D61783A00584D61783A005A4DFA
:10249000696E3A00594D696E3A00584D696E3A00BE
:1024A0004A65726B58593A005072696E746C696E65
:1024B0006543616368653A00454550524F4D3A00A7
:1024C0004175746F6C6576656C3A005A50726F6234
:1024D000653A00436173654C69676874733A0053E9
:1024E0007570706F72744C6F63616C46696C616D6E
:1024F000656E746368616E67653A00537570706FDE
:1025000072744731304731313A005A486F6D654433
:1025100069723A0059486F6D654469723A005848CB
:102520006F6D654469723A00536F667477617265C6
:10253000506F7765725377697463683A004C43440F
:102540003A0046616E3A005344436172643A00486F
:1025500065617465644265643A004D6978696E67C7
:1025600045787472756465723A004E756D4578747D
:1025700072756465723A00496E707574427566666C
:1025800065723A0042617564726174653A004E6F1B
:102590002063617365206C6967687473004D313125
:1025A0003420007A70726F62696E672E2E2E00647E
:1025B000656C6179203130306D732E00686F6D6508
:1025C000417869732000686F6D6541786973202FC9
:1025D00020717565756544656C74614D6F76652015
:1025E00072657475726E73206572726F7200486FD7
:1025F0006D652044656C7461005072696E7465721B
:102600003A3A736574757020006D6F7665546F5239
:1026100065616C202F20717565756544656C74610A
:102620004D6F76652072657475726E732065727277
:102630006F72006D6F7665546F202F207175657510
:102640006544656C74614D6F766520726574757252
:102650006E73206572726F7200537465707065726C
:102660002044697361626C6564004B696C6C6564DD
:10267000006973506F736974696F6E416C6C6F772A
:102680006564200055706C6F6164696E672E2E2E34
:1026900000005344207072696E742073746F707000
:1026A000656420627920757365722E004739312F79
:1026B0006E4731205A2D31302E302045352E3120B5
:1026C00046313530302F6E4739302F6E0047393163
:1026D0002F6E4731205A31302E3020452D352E3087
:1026E0002046313530302F6E4739302F6E0053443D
:1026F000206361726420696E73657274656400534F
:1027000044204361726420696E736572746564006D
:10271000534420436172642072656D6F7665640076
:10272000534420636172642072656D6F7665640046
:1027300000002110422063308440A550C660E7703D
:10274000088129914AA16BB18CC1ADD1CEE1EFF1E5
:102750003112100273325222B5529442F772D6628D
:10276000399318837BB35AA3BDD39CC3FFF3DEE335
:102770006224433420040114E664C774A4448554DD
:102780006AA54BB528850995EEE5CFF5ACC58DD585
:102790005336722611163006D776F6669556B4462D
:1027A0005BB77AA719973887DFF7FEE79DD7BCC7D5
:1027B000C448E5588668A77840086118022823387D
:1027C000CCC9EDD98EE9AFF9488969990AA92BB925
:1027D000F55AD44AB77A966A711A500A333A122ACD
:1027E000FDDBDCCBBFFB9EEB799B588B3BBB1AAB75
:1027F000A66C877CE44CC55C222C033C600C411C1D
:10280000AEED8FFDECCDCDDD2AAD0BBD688D499DC4
:10281000977EB66ED55EF44E133E322E511E700E6C
:102820009FFFBEEFDDDFFCCF1BBF3AAF599F788F14
:102830008891A981CAB1EBA10CD12DC14EF16FE1F4
:102840008010A100C230E32004502540467067602C
:10285000B9839893FBA3DAB33DC31CD37FE35EF344
:10286000B1029012F322D23235421452776256727C
:10287000EAB5CBA5A89589856EF54FE52CD50DC594
:10288000E234C324A01481046674476424540544CC
:10289000DBA7FAB79987B8975FE77EF71DC73CD7E4
:1028A000D326F2369106B01657667676154634561C
:1028B0004CD96DC90EF92FE9C899E9898AB9ABA934
:1028C0004458654806782768C018E1088238A3286C
:1028D0007DCB5CDB3FEB1EFBF98BD89BBBAB9ABB84
:1028E000754A545A376A167AF10AD01AB32A923ABC
:1028F0002EFD0FED6CDD4DCDAABD8BADE89DC98DD4
:10290000267C076C645C454CA23C832CE01CC10C0B
:102910001FEF3EFF5DCF7CDF9BAFBABFD98FF89F23
:10292000176E367E554E745E932EB23ED10EF01E5B
:102930007C3C3E5E2B3D3F2F5B5D3B2C2A225C00A6
:102940005265717565737450617573653A004D31E8
:10295000313720494E53455254205344204341526D
:1029600044004D31313720534420434152442045E7
:1029700052524F520055495F414354494F4E5F53A5
:1029800045545F4D454153555245445F4F52494769
:10299000494E20004E6F205344204361726400531F
:1029A000687574204F666620414C4C204865617400
:1029B0007300507265686561742041425300507223
:1029C000656865617420504C410055495F4143542E
:1029D000494F4E5F484F4D455F5A200055495F4172
:1029E0004354494F4E5F484F4D455F59200055496C
:1029F0005F414354494F4E5F484F4D455F5820005B
:102A000055495F414354494F4E5F484F4D45414CF6
:102A10004C200055495F414354494F4E5F5A504F37
:102A2000534954494F4E5F464153545F4E4F5445AE
:102A30005354200055495F414354494F4E5F5A500B
:102A40004F534954494F4E5F4E4F54455354200005
:102A500055495F414354494F4E5F45504F53495488
:102A6000494F4E200055495F414354494F4E5F5AEC
:102A7000504F534954494F4E5F46415354200055DF
:102A8000495F414354494F4E5F59504F5349544950
:102A90004F4E5F46415354200055495F41435449CE
:102AA0004F4E5F58504F534954494F4E5F46415324
:102AB00054200055495F414354494F4E5F5A504F8F
:102AC000534954494F4E200055495F414354494FA3
:102AD0004E5F59504F534954494F4E200055495F5E
:102AE000414354494F4E5F58504F534954494F4EFC
:102AF000200042616E6742616E6700536C6F7742DF
:102B0000616E6700446561642054696D65005049D9
:102B10004400003A002064617973200050657263BC
:102B2000656E74205072696E7465643A0020646545
:102B300066200046572044617465203230313730BA
:102B400032303800526F73746F636B4D4158763377
:102B5000005365654D65434E4300526F73746F6358
:102B60006B204D4158207633204475616C00A838A5
:102B70005E38EC378F37416374696F6E3A256C614C
:102B800000040003004E6F00596573004E2F410092
:102B90004F6666004F6E000000003FCDCC4C3D0AF2
:102BA000D7A33B6F12033A52657065746965722052
:102BB0007620302E39322E32000040145480250009
:102BC0000040380000004B000080700000009600BC
:102BD00000C0DA000000E10000002C010008B20192
:102BE0000000C2010000F401000084030090D00343
:102BF0000000E803000008070020A1070000100EF5
:102C00000040420F0060E3160000000000110A04BB
:102C100011040A1111001C1F11111F0000040A0ADF
:102C20000A0E1F1F0E001F1111111F0000001F1F91
:102C30001F1F1F0000040A040000000000040E15FE
:102C4000041C00000002000006004C2C1635B22CBB
:102C50006331852CB631F42C02000007005F2C167E
:102C6000356D2C6331852CB631EE30992C742C02E5
:102C7000643200005072696E74657220536574741A
:102C8000696E6773008C2C023633000041646A75EC
:102C900073742054656D707300A02C02CA2C000060
:102CA000416476616E6365642053657474696E6710
:102CB0007300B92C027B3200005072696E74657229
:102CC0002053657474696E6773000200000900D1B7
:102CD0002C1635DF2DCB2DBB2DAB2DE32C942D7C6D
:102CE0002DF42CEA2C029130000044656275676770
:102CF000696E6700FB2C02F733000043616C696268
:102D0000726174696F6E204D656E75000310270245
:102D100000132D1E2D172D252D0000000000362D2F
:102D200000000000006C6F6164656420662E204521
:102D30004550524F4D00436F6E66696775726174FE
:102D4000696F6E0003102702004B2D562D4F2D5D2D
:102D50002D00000000006E2D000000000073746F55
:102D600072656420696E20454550524F4D00436F97
:102D70006E66696775726174696F6E00832D0307F3
:102D80000400004C6F61642066726F6D20454550F1
:102D9000524F4D009B2D030604000053746F726563
:102DA00020746F20454550524F4D00B22D02EE2D3C
:102DB0000000457874727564657200C22D0225307A
:102DC0000000466565647261746500D22D02513061
:102DD0000000416363656C65726174696F6E00E643
:102DE0002D02712F000047656E6572616C00020054
:102DF000001400F52D163595337B33312E1D2E5DD5
:102E00002F492F372F262F112FE22EFA2ECB2EB837
:102E10002EA42E932E822E6D2E582E452E242E0457
:102E200028040000592D4F66667365743A25587959
:102E300000382E0427040000582D4F666673657411
:102E40003A255878004C2E042F04000050494420A5
:102E50004D61783A255844005F2E04260400004452
:102E600072697665204D61783A25584D00742E04BC
:102E7000250400004472697665204D696E3A255834
:102E80006D00892E042404000050494420443A2552
:102E90005864009A2E042304000050494420493A03
:102EA00025586900AB2E042204000044542F5049D9
:102EB0004420503A25587000BF2E042D04000043D2
:102EC0006F6E74726F6C3A25586800D22E044604F7
:102ED0000000416476616E6365206C696E3A255826
:102EE0006C00E92E044D0400005761697420556E92
:102EF0006974733A2558556D6D00012F044C040018
:102F000000576169742054656D702E255854024332
:102F100000182F042E040000537461622E54696D52
:102F2000653A255877002D2F042A04000041636379
:102F3000656C3A255841003E2F042B0400004D617A
:102F4000782046523A25584600502F042C040000A1
:102F500053746172742046523A25586600642F04F7
:102F60002904000053746570732F4D4D3A25536545
:102F7000000200000400782F1635AD2F952F802F0A
:102F8000872F02C12F00004D61782E20496E6163AA
:102F900074697665009C2F02F32F000053746570EE
:102FA00070657220496E61637469766500B42F04A0
:102FB0001004000042617564726174653A256F63A4
:102FC000000358040200C82FD32FCC2FDA2F0000A3
:102FD000000000E42F00000000005B735D20303D26
:102FE0004F6666004469732E2041667465723A2507
:102FF0006970000320040200FA2F0530FE2F0C3008
:103000000000000000163000000000005B735D202F
:10301000303D4F6666004469732E204166746572C8
:103020003A2569730002000003002C301635423047
:10303000323039300413040000486F6D653A25665C
:103040005A00493004160400004D61783A25667A2A
:1030500000020000040058301635803070306030B7
:103060006730040E0400004A65726B3A25616A00FD
:103070007730040D0400004D6F76653A25615A00E3
:103080008730040A0400005072696E743A25617A30
:1030900000020000050098301635DB30C830B5302E
:1030A000A230A93003350400004472792072756E95
:1030B0003A25646400BC3003340400004572726F2A
:1030C0007273203A25646500CF3003330400004951
:1030D0006E666F2020203A25646900E230033204D6
:1030E00000004563686F2020203A25646F00F530AA
:1030F000020231000053442043617264204D656E2A
:103100007500020000060009311635633150313A6E
:1031100031283115311C3103F403010244656C651B
:1031200074652066696C65002F310282310200539C
:10313000746F70205072696E7400413103F703049C
:1031400000436F6E74696E7565205072696E74000D
:10315000573103F60302045061757365205072699C
:103160006E74006A3103F503010253656C65637484
:103170002053442046696C65000100000100803145
:10318000163502000003008931A4319A318F31963F
:1031900031035424020059657300A13103E8030090
:1031A000004E6F00AB31010000000053746F7020BF
:1031B0005072696E7400BD3102CE31000041646A04
:1031C0007573742046616E2073706565640002003B
:1031D000000700D53116354C32383223320E32F921
:1031E00031E331EA31031E04000053657420466167
:1031F0006E20313030252525000032031D040000EB
:103200005365742046616E2037352525250015321B
:10321000031C0400005365742046616E2035302580
:103220002525002A32031B040000536574204661E3
:103230006E203235252525003F32031A040800543C
:1032400075726E2046616E204F66660053320452DE
:1032500004000046616E2073706565643A2546730C
:103260002525250002000009006B321635C532AC59
:103270003223331033F6320235DE32020000090009
:1032800082321635C532AC3223331033F632023572
:103290009432DE329B3203B20F0000556E6C6F63C6
:1032A0006B2046756C6C204D656E7500B33204481A
:1032B000040000466C6F772020526174653A256FD8
:1032C0006625252500CC32041F0400005370656577
:1032D0006420526174653A256F6D25252500E5321D
:1032E000034204001044697361626C652053746585
:1032F000707065727300FD32033804000053687506
:1033000074204F666620414C4C2048656174730000
:1033100017330347040000507265686561742041EB
:103320004253002A33033704000050726568656118
:103330007420504C410002000008003D331635DF78
:1033400033C73363334D3395337B33AF3354330358
:103350003B04000045787472756465722031204F1B
:103360006666006A33033A040000536875742044AB
:103370006F776E204E6F7A7A6C650082330301049A
:1033800000002558312053656C65637420457874BE
:10339000722E2031009C3303450400002558302054
:1033A00053656C65637420457874722E203000B6C6
:1033B00033043C0400004245442054656D703A20BB
:1033C00020254562024300CE33043E0400005465CC
:1033D0006D702E2031203A2020254531024300E631
:1033E00033043D04000054656D702E2030203A20D7
:1033F000202545300243000200000600FE3316354A
:1034000034340A340235CC3420341134042104001D
:1034100000482E20526164697573203A256F680058
:10342000273403AC0F0000536574205A204F726993
:1034300067696E003B34024C34000046756C6C20AA
:1034400043616C6962726174696F6E00020000040E
:103450000053341635893474345B34623403B10F4D
:103460000000426567696E2043616C696272617435
:10347000696F6E007B3403B50F0000424544204164
:10348000524520434C45414E00903403B40F000098
:103490004D414B452053555245204E4F5A5A4C45AD
:1034A0002026000200000600AA3416350235F0344A
:1034B000DE34CC34B634BD34022F35000045787488
:1034C000722E20706F736974696F6E00D33402902E
:1034D0003600005A20506F736974696F6E00E534CE
:1034E00002E53600005920506F736974696F6E00F1
:1034F000F734023A3700005820506F736974696FCF
:103500006E00093503FD030000486F6D65205072A1
:10351000696E746572001D3503E803000050726522
:1035200076696F75732053637265656E20010003C1
:10353000F0030400363553354C3545353E355A35A4
:103540000000000000683500000000007935000030
:1035500000000088350000000000255566206D2021
:103560007072696E7465640020453A2565632F2585
:10357000456302437E256F43003120636C69636BB2
:10358000203D2031206D6D00453A257833206D6D4A
:103590000003FC0304009835B535AE35A735A035DA
:1035A000BC350000000000BD350000000000CD3536
:1035B0000000000000DD350000000000004D6178D3
:1035C00020656E6473746F703A25735A004D696E8E
:1035D00020656E6473746F703A25737A005A3A25C9
:1035E0007832206D6D0003FB030400ED350A3603CD
:1035F00036FC35F5351136000000000012360000AB
:1036000000000022360000000000323600000000FA
:1036100000004D617820656E6473746F703A257395
:1036200059004D696E20656E6473746F703A25732E
:103630007900593A257831206D6D0003FA030400B2
:1036400042365F36583651364A366636000000003C
:103650000067360000000000773600000000008799
:10366000360000000000004D617820656E647374C0
:103670006F703A257358004D696E20656E647374DF
:103680006F703A25737800583A257830206D6D00B8
:1036900003EF0304009736B436AD36A6369F36BB2B
:1036A000360000000000BC360000000000CC3600F0
:1036B00000000000DC360000000000004D617820B2
:1036C000656E6473746F703A25735A004D696E208D
:1036D000656E6473746F703A25737A005A3A257870
:1036E00032206D6D0003EE030400EC36093702371B
:1036F000FB36F436103700000000001137000000E0
:1037000000002137000000000031370000000000F9
:10371000004D617820656E6473746F703A2573593B
:10372000004D696E20656E6473746F703A2573790D
:1037300000593A257831206D6D0003ED03040041F6
:10374000375E37573750374937653700000000007C
:103750006637000000000076370000000000863762
:103760000000000000004D617820656E6473746F86
:10377000703A257358004D696E20656E6473746FDE
:10378000703A25737800583A257830206D6D000026
:10379000000004009637B337AC37A5379E37BA37E9
:1037A0000000000000C0370000000000D437000017
:1037B000000000D8370000000000255566206D008D
:1037C000546F74616C2046696C616D656E74205530
:1037D0007365640025557400546F74616C205072D9
:1037E000696E74696E672054696D6500000000049D
:1037F00000F337103809380238FB3717380000005B
:1038000000002B38000000000039380000000000E4
:103810004B380000000000526F73746F636B204DD3
:103820004158207633204475616C005072696E7483
:103830006572204D6F64656C004657204461746565
:103840003A20323031373032303800465720566512
:103850007273696F6E3A20302E39322E32000000BA
:10386000000400653882387B3874386D3889380038
:10387000000000008D3800000000009638000000B5
:1038800000009F380000000000256F73005A3A25A1
:103890007832206D6D00593A257831206D6D0058D1
:1038A0003A257830206D6D000000000400AF38CC60
:1038B00038C538BE38B738D3380000000000D738D4
:1038C0000000000000F03800000000000339000094
:1038D000000000256F730053706565643A256F6DB5
:1038E00025252520466C6F773A256F66252525000E
:1038F0004245443A256562205461726765743A25F1
:103900004562004E4F5A3A256563205461726765DF
:10391000743A25456300000000000000000000002C
:1039200000FF0000010000000A0B02090C0D0E0848
:103930000703040100000000000000000000000078
:103940000000000000000000000000000000000077
:103950000000121110000000000000000000000034
:103960000000000000000000000000000102102024
:1039700020080810204010204080020102010804A5
:103980000201010204081020408080402010080439
:103990000201800402018040201008040201080492
:1039A00002010102040810204080010204081020D6
:1039B00040800505050507050808080802020202FF
:1039C0000A0A0808040404040101010101010101BB
:1039D0000303030303030303040707070C0C0C0C86
:1039E0000C0C0C0C0202020206060606060606066F
:1039F0000B0B0B0B0B0B0B0B000020002300260006
:103A000029002C002F0032000001000003010601F4
:103A1000090100002200250028002B002E003100A3
:103A2000340002010000050108010B010000210023
:103A3000240027002A002D0030003300010100007F
:103A4000040107010A01024E414E494E49545949A9
:103A50004E46CDCCCC3D0AD7233C17B7D13877CCD6
:103A60002B329595E6241FB14F0A0000204100003B
:103A7000C84200401C4620BCBE4CCA1B0E5AAEC5F4
:103A80009D74607D1FB80EC4C80111241FBECFEF06
:103A9000D1E2DEBFCDBF00E00CBF14E0A0E0B2E099
:103AA000E4E6FEE202E00BBF02C007900D92A431F3
:103AB000B107D9F72FE1A4E1B4E001C01D92A5310F
:103AC000B207E1F71AE3CAE8DAE300E006C022979A
:103AD0000109FE010BBF0F94AB12C238D10780E081
:103AE0000807A9F70F946C0A0D9430170C94000086
:103AF000CF93DF9300D01F92CDB7DEB744E050E004
:103B0000BC01CE0101960F94EC1669817A818B81FC
:103B10009C810F900F900F900F90DF91CF9108959F
:103B200022E090E0281728F4963019F0220F9F5FCA
:103B3000F9CF209A289A219A229A2398809164009A
:103B40008B7F80936400892F806A86958CBD90FD61
:103B500003C081E0963009F480E08DBD0895809126
:103B60007E0383FB882780F90895179A0895169A93
:103B70000895159A089588E493E0BACFCF92DF9222
:103B8000EF92FF92CF93DF9300D01F921F92CDB799
:103B9000DEB76B017C0160931D1970931E19809331
:103BA0001F19909320190E944FA0C982DA82EB82DC
:103BB000FC8244E050E065E773E0CE0101960F948B
:103BC0000E1723E0B701A60188E795E00E94F54FA4
:103BD0000E943154682F88E690E06D830F94FC16A4
:103BE0006D81681721F088E690E00F9417170F9009
:103BF0000F900F900F900F90DF91CF91FF90EF906B
:103C0000DF90CF900895CF93DF931F92CDB7DEB7AB
:103C1000BC018DE793E00F942A170E943154682F5E
:103C200088E690E069830F94FC166981681739F083
:103C300088E690E00F90DF91CF910D9417170F90C9
:103C4000DF91CF910895CF93DF931F92CDB7DEB769
:103C5000BC018FE793E00F942A170E943154682F1C
:103C600088E690E069830F94FC166981681739F043
:103C700088E690E00F90DF91CF910D9417170F9089
:103C8000DF91CF910895CF93DF931F92CDB7DEB729
:103C9000BC0181E893E00F942A170E943154682FE9
:103CA00088E690E069830F94FC166981681739F003
:103CB00088E690E00F90DF91CF910D9417170F9049
:103CC000DF91CF910895CF93C82F80912F0588233E
:103CD000D1F010922F050E94C66B90916403915011
:103CE00090936403911109C080916503843010F4AE
:103CF0000E94576B85E0809364036C2F8FE59DE1F4
:103D0000CF910D942D03CF9108958091F9068823CA
:103D100049F00E94D77580E0D6DF8FE59DE10F94D2
:103D20002C03F3CF08954F925F926F927F928F9200
:103D30009F92AF92BF92CF92DF92EF92FF920F933A
:103D40001F93CF93DF9300D01F92CDB7DEB78C01C6
:103D50008091971990919819A0919919B0919A19F9
:103D600089839A83AB83BC83C0909B19D0909C19A4
:103D7000E0909D19F0909E1980909F199090A01945
:103D8000A090A119B090A2199C01AD01BC01CD0178
:103D90000F94DD1181110FC149805A806B807C80A6
:103DA000E89477F82FEF3FEF4FE75FE7C301B201E9
:103DB0000F94DD1181110BC02FEF3FEF4FE75FE74D
:103DC000C301B2010F948A0E18160CF4F4C0A701B7
:103DD0009601C701B6010F94DD118111ECC02601D7
:103DE0003701E89477F82FEF3FEF4FE75FE7C30124
:103DF000B2010F94DD1181110BC02FEF3FEF4FE7A0
:103E00005FE7C301B2010F948A0E18160CF4D3C0F9
:103E1000A5019401C501B4010F94DD118111CBC03E
:103E200024013501E89477F82FEF3FEF4FE75FE784
:103E3000C301B2010F94DD1181110BC02FEF3FEFD1
:103E40004FE75FE7C301B2010F948A0E18160CF416
:103E5000B2C020916F193091701940917119509131
:103E6000721969817A818B819C810F94260E2B01B6
:103E70003C0120917319309174194091751950913A
:103E80007619C701B6010F94260E6B017C012091B3
:103E90007719309178194091791950917A19C501A3
:103EA000B4010F94260E4B015C018091F719882311
:103EB00029F020E732E441E25DE304C020E030E095
:103EC00040E85FE3C301B2010F943211AB01BC01C2
:103ED00022E08EEE98E10E9432508091F7198823FB
:103EE00029F020E732E441E25DE304C020E030E065
:103EF00040E85FE3C701B6010F943211AB01BC018A
:103F000022E086EE98E10E9432508091F7198823D2
:103F100029F020E732E441E25DE304C020E030E034
:103F200040E85FE3C501B4010F943211AB01BC015D
:103F300023E082EE98E10E9432506091AF197091B7
:103F4000B0198091B1199091B2190F945D0F209121
:103F5000F3193091F4194091F5195091F6190F9415
:103F600032112091F719222329F020E732E441E2AF
:103F70005DE304C020E030E040E85FE30F943211DD
:103F8000AB01BC0124E08EED98E10F900F900F90F3
:103F90000F90DF91CF911F910F91FF90EF90DF90E5
:103FA000CF90BF90AF909F908F907F906F905F90D9
:103FB0004F900C94F54FC8010E941B4E4ACFCF92F0
:103FC000DF92EF92FF92CF93DF93EC01893191055D
:103FD0003CF0C53F81E0D8072CF0C4EFD1E002C02F
:103FE000C9E1D0E0BE01882777FD8095982F0F9416
:103FF0005D0F6B017C016091A7187091A81888274C
:1040000077FD8095982F0F945D0F9B01AC01C70140
:10401000B6010F94910E9B01AC016091A9187091AB
:10402000AA188091AB189091AC180F94321160933C
:10403000A9187093AA188093AB189093AC18D093DA
:10404000A818C093A718BE018DEA98E1DF91CF911F
:10405000FF90EF90DF90CF900C94DD4ECF92DF92E7
:10406000EF92FF926B017C0120E030E040E752E4E8
:104070000F948A0E87FD11C020E030E046E153E442
:10408000C701B6010F94BE1018166CF4C12CD12CC8
:1040900086E1E82E83E4F82E06C0C12CD12C90E7EF
:1040A000E92E92E4F92EC0921D19D0921E19E092C9
:1040B0001F19F092201922E0B701A60184E998E1C6
:1040C000FF90EF90DF90CF900C94F54F8F929F92DE
:1040D000AF92BF92CF92DF92EF92FF92CF93DF9396
:1040E000EC018931910534F0893C91052CF0C8EC44
:1040F000D0E002C0C9E1D0E0D093A618C093A518C3
:10410000E0911404F0911504E258FF4FC080D18073
:10411000E280F38020E030E0A901C701B6010F94EE
:104120008A0EAE01662757FD6095762F18165CF053
:10413000CB01BA010F945D0F2AE037ED43E25CE357
:104140000F94321124C0CB01BA010F945D0F2AE005
:1041500037ED43E25CE30F94321120E030E040E8B9
:1041600050E40F9432114B015C01A7019601C70185
:10417000B6010F9432112BED3FE049E450E40F9467
:1041800032119B01AC01C501B4010F94910E6093F3
:10419000790370937A0380937B0390937C03BE0131
:1041A0008FE998E1DF91CF91FF90EF90DF90CF9072
:1041B000BF90AF909F908F900C94DD4ECF93DF9384
:1041C00020916B1997FD0DC0EC018F3F910519F0FF
:1041D00014F0CFEFD0E0209721F0286020936B19E6
:1041E00005C0277F20936B19C0E0D0E061118DDD01
:1041F0008091531890E0C817D90729F0BE018AE8CA
:1042000098E10E94DD4EC0935318DF91CF9108953D
:104210004F925F926F927F928F929F92AF92BF92D6
:10422000CF92DF92EF92FF92CF93DF9300D01F9255
:10423000CDB7DEB72FE632E143E85AE360918F183D
:104240007091901880919118909192180F9432115A
:104250006B017C0181E890E04BDC9B01AC01C70164
:10426000B6010F94260EAB01BC0122E088E798E16D
:104270000E94325086E698E10E94E24DE0910A02E7
:10428000F0910B02C384D484E584F684E0910C029F
:10429000F0910D0220E030E040E751E46385748541
:1042A000858596850F94BE10181654F020E030E0F6
:1042B00040E751E4C701B6010F94BE101816ACF4E4
:1042C0000F94FD07C0909318D0909418E090951823
:1042D000F09096186C197D098E099F0928EE33E03D
:1042E00040E050E00F943C1203C020E030E0A90110
:1042F0008DE790E029833A834B835C830F94041706
:104300004B015C0129813A814B815C81820E931EB5
:10431000A41EB51EC501B40120E831E541E050E01E
:104320000F945E1260E87EEA8EEF9FEF0F94F91112
:104330006B017C01C80CD91CEA1CFB1CBA01A90149
:1043400089E698E10E94034FC701B60120E13EE0F3
:1043500040E050E00F945E1249015A01BA01A901F0
:104360008FE598E10E94034FA0EFB1EFA501940102
:104370000F94A7126C0D7D1D8E1D9F1D2CE330E048
:1043800040E050E00F945E12BA01A90187E598E180
:104390000E94034F82E598E10F900F900F900F90CD
:1043A000DF91CF91FF90EF90DF90CF90BF90AF90D3
:1043B0009F908F907F906F905F904F900C94FA4DEC
:1043C0005F988EBD0DB407FEFDCF6EBD0DB407FE28
:1043D000FDCF5F9A0895CF93DF9300D01F921F9275
:1043E000CDB7DEB795E0ECECF3E0DE01119601907D
:1043F0000D929A95E1F7E1E0F0E0EC0FFD1FE80F78
:10440000F11D808190E00F900F900F900F900F9012
:10441000DF91CF91D5CFFF920F931F93CF93DF936F
:1044200000D01F921F92CDB7DEB785E0E1EDF3E03B
:10443000DE01119601900D928A95E1F780E070DB24
:10444000579A8E010F5F1F4FF12CF80161918F0178
:1044500070E08F2DC0DFF394F5E0FF12F6CF0F90E0
:104460000F900F900F900F90DF91CF911F910F91B0
:10447000FF90089567FD43C08230E9F028F4882357
:1044800041F0813061F03BC0833009F1843059F153
:1044900036C0662311F0A19A67C0A19865C08091CB
:1044A0000801662311F0806801C08F7780930801AE
:1044B00047FF3AC05DC080910801662311F0806417
:1044C00001C08F7B8093080147FF34C053C08091A7
:1044D0000801662311F0886001C0877F809308017E
:1044E00047FF32C044C080910801662311F082600A
:1044F00001C08D7F8093080147FF2EC03AC047FD61
:1045000039C08230B9F028F4882341F0813061F05D
:1045100008958330C9F08430F9F00895442311F0F0
:10452000A09A0895A0980895442311F0A29A08959E
:10453000A298089580910801442311F0806201C07F
:104540008F7D80930801089580910801442311F024
:104550008061F7CF8F7EF5CF80910801442311F061
:104560008460EFCF8B7FEDCF47FFD8CF08950895BC
:10457000089508950895643079F028F4613041F089
:10458000623041F00895683051F0603141F0089593
:1045900040E003C040E004C041E060E002C041E010
:1045A00061E068CFCF93DF9383E398E10E94FA4DF7
:1045B00062B36695617070E08EEE98E10E94D14E14
:1045C00062B3617070E080E598E10E94DD4EC6E064
:1045D000D1E08881992787FD9095692F661F66270E
:1045E000661F70E08BE498E10E94D14E62B362FBDB
:1045F000662760F970E080E598E10E94DD4E6881F1
:1046000066FB662760F970E088E498E10E94D14E6D
:10461000688165FB662760F970E080E598E10E949B
:10462000DD4E688163FB662760F970E084E498E101
:104630000E94D14E68816295617070E080E598E1DA
:104640000E94DD4E68816695617070E080E498E1BB
:104650000E94D14E688162FB662760F970E080E5B8
:1046600098E1DF91CF910C94DD4EFF920F931F9351
:10467000CF93DF9300D01F921F92CDB7DEB785E0B6
:10468000E6EDF3E0DE01119601900D928A95E1F7D7
:10469000989A9A9A8091070180628093070180918D
:1046A00007018061809307018091070184608093F6
:1046B00007018E010F5F1F4FF12CF80161918F01EF
:1046C0008F2D59DFF394F5E0FF12F7CF0F900F9085
:1046D0000F900F900F90DF91CF911F910F91FF904E
:1046E00008950C94C8790E94B37920910802309102
:1046F00009028217930724F4909309028093080219
:1047000008956091080270910902809106029091CB
:1047100007026817790744F4709307026093060252
:1047200081EF98E10C94DD4E0895CF93C82F69E195
:1047300070E08CE19EE10F9491056C2F8CE19EE17D
:104740000F94320560E08CE19EE10F94920588237E
:1047500029F08BE79CE0CF910C94FA4DCF9108950E
:10476000CF93DF93D82FC62F69E170E08CE19EE1F3
:104770000F9491056D2F8CE19EE10F9432056C2F03
:104780008CE19EE10F9432058CE19EE10F94A4052B
:10479000882331F08CE59CE0DF91CF910C94FA4DA9
:1047A000DF91CF9108951F93CF93DF93182FBDDF33
:1047B00041E050E069E170E08CE19EE10F948505F5
:1047C0008CE19EE10F94DB04892BA1F08CE19EE14A
:1047D0000F94E304EC01612F70E082E59CE00E94FD
:1047E000D14EBE01772789E49CE0DF91CF911F91E4
:1047F0000C94DD4E8BE29CE0DF91CF911F910C94E5
:10480000FA4D86E09CE00E94FA4D8CE19EE10F9407
:1048100070058FE0C8DF81E3C6DF80E2C4DF6CE9AA
:1048200080E29EDF80E2BFDF82E2BDDF60E482E201
:1048300097DF82E2B8DF85E2B6DF60E085E290DFF5
:1048400085E2B1DF83E2AFDF60E383E289DF83E209
:10485000AADF84E2A8DF6AE484E282DF84E2A3DFE5
:1048600080E3A1DF60E280E37BDF80E39CDF81E324
:104870009ADF82E398DF64E182E372DF82E393DF11
:1048800083E391DF60E083E36BDF83E38CDF84E32A
:104890008ADF60E084E364DF84E385DF86E383DF2F
:1048A00062E386E35DDF86E37EDF87E37CDF60E053
:1048B00087E356DF87E377DF88E375DF60E188E32E
:1048C0004FDF88E370DF89E36EDF8AE36CDF62E34A
:1048D0008AE346DF8AE367CF81E365DF85E363DF51
:1048E00089E361DF8DE25FCF6DE087E096E00E94B3
:1048F00047786AE087E096E00C944778DF92EF9281
:10490000FF920F931F93CF93DF93D82EE09114045F
:10491000F091150442A953A964A975A922E08BED71
:1049200098E10E943250E0911404F091150446A9D8
:1049300057A960AD71AD20E08CEB98E10E94325038
:104940000E942163AB01BC0122E087ED98E10E9447
:10495000325040911B0250911C0260911D027091D7
:104960001E0220E08CEB98E10E943250DD2091F095
:1049700062E070E083EC98E10E94D14E6CEF7FE042
:104980008091130290911402681B790B81EC98E1DD
:104990000E94D14EE0911002F0E0E15BF74E6081A1
:1049A00070E088EC98E10E94D14EE0916303EF3F04
:1049B00029F4E0911404F0911504E081F0E0E15B4A
:1049C000F74E608170E083ED98E10E94D14E08E8D7
:1049D00012E0C0E0D0E02CEFE22E2FE0F22EBE017C
:1049E00080ED98E10E94D14ED80117964D915D91CE
:1049F0006D917C911A9722E081EC98E10E943250EF
:104A0000F801438554856585768520E08CEB98E137
:104A10000E943250BE018DEC98E10E94D14ED80127
:104A2000EC91F0E0E15BF74E608170E081EC98E1A1
:104A30000E94D14EDD2079F0BE0183EC98E10E9406
:104A4000D14EF80183819481B701681B790B81EC09
:104A500098E10E94D14E21960D571F4FC230D105CB
:104A600009F0BDCFDF91CF911F910F91FF90EF9093
:104A7000DF903ACF2F923F924F925F926F927F9248
:104A80008F929F92AF92BF92CF92DF92EF92FF925E
:104A90000F931F93CF93DF93CDB7DEB729970FB650
:104AA000F894DEBF0FBECDBF4C01DC0116968D9190
:104AB0009C9117978C38910509F462C608F0DBC009
:104AC0008235910509F40EC408F07EC08A31910543
:104AD00009F4C5C208F03FC08531910509F43DC213
:104AE00078F48231910509F417C28431910509F4F3
:104AF00018C2419711F00C94373617981698AFC525
:104B00008731910509F461C208F443C288319105E7
:104B100009F489C2499711F00C94373660E08CEFA4
:104B200099E129960FB6F894DEBF0FBECDBFDF9195
:104B3000CF911F910F91FF90EF90DF90CF90BF909A
:104B4000AF909F908F907F906F905F904F903F902D
:104B50002F900C94C7BE8E31910509F4DDC218F573
:104B60008C31910509F4B0C210F00C9470368CEFC2
:104B700099E129960FB6F894DEBF0FBECDBFDF9145
:104B8000CF911F910F91FF90EF90DF90CF90BF904A
:104B9000AF909F908F907F906F905F904F903F90DD
:104BA0002F900C9428C38A32910509F40FC328F47E
:104BB000809709F4DEC20C9437368035910510F0E9
:104BC0000C9470360C9437368B36910511F40C9496
:104BD000452F38F58C35910509F48FC460F4843580
:104BE000910509F488C308F481C38535910509F45A
:104BF00060C40C9437368836910509F433C530F417
:104C00008336910509F4DDC40C9437368936910555
:104C100009F408C68A36910511F40C94372F0C94C8
:104C200037368337910511F40C94B52F80F48F3605
:104C3000910511F40C94672F8237910511F40C94AF
:104C4000D32F8D36910511F00C9437360DC685376C
:104C5000910511F40C94D62F10F40C94E42E8737A0
:104C6000910511F40C9401308837910511F40C94DE
:104C700044300C9437368530B1E09B0711F40C9426
:104C8000573308F0B0C08F3C910511F40C94F1310A
:104C900008F041C08A3C910511F40C94193170F46C
:104CA000883C910511F40C946A3010F00C94BB30E0
:104CB0008E3B910509F4D7C70C9437368C3C91058F
:104CC00011F40C94703110F40C945E318D3C91050C
:104CD00011F40C94D7318E3C910511F00C943736B9
:104CE000C40129960FB6F894DEBF0FBECDBFDF9189
:104CF000CF911F910F91FF90EF90DF90CF90BF90D9
:104D0000AF909F908F907F906F905F904F903F906B
:104D10002F900C94EC5A8F3D910511F40C94AC3209
:104D200088F48C3D910511F40C9459328D3D910518
:104D300011F40C948132813D910511F00C943736B9
:104D40000C943932893E910511F40C94C13240F52E
:104D5000883E910511F00C94373660915818709187
:104D600059188CEE97E10E94D14E40915418509101
:104D70005518609156187091571822E083EE97E10C
:104D80000E94F54F1092591810925818109254180A
:104D90001092551810925618109257180C9470369D
:104DA0008B3F910511F40C94FA328430914011F04C
:104DB0000C94373629960FB6F894DEBF0FBECDBFE0
:104DC000DF91CF911F910F91FF90EF90DF90CF90E7
:104DD000BF90AF909F908F907F906F905F904F901B
:104DE0003F902F900ECD8E3521E0920711F40C9458
:104DF000AF34C0F58E3241E0940711F40C94FA33CD
:104E000098F48931A1E09A0711F40C94AF338C32F5
:104E1000B1E09B0711F40C94BF338630914011F040
:104E20000C9437360C9479338034F1E09F0711F4F9
:104E30000C946D3438F48F32914011F40C94393461
:104E40000C943736813441E0940711F40C9471349A
:104E50008234914011F00C94373680E00E94DBB32D
:104E60000C9486348239A1E09A0711F40C949A3597
:104E700098F58836E1E09E0711F40C94663538F415
:104E80008336914011F40C9420350C9437368039D8
:104E900031E0930711F40C9480358139914011F081
:104EA0000C94373629960FB6F894DEBF0FBECDBFEF
:104EB000DF91CF911F910F91FF90EF90DF90CF90F6
:104EC000BF90AF909F908F907F906F905F904F902A
:104ED0003F902F900C94FEB1853F51E0950711F45F
:104EE0000C94CA3560F4843F914011F00C9437362D
:104EF00080E00E94485485E593E10C94D535863FC7
:104F0000E1E09E0711F40C94EF358C38934011F4D6
:104F10000C9409360C9437360E94B51D0E94B71DBB
:104F200077C28CEF99E129960FB6F894DEBF0FBED9
:104F3000CDBFDF91CF911F910F91FF90EF90DF9048
:104F4000CF90BF90AF909F908F907F906F905F9029
:104F50004F903F902F900C946CC28CEF99E1299662
:104F60000FB6F894DEBF0FBECDBFDF91CF911F917A
:104F70000F91FF90EF90DF90CF90BF90AF909F90F8
:104F80008F907F906F905F904F903F902F900C94F8
:104F90004ABE8CEF99E129960FB6F894DEBF0FBE9A
:104FA000CDBFDF91CF911F910F91FF90EF90DF90D8
:104FB000CF90BF90AF909F908F907F906F905F90B9
:104FC0004F903F902F900C944FBED4018D919C91A7
:104FD00097FD02C00C94703660E08CEF99E10E945E
:104FE00041CDF401EE5AFF4F6081718140E08CEFBA
:104FF00099E129960FB6F894DEBF0FBECDBFDF91C1
:10500000CF911F910F91FF90EF90DF90CF90BF90C5
:10501000AF909F908F907F906F905F904F903F9058
:105020002F900C949FC28CEF99E129960FB6F894BB
:10503000DEBF0FBECDBFDF91CF911F910F91FF90CB
:10504000EF90DF90CF90BF90AF909F908F907F9028
:105050006F905F904F903F902F900C94B6BEF401EC
:105060008081918192FD02C00C947036468D578DDF
:1050700060A171A18091661A882311F40C94703696
:1050800040935D1A50935E1A60935F1A7093601A92
:105090008CE39AE129960FB6F894DEBF0FBECDBF20
:1050A000DF91CF911F910F91FF90EF90DF90CF9004
:1050B000BF90AF909F908F907F906F905F904F9038
:1050C0003F902F900C9487CBD4018D919C9197FDAC
:1050D00002C00C947036F401EE5AFF4F608171816A
:1050E0008CEF99E129960FB6F894DEBF0FBECDBFC5
:1050F000DF91CF911F910F91FF90EF90DF90CF90B4
:10510000BF90AF909F908F907F906F905F904F90E7
:105110003F902F900C944CC3F4018081918197FDB6
:1051200002C00C94703660E08CEF99E10E9441CD92
:10513000F401EE5AFF4F608171818CEF99E129965D
:105140000FB6F894DEBF0FBECDBFDF91CF911F9198
:105150000F91FF90EF90DF90CF90BF90AF909F9016
:105160008F907F906F905F904F903F902F900C9416
:10517000ADC3D4018D919C9197FD02C00C94703603
:1051800060E08CEF99E10E9441CDF401EE5AFF4FAF
:10519000608171818CEF99E129960FB6F894DEBF9A
:1051A0000FBECDBFDF91CF911F910F91FF90EF9078
:1051B000DF90CF90BF90AF909F908F907F906F9037
:1051C0005F904F903F902F900C94DBC3F4012081AF
:1051D000318133FD02C00C94703612A1E12EF3A090
:1051E000E9E9FCE0449150E04E155F0509F45EC02A
:1051F00032964DE0E132F407A9F7F7FC57C032FFD1
:105200002CC0D4015E964D915D916D917C919197EA
:105210004F3F51056105710509F0E0F461E0812F10
:105220000F94D509F401668D812F0F940E0AD401D5
:105230005E966D917C915F97812F0F94BD08B701A9
:1052400086E298E10E94D14EF401668D778D81E26D
:1052500098E112C08FE095E02BC062E0812F0F949F
:10526000D509B70181E298E10E94D14E812F0F94B8
:10527000430ABC018CE198E129960FB6F894DEBF91
:105280000FBECDBFDF91CF911F910F91FF90EF9097
:10529000DF90CF90BF90AF909F908F907F906F9056
:1052A0005F904F903F902F900C94DD4E89ED94E0ED
:1052B00029960FB6F894DEBF0FBECDBFDF91CF9118
:1052C0001F910F91FF90EF90DF90CF90BF90AF9024
:1052D0009F908F907F906F905F904F903F902F9016
:1052E0000C941B4E1092B3190C94703681E080938D
:1052F000B3190C947036D4018D919C91119792FF43
:1053000014C05E962D913D914D915C919197A8EEC0
:10531000B3E00F949B1260936D0370936E038093C0
:105320006F03909370030C94703693FFA5C0F40143
:1053300082A193A1A4A1B5A182309105A105B105D7
:1053400009F466C02CF50097A105B10509F446C023
:105350000197A105B10511F00C94703629960FB68E
:10536000F894DEBF0FBECDBFDF91CF911F910F919B
:10537000FF90EF90DF90CF90BF90AF909F908F9075
:105380007F906F905F904F903F902F900C94B71D3F
:1053900083309105A105B10509F454C00497A10516
:1053A000B10511F00C94703629960FB6F894DEBF53
:1053B0000FBECDBFDF91CF911F910F91FF90EF9066
:1053C000DF90CF90BF90AF909F908F907F906F9025
:1053D0005F904F903F902F900C94386329960FB6B2
:1053E000F894DEBF0FBECDBFDF91CF911F910F911B
:1053F000FF90EF90DF90CF90BF90AF909F908F90F5
:105400007F906F905F904F903F902F900C94B51DC0
:1054100029960FB6F894DEBF0FBECDBFDF91CF91B6
:105420001F910F91FF90EF90DF90CF90BF90AF90C2
:105430009F908F907F906F905F904F903F902F90B4
:105440000C94B91D29960FB6F894DEBF0FBECDBFE0
:10545000DF91CF911F910F91FF90EF90DF90CF9050
:10546000BF90AF909F908F907F906F905F904F9084
:105470003F902F900C942A630E94851E81E029960C
:105480000FB6F894DEBF0FBECDBFDF91CF911F9155
:105490000F91FF90EF90DF90CF90BF90AF909F90D3
:1054A0008F907F906F905F904F903F902F900C94D3
:1054B000CD9FD4018D919C91119792FF14C05E965F
:1054C0002D913D914D915C919197A8EEB3E00F9491
:1054D0009B12609371037093720380937303909394
:1054E00074030C9470361092710310927203109230
:1054F0007303109274030C947036F401808183FF5F
:105500000CC082859385A485B5858093BB03909359
:10551000BC03A093BD03B093BE03D4018C9184FF60
:105520000EC01E968D919D910D90BC91A02D8093E3
:10553000BF039093C003A093C103B093C203F401CF
:10554000808185FF0CC082899389A489B589809365
:10555000C3039093C403A093C503B093C6030E94F2
:105560004FA0D4018C9186FD02C00C94703620911E
:1055700014043091150456968D919D910D90BC9117
:10558000A02DF90181879287A387B487808129960E
:105590000FB6F894DEBF0FBECDBFDF91CF911F9144
:1055A0000F91FF90EF90DF90CF90BF90AF909F90C2
:1055B0008F907F906F905F904F903F902F900C94C2
:1055C0003161D401ED91FC911197F2FF0DC05E960F
:1055D0002D913D914D915C919197A8EEB3E00F9480
:1055E0009B126B017C0106C030E1C32E37E2D32E43
:1055F000E12CF12CE3FD0E94B51DF401808184FDB6
:105600000E94B71DD4018C9185FD0E94B91D0F9495
:10561000FD072B013C014C0C5D1C6E1C7F1C0F9484
:10562000FD07A3019201261B370B480B590BDA012A
:10563000C901803A9648A140B10518F40E9445A5D9
:10564000EECFD4018C9183FD1798F401808184FD05
:105650001698D4018C9185FD02C00C947036159873
:105660000C9470360E94886B81110C9470360F94E4
:10567000FD0760935A1870935B1880935C189093A1
:105680005D180E94AF1D81110C947036F401808169
:10569000918193FF02C00C945A3692FF0AC0868D06
:1056A000978DA0A1B1A1892B8A2B8B2B11F40C947F
:1056B0005A36D4018D919C91119792FD02C00C94A1
:1056C000703691FF34C0E0911404F0911504AC5A87
:1056D000BF4F9C91808198130C94703610E0F401B8
:1056E0008081918190FF0FC001E020E030E0A901AE
:1056F000628D738D848D958D0F94BE1018160CF0ED
:1057000000E0202F01C020E0D4015E966D917D91D4
:105710008D919C91919729870F945D0F2985412F39
:105720000E94A9661F5F1230D1F60C94703610E00B
:10573000F4018081918190FF0FC001E020E030E012
:10574000A901628D738D848D958D0F94BE101816EE
:105750000CF000E0202F01C020E0D4015E966D9196
:105760007D918D919C91919729870F945D0F29854B
:10577000412F0E94A9661F5F1230D1F60C9470363B
:105780000E94886B81110C9470360F94FD07609312
:105790005A1870935B1880935C1890935D180E9460
:1057A000AF1D81110C947036F4018081918192FDBE
:1057B00002C00C94703690FF0FC011E020E030E082
:1057C000A901628D738D848D958D0F94BE1018166E
:1057D0000CF010E0412F01C040E0D4015E966D91C5
:1057E0007D918D919C91919749870F945D0F49858B
:1057F00029960FB6F894DEBF0FBECDBFDF91CF91D3
:105800001F910F91FF90EF90DF90CF90BF90AF90DE
:105810009F908F907F906F905F904F903F902F90D0
:105820000C949B67F4018081918123E09695879584
:105830002A95E1F7817029960FB6F894DEBF0FBE66
:10584000CDBFDF91CF911F910F91FF90EF90DF902F
:10585000CF90BF90AF909F908F907F906F905F9010
:105860004F903F902F904AC80E94886B81110C94F2
:1058700070360F94FD0760935A1870935B188093ED
:105880005C1890935D180E94AF1D81110C947036C6
:1058900040E068EC74E08FE59DE10E94E8E38FE56D
:1058A0009DE10E943CE70E94851E209014043090E8
:1058B0001504D4018D919C9191FF46C0F401EC5ADE
:1058C000FF4F9081F101808198130C94703610E0A5
:1058D000D4018D919C91119790FF0EC001E020E0C2
:1058E00030E0A9015A966D917D918D919C915D97C3
:1058F0000F94BE1018160CF000E0F401668D778D41
:1059000080A191A10F945D0F202F412F0E94A966C5
:105910001F5F1230E9F6D101D6962D913D914D9140
:105920005C91D997D2966D917D918D919C91D597EF
:105930000F94250E2B013C0120E030E0A9010F94CB
:10594000BE1018162CF130C010E0F4018081918156
:1059500090FF0CC001E020E030E0A901628D738D62
:10596000848D958D0F94BE1018160CF000E0D401B4
:105970005E966D917D918D919C9191970F945D0FA5
:10598000202F412F0E94A9661F5F1230F1F6C3CF6E
:1059900020E030E040EA50E4C301B2010F948A0EE7
:1059A00087FF0EC00C94703620E030E040EA50ECE7
:1059B000C301B2010F94BE10181614F40C94703683
:1059C00099249394F10120A931A986A597A582175E
:1059D00093070CF0912C0F94FD076D837E838F83CA
:1059E000988710E0412C512C32010F94FD076983F8
:1059F0007A838B839C8360935A1870935B1880938F
:105A00005C1890935D18DC01CB012D813E814F81A4
:105A10005885821B930BA40BB50B893E9340A105BF
:105A2000B10558F080E00E947E2489819A81AB8183
:105A3000BC818D839E83AF83B88781E00E94631E03
:105A400080911404909115042816390609F064C059
:105A5000D1019396ED90FC9094971E141F040CF0C6
:105A60005BC0111158C0992009F477C091966D91CF
:105A70007C919297882777FD8095982F0F945D0FE2
:105A80009B01AC01F10162A973A984A995A90F94A6
:105A9000BE10181614F00C946736662777276E1917
:105AA0007F09882777FD8095982F0F945D0F2091AF
:105AB000C7033091C8034091C9035091CA030F94A2
:105AC00032110F942A0F1F921F92D10152962C91DE
:105AD00052972F9351962C9151972F9350962C912A
