:100000000C94391D0C946A1D0C946A1D0C946A1D85
:100010000C946A1D0C946A1D0C946A1D0C946A1D44
:100020000C946A1D0C946A1D0C946A1D0C946A1D34
:100030000C946A1D0D94B30D0C946A1D0C946A1DEA
:100040000C946A1D0C94447A0C946A1D0C946A1DDD
:100050000C946A1D0C94087C0C94E77A0D94A1070B
:100060000C946A1D0C94867C0C94B07C0C946A1DD4
:100070000C946A1D0C946A1D0C946A1D0C946A1DE4
:100080000C946A1D0C946A1D0C946A1D0C946A1DD4
:100090000C946A1D0C946A1D0C946A1D0D947306D1
:1000A0000C946A1D0C946A1D0C946A1D0C946A1DB4
:1000B0000C946A1D0C946A1D0C946A1D0C946A1DA4
:1000C0000C946A1D0C946A1D0C946A1D0C946A1D94
:1000D0000C946A1D0C946A1D0C946A1D0C946A1D84
:1000E0000C946A1D517369736973697369736973D9
:1000F0006973697369736973697369736973697320
:10010000697369736973697369736973697369730F
:1001100069736973697369734073F272FC72767202
:10012000697322732C73697369738772647269735C
:100130001873697336730E73067369736973697321
:10014000D472DE72E8726973697369736973697373
:1001500069736973697369734073F272FC727672C2
:10016000697322732C73697369738772647269731C
:100170001873697336730E730673697369736973E1
:10018000D472DE72E87237EBC8EB5BECACED88FC46
:1001900088FC88FC88FC88FC88FC88FC88FC88FC3F
:1001A000F4EC30ED6EED88FC88FC88FC88FC88FC63
:1001B00088FC88FC88FC88FC88FC88FC14F176F1BB
:1001C000D6F136F296F2F6F256F388FCD2F7DAF36D
:1001D00050F4C3F435F5A7F519F68BF6F8F665F784
:1001E00088FC88FC88FC88FC88FC97EF64F0BAEFF8
:1001F0001AF887F8F3F860F981F9C3F9F5F927FAE5
:1002000080FADBFA34FB8DFBAEFBA2F988FC88FC9C
:1002100088FC88FC88FC88FC88FC88FC88FC88FCBE
:1002200088FC88FCF6EE25EF5EEF88FC88FC88FCF5
:1002300088FC88FC88FC88FC30FC88FC33F088FC57
:1002400088FC88FCD8FB06FC88FC88FC88FC88FCC1
:100250002AEB88FC88FCEFED92EED6EEBCF0B601FE
:1002600094018C019201BE0196017E01AE01C00194
:100270009C019E017601A801B20196019A01BA0182
:10028000A2018001AA0178017A01C8019001A001B0
:10029000AC018A018601C401B401B001A40190013E
:1002A0008401C601BC0107634236B79BD8A71A393F
:1002B000685618AEBAAB558C1D3CB7CC5763BD6DB4
:1002C000EDFD753EF6177231BF000000803F05A8B6
:1002D0004CCDB2D44EB93836A9020C50B9918688AB
:1002E000083CA6AAAA2ABE000000803F0D9425095A
:1002F0000D947A090D947E090D94F4040D94F70879
:100300000D9488090D94E4040D94B5090D949D098C
:100310000D9420050D9499090D94D9080D94C904E4
:100320000D94C2090D94E3080D94D4080D94660948
:100330000D94F3040D9448090D9411090D941B09B3
:100340000D948F090D945C090D94AF090D949405DB
:100350000D9434090D948B090D9493090D94FF08A5
:100360000D94AB090D943E090D94A7090D94CF0887
:100370000D94670A0D9452090D94BD090D94ED0872
:100380000D9407090D94D1040D94A1090D94B90998
:100390000D948409436F6C64206578747275736979
:1003A0006F6E20646973616C6C6F77656400436F76
:1003B0006C6420657874727573696F6E20616C6C03
:1003C0006F776564004175746F72657472616374F0
:1003D0003A0053657474696E67206D6F746F722094
:1003E00063757272656E742E2E2E00536574204DE7
:1003F0006963726F7374657070696E6700547269B7
:1004000067676572696E67207761746368646F6798
:100410002E204966206163746976617465642C20BE
:10042000746865207072696E7465722077696C6C8F
:100430002072657365742E0053657474696E67204D
:100440005468726573686F6C6420546F3A00494E4B
:10045000542050494E3A20004D323531200020744E
:100460006F200053657420766F6C756D65747269CA
:100470006320657874727573696F6E20666F722081
:100480006578747275646572200044697361626C8A
:10049000656420766F6C756D65747269632065782C
:1004A00074727573696F6E20666F722065787472EE
:1004B0007564657220004D313134200048656174E7
:1004C000696E67204265640048656174696E6720E3
:1004D00045787472756465720050696E2063616E50
:1004E000206E6F7420626520736574206279204DE0
:1004F00034322C206D617920696E20696E76616CD2
:100500006964206F7220696E207573652E20004922
:100510006C6C6567616C20532076616C7565206634
:100520006F72204D3432005A2028432920746F778F
:10053000657220666C6F6F722073657420746F3AF9
:100540002000592028422920746F77657220666C3C
:100550006F6F722073657420746F3A2000582028E2
:10056000412920746F77657220666C6F6F722073FB
:10057000657420746F3A2000526F64205261646980
:1005800075732073657420746F3A200047313334DB
:100590002000506F7346726F6D53746570733A002C
:1005A000436F6D7044656C74613A0043616C6962BD
:1005B000726174696F6E206D6F76656D656E742003
:1005C0006973206C696D6974656420746F203130C3
:1005D0006D6D2E004669727374206D6F76652074A0
:1005E0006F20746F75636820617420782C793D30BA
:1005F0002C3020746F206175746F2D7365742072B8
:1006000061646975732E0043616C6962726174691B
:100610006F6E206D6F76656D656E74206973206CEA
:10062000696D6974656420746F2031306D6D2E00C2
:1006300043616E6E6F7420736574207261646975B6
:100640007320616E6420666C6F6F7220617420731A
:10065000616D652074696D652E0043616C6962721D
:100660006174696F6E20636F6465206973206C69C3
:100670006D6974656420746F20626F74746F6D208F
:10068000313025206F66205A2068656967687400DC
:1006900052656C617469766520706F736974696FF7
:1006A0006E696E67004162736F6C75746520706F60
:1006B000736974696F6E696E670047363920005A36
:1006C0003A2000593A2000583A20004F46465345F8
:1006D0005453204F464620425920544F4F204D55E9
:1006E0004348205F20545259494E472041474149D1
:1006F0004E3A200053657474696E672050726F62C1
:10070000652053656E736974697669747920546FD6
:100710003A005A2070726F6265206661696C656488
:10072000206F6E2073656E73697469766974793AA7
:10073000200053657474696E672050726F62652083
:1007400053656E736974697669747920546F3A00E1
:100750005A2070726F6265206661696C6564206FF3
:100760006E2073656E73697469766974793A2000D6
:1007700053657474696E672050726F6265205365AB
:100780006E736974697669747920546F3A005A20DF
:1007900070726F6265206661696C6564206F6E209F
:1007A00073656E73697469766974793A2000686557
:1007B0006865004E6577205261646975733A200060
:1007C0004F6C64205261646975733A200043616C18
:1007D00063756C6174656420526164697573206926
:1007E0007320626164203A0053657474696E6720F7
:1007F00050726F62652053656E73697469766974AF
:100800007920546F3A005A2070726F6265206661D9
:10081000696C6564206F6E2073656E7369746976A8
:100820006974793A200053657474696E6720507258
:100830006F62652053656E73697469766974792097
:10084000546F3A005A2070726F6265206661696C5D
:100850006564206F6E2073656E7369746976697460
:10086000793A2000473332200050524F42452D5AEA
:100870004F46465345543A0047333000536574742D
:10088000696E672050726F62652053656E7369747C
:10089000697669747920546F3A0050726F6265739B
:1008A00020646F206E6F74206D617463682E204F1A
:1008B0006666206279200047333020004D313137A1
:1008C0002043414C4942524154494F4E20434F4DE1
:1008D000504C4554450068656865004E6577204872
:1008E0006F72697A6F6E74616C205261646975739E
:1008F0003A20004F6C6420486F72697A6F6E7461A1
:100900006C205261646975733A200043616C6375B1
:100910006C61746564205261646975732069732029
:100920006261643A20004D3131372043414C4942E5
:10093000524154494F4E204641494C454400436181
:100940006C6962726174696F6E204661696C65647E
:100950000053657474696E672050726F626520532E
:10096000656E736974697669747920546F3A005AB8
:100970002070726F6265202843656E746572205026
:100980006F696E7429206661696C6564206F6E20E2
:1009900073656E73697469766974793A20004E657F
:1009A00077205A204865696768743A004F6C642064
:1009B0005A204865696768743A004D3131372043E1
:1009C000414C4942524154494F4E204641494C45C1
:1009D000440043616C6962726174696F6E204661A4
:1009E000696C65640053657474696E672050726F3A
:1009F00062652053656E73697469766974792054F1
:100A00006F3A005A2070726F6265202843656E74D9
:100A1000657220506F696E7429206661696C656427
:100A2000206F6E2073656E73697469766974793AA4
:100A3000200047363920005A3A2000593A20005801
:100A40003A20004D31313720456E6473746F702049
:100A50004F6666736574204572726F72004F46462A
:100A600053455453204F464620425920544F4F205F
:100A70004D5543482E2041626F7274696E672E2077
:100A800053656E73697469766974793A20004D31E3
:100A900031372043414C4942524154494F4E204640
:100AA00041494C45440043616C6962726174696FED
:100AB0006E204661696C65640053657474696E6785
:100AC0002050726F62652053656E73697469766930
:100AD000747920546F3A005A2070726F6265202832
:100AE0005A20546F77657229206661696C656420AD
:100AF0006F6E2073656E73697469766974793A20D4
:100B0000004D3131372043414C4942524154494F05
:100B10004E204641494C45440043616C6962726114
:100B200074696F6E204661696C6564005365747406
:100B3000696E672050726F62652053656E736974C9
:100B4000697669747920546F3A005A2070726F6226
:100B50006520285920546F77657229206661696C79
:100B60006564206F6E2073656E736974697669744D
:100B7000793A20004D3131372043414C49425241AE
:100B800054494F4E204641494C45440043616C69ED
:100B900062726174696F6E204661696C65640053AE
:100BA000657474696E672050726F62652053656E5C
:100BB000736974697669747920546F3A005A2070A9
:100BC000726F626520285820546F776572292066FD
:100BD00061696C6564206F6E2073656E73697469FA
:100BE000766974793A2000473420533130004D3112
:100BF00030342053300A4D3134302053300A4D31D7
:100C00003037006578656375746547436F646520A8
:100C10002F20717565756544656C74614D6F7665DF
:100C20002072657475726E73206572726F720069DE
:100C3000697332646820616363656C65726F6D65AA
:100C400074657220696E697469616C697A696E672E
:100C50002E2E2E00616363656C65726F6D65746521
:100C600072206932632072656376206572726F72DA
:100C70002E002076616C75653A20007265616420F3
:100C80007265672000616363656C65726F6D657482
:100C900065722077726974652069326320657272AB
:100CA0006F722E00616363656C65726F6D6574654C
:100CB000722073656E6420693263206572726F7290
:100CC0002E0000000100250030001D000C0018005F
:100CD000240031001C000B00170023002F001B0014
:100CE0000A001E000D00FFFF0900030022002B0078
:100CF0001A004100420021002A0019003F00400074
:100D0000000002003500457874722E00436F6E6655
:100D100069673A004F6E652068656174657220737B
:100D200065656D73206465636F75706C65642066BE
:100D3000726F6D20746865726D6973746F72202DA7
:100D40002064697361626C696E6720616C6C2066F7
:100D50006F722073616665747921004865617465FE
:100D600072206465636F75706C65640043726561C1
:100D700074696F6E206661696C65640044697265B0
:100D800063746F7279206372656174656400446591
:100D90006C6574696F6E206661696C656400466994
:100DA0006C652064656C6574656400446F6E6520D5
:100DB000736176696E672066696C652E005772698B
:100DC00074696E6720746F2066696C653A20006FE5
:100DD00070656E206661696C65642C2046696C657F
:100DE0003A20004E6F74205344207072696E74690B
:100DF0006E67005344207072696E74696E6720627A
:100E0000797465200066696C652E6F70656E20666A
:100E100061696C65640046696C652073656C656327
:100E2000746564002053697A653A0046696C6520F0
:100E30006F70656E65643A00456E642066696C6526
:100E4000206C69737400426567696E2066696C6521
:100E5000206C697374006572726F722077726974A6
:100E6000696E6720746F2066696C65005344206961
:100E70006E6974206661696C00616476616E636599
:100E8000204C205B303D6F66665D0065787472753E
:100E900064657220636F6F6C657220737065656442
:100EA000205B302D3235355D0064697374616E638B
:100EB0006520746F20726574726163742077686551
:100EC0006E2068656174696E67205B6D6D5D00748E
:100ED000656D702E20666F72207265747261637426
:100EE000696F6E207768656E2068656174696E67EA
:100EF000205B435D0074656D702E207374616269C0
:100F00006C697A652074696D65205B735D00592D8D
:100F10006F6666736574205B73746570735D0058EB
:100F20002D6F6666736574205B73746570735D0006
:100F3000504944206D61782076616C7565205B3086
:100F40002D3235355D0050494420442D6761696E6E
:100F50000050494420492D6761696E005049442082
:100F6000502D6761696E2F646561642D74696D65CC
:100F700000504944206472697665206D696E0050A6
:100F80004944206472697665206D61780068656106
:100F900074206D616E61676572205B302D335D007A
:100FA000616363656C65726174696F6E205B6D6D02
:100FB0002F735E325D0073746172742066656564C0
:100FC00072617465205B6D6D2F735D006D61782EAD
:100FD000206665656472617465205B6D6D2F735D5D
:100FE00000737465707320706572206D6D004265CA
:100FF0006420504944206D61782076616C756520CD
:101000005B302D3235355D00426564205049442007
:10101000442D6761696E004265642050494420494F
:101020002D6761696E004265642050494420502D4F
:101030006761696E004265642050494420647269AA
:101040007665206D696E00426564205049442064D5
:1010500072697665206D617800426564204865613B
:1010600074204D616E61676572205B302D335D00C9
:10107000436F72722E20646961676F6E616C2043EA
:10108000205B6D6D5D00436F72722E206469616735
:101090006F6E616C2042205B6D6D5D00436F7272FC
:1010A0002E20646961676F6E616C2041205B6D6DFD
:1010B0005D004D6178207072696E7461626C6520AC
:1010C000726164697573205B6D6D5D00546F776547
:1010D00072205A20656E6473746F70206F66667339
:1010E0006574205B73746570735D00546F7765720F
:1010F000205920656E6473746F70206F6666736527
:1011000074205B73746570735D00546F7765722033
:101110005820656E6473746F70206F6666736574B3
:10112000205B73746570735D005365676D656E74E5
:10113000732F7320666F722074726176656C005332
:1011400065676D656E74732F7320666F72207072A1
:10115000696E74696E6700486F72697A6F6E746148
:101160006C20726F642072616469757320617420F1
:10117000302C30205B6D6D5D00446961676F6E617E
:101180006C20726F64206C656E677468205B6D6D97
:101190005D00486F6D696E67206665656472617495
:1011A00065205B6D6D2F735D004D61782E20666547
:1011B000656472617465205B6D6D2F735D0053749F
:1011C00065707320706572206D6D00547261766574
:1011D0006C20616363656C65726174696F6E205B1E
:1011E0006D6D2F735E325D00416363656C65726186
:1011F00074696F6E205B6D6D2F735E325D004D61A3
:10120000782E206A65726B205B6D6D2F735D005ABE
:10121000206D6178206C656E677468205B6D6D5D14
:101220000059206D6178206C656E677468205B6D75
:101230006D5D0058206D6178206C656E6774682064
:101240005B6D6D5D005A20686F6D6520706F732057
:101250005B6D6D5D005920686F6D6520706F732048
:101260005B6D6D5D005820686F6D6520706F732039
:101270005B6D6D5D0053746F702073746570706585
:101280007220616674657220696E61637469766943
:101290007479205B6D732C303D6F66665D004D6127
:1012A000782E20696E6163746976652074696D6556
:1012B000205B6D732C303D6F66665D005072696E09
:1012C00074657220616374697665205B735D0046A6
:1012D000696C616D656E74207072696E74656420EE
:1012E0005B6D5D00416476616E6365642055736576
:1012F00072004261756472617465004550523A3300
:1013000020004550523A3220004550523A312000D8
:101310004550523A30200050726F746F636F6C20EA
:1013200076657273696F6E206368616E6765642CA1
:1013300020757067726164696E6700436F6E6669DD
:101340006775726174696F6E20726573657420745D
:101350006F2064656661756C74732E00436F6E66F2
:10136000696775726174696F6E206C6F6164656422
:101370002066726F6D20454550524F4D2E00436FD1
:101380006E66696775726174696F6E2073746F72CF
:10139000656420746F20454550524F4D2E004175B5
:1013A000746F6C6576656C2061637469766520285E
:1013B000312F3029005A2D70726F62652059330029
:1013C0005A2D70726F6265205833005A2D70726FFB
:1013D0006265205932005A2D70726F626520583252
:1013E000005A2D70726F6265205931005A2D70724B
:1013F0006F6265205831005A2D70726F62652078D7
:101400002D792D7370656564205B6D6D2F735D00A4
:101410005A2D70726F6265207370656564205B6D14
:101420006D2F735D005A2D70726F6265206F666656
:101430007365742079205B6D6D5D005A2D70726F3D
:101440006265206F66667365742078205B6D6D5DE4
:10145000004D61782E207A2D70726F6265202D20EC
:1014600062656420646973742E205B6D6D5D005A43
:101470002D70726F626520686569676874205B6DA6
:101480006D5D0077616974005072696E74657220D9
:101490006865696768743A005A2D70726F626520DA
:1014A0006661696C6564005472616E73666F726D1B
:1014B0006174696F6E206D61747269783A0041756C
:1014C000746F6C6576656C696E67206469736162C0
:1014D0006C6564004175746F6C6576656C696E67E8
:1014E00020656E61626C6564004175746F6C657631
:1014F000656C206D61747269782072657365740023
:10150000004732382F6E47315A32352F6E005A2D30
:1015100070726F62652073746174653A005265730E
:101520006574205A20686569676874005A2D707266
:101530006F626520617665726167652068656967BD
:1015400068743A0020537465702056617269617442
:10155000696F6E2066726F6D2050726F62652074C5
:101560006F206265642044697374616E63653A003C
:101570005A2D70726F62653A005072696E746572AE
:101580002073657420696E746F206472792072759F
:101590006E206D6F646520756E74696C2072657362
:1015A0007461727421003A20776F726B696E670004
:1015B0003A2074656D702073656E736F7220646578
:1015C000666563740065787472756465722000687E
:1015D000656174656420626564004D54454D503A00
:1015E00000504944204175746F74756E65206669BA
:1015F0006E6973686564202120506C616365207496
:101600006865204B702C204B6920616E64204B6410
:1016100020636F6E7374616E747320696E207468DA
:101620006520436F6E66696775726174696F6E2EAF
:1016300068206F7220454550524F4D00504944205C
:101640004175746F74756E65206661696C6564219F
:101650002074696D656F757400504944204175743C
:101660006F74756E65206661696C656421205465D0
:101670006D706572617475726520746F206869673A
:101680006800204B643A2000204B693A2000204B30
:10169000703A200020436C617373696320504944A1
:1016A000002054753A2000204B753A2000206D61CF
:1016B000783A2000206D696E3A200020643A2000BC
:1016C00020626961733A2000504944204175746F6B
:1016D00074756E652073746172740054617267650D
:1016E000744265643A005461726765744578747237
:1016F000004E6F206D6F766520696E2064656C7496
:1017000061207365676D656E742077697468203E2B
:101710002031207365676D656E742E20546869737F
:101720002073686F756C64206E65766572206861E1
:101730007070656E20616E64206D617920636175E3
:10174000736520612070726F626C656D2100446565
:101750006C74612052616469757320432830293AA2
:101760000044656C7461205261646975732042287D
:1017700030293A0044656C74612052616469757364
:1017800020412830293A00416C7068612043283993
:1017900030293A00416C7068612042283333302987
:1017A0003A00416C706861204128323130293A009A
:1017B000546F77657220333A00546F776572203228
:1017C0003A00546F77657220313A00496E76616C49
:1017D00069642064656C746120636F6F7264696E04
:1017E000617465202D206D6F76652069676E6F725C
:1017F0006564006C696E656172204C3A0045455025
:10180000524F4D2075706461746564002C207370B4
:101810006565643D00206C696E6561722073746556
:1018200070733A004A65726B3A007A5F6D61783A7C
:1018300000795F6D61783A00785F6D61783A004CAD
:101840002000482000206973200020746F2000537E
:101850006574206F75747075743A20004D53312C87
:101860004D53322050696E730045313A0045303A8D
:10187000005A3A00593A0020002C00206D696E0091
:1018800020686F7572732000206461797320006D89
:1018900020005072696E74696E672074696D653AD4
:1018A000005072696E7465642066696C616D656E66
:1018B000743A0046616E73706565643A00482E2084
:1018C0005261646975733A00466C6F774D756C743C
:1018D00069706C793A0053706565644D756C746914
:1018E000706C793A00202F002F003A0020524157A7
:1018F000002042403A0020400020540020403A009E
:1019000020423A00543A0020453A00205A3A00203A
:10191000593A0020583A00583A00467265652052FC
:10192000414D3A00556E6B6E6F776E20636F6D6D33
:10193000616E643A00536F66747761726520526518
:10194000736574005761746368646F6720526573D0
:1019500065740042726F776E206F757420526573E4
:1019600065740045787465726E616C2052657365AC
:101970007400506F776572557000737461727400F3
:10198000424C4B2000736B6970200020676F7420FD
:10199000004572726F723A65787065637465642091
:1019A0006C696E6520005344207265616420657225
:1019B000726F7200205200204A002049002050001F
:1019C000205300204600204500205A0020590020C6
:1019D0005800446F6E65207072696E74696E67207E
:1019E00066696C6500466F726D6174206572726F16
:1019F000720057726F6E6720636865636B73756DF5
:101A0000004563686F3A00526573656E643A00572B
:101A100061726E696E673A00496E666F3A00457290
:101A2000726F723A00494E46004E414E006F6B0095
:101A30004649524D574152455F4E414D453A5265D8
:101A40007065746965725F302E39322E32204649D6
:101A5000524D574152455F444154453A3230313737
:101A600030333136204D414348494E455F5459503B
:101A7000453A526F73746F636B204D415820763333
:101A8000204475616C2000206465672E204300208F
:101A90006D6561737572656420004572726F723A8C
:101AA000436F756C64206E6F7420686F6C64207473
:101AB000656D70657261747572652000206D7300CC
:101AC00020616674657220004572726F723A5465C7
:101AD0006D702E2072616973656420746F20736C61
:101AE0006F772E2052697365203D20004739310AF7
:101AF0004731452D31383046363030300A4739309D
:101B0000004D31313720457874727564657220312B
:101B10000A54310A4D38342050340A4739310A47C3
:101B2000314531373246363030300A473145354657
:101B30003530300A473930004739310A4731452DB1
:101B400031383046363030300A473930004D313187
:101B50003720457874727564657220300A54300AF3
:101B60004D38342050340A4739310A47314531372E
:101B70003246363030300A47314535463530300A46
:101B8000473930001C151C140000002243141F1F8D
:101B9000981F441FD41E841E000000000000FC1D7E
:101BA000F01CA01C241CA81B0400081D9000580950
:101BB0001C01B007A801C80634023006C002C005E7
:101BC0004C036805D80318056404D004F004980495
:101BD0007C05600408063004940600042007D00346
:101BE000AC07A80338088003C40858035009300321
:101BF000DC090803680AD802F40AB002800B8802E4
:101C00000C0C6002980C3002240DF801B00DC001DC
:101C10003C0E8001C80E3001540FB800B40F2800EC
:101C2000E00F00000400401D900060091C01B00797
:101C3000A801D00634023806C002C8054C03680566
:101C4000D80318056404D804F00498047C056004E3
:101C500008063004940600042007D003AC07A8034C
:101C600038088003C408580350093003DC0908030E
:101C7000680AE002F40AB802800B88020C0C6002C9
:101C8000980C3002240DF801B00DC0013C0E80010B
:101C9000C80E3001540FB800B40F2800E00F000048
:101CA00004000016D800C006AC0178058002C0040C
:101CB000540348042804E803FC049803D0055003A7
:101CC000A40618037807D8024C08A802200970025D
:101CD000F4093802C80A08029C0BD001700C90016C
:101CE000440D5001180EF800EC0E8800C00F0000E3
:101CF0000400681D4C00500B94005809DC0050088B
:101D00002401A8076C012807B401C006FC01700675
:101D1000440228068C02F005D402B8051C0388058D
:101D200064035805AC033005F40310053C04E804D3
:101D30008404C804CC04A804140590045C05700451
:101D4000A4055804EC053804340620047C06080475
:101D5000C406F0030C07D8035407C8039C07B0035C
:101D6000E40798032C08800374087003BC08580328
:101D7000040948034C09300394091803DC090803DB
:101D8000240AF0026C0AE002B40AC802FC0AB0029B
:101D9000440BA0028C0B8802D40B70021C0C58025E
:101DA000640C4002AC0C2802F40C10023C0DF00153
:101DB000840DD801CC0DB801140E98015C0E700191
:101DC000A40E4801EC0E1801340FD8007C0F8800D7
:101DD000C40F0800FC0F000000000000000000001D
:101DE00000000000000000000000000000000000F3
:101DF0000000000000000000000000000000401F84
:101E0000450060094F0010095C00C0086B007008B5
:101E10007D0020089200D007AC008007CC0030077E
:101E2000DE00E006230190065E014006A601F005F3
:101E3000FF01A0056D025005F30200059603B004F2
:101E40005A046004400510044806C0036E0770037E
:101E5000A8082003EB09D002230B8002410C3002BA
:101E6000390DE001040E9001A20E4001170FF000A1
:101E7000690FA000A20F5000C60F0000DD0FB0FFD9
:101E8000EB0F60FF0400700DD8004804AC0158034C
:101E90008002D8025403800228043802FC040002A5
:101EA000D005C801A4069801780770014C084801C4
:101EB00020091801F409F000C80AC8009C0BA00012
:101EC000700C7000440D3800180E0000EC0EA8FFD6
:101ED000C00FE8FE0400001B5400600964001009F4
:101EE0007400C008840070089C002008B800D00767
:101EF000D8008007000130072C01E0066801900639
:101F0000AC0140060002F0056802A005E0025005A1
:101F1000740300052404B004F0046004DC0510041C
:101F2000E406C0030408700330092003780B800224
:101F3000600DE001A80E4001680FA000C00F000076
:101F4000E80F60FF0400801AD8009808AC01200751
:101F5000800250065403C80528045805FC040005F7
:101F6000D005B004A4066804780728044C08E803E8
:101F70002009B003F4097003C80A38039C0BF80267
:101F8000700CB002440D6802180E0802EC0E8801B5
:101F9000C00F8800F00F00000000A00F5C00600977
:101FA000690010097900C0088C007008A2002008A0
:101FB000BD00D007DE008007050130073401E006D0
:101FC0006D019006B20140060702F0056D02A00502
:101FD000E80250057B0300052B04B004F8046004FC
:101FE000EB06C003350920037F0B8002650DE0017D
:101FF000B00E40011D0FF000480FC8006C0FA0008C
:10200000ED0F60FFFE0F48FE000002534420657292
:10201000726F72206669786564005344206572723D
:102020006F7220646964206E6F74207265636F76CE
:102030006572210053442052656164204572726FBD
:10204000720000000000000000000000000000001E
:10205000000024F403D950C38EB1C2A23D96828BF6
:102060003582127AE372816CCB66A861015DC75834
:10207000EB546151204E1E4B5648C14559431A41FD
:10208000013F093D2F3B7139CD374036C9346533A7
:102090001432D430A32F802E6B2D632C672B752A1E
:1020A0008E29B028DC2710274B268F25D9242B24F6
:1020B0008223E0224322AC211A218D200420801F9C
:1020C000001F841E0C1E971D261DB81C4E1CE61BEF
:1020D000821B201BC11A641A0A1AB2195D190A1947
:1020E000B9186A181C18D11788174017FA16B516B0
:1020F00073163116F115B31576153A150015C71478
:102100008F1458142214EE13BA1388135613251380
:10211000F612C71299126C1240121512EB11C1116E
:102120009811701148112111FB10D610B1108D10AB
:102130006910461024100210E10FC00FA00F800F8D
:10214000610F420F230F060FE80ECB0EAF0E930E5A
:10215000770E5C0E410E270E0D0EF30DDA0DC10D3C
:10216000A80D900D780D600D490D320D1B0D050D5C
:10217000EF0CD90CC30CAE0C990C850C700C5C0CDC
:10218000480C350C210C0E0CFB0BE80BD60BC40BCA
:10219000B20BA00B8E0B7D0B6B0B5A0B4A0B390B42
:1021A000290B180B080BF80AE90AD90ACA0ABB0A54
:1021B000AC0A9D0A8E0A800A710A630A550A470A08
:1021C000390A2C0A1E0A110A040AF709EA09DD096C
:1021D000D009C409B709AB099F09920987097B098E
:1021E0006F09630958094C09410936092B0920096F
:1021F00015090A090009F508EB08E008D608CC081B
:10220000C208B808AE08A4089A08900887087D0894
:1022100074086B08610858084F0846083D083408E0
:102220002C0823081A08120809080108F807F00703
:10223000E807E007D807D007C807C007B807B00706
:10224000A807A1070000420FA1071605D0030D0340
:102250008B022E02E801B2018601630145012C01C7
:1022600017010401F400526F73746F636B4D415892
:1022700020526561647900526F73746F636B4D41D6
:102280005820526561647900526F73746F636B4DAF
:10229000415820526561647900207A3A0020793AE9
:1022A0000020783A00696E20717565756544656C2B
:1022B00074614D6F766520746F2063616C63756C1B
:1022C00061746544656C74615375625365676D65CF
:1022D0006E74732072657475726E73206572726F9E
:1022E000722E00432068697420666C6F6F72004321
:1022F000706F732078207371756172652000437070
:102300006F732078207374657073200043706F734F
:10231000207920737175617265200043706F73209E
:102320007920737465707320004220686974206698
:102330006C6F6F720042706F7320782073717561DB
:102340007265200042706F7320782073746570731B
:10235000200042706F73207920737175617265205F
:102360000042706F73207920737465707320004190
:102370002068697420666C6F6F720041706F732003
:102380007820737175617265200041706F732078D9
:10239000207374657073200041706F73207920730F
:1023A0007175617265200041706F732079207374BC
:1023B00065707320006D6F766552656C6174697627
:1023C0006544697374616E6365496E5374657073B7
:1023D000202F20717565756544656C74614D6F764D
:1023E000652072657475726E73206572726F72000B
:1023F0004D617854656D703A004469616D6574652E
:10240000723A00416363656C65726174696F6E3A1C
:10241000004D617853706565643A004A65726B3AA5
:10242000004D617842656454656D703A0050726980
:102430006E746572547970653A44656C7461005AC3
:1024400054726176656C416363656C3A00595472ED
:102450006176656C416363656C3A005854726176CD
:10246000656C416363656C3A005A5072696E7441E1
:102470006363656C3A00595072696E7441636365B9
:102480006C3A00585072696E74416363656C3A002F
:102490005A53697A653A005953697A653A00585334
:1024A000697A653A005A4D61783A00594D61783A37
:1024B00000584D61783A005A4D696E3A00594D699D
:1024C0006E3A00584D696E3A004A65726B58593A37
:1024D000005072696E746C696E6543616368653A39
:1024E00000454550524F4D3A004175746F6C65760A
:1024F000656C3A005A50726F62653A0043617365C9
:102500004C69676874733A00537570706F72744CDD
:102510006F63616C46696C616D656E746368616E52
:1025200067653A00537570706F7274473130473188
:10253000313A005A486F6D654469723A0059486FE4
:102540006D654469723A0058486F6D654469723A26
:1025500000536F667477617265506F776572537759
:10256000697463683A004C43443A0046616E3A002D
:102570005344436172643A0048656174656442651E
:10258000643A004D6978696E674578747275646560
:10259000723A004E756D45787472756465723A00D2
:1025A000496E7075744275666665723A004261756F
:1025B00064726174653A004E6F2063617365206CCC
:1025C0006967687473004D31313420007A70726F1E
:1025D00062696E672E2E2E0064656C617920313041
:1025E000306D732E00686F6D6541786973200068E7
:1025F0006F6D6541786973202F207175657565442D
:10260000656C74614D6F76652072657475726E735A
:10261000206572726F7200486F6D652044656C743E
:1026200061005072696E7465723A3A7365747570C0
:1026300020006D6F7665546F5265616C202F20719C
:102640007565756544656C74614D6F76652072655E
:102650007475726E73206572726F72006D6F76653D
:10266000546F202F20717565756544656C74614DDC
:102670006F76652072657475726E73206572726F05
:102680007200537465707065722044697361626C86
:102690006564004B696C6C6564006973506F7369A5
:1026A00074696F6E416C6C6F776564200055706C57
:1026B0006F6164696E672E2E2E0000534420707285
:1026C000696E742073746F70706564206279207510
:1026D0007365722E005344206361726420696E73C7
:1026E0006572746564005344204361726420696EAE
:1026F0007365727465640053442043617264207290
:10270000656D6F7665640053442063617264207266
:10271000656D6F766564000000211042206330848F
:1027200040A550C660E770088129914AA16BB18C21
:10273000C1ADD1CEE1EFF13112100273325222B5A8
:10274000529442F772D662399318837BB35AA3BD71
:10275000D39CC3FFF3DEE36224433420040114E678
:1027600064C774A44485546AA54BB528850995EEC1
:10277000E5CFF5ACC58DD55336722611163006D788
:1027800076F6669556B4465BB77AA719973887DF11
:10279000F7FEE79DD7BCC7C448E5588668A77840D0
:1027A00008611802282338CCC9EDD98EE9AFF94861
:1027B0008969990AA92BB9F55AD44AB77A966A71E8
:1027C0001A500A333A122AFDDBDCCBBFFB9EEB79B1
:1027D0009B588B3BBB1AABA66C877CE44CC55C2238
:1027E0002C033C600C411CAEED8FFDECCDCDDD2A01
:1027F000AD0BBD688D499D977EB66ED55EF44E13C8
:102800003E322E511E700E9FFFBEEFDDDFFCCF1B50
:10281000BF3AAF599F788F8891A981CAB1EBA10CBB
:10282000D12DC14EF16FE18010A100C230E3200430
:1028300050254046706760B9839893FBA3DAB33D97
:10284000C31CD37FE35EF3B1029012F322D2323580
:1028500042145277625672EAB5CBA5A89589856E67
:10286000F54FE52CD50DC5E234C324A014810466D0
:1028700074476424540544DBA7FAB79987B8975F77
:10288000E77EF71DC73CD7D326F2369106B0165720
:10289000667676154634564CD96DC90EF92FE9C8BF
:1028A00099E9898AB9ABA94458654806782768C070
:1028B00018E1088238A3287DCB5CDB3FEB1EFBF9D7
:1028C0008BD89BBBAB9ABB754A545A376A167AF1C0
:1028D0000AD01AB32A923A2EFD0FED6CDD4DCDAA27
:1028E000BD8BADE89DC98D267C076C645C454CA210
:1028F0003C832CE01CC10C1FEF3EFF5DCF7CDF9BB7
:10290000AFBABFD98FF89F176E367E554E745E935F
:102910002EB23ED10EF01E7C3C3E5E2B3D3F2F5B27
:102920005D3B2C2A225C00526571756573745061A1
:102930007573653A004D31313720494E5345525435
:102940002053442043415244004D313137205344F9
:102950002043415244204552524F520055495F4155
:102960004354494F4E5F5345545F4D454153555273
:1029700045445F4F524947494E20004E6F20534413
:1029800020436172640053687574204F666620416D
:102990004C4C2048656174730050726568656174C1
:1029A00020414253005072656865617420504C416B
:1029B0000055495F414354494F4E5F484F4D455F75
:1029C0005A200055495F414354494F4E5F484F4D8F
:1029D000455F59200055495F414354494F4E5F4878
:1029E0004F4D455F58200055495F414354494F4E74
:1029F0005F484F4D45414C4C200055495F41435481
:102A0000494F4E5F5A504F534954494F4E5F4641CC
:102A100053545F4E4F54455354200055495F414332
:102A200054494F4E5F5A504F534954494F4E5F4E91
:102A30004F54455354200055495F414354494F4E2C
:102A40005F45504F534954494F4E200055495F410F
:102A50004354494F4E5F5A504F534954494F4E5F6C
:102A600046415354200055495F414354494F4E5FFE
:102A700059504F534954494F4E5F464153542000DB
:102A800055495F414354494F4E5F58504F53495445
:102A9000494F4E5F46415354200055495F414354CE
:102AA000494F4E5F5A504F534954494F4E2000559D
:102AB000495F414354494F4E5F59504F5349544920
:102AC0004F4E200055495F414354494F4E5F585087
:102AD0004F534954494F4E200042616E6742616E28
:102AE0006700536C6F7742616E67004465616420D4
:102AF00054696D650050494400003A0020646179D2
:102B000073200050657263656E74205072696E7434
:102B100065643A002064656620004657204461746D
:102B20006520323031373033313600526F73746F75
:102B3000636B4D41587633005365654D65434E4395
:102B400000526F73746F636B204D415820763320B1
:102B50004475616C008F384538D3377637416374DC
:102B6000696F6E3A256C6100040003004E6F0059D6
:102B70006573004E2F41004F6666004F6E000000E7
:102B8000003FCDCC4C3D0AD7A33B6F12033A5265B0
:102B9000706574696572207620302E39322E3200CD
:102BA000004014548025000040380000004B000015
:102BB0008070000000960000C0DA000000E1000014
:102BC000002C010008B2010000C2010000F4010065
:102BD0000084030090D0030000E803000008070011
:102BE00020A1070000100E0040420F0060E3160015
:102BF00000000000110A0411040A1111001C1F1129
:102C0000111F0000040A0A0A0E1F1F0E001F1111D7
:102C1000111F0000001F1F1F1F1F0000040A0400D7
:102C200000000000040E15041C0000000200000655
:102C300000332CFD34992C4A316C2C9D31DB2C0255
:102C400000000700462CFD34542C4A316C2C9D3179
:102C5000D530802C5B2C024B3200005072696E74B0
:102C600065722053657474696E677300732C021D5E
:102C700033000041646A7573742054656D7073008D
:102C8000872C02B12C0000416476616E636564207C
:102C900053657474696E677300A02C026232000081
:102CA0005072696E7465722053657474696E6773CF
:102CB000000200000900B82CFD34C62DB22DA22D53
:102CC000922DCA2C7B2D632DDB2CD12C0278300069
:102CD00000446562756767696E6700E22C02DE3347
:102CE000000043616C6962726174696F6E204D65AA
:102CF0006E75000310270200FA2C052DFE2C0C2DFA
:102D000000000000001D2D00000000006C6F6164D9
:102D1000656420662E20454550524F4D00436F6E2E
:102D200066696775726174696F6E0003102702002F
:102D3000322D3D2D362D442D0000000000552D0074
:102D40000000000073746F72656420696E20454551
:102D500050524F4D00436F6E6669677572617469BA
:102D60006F6E006A2D03070400004C6F61642066DB
:102D7000726F6D20454550524F4D00822D03060461
:102D8000000053746F726520746F20454550524F98
:102D90004D00992D02D52D0000457874727564653B
:102DA0007200A92D020C30000046656564726174E2
:102DB0006500B92D0238300000416363656C6572AF
:102DC0006174696F6E00CD2D02582F000047656E4B
:102DD0006572616C000200001400DC2DFD347C3350
:102DE0006233182E042E442F302F1E2F0D2FF82E55
:102DF000C92EE12EB22E9F2E8B2E7A2E692E542EA6
:102E00003F2E2C2E0B2E0428040000592D4F6666F1
:102E10007365743A255879001F2E04270400005862
:102E20002D4F66667365743A25587800332E042F4B
:102E3000040000504944204D61783A25584400462A
:102E40002E04260400004472697665204D61783AAC
:102E500025584D005B2E04250400004472697665F8
:102E6000204D696E3A25586D00702E042404000030
:102E700050494420443A25586400812E042304001C
:102E80000050494420493A25586900922E042204F2
:102E9000000044542F50494420503A25587000A651
:102EA0002E042D040000436F6E74726F6C3A255827
:102EB0006800B92E0446040000416476616E6365C3
:102EC000206C696E3A25586C00D02E044D04000029
:102ED0005761697420556E6974733A2558556D6D44
:102EE00000E82E044C040000576169742054656D9D
:102EF000702E255854024300FF2E042E0400005368
:102F00007461622E54696D653A25587700142F0458
:102F10002A040000416363656C3A25584100252F5F
:102F2000042B0400004D61782046523A2558460093
:102F3000372F042C04000053746172742046523AF7
:102F4000255866004B2F04290400005374657073E4
:102F50002F4D4D3A2553650002000004005F2FFD00
:102F600034942F7C2F672F6E2F02A82F00004D6105
:102F7000782E20496E61637469766500832F02DACA
:102F80002F00005374657070657220496E61637420
:102F9000697665009B2F041004000042617564721D
:102FA0006174653A256F63000358040200AF2FBABD
:102FB0002FB32FC12F0000000000CB2F0000000016
:102FC000005B735D20303D4F6666004469732E20C0
:102FD00041667465723A256970000320040200E1BD
:102FE0002FEC2FE52FF32F0000000000FD2F000035
:102FF0000000005B735D20303D4F666600446973DE
:103000002E2041667465723A256973000200000340
:10301000001330FD3429301930203004130400002F
:10302000486F6D653A25665A00303004160400007A
:103030004D61783A25667A0002000004003F30FDB9
:10304000346730573047304E30040E0400004A6574
:10305000726B3A25616A005E30040D0400004D6F0A
:1030600076653A25615A006E30040A0400005072F9
:10307000696E743A25617A0002000005007F30FD18
:1030800034C230AF309C30893090300335040000BA
:103090004472792072756E3A25646400A33003345B
:1030A0000400004572726F7273203A25646500B6A1
:1030B000300333040000496E666F2020203A2564F7
:1030C0006900C93003320400004563686F20202086
:1030D0003A25646F00DC3002E9300000534420439D
:1030E000617264204D656E75000200000600F030CC
:1030F000FD344A31373121310F31FC30033103F4D3
:1031000003010244656C6574652066696C65001690
:1031100031026931020053746F70205072696E740D
:1031200000283103F7030400436F6E74696E756500
:10313000205072696E74003E3103F6030204506140
:10314000757365205072696E7400513103F5030187
:103150000253656C6563742053442046696C6500B6
:1031600001000001006731FD3402000003007031EE
:103170008B31813176317D310354240200596573DE
:1031800000883103E80300004E6F00923101000017
:10319000000053746F70205072696E7400A4310285
:1031A000B531000041646A7573742046616E207306
:1031B00070656564000200000700BC31FD343332E5
:1031C0001F320A32F531E031CA31D131031E040019
:1031D000005365742046616E20313030252525006E
:1031E000E731031D0400005365742046616E2037EB
:1031F0003525252500FC31031C040000536574208F
:1032000046616E203530252525001132031B040050
:10321000005365742046616E203235252525002631
:1032200032031A0408005475726E2046616E204FF6
:103230006666003A32045204000046616E207370E4
:103240006565643A254673252525000200000900BE
:103250005232FD34AC3293320A33F732DD32E93484
:10326000C53202000009006932FD34AC3293320AE3
:1032700033F732DD32E9347B32C532823203B20FAA
:103280000000556E6C6F636B2046756C6C204D654D
:103290006E75009A320448040000466C6F77202057
:1032A000526174653A256F6625252500B332041FE7
:1032B000040000537065656420526174653A256F9F
:1032C0006D25252500CC320342040010446973614A
:1032D000626C6520537465707065727300E432032C
:1032E0003804000053687574204F666620414C4CCA
:1032F00020486561747300FE320347040000507279
:10330000656865617420414253001133033704003E
:10331000005072656865617420504C4100020000E5
:1033200008002433FD34C633AE334A3334337C33A0
:10333000623396333B33033B040000457874727567
:103340006465722031204F6666005133033A0400F1
:10335000005368757420446F776E204E6F7A7A6CD4
:103360006500693303010400002558312053656C62
:1033700065637420457874722E20310083330345D1
:103380000400002558302053656C6563742045782F
:1033900074722E2030009D33043C040000424544EA
:1033A0002054656D703A2020254562024300B533F4
:1033B000043E04000054656D702E2031203A202018
:1033C000254531024300CD33043D04000054656DB2
:1033D000702E2030203A2020254530024300020084
:1033E000000600E533FD341B34F133E934B3340710
:1033F00034F8330421040000482E205261646975BA
:1034000073203A256F68000E3403AC0F000053653B
:1034100074205A204F726967696E00223402333477
:10342000000046756C6C2043616C6962726174695E
:103430006F6E0002000004003A34FD3470345B34D7
:103440004234493403B10F0000426567696E20437E
:10345000616C6962726174696F6E00623403B50FEA
:1034600000004245442041524520434C45414E0016
:10347000773403B40F00004D414B4520535552455E
:10348000204E4F5A5A4C452026000200000600915B
:1034900034FD34E934D734C534B3349D34A4340214
:1034A00016350000457874722E20706F7369746948
:1034B0006F6E00BA3402773600005A20506F73697D
:1034C00074696F6E00CC3402CC3600005920506F06
:1034D000736974696F6E00DE340221370000582072
:1034E000506F736974696F6E00F03403FD03000060
:1034F000486F6D65205072696E7465720004350303
:10350000E803000050726576696F7573205363722B
:1035100065656E20010003F00304001D353A353364
:10352000352C352535413500000000004F350000B1
:10353000000000603500000000006F350000000052
:1035400000255566206D207072696E7465640020D8
:10355000453A2565632F25456302437E256F430069
:103560003120636C69636B203D2031206D6D004517
:103570003A257833206D6D0003FC0304007F359CF1
:103580003595358E358735A3350000000000A4350C
:103590000000000000B4350000000000C435000049
:1035A000000000004D617820656E6473746F703A9E
:1035B00025735A004D696E20656E6473746F703A9E
:1035C00025737A005A3A257832206D6D0003FB038B
:1035D0000400D435F135EA35E335DC35F835000043
:1035E000000000F93500000000000936000000006E
:1035F0000019360000000000004D617820656E64FF
:1036000073746F703A257359004D696E20656E644E
:1036100073746F703A25737900593A257831206DAB
:103620006D0003FA030400293646363F363836313A
:10363000364D3600000000004E3600000000005EEF
:103640003600000000006E360000000000004D61F2
:103650007820656E6473746F703A257358004D69F5
:103660006E20656E6473746F703A25737800583AF3
:10367000257830206D6D0003EF0304007E369B3605
:1036800094368D368636A2360000000000A3360040
:1036900000000000B3360000000000C33600000048
:1036A0000000004D617820656E6473746F703A2578
:1036B000735A004D696E20656E6473746F703A259D
:1036C000737A005A3A257832206D6D0003EE0304B8
:1036D00000D336F036E936E236DB36F73600000046
:1036E0000000F8360000000000083700000000006D
:1036F00018370000000000004D617820656E64738B
:10370000746F703A257359004D696E20656E64734D
:10371000746F703A25737900593A257831206D6DB0
:103720000003ED030400283745373E37373730377D
:103730004C3700000000004D3700000000005D37EE
:1037400000000000006D370000000000004D6178AF
:1037500020656E6473746F703A257358004D696EFE
:1037600020656E6473746F703A25737800583A253B
:103770007830206D6D0000000004007D379A37938B
:10378000378C378537A1370000000000A7370000CD
:10379000000000BB370000000000BF370000000041
:1037A00000255566206D00546F74616C2046696C6D
:1037B000616D656E74205573656400255574005401
:1037C0006F74616C205072696E74696E6720546901
:1037D0006D65000000000400DA37F737F037E9378D
:1037E000E237FE3700000000001238000000000041
:1037F0002038000000000032380000000000526F46
:1038000073746F636B204D4158207633204475618B
:103810006C005072696E746572204D6F64656C0047
:10382000465720446174653A2032303137303331A5
:10383000360046572056657273696F6E3A20302EF7
:1038400039322E320000000004004C3869386238EA
:103850005B385438703800000000007438000000F5
:1038600000007D38000000000086380000000000E5
:10387000256F73005A3A257832206D6D00593A252C
:103880007831206D6D00583A257830206D6D00003C
:10389000000004009638B338AC38A5389E38BA38E2
:1038A0000000000000BE380000000000D738000013
:1038B000000000EA380000000000256F730053701C
:1038C0006565643A256F6D25252520466C6F773A2E
:1038D000256F66252525004245443A25656220541A
:1038E00061726765743A254562004E4F5A3A256504
:1038F00063205461726765743A25456300000000D7
:103900000000000000000000FF0000010000000AAD
:103910000B02090C0D0E0807030401000000000053
:103920000000000000000000000000000000000097
:103930000000000000000000001211100000000054
:103940000000000000000000000000000000000077
:103950000000000102102020080810204010204024
:103960008002010201080402010102040810204043
:103970008080402010080402018004020180402061
:10398000100804020108040201010204081020408A
:103990008001020408102040800505050507050880
:1039A000080808020202020A0A08080404040401C2
:1039B00001010101010101030303030303030304E4
:1039C0000707070C0C0C0C0C0C0C0C020202020674
:1039D000060606060606060B0B0B0B0B0B0B0B0065
:1039E0000020002300260029002C002F00320000B8
:1039F0000100000301060109010000220025002842
:103A0000002B002E003100340002010000050108E7
:103A1000010B0100002100240027002A002D0030A6
:103A200000330001010000040107010A01024E41B8
:103A30004E494E495459494E46CDCCCC3D0AD72328
:103A40003C17B7D13877CC2B329595E6241FB14F70
:103A50000A000020410000C84200401C4620BCBEB5
:103A60004CCA1B0E5AAEC59D7400607D1FB8FCC3C6
:103A7000A60111241FBECFEFD1E2DEBFCDBF00E013
:103A80000CBF14E0A0E0B2E0E0E4FEE202E00BBF15
:103A900002C007900D92A431B107D9F72FE1A4E13C
:103AA000B4E001C01D92A531B207E1F71AE3C2E705
:103AB000DAE300E006C022970109FE010BBF0F9474
:103AC0009912CA36D10780E00807A9F70F945A0A5D
:103AD0000D941E170C940000CF93DF9300D01F921B
:103AE000CDB7DEB744E050E0BC01CE0101960F94A3
:103AF000DA1669817A818B819C810F900F900F90EB
:103B00000F90DF91CF91089522E090E0281728F4DC
:103B1000963019F0220F9F5FF9CF209A289A219AA8
:103B2000229A2398809164008B7F80936400892F70
:103B3000806A86958CBD90FD03C081E0963009F4C3
:103B400080E08DBD089580917E0383FB882780F9F6
:103B50000895179A0895169A0895159A089588E475
:103B600093E0BACFCF92DF92EF92FF92CF93DF93A1
:103B700000D01F921F92CDB7DEB76B017C0160931E
:103B80001D1970931E1980931F19909320190E947C
:103B90004FA0C982DA82EB82FC8244E050E065E704
:103BA00073E0CE0101960F94FC1623E0B701A60145
:103BB00088E795E00E94F54F0E943154682F88E60F
:103BC00090E06D830F94EA166D81681721F088E606
:103BD00090E00F9405170F900F900F900F900F909B
:103BE000DF91CF91FF90EF90DF90CF900895CF932A
:103BF000DF931F92CDB7DEB7BC018DE793E00F9442
:103C000018170E943154682F88E690E069830F945A
:103C1000EA166981681739F088E690E00F90DF9125
:103C2000CF910D9405170F90DF91CF910895CF9309
:103C3000DF931F92CDB7DEB7BC018FE793E00F94FF
:103C400018170E943154682F88E690E069830F941A
:103C5000EA166981681739F088E690E00F90DF91E5
:103C6000CF910D9405170F90DF91CF910895CF93C9
:103C7000DF931F92CDB7DEB7BC0181E893E00F94CC
:103C800018170E943154682F88E690E069830F94DA
:103C9000EA166981681739F088E690E00F90DF91A5
:103CA000CF910D9405170F90DF91CF910895CF9389
:103CB000C82F80912F058823D1F010922F050E94E4
:103CC000C66B90916403915090936403911109C065
:103CD00080916503843010F40E94576B85E08093D7
:103CE00064036C2F8FE59DE1CF910D941B03CF9161
:103CF00008958091F906882349F00E94D77580E0E5
:103D0000D6DF8FE59DE10F941A03F3CF08954F920C
:103D10005F926F927F928F929F92AF92BF92CF925B
:103D2000DF92EF92FF920F931F93CF93DF9300D018
:103D30001F92CDB7DEB78C01809197199091981999
:103D4000A0919919B0919A1989839A83AB83BC8306
:103D5000C0909B19D0909C19E0909D19F0909E19ED
:103D600080909F199090A019A090A119B090A219CD
:103D70009C01AD01BC01CD010F94CB1181110FC18C
:103D800049805A806B807C80E89477F82FEF3FEF72
:103D90004FE75FE7C301B2010F94CB1181110BC054
:103DA0002FEF3FEF4FE75FE7C301B2010F94780EAB
:103DB00018160CF4F4C0A7019601C701B6010F94C0
:103DC000CB118111ECC026013701E89477F82FEF71
:103DD0003FEF4FE75FE7C301B2010F94CB118111B1
:103DE0000BC02FEF3FEF4FE75FE7C301B2010F9426
:103DF000780E18160CF4D3C0A5019401C501B401C6
:103E00000F94CB118111CBC024013501E89477F8D0
:103E10002FEF3FEF4FE75FE7C301B2010F94CB11E4
:103E200081110BC02FEF3FEF4FE75FE7C301B201F6
:103E30000F94780E18160CF4B2C020916F193091BF
:103E40007019409171195091721969817A818B8131
:103E50009C810F94140E2B013C0120917319309119
:103E600074194091751950917619C701B6010F94D4
:103E7000140E6B017C0120917719309178194091D3
:103E8000791950917A19C501B4010F94140E4B01A0
:103E90005C018091F719882329F020E732E441E2A0
:103EA0005DE304C020E030E040E85FE3C301B2011D
:103EB0000F942011AB01BC0122E087E199E10E943F
:103EC00032508091F719882329F020E732E441E24B
:103ED0005DE304C020E030E040E85FE3C701B601E5
:103EE0000F942011AB01BC0122E08FE099E10E9408
:103EF00032508091F719882329F020E732E441E21B
:103F00005DE304C020E030E040E85FE3C501B401B8
:103F10000F942011AB01BC0123E08BE099E10E94DA
:103F200032506091AF197091B0198091B119909190
:103F3000B2190F944B0F2091F3193091F41940915D
:103F4000F5195091F6190F9420112091F719222399
:103F500029F020E732E441E25DE304C020E030E0F4
:103F600040E85FE30F942011AB01BC0124E087E03F
:103F700099E10F900F900F900F90DF91CF911F91CB
:103F80000F91FF90EF90DF90CF90BF90AF909F90F8
:103F90008F907F906F905F904F900C94F54FC80179
:103FA0000E941B4E4ACFCF92DF92EF92FF92CF93A7
:103FB000DF93EC01893191053CF0C53F81E0D807E2
:103FC0002CF0C4EFD1E002C0C9E1D0E0BE018827E7
:103FD00077FD8095982F0F944B0F6B017C016091BA
:103FE000A7187091A818882777FD8095982F0F94AF
:103FF0004B0F9B01AC01C701B6010F947F0E9B01D3
:10400000AC016091A9187091AA188091AB18909199
:10401000AC180F9420116093A9187093AA1880937C
:10402000AB189093AC18D093A818C093A718BE01F2
:1040300086ED98E1DF91CF91FF90EF90DF90CF90E8
:104040000C94DD4ECF92DF92EF92FF926B017C01D8
:1040500020E030E040E752E40F94780E87FD11C075
:1040600020E030E046E153E4C701B6010F94AC1004
:1040700018166CF4C12CD12C86E1E82E83E4F82EBE
:1040800006C0C12CD12C90E7E92E92E4F92EC09203
:104090001D19D0921E19E0921F19F092201922E0EA
:1040A000B701A6018DEB98E1FF90EF90DF90CF90E4
:1040B0000C94F54F8F929F92AF92BF92CF92DF9266
:1040C000EF92FF92CF93DF93EC018931910534F0A9
:1040D000893C91052CF0C8ECD0E002C0C9E1D0E0E9
:1040E000D093A618C093A518E0911404F09115047C
:1040F000E258FF4FC080D180E280F38020E030E0C2
:10410000A901C701B6010F94780EAE01662757FDCD
:104110006095762F18165CF0CB01BA010F944B0F07
:104120002AE037ED43E25CE30F94201124C0CB0179
:10413000BA010F944B0F2AE037ED43E25CE30F9492
:10414000201120E030E040E850E40F9420114B01B2
:104150005C01A7019601C701B6010F9420112BED58
:104160003FE049E450E40F9420119B01AC01C501EC
:10417000B4010F947F0E6093790370937A03809358
:104180007B0390937C03BE0188EC98E1DF91CF9193
:10419000FF90EF90DF90CF90BF90AF909F908F9067
:1041A0000C94DD4ECF93DF9320916B1997FD0DC0DA
:1041B000EC018F3F910519F014F0CFEFD0E020977C
:1041C00021F0286020936B1905C0277F20936B197D
:1041D000C0E0D0E061118DDD8091531890E0C817E8
:1041E000D90729F0BE0183EB98E10E94DD4EC09310
:1041F0005318DF91CF9108954F925F926F927F9203
:104200008F929F92AF92BF92CF92DF92EF92FF92E6
:10421000CF93DF9300D01F92CDB7DEB72FE632E108
:1042200043E85AE360918F1870919018809191182B
:10423000909192180F9420116B017C0181E890E01D
:104240004BDC9B01AC01C701B6010F94140EAB010E
:10425000BC0122E081EA98E10E9432508FE898E1A7
:104260000E94E24DE0910A02F0910B02C384D484D3
:10427000E584F684E0910C02F0910D0220E030E03C
:1042800040E751E463857485858596850F94AC106D
:10429000181654F020E030E040E751E4C701B601C1
:1042A0000F94AC101816ACF40F94EB07C090931851
:1042B000D0909418E0909518F09096186C197D099C
:1042C0008E099F0928EE33E040E050E00F942A1257
:1042D00003C020E030E0A9018DE790E029833A8314
:1042E0004B835C830F94F2164B015C0129813A8168
:1042F0004B815C81820E931EA41EB51EC501B401C4
:1043000020E831E541E050E00F944C1260E87EEA8D
:104310008EEF9FEF0F94E7116B017C01C80CD91C45
:10432000EA1CFB1CBA01A90182E998E10E94034F33
:10433000C701B60120E13EE040E050E00F944C128E
:1043400049015A01BA01A90188E898E10E94034F86
:10435000A0EFB1EFA50194010F9495126C0D7D1D96
:104360008E1D9F1D2CE330E040E050E00F944C1276
:10437000BA01A90180E898E10E94034F8BE798E118
:104380000F900F900F900F90DF91CF91FF90EF90D3
:10439000DF90CF90BF90AF909F908F907F906F9065
:1043A0005F904F900C94FA4D5F988EBD0DB407FE50
:1043B000FDCF6EBD0DB407FEFDCF5F9A0895CF937C
:1043C000DF9300D01F921F92CDB7DEB795E0ECECE3
:1043D000F3E0DE01119601900D929A95E1F7E1E08C
:1043E000F0E0EC0FFD1FE80FF11D808190E00F90D1
:1043F0000F900F900F900F90DF91CF91D5CFFF923C
:104400000F931F93CF93DF9300D01F921F92CDB7CE
:10441000DEB785E0E1EDF3E0DE01119601900D924B
:104420008A95E1F780E070DB579A8E010F5F1F4F8E
:10443000F12CF80161918F0170E08F2DC0DFF394B2
:10444000F5E0FF12F6CF0F900F900F900F900F90A6
:10445000DF91CF911F910F91FF90089567FD43C0A9
:104460008230E9F028F4882341F0813061F03BC0CC
:10447000833009F1843059F136C0662311F0A19AD6
:1044800067C0A19865C080910801662311F080681B
:1044900001C08F778093080147FF3AC05DC08091CB
:1044A0000801662311F0806401C08F7B80930801AE
:1044B00047FF34C053C080910801662311F0886023
:1044C00001C0877F8093080147FF32C044C08091BC
:1044D0000801662311F0826001C08D7F809308017E
:1044E00047FF2EC03AC047FD39C08230B9F028F4EA
:1044F000882341F0813061F008958330C9F0843021
:10450000F9F00895442311F0A09A0895A098089511
:10451000442311F0A29A0895A29808958091080169
:10452000442311F0806201C08F7D809308010895BB
:1045300080910801442311F08061F7CF8F7EF5CF81
:1045400080910801442311F08460EFCF8B7FEDCF81
:1045500047FFD8CF089508950895089508956430C9
:1045600079F028F4613041F0623041F0089568300C
:1045700051F0603141F0089540E003C040E004C0D4
:1045800041E060E002C041E061E068CFCF93DF939B
:104590008CE598E10E94FA4D62B36695617070E017
:1045A00087E199E10E94D14E62B3617070E089E7C2
:1045B00098E10E94DD4EC6E0D1E08881992787FD11
:1045C0009095692F661F6627661F70E084E798E163
:1045D0000E94D14E62B362FB662760F970E089E702
:1045E00098E10E94DD4E688166FB662760F970E005
:1045F00081E798E10E94D14E688165FB662760F9EA
:1046000070E089E798E10E94DD4E688163FB6627D0
:1046100060F970E08DE698E10E94D14E6881629564
:10462000617070E089E798E10E94DD4E68816695CF
:10463000617070E089E698E10E94D14E688162FB6A
:10464000662760F970E089E798E1DF91CF910C94DB
:10465000DD4EFF920F931F93CF93DF9300D01F92F5
:104660001F92CDB7DEB785E0E6EDF3E0DE011196EF
:1046700001900D928A95E1F7989A9A9A8091070194
:104680008062809307018091070180618093070118
:10469000809107018460809307018E010F5F1F4F97
:1046A000F12CF80161918F018F2D59DFF394F5E022
:1046B000FF12F7CF0F900F900F900F900F90DF9198
:1046C000CF911F910F91FF9008950C94C8790E948B
:1046D000B37920910802309109028217930724F4DC
:1046E00090930902809308020895609108027091E6
:1046F000090280910602909107026817790744F435
:1047000070930702609306028AE199E10C94DD4EF2
:104710000895CF93C82F69E170E08CE19EE10F947A
:104720007F056C2F8CE19EE10F94200560E08CE109
:104730009EE10F948005882329F084EA9CE0CF91C4
:104740000C94FA4DCF910895CF93DF93D82FC62FB5
:1047500069E170E08CE19EE10F947F056D2F8CE1A3
:104760009EE10F9420056C2F8CE19EE10F942005B3
:104770008CE19EE10F949205882331F085E89CE05E
:10478000DF91CF910C94FA4DDF91CF9108951F9353
:10479000CF93DF93182FBDDF41E050E069E170E077
:1047A0008CE19EE10F9473058CE19EE10F94C904A6
:1047B000892BA1F08CE19EE10F94D104EC01612FD3
:1047C00070E08BE79CE00E94D14EBE01772782E724
:1047D0009CE0DF91CF911F910C94DD4E84E59CE02D
:1047E000DF91CF911F910C94FA4D8FE29CE00E94D3
:1047F000FA4D8CE19EE10F945E058FE0C8DF81E306
:10480000C6DF80E2C4DF6CE980E29EDF80E2BFDFCA
:1048100082E2BDDF60E482E297DF82E2B8DF85E218
:10482000B6DF60E085E290DF85E2B1DF83E2AFDFF3
:1048300060E383E289DF83E2AADF84E2A8DF6AE43F
:1048400084E282DF84E2A3DF80E3A1DF60E280E331
:104850007BDF80E39CDF81E39ADF82E398DF64E122
:1048600082E372DF82E393DF83E391DF60E083E33F
:104870006BDF83E38CDF84E38ADF60E084E364DF63
:1048800084E385DF86E383DF62E386E35DDF86E33F
:104890007EDF87E37CDF60E087E356DF87E377DF57
:1048A00088E375DF60E188E34FDF88E370DF89E349
:1048B0006EDF8AE36CDF62E38AE346DF8AE367CF79
:1048C00081E365DF85E363DF89E361DF8DE25FCF4D
:1048D0006DE087E096E00E9447786AE087E096E026
:1048E0000C944778DF92EF92FF920F931F93CF9330
:1048F000DF93D82EE0911404F091150442A953A936
:1049000064A975A922E084E099E10E943250E09107
:104910001404F091150446A957A960AD71AD20E0CB
:1049200085EE98E10E9432500E942163AB01BC01E8
:1049300022E080E099E10E94325040911B025091A8
:104940001C0260911D0270911E0220E085EE98E12C
:104950000E943250DD2091F062E070E08CEE98E130
:104960000E94D14E6CEF7FE080911302909114026F
:10497000681B790B8AEE98E10E94D14EE0911002FB
:10498000F0E0E15BF74E608170E081EF98E10E941A
:10499000D14EE0916303EF3F29F4E0911404F091CC
:1049A0001504E081F0E0E15BF74E608170E08CEF90
:1049B00098E10E94D14E08E812E0C0E0D0E02CEF70
:1049C000E22E2FE0F22EBE0189EF98E10E94D14E37
:1049D000D80117964D915D916D917C911A9722E0C7
:1049E0008AEE98E10E943250F8014385548565852E
:1049F000768520E085EE98E10E943250BE0186EF78
:104A000098E10E94D14ED801EC91F0E0E15BF74EC5
:104A1000608170E08AEE98E10E94D14EDD2079F04D
:104A2000BE018CEE98E10E94D14EF8018381948101
:104A3000B701681B790B8AEE98E10E94D14E21964E
:104A40000D571F4FC230D10509F0BDCFDF91CF9177
:104A50001F910F91FF90EF90DF903ACF2F923F92EE
:104A60004F925F926F927F928F929F92AF92BF927E
:104A7000CF92DF92EF92FF920F931F93CF93DF932A
:104A8000CDB7DEB729970FB6F894DEBF0FBECDBF06
:104A90004C01DC0116968D919C9117978C389105ED
:104AA00009F462C608F0DBC08235910509F40EC432
:104AB00008F07EC08A31910509F4C5C208F03FC0F4
:104AC0008531910509F43DC278F48231910509F4EC
:104AD00017C28431910509F418C2419711F00C9462
:104AE0002B3617981698AFC58731910509F461C226
:104AF00008F443C28831910509F489C2499711F03D
:104B00000C942B3660E08CEF99E129960FB6F8945F
:104B1000DEBF0FBECDBFDF91CF911F910F91FF90F0
:104B2000EF90DF90CF90BF90AF909F908F907F904D
:104B30006F905F904F903F902F900C94C7BE8E3136
:104B4000910509F4DDC218F58C31910509F4B0C264
:104B500010F00C9464368CEF99E129960FB6F89416
:104B6000DEBF0FBECDBFDF91CF911F910F91FF90A0
:104B7000EF90DF90CF90BF90AF909F908F907F90FD
:104B80006F905F904F903F902F900C9416C38A3295
:104B9000910509F40FC328F4809709F4DEC20C9440
:104BA0002B368035910510F00C9464360C942B361E
:104BB0008B36910511F40C94392F38F58C3591050D
:104BC00009F48FC460F48435910509F488C308F4AE
:104BD00081C38535910509F460C40C942B36883661
:104BE000910509F433C530F48336910509F4DDC429
:104BF0000C942B368936910509F408C68A3691053E
:104C000011F40C942B2F0C942B368337910511F44F
:104C10000C94A92F80F48F36910511F40C945B2F1E
:104C20008237910511F40C94C72F8D36910511F040
:104C30000C942B360DC68537910511F40C94CA2FB0
:104C400010F40C94D82E8737910511F40C94F52F9D
:104C50008837910511F40C9438300C942B3685303C
:104C6000B1E09B0711F40C944B3308F0B0C08F3CBB
:104C7000910511F40C94E53108F041C08A3C91058E
:104C800011F40C940D3170F4883C910511F40C94DE
:104C90005E3010F00C94AF308E3B910509F4D7C70D
:104CA0000C942B368C3C910511F40C94643110F467
:104CB0000C9452318D3C910511F40C94CB318E3C07
:104CC000910511F00C942B36C40129960FB6F89477
:104CD000DEBF0FBECDBFDF91CF911F910F91FF902F
:104CE000EF90DF90CF90BF90AF909F908F907F908C
:104CF0006F905F904F903F902F900C94EC5A8F3DA7
:104D0000910511F40C94A03288F48C3D910511F4B6
:104D10000C944D328D3D910511F40C947532813D0A
:104D2000910511F00C942B360C942D32893E91058F
:104D300011F40C94B53240F5883E910511F00C94B5
:104D40002B36609158187091591885E198E10E94AE
:104D5000D14E409154185091551860915618709149
:104D6000571822E08CE098E10E94F54F10925918F4
:104D700010925818109254181092551810925618F4
:104D8000109257180C9464368B3F910511F40C94D3
:104D9000EE328430914011F00C942B3629960FB6E8
:104DA000F894DEBF0FBECDBFDF91CF911F910F9161
:104DB000FF90EF90DF90CF90BF90AF909F908F903B
:104DC0007F906F905F904F903F902F900ECD8E35DB
:104DD00021E0920711F40C94A334C0F58E3241E027
:104DE000940711F40C94EE3398F48931A1E09A07FA
:104DF00011F40C94A3338C32B1E09B0711F40C94A2
:104E0000B3338630914011F00C942B360C946D33F3
:104E10008034F1E09F0711F40C94613438F48F3240
:104E2000914011F40C942D340C942B36813441E0D4
:104E3000940711F40C9465348234914011F00C9471
:104E40002B3680E00E94DBB30C947A348239A1E0E7
:104E50009A0711F40C948E3598F58836E1E09E0798
:104E600011F40C945A3538F48336914011F40C94B3
:104E700014350C942B36803931E0930711F40C94DF
:104E800074358139914011F00C942B3629960FB668
:104E9000F894DEBF0FBECDBFDF91CF911F910F9170
:104EA000FF90EF90DF90CF90BF90AF909F908F904A
:104EB0007F906F905F904F903F902F900C94FEB139
:104EC000853F51E0950711F40C94BE3560F4843FA2
:104ED000914011F00C942B3680E00E9448548EE7EC
:104EE00093E10C94C935863FE1E09E0711F40C94E0
:104EF000E3358C38934011F40C94FD350C942B362B
:104F00000E94A91D0E94AB1D77C28CEF99E12996E2
:104F10000FB6F894DEBF0FBECDBFDF91CF911F91CA
:104F20000F91FF90EF90DF90CF90BF90AF909F9048
:104F30008F907F906F905F904F903F902F900C9448
:104F40005AC28CEF99E129960FB6F894DEBF0FBED6
:104F5000CDBFDF91CF911F910F91FF90EF90DF9028
:104F6000CF90BF90AF909F908F907F906F905F9009
:104F70004F903F902F900C944ABE8CEF99E1299668
:104F80000FB6F894DEBF0FBECDBFDF91CF911F915A
:104F90000F91FF90EF90DF90CF90BF90AF909F90D8
:104FA0008F907F906F905F904F903F902F900C94D8
:104FB0004FBED4018D919C9197FD02C00C94643634
:104FC00060E08CEF99E10E942FCDF401EE5AFF4F83
:104FD0006081718140E08CEF99E129960FB6F894D9
:104FE000DEBF0FBECDBFDF91CF911F910F91FF901C
:104FF000EF90DF90CF90BF90AF909F908F907F9079
:105000006F905F904F903F902F900C948DC28CEFDB
:1050100099E129960FB6F894DEBF0FBECDBFDF91A0
:10502000CF911F910F91FF90EF90DF90CF90BF90A5
:10503000AF909F908F907F906F905F904F903F9038
:105040002F900C94B6BEF4018081918192FD02C034
:105050000C946436468D578D60A171A18091661ABB
:10506000882311F40C94643640935D1A50935E1AB1
:1050700060935F1A7093601A8CE39AE129960FB6D9
:10508000F894DEBF0FBECDBFDF91CF911F910F917E
:10509000FF90EF90DF90CF90BF90AF909F908F9058
:1050A0007F906F905F904F903F902F900C9475CBB6
:1050B000D4018D919C9197FD02C00C946436F4014B
:1050C000EE5AFF4F608171818CEF99E129960FB6FE
:1050D000F894DEBF0FBECDBFDF91CF911F910F912E
:1050E000FF90EF90DF90CF90BF90AF909F908F9008
:1050F0007F906F905F904F903F902F900C943AC3A9
:10510000F4018081918197FD02C00C94643660E0C7
:105110008CEF99E10E942FCDF401EE5AFF4F608190
:1051200071818CEF99E129960FB6F894DEBF0FBE1E
:10513000CDBFDF91CF911F910F91FF90EF90DF9046
:10514000CF90BF90AF909F908F907F906F905F9027
:105150004F903F902F900C949BC3D4018D919C91C4
:1051600097FD02C00C94643660E08CEF99E10E94D8
:105170002FCDF401EE5AFF4F608171818CEF99E1E0
:1051800029960FB6F894DEBF0FBECDBFDF91CF9149
:105190001F910F91FF90EF90DF90CF90BF90AF9055
:1051A0009F908F907F906F905F904F903F902F9047
:1051B0000C94C9C3F4012081318133FD02C00C94E9
:1051C000643612A1E12EF3A0E2ECFCE0449150E041
:1051D0004E155F0509F45EC032964DE0EA34F407DF
:1051E000A9F7F7FC57C032FF2CC0D4015E964D9151
:1051F0005D916D917C9191974F3F510561057105CE
:1052000009F0E0F461E0812F0F94C309F401668D89
:10521000812F0F94FC09D4015E966D917C915F976C
:10522000812F0F94AB08B7018FE498E10E94D14E13
:10523000F401668D778D8AE498E112C08FE095E0E5
:105240002BC062E0812F0F94C309B7018AE498E173
:105250000E94D14E812F0F94310ABC0185E498E160
:1052600029960FB6F894DEBF0FBECDBFDF91CF9168
:105270001F910F91FF90EF90DF90CF90BF90AF9074
:105280009F908F907F906F905F904F903F902F9066
:105290000C94DD4E89ED94E029960FB6F894DEBFAC
:1052A0000FBECDBFDF91CF911F910F91FF90EF9077
:1052B000DF90CF90BF90AF909F908F907F906F9036
:1052C0005F904F903F902F900C941B4E1092B3190B
:1052D0000C94643681E08093B3190C946436D40145
:1052E0008D919C91119792FF14C05E962D913D91E6
:1052F0004D915C919197A8EEB3E00F948912609361
:105300006D0370936E0380936F03909370030C94FE
:10531000643693FFA5C0F40182A193A1A4A1B5A115
:1053200082309105A105B10509F466C02CF50097FE
:10533000A105B10509F446C00197A105B10511F019
:105340000C94643629960FB6F894DEBF0FBECDBF1D
:10535000DF91CF911F910F91FF90EF90DF90CF9051
:10536000BF90AF909F908F907F906F905F904F9085
:105370003F902F900C94AB1D83309105A105B10592
:1053800009F454C00497A105B10511F00C946436DA
:1053900029960FB6F894DEBF0FBECDBFDF91CF9137
:1053A0001F910F91FF90EF90DF90CF90BF90AF9043
:1053B0009F908F907F906F905F904F903F902F9035
:1053C0000C94386329960FB6F894DEBF0FBECDBF9C
:1053D000DF91CF911F910F91FF90EF90DF90CF90D1
:1053E000BF90AF909F908F907F906F905F904F9005
:1053F0003F902F900C94A91D29960FB6F894DEBF0C
:105400000FBECDBFDF91CF911F910F91FF90EF9015
:10541000DF90CF90BF90AF909F908F907F906F90D4
:105420005F904F903F902F900C94AD1D29960FB632
:10543000F894DEBF0FBECDBFDF91CF911F910F91CA
:10544000FF90EF90DF90CF90BF90AF909F908F90A4
:105450007F906F905F904F903F902F900C942A63B5
:105460000E94791E81E029960FB6F894DEBF0FBE28
:10547000CDBFDF91CF911F910F91FF90EF90DF9003
:10548000CF90BF90AF909F908F907F906F905F90E4
:105490004F903F902F900C94CD9FD4018D919C9173
:1054A000119792FF14C05E962D913D914D915C91A4
:1054B0009197A8EEB3E00F948912609371037093F3
:1054C000720380937303909374030C946436109268
:1054D00071031092720310927303109274030C9470
:1054E0006436F401808183FF0CC082859385A48596
:1054F000B5858093BB039093BC03A093BD03B09389
:10550000BE03D4018C9184FF0EC01E968D919D9197
:105510000D90BC91A02D8093BF039093C003A093E6
:10552000C103B093C203F401808185FF0CC082895E
:105530009389A489B5898093C3039093C403A093EE
:10554000C503B093C6030E944FA0D4018C9186FD81
:1055500002C00C94643620911404309115045696C0
:105560008D919D910D90BC91A02DF901818792871D
:10557000A387B487808129960FB6F894DEBF0FBE4B
:10558000CDBFDF91CF911F910F91FF90EF90DF90F2
:10559000CF90BF90AF909F908F907F906F905F90D3
:1055A0004F903F902F900C943161D401ED91FC917C
:1055B0001197F2FF0DC05E962D913D914D915C913A
:1055C0009197A8EEB3E00F9489126B017C0106C09D
:1055D00030E1C32E37E2D32EE12CF12CE3FD0E9403
:1055E000A91DF401808184FD0E94AB1DD4018C9122
:1055F00085FD0E94AD1D0F94EB072B013C014C0C67
:105600005D1C6E1C7F1C0F94EB07A3019201261BEF
:10561000370B480B590BDA01C901803A9648A14073
:10562000B10518F40E9445A5EECFD4018C9183FDFD
:105630001798F401808184FD1698D4018C9185FD22
:1056400002C00C94643615980C9464360E94886BE2
:1056500081110C9464360F94EB0760935A18709381
:105660005B1880935C1890935D180E94A31D8111B4
:105670000C946436F4018081918193FF02C00C94F4
:105680004E3692FF0AC0868D978DA0A1B1A1892BBD
:105690008A2B8B2B11F40C944E36D4018D919C9156
:1056A000119792FD02C00C94643691FF34C0E091D2
:1056B0001404F0911504AC5ABF4F9C91808198134B
:1056C0000C94643610E0F4018081918190FF0FC04A
:1056D00001E020E030E0A901628D738D848D958D0D
:1056E0000F94AC1018160CF000E0202F01C020E041
:1056F000D4015E966D917D918D919C9191972987B2
:105700000F944B0F2985412F0E94A9661F5F12300D
:10571000D1F60C94643610E0F4018081918190FF01
:105720000FC001E020E030E0A901628D738D848D0F
:10573000958D0F94AC1018160CF000E0202F01C0CE
:1057400020E0D4015E966D917D918D919C91919711
:1057500029870F944B0F2985412F0E94A9661F5F4F
:105760001230D1F60C9464360E94886B81110C942F
:1057700064360F94EB0760935A1870935B1880930C
:105780005C1890935D180E94A31D81110C946436DF
:10579000F4018081918192FD02C00C94643690FFE7
:1057A0000FC011E020E030E0A901628D738D848D7F
:1057B000958D0F94AC1018160CF010E0412F01C01D
:1057C00040E0D4015E966D917D918D919C91919771
:1057D00049870F944B0F498529960FB6F894DEBF81
:1057E0000FBECDBFDF91CF911F910F91FF90EF9032
:1057F000DF90CF90BF90AF909F908F907F906F90F1
:105800005F904F903F902F900C949B67F4018081A4
:10581000918123E0969587952A95E1F781702996E5
:105820000FB6F894DEBF0FBECDBFDF91CF911F91B1
:105830000F91FF90EF90DF90CF90BF90AF909F902F
:105840008F907F906F905F904F903F902F904AC8BD
:105850000E94886B81110C9464360F94EB0760935F
:105860005A1870935B1880935C1890935D180E948F
:10587000A31D81110C94643640E068EC74E08FE560
:105880009DE10E94D6E38FE59DE10E942AE70E94F8
:10589000791E2090140430901504D4018D919C91B0
:1058A00091FF46C0F401EC5AFF4F9081F1018081D5
:1058B00098130C94643610E0D4018D919C9111974B
:1058C00090FF0EC001E020E030E0A9015A966D91F2
:1058D0007D918D919C915D970F94AC1018160CF0F2
:1058E00000E0F401668D778D80A191A10F944B0F9C
:1058F000202F412F0E94A9661F5F1230E9F6D101C7
:10590000D6962D913D914D915C91D997D2966D91FE
:105910007D918D919C91D5970F94130E2B013C0195
:1059200020E030E0A9010F94AC1018162CF130C023
:1059300010E0F4018081918190FF0CC001E020E033
:1059400030E0A901628D738D848D958D0F94AC101C
:1059500018160CF000E0D4015E966D917D918D914A
:105960009C9191970F944B0F202F412F0E94A96675
:105970001F5F1230F1F6C3CF20E030E040EA50E480
:10598000C301B2010F94780E87FF0EC00C946436E9
:1059900020E030E040EA50ECC301B2010F94AC10BB
:1059A000181614F40C94643699249394F10120A9E8
:1059B00031A986A597A5821793070CF0912C0F9417
:1059C000EB076D837E838F83988710E0412C512CE9
:1059D00032010F94EB0769837A838B839C836093F6
:1059E0005A1870935B1880935C1890935D18DC01D3
:1059F000CB012D813E814F815885821B930BA40BD7
:105A0000B50B893E9340A105B10558F080E00E9496
:105A1000722489819A81AB81BC818D839E83AF83FF
:105A2000B88781E00E94571E80911404909115045C
:105A30002816390609F064C0D1019396ED90FC90C8
:105A400094971E141F040CF05BC0111158C09920CC
:105A500009F477C091966D917C919297882777FD94
:105A60008095982F0F944B0F9B01AC01F10162A917
:105A700073A984A995A90F94AC10181614F00C946E
:105A80005B36662777276E197F09882777FD809513
:105A9000982F0F944B0F2091C7033091C80340916A
:105AA000C9035091CA030F9420110F94180F1F922D
:105AB0001F92D10152962C9152972F9351962C916F
:105AC00051972F9350962C9150972F931F962C916E
:105AD0002F935B016C01E12CF12C870120E030E079
