:100000000C94C11C0C94F21C0C94F21C0C94F21C69
:100010000C94F21C0C94F21C0C94F21C0C94F21C28
:100020000C94F21C0C94F21C0C94F21C0C94F21C18
:100030000C94F21C0D94E7090C94F21C0C94F21C25
:100040000C94F21C0C949B770C94F21C0C94F21CF4
:100050000C94F21C0C9447790C943E780D94D503C3
:100060000C94F21C0C949F790C94C9790C94F21C9A
:100070000C94F21C0C94F21C0C94F21C0C94F21CC8
:100080000C94F21C0C94F21C0C94F21C0C94F21CB8
:100090000C94F21C0C94F21C0C94F21C0D94A7020C
:1000A0000C94F21C0C94F21C0C94F21C0C94F21C98
:1000B0000C94F21C0C94F21C0C94F21C0C94F21C88
:1000C0000C94F21C0C94F21C0C94F21C0C94F21C78
:1000D0000C94F21C0C94F21C0C94F21C0C94F21C68
:1000E0000C94F21CD270EA70EA70EA70EA70EA705E
:1000F000EA70EA70EA70EA70EA70EA70EA70EA7030
:10010000EA70EA70EA70EA70EA70EA70EA70EA701F
:10011000EA70EA70EA70EA70C17073707D70F76F10
:10012000EA70A370AD70EA70EA700870E56FEA706B
:100130009970EA70B7708F708770EA70EA70EA7031
:1001400055705F706970EA70EA70EA70EA70EA7080
:10015000EA70EA70EA70EA70C17073707D70F76FD0
:10016000EA70A370AD70EA70EA700870E56FEA702B
:100170009970EA70B7708F708770EA70EA70EA70F1
:1001800055705F706970DDE76EE801E952EAEDF8DD
:10019000EDF8EDF8EDF8EDF8EDF8EDF8EDF8EDF837
:1001A0009AE9D6E914EAEDF8EDF8EDF8EDF8EDF896
:1001B000EDF8EDF8EDF8EDF8EDF8EDF879EDDBEDB3
:1001C0003BEE9BEEFBEE5BEFBBEFEDF837F43FF061
:1001D000B5F028F19AF10CF27EF2F0F25DF3CAF379
:1001E000EDF8EDF8EDF8EDF8EDF8FCEBC9EC1FECEF
:1001F0007FF4ECF458F5C5F5E6F528F65AF68CF6DA
:10020000E5F640F799F7F2F713F807F6EDF8EDF891
:10021000EDF8EDF8EDF8EDF8EDF8EDF8EDF8EDF8B6
:10022000EDF8EDF89CEBCBEBEDF8EDF8EDF8EDF833
:10023000EDF8EDF8EDF8EDF895F8EDF898ECEDF84F
:10024000EDF8EDF83DF86BF8EDF8EDF8EDF8EDF8B8
:10025000D0E7EDF8EDF895EA38EB7CEB21EDB20153
:10026000AC019C01BE018201BA0192018C0188019E
:100270007801A6017A01C201A201BA0190018001B0
:10028000B801B0017601BC01A401B601C601860126
:100290007E01B4019A0196018A019E01C001C60146
:1002A000AE017C01A00107634236B79BD8A71A397B
:1002B000685618AEBAAB558C1D3CB7CC5763BD6DB4
:1002C000EDFD753EF6177231BF000000803F05A8B6
:1002D0004CCDB2D44EB93836A9020C50B9918688AB
:1002E000083CA6AAAA2ABE000000803F0D94BF05C4
:1002F0000D9445050D9459050D94ED050D94C70514
:100300000D9486050D9421050D9418010D94C305D7
:100310000D943B050D94DB050D9433050D949B0660
:100320000D947C050D942B050D9428010D94D50595
:100330000D9427010D94D1050D940D050D94DF0545
:100340000D94F1050D9472050D94B2050D944F05B1
:100350000D94C8010D9454010D9408050D94E90500
:100360000D94BC050D9403050D94CD050D94B805B1
:100370000D9490050D949A050D94AE050D941705F6
:100380000D94E3050D9468050D9405010D94F60593
:100390000D94FD00436F6C64206578747275736909
:1003A0006F6E20646973616C6C6F77656400436F76
:1003B0006C6420657874727573696F6E20616C6C03
:1003C0006F776564004175746F72657472616374F0
:1003D0003A0053657474696E67206D6F746F722094
:1003E00063757272656E742E2E2E00536574204DE7
:1003F0006963726F7374657070696E6700547269B7
:1004000067676572696E67207761746368646F6798
:100410002E204966206163746976617465642C20BE
:10042000746865207072696E7465722077696C6C8F
:100430002072657365742E0053657474696E67204D
:100440005468726573686F6C6420546F3A00494E4B
:10045000542050494E3A20004D323531200020744E
:100460006F200053657420766F6C756D65747269CA
:100470006320657874727573696F6E20666F722081
:100480006578747275646572200044697361626C8A
:10049000656420766F6C756D65747269632065782C
:1004A00074727573696F6E20666F722065787472EE
:1004B0007564657220004D313134200048656174E7
:1004C000696E67204265640048656174696E6720E3
:1004D00045787472756465720050696E2063616E50
:1004E000206E6F7420626520736574206279204DE0
:1004F00034322C206D617920696E20696E76616CD2
:100500006964206F7220696E207573652E20004922
:100510006C6C6567616C20532076616C7565206634
:100520006F72204D3432005A2028432920746F778F
:10053000657220666C6F6F722073657420746F3AF9
:100540002000592028422920746F77657220666C3C
:100550006F6F722073657420746F3A2000582028E2
:10056000412920746F77657220666C6F6F722073FB
:10057000657420746F3A2000526F64205261646980
:1005800075732073657420746F3A200047313334DB
:100590002000506F7346726F6D53746570733A002C
:1005A000436F6D7044656C74613A0043616C6962BD
:1005B000726174696F6E206D6F76656D656E742003
:1005C0006973206C696D6974656420746F203130C3
:1005D0006D6D2E004669727374206D6F76652074A0
:1005E0006F20746F75636820617420782C793D30BA
:1005F0002C3020746F206175746F2D7365742072B8
:1006000061646975732E0043616C6962726174691B
:100610006F6E206D6F76656D656E74206973206CEA
:10062000696D6974656420746F2031306D6D2E00C2
:1006300043616E6E6F7420736574207261646975B6
:100640007320616E6420666C6F6F7220617420731A
:10065000616D652074696D652E0043616C6962721D
:100660006174696F6E20636F6465206973206C69C3
:100670006D6974656420746F20626F74746F6D208F
:10068000313025206F66205A2068656967687400DC
:1006900052656C617469766520706F736974696FF7
:1006A0006E696E67004162736F6C75746520706F60
:1006B000736974696F6E696E670047363920005A36
:1006C0003A2000593A2000583A20004F46465345F8
:1006D0005453204F464620425920544F4F204D55E9
:1006E0004348205F20545259494E472041474149D1
:1006F0004E3A200053657474696E672050726F62C1
:10070000652053656E736974697669747920546FD6
:100710003A005A2070726F6265206661696C656488
:10072000206F6E2073656E73697469766974793AA7
:10073000200053657474696E672050726F62652083
:1007400053656E736974697669747920546F3A00E1
:100750005A2070726F6265206661696C6564206FF3
:100760006E2073656E73697469766974793A2000D6
:1007700053657474696E672050726F6265205365AB
:100780006E736974697669747920546F3A005A20DF
:1007900070726F6265206661696C6564206F6E209F
:1007A00073656E73697469766974793A2000686557
:1007B0006865004E6577205261646975733A200060
:1007C0004F6C64205261646975733A200043616C18
:1007D00063756C6174656420526164697573206926
:1007E0007320626164203A0053657474696E6720F7
:1007F00050726F62652053656E73697469766974AF
:100800007920546F3A005A2070726F6265206661D9
:10081000696C6564206F6E2073656E7369746976A8
:100820006974793A200053657474696E6720507258
:100830006F62652053656E73697469766974792097
:10084000546F3A005A2070726F6265206661696C5D
:100850006564206F6E2073656E7369746976697460
:10086000793A2000473332200050524F42452D5AEA
:100870004F46465345543A0047333000536574742D
:10088000696E672050726F62652053656E7369747C
:10089000697669747920546F3A0050726F6265739B
:1008A00020646F206E6F74206D617463682E204F1A
:1008B00066662062792000202D2050524F4245204C
:1008C0004F46465345543A00506F696E74200047B6
:1008D000333020004D3131372043414C49425241A1
:1008E00054494F4E20434F4D504C45544500686588
:1008F0006865004E657720486F72697A6F6E746123
:100900006C205261646975733A20004F6C64204812
:100910006F72697A6F6E74616C205261646975736D
:100920003A200043616C63756C61746564205261A8
:1009300064697573206973206261643A20004D31E7
:1009400031372043414C4942524154494F4E204691
:1009500041494C45440043616C6962726174696F3E
:100960006E204661696C65640053657474696E67D6
:100970002050726F62652053656E73697469766981
:10098000747920546F3A005A2070726F6265202883
:1009900043656E74657220506F696E7429206661BC
:1009A000696C6564206F6E2073656E736974697617
:1009B0006974793A20004E6577205A204865696746
:1009C00068743A004F6C64205A20486569676874FF
:1009D0003A004D3131372043414C4942524154494C
:1009E0004F4E204641494C45440043616C69627258
:1009F0006174696F6E204661696C6564005365744B
:100A000074696E672050726F62652053656E7369FA
:100A100074697669747920546F3A005A2070726F45
:100A20006265202843656E74657220506F696E742C
:100A300029206661696C6564206F6E2073656E7332
:100A4000697469766974793A200047363920005A0A
:100A50003A2000593A2000583A20004F4646534564
:100A60005453204F464620425920544F4F204D5555
:100A700043482E2041626F7274696E67004D3131B8
:100A8000372043414C4942524154494F4E20464140
:100A9000494C45440043616C6962726174696F6ED0
:100AA000204661696C65640053657474696E6720E3
:100AB00050726F62652053656E73697469766974EC
:100AC0007920546F3A005A2070726F626520285A5C
:100AD00020546F77657229206661696C6564206FA8
:100AE0006E2073656E73697469766974793A200053
:100AF0004D3131372043414C4942524154494F4EC8
:100B0000204641494C45440043616C6962726174FE
:100B1000696F6E204661696C656400536574746921
:100B20006E672050726F62652053656E73697469D9
:100B30007669747920546F3A005A2070726F62653A
:100B400020285920546F77657229206661696C6589
:100B500064206F6E2073656E736974697669747949
:100B60003A20004D3131372043414C4942524154E3
:100B7000494F4E204641494C45440043616C6962EF
:100B8000726174696F6E204661696C6564005365BB
:100B90007474696E672050726F62652053656E735E
:100BA0006974697669747920546F3A005A207072BA
:100BB0006F626520285820546F776572292066611E
:100BC000696C6564206F6E2073656E7369746976F5
:100BD0006974793A2000473420533130004D313068
:100BE000342053300A4D3134302053300A4D3130E7
:100BF00037006578656375746547436F6465202FBA
:100C000020717565756544656C74614D6F766520FE
:100C100072657475726E73206572726F72006969A5
:100C20007332646820616363656C65726F6D6574AF
:100C3000657220696E697469616C697A696E672E84
:100C40002E2E00616363656C65726F6D65746572ED
:100C5000206932632072656376206572726F722E2E
:100C6000002076616C75653A2000726561642072BF
:100C700065672000616363656C65726F6D6574659F
:100C80007220777269746520693263206572726FB1
:100C9000722E00616363656C65726F6D6574657259
:100CA0002073656E6420693263206572726F722EE4
:100CB0000000000100250030001D000C0018002479
:100CC0000031001C000B00170023002F001B000A3E
:100CD000001E000D00FFFF0900030022002B001A78
:100CE0000041004200000002003500457874722E79
:100CF00000436F6E6669673A004F6E6520686561F4
:100D0000746572207365656D73206465636F7570BB
:100D10006C65642066726F6D20746865726D6973AE
:100D2000746F72202D2064697361626C696E672034
:100D3000616C6C20666F7220736166657479210046
:100D4000486561746572206465636F75706C656475
:100D5000004372656174696F6E206661696C6564D9
:100D6000004469726563746F72792063726561749F
:100D700065640044656C6574696F6E206661696CBA
:100D800065640046696C652064656C657465640023
:100D9000446F6E6520736176696E672066696C6565
:100DA0002E0057726974696E6720746F2066696CD3
:100DB000653A20006F70656E206661696C65642C11
:100DC0002046696C653A20004E6F742053442070B1
:100DD00072696E74696E67005344207072696E7434
:100DE000696E672062797465200066696C652E6F94
:100DF00070656E206661696C65640046696C65208B
:100E000073656C6563746564002053697A653A00A4
:100E100046696C65206F70656E65643A00456E6466
:100E20002066696C65206C69737400426567696E41
:100E30002066696C65206C697374006572726F72EC
:100E40002077726974696E6720746F2066696C65BB
:100E500000534420696E6974206661696C006164A6
:100E600076616E6365204C205B303D6F66665D0089
:100E7000657874727564657220636F6F6C6572203B
:100E80007370656564205B302D3235355D006469B3
:100E90007374616E636520746F2072657472616330
:100EA00074207768656E2068656174696E67205B81
:100EB0006D6D5D0074656D702E20666F72207265B9
:100EC0007472616374696F6E207768656E206865FF
:100ED0006174696E67205B435D0074656D702E20E0
:100EE00073746162696C697A652074696D65205BF1
:100EF000735D00592D6F6666736574205B7374654E
:100F000070735D00582D6F6666736574205B737433
:100F10006570735D00504944206D61782076616C86
:100F20007565205B302D3235355D005049442044D5
:100F30002D6761696E0050494420492D6761696ED3
:100F40000050494420502D6761696E2F64656164CB
:100F50002D74696D6500504944206472697665207E
:100F60006D696E00504944206472697665206D6138
:100F7000780068656174206D616E61676572205BE1
:100F8000302D335D00616363656C65726174696FF8
:100F90006E205B6D6D2F735E325D007374617274D1
:100FA000206665656472617465205B6D6D2F735D8D
:100FB000006D61782E206665656472617465205BE2
:100FC0006D6D2F735D007374657073207065722092
:100FD0006D6D0042656420504944206D6178207633
:100FE000616C7565205B302D3235355D004265647E
:100FF0002050494420442D6761696E004265642099
:1010000050494420492D6761696E00426564205053
:10101000494420502D6761696E0042656420504943
:1010200044206472697665206D696E0042656420B3
:10103000504944206472697665206D61780042658C
:10104000642048656174204D616E61676572205B44
:10105000302D335D00436F72722E20646961676FBB
:101060006E616C2043205B6D6D5D00436F72722E6C
:1010700020646961676F6E616C2042205B6D6D5DFD
:1010800000436F72722E20646961676F6E616C201D
:1010900041205B6D6D5D004D6178207072696E74EA
:1010A00061626C6520726164697573205B6D6D5D52
:1010B00000546F776572205A20656E6473746F7088
:1010C000206F6666736574205B73746570735D0072
:1010D000546F776572205920656E6473746F702049
:1010E0006F6666736574205B73746570735D00541E
:1010F0006F776572205820656E6473746F70206F0F
:101100006666736574205B73746570735D00536508
:10111000676D656E74732F7320666F7220747261D1
:1011200076656C005365676D656E74732F7320660A
:101130006F72207072696E74696E6700486F7269B1
:101140007A6F6E74616C20726F642072616469756D
:101150007320617420302C30205B6D6D5D0044691C
:1011600061676F6E616C20726F64206C656E67746E
:1011700068205B6D6D5D00486F6D696E6720666508
:10118000656472617465205B6D6D2F735D004D61E8
:10119000782E206665656472617465205B6D6D2FC5
:1011A000735D00537465707320706572206D6D00FF
:1011B00054726176656C20616363656C65726174FD
:1011C000696F6E205B6D6D2F735E325D00416363EE
:1011D000656C65726174696F6E205B6D6D2F735EF7
:1011E000325D004D61782E206A65726B205B6D6DFB
:1011F0002F735D005A206D6178206C656E6774688E
:10120000205B6D6D5D0059206D6178206C656E67A7
:101210007468205B6D6D5D0058206D6178206C6591
:101220006E677468205B6D6D5D005A20686F6D6538
:1012300020706F73205B6D6D5D005920686F6D6568
:1012400020706F73205B6D6D5D005820686F6D6559
:1012500020706F73205B6D6D5D0053746F70207331
:1012600074657070657220616674657220696E6164
:1012700063746976697479205B6D732C303D6F6699
:10128000665D004D61782E20696E616374697665D4
:101290002074696D65205B6D732C303D6F66665DF3
:1012A000005072696E74657220616374697665209E
:1012B0005B735D0046696C616D656E742070726968
:1012C0006E746564205B6D5D00416476616E63657C
:1012D00064205573657200426175647261746500C3
:1012E0004550523A3320004550523A322000455082
:1012F000523A3120004550523A30200050726F74FB
:101300006F636F6C2076657273696F6E20636861BE
:101310006E6765642C20757067726164696E670022
:10132000436F6E66696775726174696F6E2072656E
:1013300073657420746F2064656661756C74732EB8
:1013400000436F6E66696775726174696F6E206CB9
:101350006F616465642066726F6D20454550524F21
:101360004D2E00436F6E66696775726174696F6EAA
:101370002073746F72656420746F20454550524F1E
:101380004D2E004175746F6C6576656C20616374D9
:101390006976652028312F3029005A2D70726F62CE
:1013A00065205933005A2D70726F626520583300E2
:1013B0005A2D70726F6265205932005A2D70726F0B
:1013C0006265205832005A2D70726F626520593163
:1013D000005A2D70726F6265205831005A2D70725C
:1013E0006F626520782D792D7370656564205B6D63
:1013F0006D2F735D005A2D70726F6265207370657A
:101400006564205B6D6D2F735D005A2D70726F6285
:1014100065206F66667365742079205B6D6D5D0075
:101420005A2D70726F6265206F66667365742078DE
:10143000205B6D6D5D004D61782E207A2D70726F8E
:101440006265202D2062656420646973742E205BC0
:101450006D6D5D005A2D70726F62652068656967F9
:101460006874205B6D6D5D0077616974005072690E
:101470006E746572206865696768743A005A2D70E9
:10148000726F6265206661696C6564005472616E9A
:1014900073666F726D6174696F6E206D61747269CD
:1014A000783A004175746F6C6576656C696E67207B
:1014B00064697361626C6564004175746F6C657614
:1014C000656C696E6720656E61626C65640041756C
:1014D000746F6C6576656C206D61747269782072CA
:1014E0006573657400004732382F6E47315A3235C4
:1014F0002F6E005A2D70726F62652073746174656F
:101500003A005265736574205A206865696768748B
:10151000005A2D70726F6265206176657261676531
:10152000206865696768743A0020537465702056B6
:101530006172696174696F6E2066726F6D2050729E
:101540006F626520746F2062656420446973746102
:101550006E63653A005A2D70726F62653A00507280
:10156000696E7465722073657420696E746F20648F
:1015700072792072756E206D6F646520756E746966
:101580006C207265737461727421003A20776F72F7
:101590006B696E67003A2074656D702073656E73B9
:1015A0006F72206465666563740065787472756433
:1015B0006572200068656174656420626564004D31
:1015C00054454D503A00504944204175746F74752C
:1015D0006E652066696E6973686564202120506CB1
:1015E00061636520746865204B702C204B69206115
:1015F0006E64204B6420636F6E7374616E7473202D
:10160000696E2074686520436F6E666967757261E4
:1016100074696F6E2E68206F7220454550524F4D91
:1016200000504944204175746F74756E6520666181
:10163000696C6564212074696D656F75740050492B
:1016400044204175746F74756E65206661696C65C0
:1016500064212054656D70657261747572652074C3
:101660006F206869676800204B643A2000204B694E
:101670003A2000204B703A200020436C617373695C
:101680006320504944002054753A2000204B753A9D
:101690002000206D61783A2000206D696E3A2000AC
:1016A00020643A200020626961733A200050494466
:1016B000204175746F74756E652073746172740067
:1016C0005461726765744265643A0054617267657B
:1016D0007445787472004E6F206D6F766520696E68
:1016E0002064656C7461207365676D656E74207726
:1016F000697468203E2031207365676D656E742EB5
:1017000020546869732073686F756C64206E657609
:1017100065722068617070656E20616E64206D6115
:101720007920636175736520612070726F626C65EA
:101730006D210044656C7461205261646975732089
:10174000432830293A0044656C7461205261646911
:10175000757320422830293A0044656C7461205228
:10176000616469757320412830293A00416C7068C2
:10177000612043283930293A00416C706861204269
:1017800028333330293A00416C7068612041283297
:101790003130293A00546F77657220333A00546F24
:1017A00077657220323A00546F77657220313A00C3
:1017B000496E76616C69642064656C746120636F46
:1017C0006F7264696E617465202D206D6F7665207F
:1017D00069676E6F726564006C696E656172204C3A
:1017E0003A00454550524F4D2075706461746564F0
:1017F000002C2073706565643D00206C696E656126
:10180000722073746570733A004A65726B3A007A9D
:101810005F6D61783A00795F6D61783A00785F6D4D
:1018200061783A004C200048200020697320002095
:10183000746F2000536574206F75747075743A204E
:10184000004D53312C4D53322050696E7300453199
:101850003A0045303A005A3A00593A0020002C002C
:10186000206D696E0020686F7572732000206461BE
:10187000797320006D20005072696E74696E672064
:1018800074696D653A005072696E746564206669AA
:101890006C616D656E743A0046616E737065656467
:1018A0003A00482E205261646975733A00466C6FA5
:1018B000774D756C7469706C793A00537065656426
:1018C0004D756C7469706C793A00202F002F003AC6
:1018D0000020524157002042403A0020403A002068
:1018E000423A00543A0020453A00205A3A00205922
:1018F0003A0020583A00583A004672656520524135
:101900004D3A00556E6B6E6F776E20636F6D6D6133
:101910006E643A00536F6674776172652052657326
:101920006574005761746368646F672052657365FE
:10193000740042726F776E206F7574205265736504
:10194000740045787465726E616C205265736574BD
:1019500000506F7765725570007374617274004245
:101960004C4B2000736B6970200020676F7420005F
:101970004572726F723A6578706563746564206C45
:10198000696E65200053442072656164206572723F
:101990006F7200205200204A002049002050002091
:1019A0005300204600204500205A002059002058AE
:1019B00000446F6E65207072696E74696E67206690
:1019C000696C6500466F726D6174206572726F722A
:1019D0000057726F6E6720636865636B73756D0087
:1019E0004563686F3A00526573656E643A005761EB
:1019F000726E696E673A00496E666F3A00457272A0
:101A00006F723A00494E46004E414E006F6B0046E1
:101A100049524D574152455F4E414D453A526570CE
:101A200065746965725F302E39322E322046495214
:101A30004D574152455F444154453A323031373079
:101A4000313330204D414348494E455F545950454C
:101A50003A526F73746F636B204D61782076322039
:101A600000206465672E204300206D6561737572E8
:101A7000656420004572726F723A436F756C642022
:101A80006E6F7420686F6C642074656D7065726130
:101A9000747572652000206D730020616674657234
:101AA00020004572726F723A54656D702E2072611B
:101AB0006973656420746F20736C6F772E20526990
:101AC0007365203D20004739310A4731452D3138B3
:101AD0003046363030300A473930004D313137200A
:101AE000457874727564657220300A54300A4D3836
:101AF000342050340A4739310A47314531373346AB
:101B0000363030300A47314535463530300A4739AE
:101B100030001C151C140000002243141F1F261F38
:101B2000D21E621E121E0000000000008A1D7E1CD4
:101B30002E1CB21B361B0400081D900058091C0106
:101B4000B007A801C80634023006C002C0054C0325
:101B50006805D80318056404D004F00498047C05D3
:101B6000600408063004940600042007D003AC0784
:101B7000A80338088003C408580350093003DC095F
:101B80000803680AD802F40AB002800B88020C0C21
:101B90006002980C3002240DF801B00DC0013C0E1B
:101BA0008001C80E3001540FB800B40F2800E00FB8
:101BB00000000400401D900060091C01B007A8014E
:101BC000D00634023806C002C8054C036805D803A5
:101BD00018056404D804F00498047C056004080621
:101BE0003004940600042007D003AC07A80338088B
:101BF0008003C408580350093003DC090803680A4D
:101C0000E002F40AB802800B88020C0C6002980C07
:101C10003002240DF801B00DC0013C0E8001C80E49
:101C20003001540FB800B40F2800E00F000004008A
:101C30000016D800C006AC0178058002C004540329
:101C400048042804E803FC049803D0055003A406C4
:101C500018037807D8024C08A80220097002F4097A
:101C60003802C80A08029C0BD001700C9001440D88
:101C70005001180EF800EC0E8800C00F00000400A0
:101C8000681D4C00500B94005809DC0050082401DA
:101C9000A8076C012807B401C006FC0170064402C5
:101CA00028068C02F005D402B8051C0388056403DD
:101CB0005805AC033005F40310053C04E804840423
:101CC000C804CC04A804140590045C057004A405A1
:101CD0005804EC053804340620047C060804C406C5
:101CE000F0030C07D8035407C8039C07B003E407AC
:101CF00098032C08800374087003BC085803040977
:101D000048034C09300394091803DC090803240A2A
:101D1000F0026C0AE002B40AC802FC0AB002440BEA
:101D2000A0028C0B8802D40B70021C0C5802640CAD
:101D30004002AC0C2802F40C10023C0DF001840DA2
:101D4000D801CC0DB801140E98015C0E7001A40EE0
:101D50004801EC0E1801340FD8007C0F8800C40F26
:101D60000800FC0F00000000000000000000000060
:101D70000000000000000000000000000000000063
:101D8000000000000000000000000000401F4500AF
:101D900060094F0010095C00C0086B0070087D00EE
:101DA00020089200D007AC008007CC003007DE008E
:101DB000E006230190065E014006A601F005FF0142
:101DC000A0056D025005F30200059603B0045A0405
:101DD0006004400510044806C0036E077003A8089D
:101DE0002003EB09D002230B8002410C3002390D95
:101DF000E001040E9001A20E4001170FF000690FE0
:101E0000A000A20F5000C60F0000DD0FB0FFEB0FC7
:101E100060FF0400700DD8004804AC015803800234
:101E2000D8025403800228043802FC040002D005C2
:101E3000C801A4069801780770014C0848012009E0
:101E40001801F409F000C80AC8009C0BA000700C2F
:101E50007000440D3800180E0000EC0EA8FFC00FF3
:101E6000E8FE0400001B54006009640010097400BF
:101E7000C008840070089C002008B800D007D80073
:101E80008007000130072C01E00668019006AC01D4
:101E900040060002F0056802A005E0025005740348
:101EA00000052404B004F0046004DC051004E4061A
:101EB000C0030408700330092003780B8002600D12
:101EC000E001A80E4001680FA000C00F0000E80F5D
:101ED00060FF0400801AD8009808AC012007800237
:101EE00050065403C80528045805FC040005D00515
:101EF000B004A4066804780728044C08E803200905
:101F0000B003F4097003C80A38039C0BF802700C84
:101F1000B002440D6802180E0802EC0E8801C00FD2
:101F20008800F00F00000000A00F5C00600969004D
:101F300010097900C0088C007008A2002008BD00BC
:101F4000D007DE008007050130073401E0066D018F
:101F50009006B20140060702F0056D02A005E802F6
:101F600050057B0300052B04B004F8046004EB0665
:101F7000C003350920037F0B8002650DE001B00E20
:101F800040011D0FF000480FC8006C0FA000ED0FBE
:101F900060FFFE0F48FE00025344206572726F72AC
:101FA000206669786564005344206572726F722000
:101FB000646964206E6F74207265636F7665722148
:101FC0000053442052656164204572726F720000B4
:101FD00000000000000000000000000000000024DD
:101FE000F403D950C38EB1C2A23D96828B358212C2
:101FF0007AE372816CCB66A861015DC758EB5461CE
:1020000051204E1E4B5648C14559431A41013F09C4
:102010003D2F3B7139CD374036C93465331432D446
:1020200030A32F802E6B2D632C672B752A8E29B041
:1020300028DC2710274B268F25D9242B248223E048
:10204000224322AC211A218D200420801F001F84EE
:102050001E0C1E971D261DB81C4E1CE61B821B2045
:102060001BC11A641A0A1AB2195D190A19B9186A39
:10207000181C18D11788174017FA16B516731631A1
:1020800016F115B31576153A150015C7148F1458A7
:10209000142214EE13BA13881356132513F612C71D
:1020A0001299126C1240121512EB11C11198117095
:1020B0001148112111FB10D610B1108D1069104676
:1020C0001024100210E10FC00FA00F800F610F420B
:1020D0000F230F060FE80ECB0EAF0E930E770E5C9C
:1020E0000E410E270E0D0EF30DDA0DC10DA80D9049
:1020F0000D780D600D490D320D1B0D050DEF0CD93E
:102100000CC30CAE0C990C850C700C5C0C480C3597
:102110000C210C0E0CFB0BE80BD60BC40BB20BA066
:102120000B8E0B7D0B6B0B5A0B4A0B390B290B18C3
:102130000B080BF80AE90AD90ACA0ABB0AAC0A9DBD
:102140000A8E0A800A710A630A550A470A390A2C5C
:102150000A1E0A110A040AF709EA09DD09D009C4AE
:1021600009B709AB099F09920987097B096F0963C0
:102170000958094C09410936092B09200915090A92
:10218000090009F508EB08E008D608CC08C208B831
:1021900008AE08A4089A08900887087D0874086BA0
:1021A00008610858084F0846083D0834082C0823E1
:1021B000081A08120809080108F807F007E807E0FC
:1021C00007D807D007C807C007B807B007A807A1F6
:1021D000070000420FA1071605D0030D038B022E46
:1021E00002E801B2018601630145012C01170104D7
:1021F00001F400526F73746F636B4D415820526548
:1022000061647900526F73746F636B4D4158205253
:102210006561647900526F73746F636B4D41582030
:10222000526561647900207A3A0020793A0020787A
:102230003A00696E20717565756544656C74614D11
:102240006F766520746F2063616C63756C61746573
:1022500044656C74615375625365676D656E747324
:102260002072657475726E73206572726F722E00C3
:10227000432068697420666C6F6F720043706F73DF
:10228000207820737175617265200043706F732030
:1022900078207374657073200043706F7320792009
:1022A000737175617265200043706F7320792073BC
:1022B000746570732000422068697420666C6F6FCB
:1022C000720042706F73207820737175617265209F
:1022D0000042706F73207820737465707320004221
:1022E000706F732079207371756172652000427080
:1022F0006F732079207374657073200041206869C2
:102300007420666C6F6F720041706F732078207359
:102310007175617265200041706F7320782073744D
:10232000657073200041706F73207920737175613F
:102330007265200041706F7320792073746570732B
:1023400020006D6F766552656C61746976654469CD
:102350007374616E6365496E5374657073202F20CA
:10236000717565756544656C74614D6F7665207235
:10237000657475726E73206572726F72004D61784C
:1023800054656D703A004469616D657465723A0018
:10239000416363656C65726174696F6E3A004D618B
:1023A0007853706565643A004A65726B3A004D6116
:1023B0007842656454656D703A005072696E746558
:1023C00072547970653A44656C7461005A54726154
:1023D00076656C416363656C3A0059547261766549
:1023E0006C416363656C3A005854726176656C4168
:1023F0006363656C3A005A5072696E744163636539
:102400006C3A00595072696E74416363656C3A00AE
:10241000585072696E74416363656C3A005A53692F
:102420007A653A005953697A653A005853697A6572
:102430003A005A4D61783A00594D61783A00584D4A
:1024400061783A005A4D696E3A00594D696E3A000A
:10245000584D696E3A004A65726B58593A0050728D
:10246000696E746C696E6543616368653A004545E1
:1024700050524F4D3A004175746F6C6576656C3AF9
:10248000005A50726F62653A00436173654C696728
:102490006874733A00537570706F72744C6F636137
:1024A0006C46696C616D656E746368616E67653AF0
:1024B00000537570706F72744731304731313A0094
:1024C0005A486F6D654469723A0059486F6D6544AA
:1024D00069723A0058486F6D654469723A00536FEB
:1024E000667477617265506F77657253776974634C
:1024F000683A004C43443A0046616E3A0053444304
:102500006172643A004865617465644265643A00CA
:102510004D6978696E6745787472756465723A00C2
:102520004E756D45787472756465723A00496E70C7
:1025300075744275666665723A00426175647261CF
:1025400074653A004E6F2063617365206C6967683B
:102550007473004D31313420007A70726F62696E8D
:10256000672E2E2E0064656C6179203130306D73DA
:102570002E00686F6D65417869732000686F6D6526
:1025800041786973202F20717565756544656C7499
:10259000614D6F76652072657475726E7320657219
:1025A000726F7200486F6D652044656C74610050F5
:1025B00072696E7465723A3A736574757020006D55
:1025C0006F7665546F5265616C202F20717565754B
:1025D0006544656C74614D6F7665207265747572C3
:1025E0006E73206572726F72006D6F7665546F2026
:1025F0002F20717565756544656C74614D6F7665E6
:102600002072657475726E73206572726F720053FA
:102610007465707065722044697361626C656400F2
:102620004B696C6C6564006973506F736974696F92
:102630006E416C6C6F776564200055706C6F6164DF
:10264000696E672E2E2E00005344207072696E74DE
:102650002073746F70706564206279207573657281
:102660002E004739312F6E4731205A2D31302E3010
:102670002045352E312046313530302F6E473930E8
:102680002F6E004739312F6E4731205A31302E30AE
:1026900020452D352E302046313530302F6E4739CC
:1026A000302F6E005344206361726420696E73653D
:1026B00072746564005344204361726420696E73D0
:1026C00065727465640053442043617264207265CE
:1026D0006D6F766564005344206361726420726597
:1026E0006D6F7665640000002110422063308440E5
:1026F000A550C660E770088129914AA16BB18CC1D1
:10270000ADD1CEE1EFF13112100273325222B55247
:102710009442F772D662399318837BB35AA3BDD320
:102720009CC3FFF3DEE36224433420040114E66417
:10273000C774A44485546AA54BB528850995EEE570
:10274000CFF5ACC58DD55336722611163006D77627
:10275000F6669556B4465BB77AA719973887DFF7C0
:10276000FEE79DD7BCC7C448E5588668A7784008EF
:10277000611802282338CCC9EDD98EE9AFF9488910
:1027800069990AA92BB9F55AD44AB77A966A711A87
:10279000500A333A122AFDDBDCCBBFFB9EEB799B60
:1027A000588B3BBB1AABA66C877CE44CC55C222CD7
:1027B000033C600C411CAEED8FFDECCDCDDD2AADB0
:1027C0000BBD688D499D977EB66ED55EF44E133E67
:1027D000322E511E700E9FFFBEEFDDDFFCCF1BBF00
:1027E0003AAF599F788F8891A981CAB1EBA10CD1DA
:1027F0002DC14EF16FE18010A100C230E3200450E2
:10280000254046706760B9839893FBA3DAB33DC354
:102810001CD37FE35EF3B1029012F322D232354231
:10282000145277625672EAB5CBA5A89589856EF5E4
:102830004FE52CD50DC5E234C324A0148104667481
:10284000476424540544DBA7FAB79987B8975FE734
:102850007EF71DC73CD7D326F2369106B0165766D1
:102860007676154634564CD96DC90EF92FE9C899BC
:10287000E9898AB9ABA94458654806782768C01821
:10288000E1088238A3287DCB5CDB3FEB1EFBF98B94
:10289000D89BBBAB9ABB754A545A376A167AF10A71
:1028A000D01AB32A923A2EFD0FED6CDD4DCDAABDA4
:1028B0008BADE89DC98D267C076C645C454CA23CC1
:1028C000832CE01CC10C1FEF3EFF5DCF7CDF9BAF74
:1028D000BABFD98FF89F176E367E554E745E932E11
:1028E000B23ED10EF01E7C3C3E5E2B3D3F2F5B5D29
:1028F0003B2C2A225C0052657175657374506175BA
:1029000073653A004D31313720494E5345525420BA
:1029100053442043415244004D3131372053442029
:1029200043415244204552524F520055495F414362
:1029300054494F4E5F5345545F4D454153555245A1
:10294000445F4F524947494E20004E6F2053442068
:10295000436172640053687574204F666620414C71
:102960004C2048656174730050726568656174201D
:10297000414253005072656865617420504C4100BB
:1029800055495F414354494F4E5F484F4D455F5A4B
:10299000200055495F414354494F4E5F484F4D45D4
:1029A0005F59200055495F414354494F4E5F484F9E
:1029B0004D455F58200055495F414354494F4E5F94
:1029C000484F4D45414C4C200055495F41435449C7
:1029D0004F4E5F5A504F534954494F4E5F464153F3
:1029E000545F4E4F54455354200055495F41435462
:1029F000494F4E5F5A504F534954494F4E5F4E4FC7
:102A000054455354200055495F414354494F4E5F4C
:102A100045504F534954494F4E200055495F41435B
:102A200054494F4E5F5A504F534954494F4E5F4699
:102A3000415354200055495F414354494F4E5F591B
:102A4000504F534954494F4E5F464153542000550F
:102A5000495F414354494F4E5F58504F5349544981
:102A60004F4E5F46415354200055495F41435449FE
:102A70004F4E5F5A504F534954494F4E20005549CD
:102A80005F414354494F4E5F59504F534954494F4A
:102A90004E200055495F414354494F4E5F58504FB7
:102AA000534954494F4E200042616E6742616E6740
:102AB00000536C6F7742616E670044656164205417
:102AC000696D650050494400003A002064617973E3
:102AD000200050657263656E74205072696E746573
:102AE000643A00206465662000465720446174659E
:102AF00020323031373031333000526F73746F63AE
:102B00006B4D41587632005365654D65434E430029
:102B1000526F73746F636B204D617820763200A022
:102B2000375637E9368C36416374696F6E3A256CD7
:102B30006100040003004E6F00596573004E2F4181
:102B4000004F6666004F6E000000003FCDCC4C3D4C
:102B50000AD7A33B6F12033A5265706574696572B8
:102B6000207620302E39322E320000401454802539
:102B7000000040380000004B00008070000000960C
:102B80000000C0DA000000E10000002C010008B2E3
:102B9000010000C2010000F401000084030090D095
:102BA000030000E803000008070020A10700001050
:102BB0000E0040420F0060E3160000000000110A02
:102BC0000411040A1111001C1F11111F0000040A36
:102BD0000A0A0E1F1F0E001F1111111F0000001FF7
:102BE0001F1F1F1F0000040A040000000000040E45
:102BF00015041C0000000200000600FD2B133463C6
:102C00002CE430362C3731A52C0200000700102CA4
:102C100013341E2CE430362C37316F304A2C252CDF
:102C200002E53100005072696E746572205365745C
:102C300074696E6773003D2C02B732000041646A0C
:102C40007573742054656D707300512C027B2C00D9
:102C500000416476616E6365642053657474696EC7
:102C60006773006A2C02FC3100005072696E746553
:102C7000722053657474696E677300020000090066
:102C8000822C1334902D7C2D6C2D5C2D942C452D95
:102C90002D2DA52C9B2C0212300000446562756717
:102CA00067696E6700AC2C02F432000043616C6906
:102CB00062726174696F6E204D656E750003102736
:102CC0000200C42CCF2CC82CD62C0000000000E73A
:102CD0002C00000000006C6F6164656420662E208B
:102CE000454550524F4D00436F6E6669677572617E
:102CF00074696F6E000310270200FC2C072D002D55
:102D00000E2D00000000001F2D0000000000737455
:102D10006F72656420696E20454550524F4D0043E7
:102D20006F6E66696775726174696F6E00342D032A
:102D3000070400004C6F61642066726F6D2045458A
:102D400050524F4D004C2D030604000053746F7217
:102D50006520746F20454550524F4D00632D029FF2
:102D60002D0000457874727564657200732D02A69B
:102D70002F0000466565647261746500832D02D280
:102D80002F0000416363656C65726174696F6E004A
:102D9000972D02F22E000047656E6572616C00028D
:102DA00000001000A62D1334DE2ECA2EB82EA72E3A
:102DB000922E632E7B2E4C2E392E252E142E032E72
:102DC000EE2DD92DC62DCD2D042F040000504944E1
:102DD000204D61783A25584400E02D042604000077
:102DE0004472697665204D61783A25584D00F52D7D
:102DF00004250400004472697665204D696E3A2509
:102E0000586D000A2E042404000050494420443A1E
:102E1000255864001B2E0423040000504944204917
:102E20003A255869002C2E042204000044542F50E7
:102E3000494420503A25587000402E042D040000CB
:102E4000436F6E74726F6C3A25586800532E0446B7
:102E5000040000416476616E6365206C696E3A25FA
:102E6000586C006A2E044D040000576169742055A7
:102E70006E6974733A2558556D6D00822E044C04AA
:102E80000000576169742054656D702E25585402F6
:102E90004300992E042E040000537461622E54697D
:102EA0006D653A25587700AE2E042A040000416370
:102EB00063656C3A25584100BF2E042B0400004D79
:102EC00061782046523A25584600D12E042C040041
:102ED0000053746172742046523A25586600E52EFC
:102EE000042904000053746570732F4D4D3A255327
:102EF00065000200000400F92E13342E2F162F0156
:102F00002F082F02422F00004D61782E20496E615C
:102F10006374697665001D2F02742F000053746579
:102F20007070657220496E61637469766500352F33
:102F3000041004000042617564726174653A256F83
:102F400063000358040200492F542F4D2F5B2F00BC
:102F500000000000652F00000000005B735D203062
:102F60003D4F6666004469732E2041667465723A6F
:102F70002569700003200402007B2F862F7F2F8D90
:102F80002F0000000000972F00000000005B735D21
:102F900020303D4F6666004469732E20416674659B
:102FA000723A256973000200000300AD2F1334C389
:102FB0002FB32FBA2F0413040000486F6D653A2514
:102FC000665A00CA2F04160400004D61783A25663F
:102FD0007A000200000400D92F13340130F12FE1F0
:102FE0002FE82F040E0400004A65726B3A25616ACF
:102FF00000F82F040D0400004D6F76653A25615AE4
:10300000000830040A0400005072696E743A2561A9
:103010007A000200000500193013345C3049303664
:103020003023302A30033504000044727920727551
:103030006E3A256464003D3003340400004572722A
:103040006F7273203A25646500503003330400002A
:10305000496E666F2020203A256469006330033290
:103060000400004563686F2020203A25646F0076D5
:1030700030028330000053442043617264204D6568
:103080006E750002000006008A301334E430D1303F
:10309000BB30A93096309D3003F403010244656CC7
:1030A0006574652066696C6500B03002033102000A
:1030B00053746F70205072696E7400C23003F7034E
:1030C0000400436F6E74696E7565205072696E748A
:1030D00000D83003F6030204506175736520507206
:1030E000696E7400EB3003F503010253656C656390
:1030F000742053442046696C650001000001000102
:1031000031133402000003000A3125311B31103124
:103110001731035424020059657300223103E80378
:1031200000004E6F002C31010000000053746F70DE
:10313000205072696E74003E31024F3100004164CC
:103140006A7573742046616E207370656564000251
:103150000000070056311334CD31B931A4318F311D
:103160007A3164316B31031E0400005365742046CC
:10317000616E20313030252525008131031D04008A
:10318000005365742046616E20373525252500964D
:1031900031031C0400005365742046616E203530F5
:1031A00025252500AB31031B040000536574204620
:1031B000616E20323525252500C031031A04080030
:1031C0005475726E2046616E204F666600D43104DD
:1031D0005204000046616E2073706565643A2546AE
:1031E00073252525000200000900EC311334463216
:1031F0002D32A43291327732FF335F320200000960
:10320000000332133446322D32A43291327732FF2A
:103210003315325F321C3203B20F0000556E6C6FF3
:10322000636B2046756C6C204D656E7500343204FE
:1032300048040000466C6F772020526174653A257F
:103240006F66252525004D32041F0400005370656C
:10325000656420526174653A256F6D2525250066E9
:1032600032034204001044697361626C6520537438
:10327000657070657273007E320338040000536815
:103280007574204F666620414C4C2048656174730C
:10329000009832034704000050726568656174202D
:1032A00041425300AB320337040000507265686539
:1032B000617420504C41000200000400BE321334FF
:1032C000DC32C432CB32043C04000042454420547A
:1032D000656D703A2020254562024300E332043DCB
:1032E0000400004E4F5A2054656D703A2020254549
:1032F000300243000200000600FB32133431330772
:1033000033FF33C9331D330E330421040000482E2C
:1033100020526164697573203A256F680024330375
:10332000AC0F0000536574205A204F726967696EB4
:10333000003833024933000046756C6C2043616CE1
:103340006962726174696F6E00020000040050339C
:1033500013348633713358335F3303B10F000042A7
:103360006567696E2043616C6962726174696F6E32
:1033700000783303B50F00004245442041524520F8
:10338000434C45414E008D3303B40F00004D414B7B
:10339000452053555245204E4F5A5A4C4520260041
:1033A0000200000600A7331334FF33ED33DB33C9CB
:1033B00033B333BA33022C340000457874722E20B4
:1033C000706F736974696F6E00D033028D350000C1
:1033D0005A20506F736974696F6E00E23302E235F0
:1033E00000005920506F736974696F6E00F43302E6
:1033F000373600005820506F736974696F6E00068D
:103400003403FD030000486F6D65205072696E74CF
:103410006572001A3403E803000050726576696F24
:1034200075732053637265656E20010003F0030419
:103430000033345034493442343B345734000000B4
:103440000000653400000000007634000000000039
:1034500085340000000000255566206D20707269DB
:103460006E7465640020453A2565632F2545630227
:10347000437E256F43003120636C69636B203D20E0
:1034800031206D6D00453A257833206D6D0003FCC9
:103490000304009534B234AB34A4349D34B9340001
:1034A00000000000BA340000000000CA3400000030
:1034B0000000DA340000000000004D617820656EE5
:1034C0006473746F703A25735A004D696E20656E8F
:1034D0006473746F703A25737A005A3A25783220F3
:1034E0006D6D0003FB030400EA3407350035F93441
:1034F000F2340E3500000000000F3500000000001F
:103500001F3500000000002F350000000000004DB6
:10351000617820656E6473746F703A257359004D3D
:10352000696E20656E6473746F703A257379005903
:103530003A257831206D6D0003FA0304003F355CB5
:103540003555354E3547356335000000000064358C
:103550000000000000743500000000008435000009
:10356000000000004D617820656E6473746F703ADE
:10357000257358004D696E20656E6473746F703AE0
:1035800025737800583A257830206D6D0003EF03DD
:1035900004009435B135AA35A3359C35B835000003
:1035A000000000B9350000000000C935000000002F
:1035B00000D9350000000000004D617820656E6480
:1035C00073746F703A25735A004D696E20656E648E
:1035D00073746F703A25737A005A3A257832206DE9
:1035E0006D0003EE030400E9350636FF35F835F1CA
:1035F000350D3600000000000E3600000000001EF1
:103600003600000000002E360000000000004D6172
:103610007820656E6473746F703A257359004D6934
:103620006E20656E6473746F703A25737900593A31
:10363000257831206D6D0003ED0304003E365B36C6
:1036400054364D36463662360000000000633600C0
:103650000000000073360000000000833600000008
:103660000000004D617820656E6473746F703A25B8
:103670007358004D696E20656E6473746F703A25DF
:10368000737800583A257830206D6D0000000004F2
:10369000009336B036A936A2369B36B73600000006
:1036A0000000BD360000000000D136000000000020
:1036B000D5360000000000255566206D00546F745B
:1036C000616C2046696C616D656E7420557365642C
:1036D0000025557400546F74616C205072696E74CB
:1036E000696E672054696D65000000000400F036C3
:1036F0000D370637FF36F836143700000000002378
:1037000037000000000031370000000000433700A0
:1037100000000000526F73746F636B204D6178205E
:103720007632005072696E746572204D6F64656CFC
:1037300000465720446174653A20323031373031C9
:1037400033300046572056657273696F6E3A2030E9
:103750002E39322E320000000004005D377A3773B4
:10376000376C37653781370000000000853700006F
:103770000000008E370000000000973700000000B6
:1037800000256F73005A3A257832206D6D00593A42
:10379000257831206D6D00583A257830206D6D0008
:1037A0000000000400A737C437BD37B637AF37CBAA
:1037B000370000000000CF370000000000E83700AD
:1037C00000000000FB370000000000256F7300536D
:1037D000706565643A256F6D25252520466C6F77E9
:1037E0003A256F66252525004245443A2565622025
:1037F0005461726765743A254562004E4F5A3A2506
:103800006563205461726765743A25456300000062
:10381000000000000000000000FF000001000000A8
:103820000A0B02090C0D0E0807030401000000003A
:103830000000000000000000000000000000000088
:103840000000000000000000000012111000000045
:103850000000000000000000000000000000000068
:103860000000000001021020200808102040102055
:103870004080020102010804020101020408102034
:103880004080804020100804020180040201804032
:10389000201008040201080402010102040810209B
:1038A0004080010204081020408005050505070539
:1038B00008080808020202020A0A080804040404AC
:1038C00001010101010101010303030303030303D8
:1038D000040707070C0C0C0C0C0C0C0C0202020267
:1038E00006060606060606060B0B0B0B0B0B0B0B50
:1038F000000020002300260029002C002F003200A9
:10390000000100000301060109010000220025005A
:1039100028002B002E0031003400020100000501B8
:1039200008010B0100002100240027002A002D00BF
:103930003000330001010000040107010A01024EBA
:10394000414E494E495459494E46CDCCCC3D0AD7FB
:10395000233C17B7D13877CC2B329595E6241FB18D
:103960004F0A000020410000C84200401C4620BC15
:10397000BE4CCA1B0E5AAEC59D74797AC9B4B3C089
:10398000A80111241FBECFEFD1E2DEBFCDBF00E002
:103990000CBF13E0A0E0B2E0E8EAF6E202E00BBF01
:1039A00002C007900D92A039B107D9F72EE1A0E926
:1039B000B3E001C01D92AD3AB207E1F719E3C2E8E6
:1039C000D9E300E006C022970109FE010BBF0F9466
:1039D000CD0ECA37D10780E00807A9F70F948E06ED
:1039E0000D9452130C940000CF93DF9300D01F92DC
:1039F000CDB7DEB744E050E0BC01CE0101960F9494
:103A00000E1369817A818B819C810F900F900F90AA
:103A10000F90DF91CF91089522E090E0281728F4CD
:103A2000963019F0220F9F5FF9CF209A289A219A99
:103A3000229A2398809164008B7F80936400892F61
:103A4000806A86958CBD90FD03C081E0963009F4B4
:103A500080E08DBD08958091F90283FB882780F96D
:103A60000895179A0895169A0895159A089588E466
:103A700093E0BACFCF92DF92EF92FF92CF93DF9392
:103A800000D01F921F92CDB7DEB76B017C0160930F
:103A9000B5187093B6188093B7189093B8180E9411
:103AA000139DC982DA82EB82FC8244E050E065E734
:103AB00073E0CE0101960F94301323E0B701A60105
:103AC00088E795E00E942C4F0E94CB52682F88E631
:103AD00090E06D830F941E136D81681721F088E6C6
:103AE00090E00F9439130F900F900F900F900F905C
:103AF000DF91CF91FF90EF90DF90CF900895CF931B
:103B0000DF931F92CDB7DEB7BC018DE793E00F9432
:103B10004C130E94CB52682F88E690E069830F9483
:103B20001E136981681739F088E690E00F90DF91E5
:103B3000CF910D9439130F90DF91CF910895CF93CA
:103B4000DF931F92CDB7DEB7BC018FE793E00F94F0
:103B50004C130E94CB52682F88E690E069830F9443
:103B60001E136981681739F088E690E00F90DF91A5
:103B7000CF910D9439130F90DF91CF910895CF938A
:103B8000DF931F92CDB7DEB7BC0181E893E00F94BD
:103B90004C130E94CB52682F88E690E069830F9403
:103BA0001E136981681739F088E690E00F90DF9165
:103BB000CF910D9439130F90DF91CF910895CF934A
:103BC000C82F8091CA048823D1F01092CA040E94A1
:103BD0006A699091DF0291509093DF02911109C0C0
:103BE0008091E002833010F40E94F76885E08093B2
:103BF000DF026C2F87EF9CE1CF910C944FFFCF91A8
:103C0000089580919206882349F00E94587380E0BD
:103C1000D6DF87EF9CE10E944EFFF3CF08954F92CD
:103C20005F926F927F928F929F92AF92BF92CF924C
:103C3000DF92EF92FF920F931F93CF93DF9300D009
:103C40001F92CDB7DEB78C0180912F19909130195A
:103C5000A0913119B091321989839A83AB83BC83C7
:103C6000C0903319D0903419E0903519F09036197E
:103C70008090371990903819A0903919B0903A195E
:103C80009C01AD01BC01CD010F94FF0D81110FC14D
:103C900049805A806B807C80E89477F82FEF3FEF63
:103CA0004FE75FE7C301B2010F94FF0D81110BC015
:103CB0002FEF3FEF4FE75FE7C301B2010F94AC0A6C
:103CC00018160CF4F4C0A7019601C701B6010F94B1
:103CD000FF0D8111ECC026013701E89477F82FEF32
:103CE0003FEF4FE75FE7C301B2010F94FF0D811172
:103CF0000BC02FEF3FEF4FE75FE7C301B2010F9417
:103D0000AC0A18160CF4D3C0A5019401C501B40186
:103D10000F94FF0D8111CBC024013501E89477F891
:103D20002FEF3FEF4FE75FE7C301B2010F94FF0DA5
:103D300081110BC02FEF3FEF4FE75FE7C301B201E7
:103D40000F94AC0A18160CF4B2C0209107193091E8
:103D500008194091091950910A1969817A818B815A
:103D60009C810F94480A2B013C0120910B19309142
:103D70000C1940910D1950910E19C701B6010F94FD
:103D8000480A6B017C0120910F1930911019409164
:103D9000111950911219C501B4010F94480A4B0131
:103DA0005C0180918F19882329F020E732E441E2F9
:103DB0005DE304C020E030E040E85FE3C301B2010E
:103DC0000F94540DAB01BC0122E086EF98E10E94F4
:103DD000694F80918F19882329F020E732E441E26E
:103DE0005DE304C020E030E040E85FE3C701B601D6
:103DF0000F94540DAB01BC0122E08EEE98E10E94BD
:103E0000694F80918F19882329F020E732E441E23D
:103E10005DE304C020E030E040E85FE3C501B401A9
:103E20000F94540DAB01BC0123E08AEE98E10E948F
:103E3000694F609147197091481980914919909183
:103E40004A190F947F0B20918B1930918C19409156
:103E50008D1950918E190F94540D20918F19222392
:103E600029F020E732E441E25DE304C020E030E0E5
:103E700040E85FE30F94540DAB01BC0124E086EEF3
:103E800098E10F900F900F900F90DF91CF911F91BD
:103E90000F91FF90EF90DF90CF90BF90AF909F90E9
:103EA0008F907F906F905F904F900C942C4FC80133
:103EB0000E94524D4ACFCF92DF92EF92FF92CF9362
:103EC000DF93EC01893191053CF0C53F81E0D807D3
:103ED0002CF0C4EFD1E002C0C9E1D0E0BE018827D8
:103EE00077FD8095982F0F947F0B6B017C0160917B
:103EF0003F1870914018882777FD8095982F0F9470
:103F00007F0B9B01AC01C701B6010F94B30A9B0163
:103F1000AC016091411870914218809143189091C2
:103F200044180F94540D6093411870934218809375
:103F3000431890934418D0934018C0933F18BE0183
:103F40008BEB98E1DF91CF91FF90EF90DF90CF90D6
:103F50000C94144ECF92DF92EF92FF926B017C0192
:103F600020E030E040E752E40F94AC0A87FD11C036
:103F700020E030E046E153E4C701B6010F94E00CC5
:103F800018166CF4C12CD12C86E1E82E83E4F82EAF
:103F900006C0C12CD12C90E7E92E92E4F92EC092F4
:103FA000B518D092B618E092B718F092B81822E07F
:103FB000B701A60182EA98E1FF90EF90DF90CF90E1
:103FC0000C942C4F8F929F92AF92BF92CF92DF9220
:103FD000EF92FF92CF93DF93EC018931910534F09A
:103FE000893C91052CF0C8ECD0E002C0C9E1D0E0DA
:103FF000D0933E18C0933D18E091B403F091B503FF
:10400000E258FF4FC080D180E280F38020E030E0B2
:10401000A901C701B6010F94AC0AAE01662757FD8E
:104020006095762F18165CF0CB01BA010F947F0BC8
:104030002AE037ED43E25CE30F94540D24C0CB013A
:10404000BA010F947F0B2AE037ED43E25CE30F9453
:10405000540D20E030E040E850E40F94540D4B0143
:104060005C01A7019601C701B6010F94540D2BED19
:104070003FE049E450E40F94540D9B01AC01C501AD
:10408000B4010F94B30A6093F4027093F502809325
:10409000F6029093F702BE018DEA98E1DF91CF918D
:1040A000FF90EF90DF90CF90BF90AF909F908F9058
:1040B0000C94144ECF93DF932091031997FD0DC0FC
:1040C000EC018F3F910519F014F0CFEFD0E020976D
:1040D00021F028602093031905C0277F209303193E
:1040E000C0E0D0E061118DDD8091EB1790E0C81742
:1040F000D90729F0BE0188E998E10E94144EC093C7
:10410000EB17DF91CF9108954F925F926F927F925C
:104110008F929F92AF92BF92CF92DF92EF92FF92D7
:10412000CF93DF9300D01F92CDB7DEB72FE632E1F9
:1041300043E85AE360912718709128188091291854
:1041400090912A180F94540D6B017C0181E890E046
:104150004BDC9B01AC01C701B6010F94480AAB01CF
:10416000BC0122E086E898E10E94694F84E798E16B
:104170000E94194DE0910A02F0910B0220E030E01C
:1041800040E751E463857485858596850F94E00C3E
:1041900018160CF46BC020E030E0A9018DE790E028
:1041A00029833A834B835C830F9426134B015C0174
:1041B00029813A814B815C81820E931EA41EB51E1B
:1041C000C501B40120E831E541E050E00F94800ED4
:1041D00060E87EEA8EEF9FEF0F941B0E6B017C016F
:1041E000C80CD91CEA1CFB1CBA01A90187E798E19D
:1041F0000E943A4EC701B60120E13EE040E050E0A7
:104200000F94800E49015A01BA01A9018DE698E187
:104210000E943A4EA0EFB1EFA50194010F94C90E90
:104220006C0D7D1D8E1D9F1D2CE330E040E050E0A5
:104230000F94800EBA01A90185E698E10E943A4EDA
:1042400080E698E10F900F900F900F90DF91CF9143
:10425000FF90EF90DF90CF90BF90AF909F908F90A6
:104260007F906F905F904F900C94314D0F941F048E
:10427000C0902B18D0902C18E0902D18F0902E188C
:104280006C197D098E099F0928EE33E040E050E06B
:104290000F945E0E83CF5F988EBD0DB407FEFDCFE9
:1042A0006EBD0DB407FEFDCF5F9A0895CF93DF93E7
:1042B00000D01F921F92CDB7DEB795E0E7E4F3E0A0
:1042C000DE01119601900D929A95E1F7E1E0F0E0A0
:1042D000EC0FFD1FE80FF11D808190E00F900F9013
:1042E0000F900F900F90DF91CF91D5CFFF920F934A
:1042F0001F93CF93DF9300D01F921F92CDB7DEB7ED
:1043000085E0ECE4F3E0DE01119601900D928A95D0
:10431000E1F780E081DB579A8E010F5F1F4FF12C90
:10432000F80161918F0170E08F2DC0DFF394F5E00B
:10433000FF12F6CF0F900F900F900F900F90DF911C
:10434000CF911F910F91FF90089567FD43C0823078
:10435000E9F028F4882341F0813061F03BC08330DC
:1043600009F1843059F136C0662311F0A19A67C073
:10437000A19865C080910801662311F0806801C092
:104380008F778093080147FF3AC05DC08091080194
:10439000662311F0806401C08F7B8093080147FF82
:1043A00034C053C080910801662311F0886001C0B9
:1043B000877F8093080147FF32C044C08091080185
:1043C000662311F0826001C08D7F8093080147FF52
:1043D0002EC03AC047FD39C08230B9F028F4882396
:1043E00041F0813061F008958330C9F08430F9F0F4
:1043F0000895442311F0A09A0895A09808954423A5
:1044000011F0A29A0895A29808958091080144237A
:1044100011F0806201C08F7D809308010895809122
:104420000801442311F08061F7CF8F7EF5CF809192
:104430000801442311F08460EFCF8B7FEDCF47FF5D
:10444000D8CF08950895089508950895643079F0B7
:1044500028F4613041F0623041F00895683051F045
:10446000603141F0089540E003C040E004C041E005
:1044700060E002C041E061E068CFCF93DF9381E468
:1044800098E10E94314D62B36695617070E086EFED
:1044900098E10E94084E62B3617070E08EE598E189
:1044A0000E94144EC6E0D1E08881992787FD90953F
:1044B000692F661F6627661F70E089E598E10E94F4
:1044C000084E62B362FB662760F970E08EE598E102
:1044D0000E94144E688166FB662760F970E086E5ED
:1044E00098E10E94084E688165FB662760F970E0DC
:1044F0008EE598E10E94144E688163FB662760F99F
:1045000070E082E598E10E94084E688162956170D2
:1045100070E08EE598E10E94144E688166956170A6
:1045200070E08EE498E10E94084E688162FB662785
:1045300060F970E08EE598E1DF91CF910C94144E14
:10454000FF920F931F93CF93DF9300D01F921F9280
:10455000CDB7DEB785E0E1E5F3E0DE01119601902D
:104560000D928A95E1F7989A9A9A80910701806254
:1045700080930701809107018061809307018091FA
:1045800007018460809307018E010F5F1F4FF12C9C
:10459000F80161918F018F2D59DFF394F5E0FF123F
:1045A000F7CF0F900F900F900F900F90DF91CF915A
:1045B0001F910F91FF9008950C9429770E94147712
:1045C00020910802309109028217930724F49093F6
:1045D000090280930802089560910802709109020F
:1045E00080910602909107026817790744F470934E
:1045F00007026093060289EF98E10C94144E089527
:10460000CF93C82F69E170E084EB9DE10F94B30173
:104610006C2F84EB9DE10F94540160E084EB9DE1ED
:104620000F94B401882329F083E99CE0CF910C9486
:10463000314DCF910895CF93DF93D82FC62F69E1E5
:1046400070E084EB9DE10F94B3016D2F84EB9DE14D
:104650000F9454016C2F84EB9DE10F94540184EB73
:104660009DE10F94C601882331F084E79CE0DF913F
:10467000CF910C94314DDF91CF9108951F93CF933B
:10468000DF93182FBDDF41E050E069E170E084EB7B
:104690009DE10F94A70184EB9DE10F94FD00892B10
:1046A000A1F084EB9DE10F940501EC01612F70E016
:1046B0008AE69CE00E94084EBE01772781E69CE0D6
:1046C000DF91CF911F910C94144E83E49CE0DF9115
:1046D000CF911F910C94314D8EE19CE00E94314DA1
:1046E00084EB9DE10F9492018FE0C8DF81E3C6DF88
:1046F00080E2C4DF6CE980E29EDF80E2BFDF82E21D
:10470000BDDF60E482E297DF82E2B8DF85E2B6DFF8
:1047100060E085E290DF85E2B1DF83E2AFDF60E356
:1047200083E289DF83E2AADF84E2A8DF6AE484E22D
:1047300082DF84E2A3DF80E3A1DF60E280E37BDF4E
:1047400080E39CDF81E39ADF82E398DF64E182E328
:1047500072DF82E393DF83E391DF60E083E36BDF6B
:1047600083E38CDF84E38ADF60E084E364DF84E357
:1047700085DF86E383DF62E386E35DDF86E37EDF5A
:1047800087E37CDF60E087E356DF87E377DF88E35A
:1047900075DF60E188E34FDF88E370DF89E36EDF78
:1047A0008AE36CDF62E38AE346DF8AE367CF81E373
:1047B00065DF85E363DF89E361DF8DE25FCF6DE075
:1047C00080EA95E00E94C8756AE080EA95E00C9462
:1047D000C875CF93C82FE091B403F091B50342A9F7
:1047E00053A964A975A922E083EE98E10E94694F5C
:1047F000E091B403F091B50346A957A960AD71AD3E
:1048000020E08AEC98E10E94694F0E94FB60AB01B6
:10481000BC0122E08FED98E10E94694F409119029E
:1048200050911A0260911B0270911C0220E08AECE8
:1048300098E10E94694FCC2391F061E070E081ED36
:1048400098E10E94084E6CEF7FE0809111029091F8
:104850001202681B790B8FEC98E10E94084EE091E0
:104860000E02F0E0E851F84E608170E086ED98E1CC
:104870000E94084EE091DE02EF3F29F4E091B4037C
:10488000F091B503E081F0E0E851F84E608170E00E
:104890008BED98E10E94084ECF9191CF2F923F92DD
:1048A0004F925F926F927F928F929F92AF92BF9240
:1048B000CF92DF92EF92FF920F931F93CF93DF93EC
:1048C000CDB7DEB729970FB6F894DEBF0FBECDBFC8
:1048D0005C01DC0116968D919C9117978C3891059F
:1048E00009F469C608F0DBC08235910509F40EC4ED
:1048F00008F07EC08A31910509F4C5C208F03FC0B6
:104900008531910509F43DC278F48231910509F4AD
:1049100017C28431910509F418C2419711F00C9423
:104920002C3517981698AFC58731910509F461C2E7
:1049300008F443C28831910509F489C2499711F0FE
:104940000C942C3560E084E999E129960FB6F8942F
:10495000DEBF0FBECDBFDF91CF911F910F91FF90B2
:10496000EF90DF90CF90BF90AF909F908F907F900F
:104970006F905F904F903F902F900C946CBB8E3156
:10498000910509F4DDC218F58C31910509F4B0C226
:1049900010F00C94653584E999E129960FB6F894E6
:1049A000DEBF0FBECDBFDF91CF911F910F91FF9062
:1049B000EF90DF90CF90BF90AF909F908F907F90BF
:1049C0006F905F904F903F902F900C94CDBF8A32A4
:1049D000910509F40FC328F4809709F4DEC20C9402
:1049E0002C358035910510F00C9465350C942C35E0
:1049F0008B36910511F40C945E2E38F58C359105AB
:104A000009F48FC460F48435910509F488C308F46F
:104A100081C38535910509F460C40C942C35883622
:104A2000910509F433C530F48336910509F4DDC4EA
:104A30000C942C358936910509F410C68A369105F7
:104A400011F40C944D2E0C942C358337910511F4F0
:104A50000C94AF2E80F48F36910511F40C947F2EB8
:104A60008237910511F40C94CD2E8D36910511F0FD
:104A70000C942C3515C68537910511F40C94D02E65
:104A800010F40C94D72D8737910511F40C94FB2E5C
:104A90008837910511F40C943E2F0C942C358530F9
:104AA000B1E09B0711F40C944C3208F0B0C08F3C7D
:104AB000910511F40C94E63008F041C08A3C910550
:104AC00011F40C94153070F4883C910511F40C9499
:104AD000642F10F00C94B72F8E3B910509F4B6C7E4
:104AE0000C942C358C3C910511F40C946C3010F422
:104AF0000C945A308D3C910511F40C94CC308E3CC2
:104B0000910511F00C942C35C50129960FB6F89437
:104B1000DEBF0FBECDBFDF91CF911F910F91FF90F0
:104B2000EF90DF90CF90BF90AF909F908F907F904D
:104B30006F905F904F903F902F900C946A598F3DEB
:104B4000910511F40C94A13188F48C3D910511F478
:104B50000C944E318D3D910511F40C947631813DCC
:104B6000910511F00C942C350C942E31893E910551
:104B700011F40C94B63140F5883E910511F00C9477
:104B80002C356091F0177091F1178AEF97E10E9430
:104B9000084E4091EC175091ED176091EE1770910F
:104BA000EF1722E081EF97E10E942C4F1092F1174E
:104BB0001092F0171092EC171092ED171092EE175A
:104BC0001092EF170C9465358B3F910511F40C94FE
:104BD000EF318430914011F00C942C3529960FB6AA
:104BE000F894DEBF0FBECDBFDF91CF911F910F9123
:104BF000FF90EF90DF90CF90BF90AF909F908F90FD
:104C00007F906F905F904F903F902F9065CD8E3545
:104C100021E0920711F40C94A433C0F58E3241E0E8
:104C2000940711F40C94EF3298F48931A1E09A07BB
:104C300011F40C94A4328C32B1E09B0711F40C9463
:104C4000B4328630914011F00C942C350C946E32B5
:104C50008034F1E09F0711F40C94623338F48F3202
:104C6000914011F40C942E330C942C35813441E096
:104C7000940711F40C9466338234914011F00C9433
:104C80002C3580E00E949BB00C947B338239A1E0EC
:104C90009A0711F40C948F3498F58836E1E09E075A
:104CA00011F40C945B3438F48336914011F40C9475
:104CB00015340C942C35803931E0930711F40C94A1
:104CC00075348139914011F00C942C3529960FB62A
:104CD000F894DEBF0FBECDBFDF91CF911F910F9132
:104CE000FF90EF90DF90CF90BF90AF909F908F900C
:104CF0007F906F905F904F903F902F900C94BEAE3E
:104D0000853F51E0950711F40C94BF3460F4843F63
:104D1000914011F00C942C3580E00E94E25283E621
:104D200093E10C94CA34863FE1E09E0711F40C94A1
:104D3000E4348C38934011F40C94FE340C942C35EC
:104D40000E94311D0E94331D77C284E999E12996A2
:104D50000FB6F894DEBF0FBECDBFDF91CF911F918C
:104D60000F91FF90EF90DF90CF90BF90AF909F900A
:104D70008F907F906F905F904F903F902F900C940A
:104D800011BF84E999E129960FB6F894DEBF0FBEF2
:104D9000CDBFDF91CF911F910F91FF90EF90DF90EA
:104DA000CF90BF90AF909F908F907F906F905F90CB
:104DB0004F903F902F900C94EFBA84E999E1299697
:104DC0000FB6F894DEBF0FBECDBFDF91CF911F911C
:104DD0000F91FF90EF90DF90CF90BF90AF909F909A
:104DE0008F907F906F905F904F903F902F900C949A
:104DF000F4BAD5018D919C9197FD02C00C94653554
:104E000060E084E999E10E94E6C9F501EE5AFF4F9E
:104E10006081718140E084E999E129960FB6F894A8
:104E2000DEBF0FBECDBFDF91CF911F910F91FF90DD
:104E3000EF90DF90CF90BF90AF909F908F907F903A
:104E40006F905F904F903F902F900C9444BF84E9F7
:104E500099E129960FB6F894DEBF0FBECDBFDF9162
:104E6000CF911F910F91FF90EF90DF90CF90BF9067
:104E7000AF909F908F907F906F905F904F903F90FA
:104E80002F900C945BBBF5018081918192FD02C053
:104E90000C946535468D578D60A171A18091FE19E6
:104EA000882311F40C9465354093F5195093F61945
:104EB0006093F7197093F81984ED99E129960FB66C
:104EC000F894DEBF0FBECDBFDF91CF911F910F9140
:104ED000FF90EF90DF90CF90BF90AF909F908F901A
:104EE0007F906F905F904F903F902F900C942CC8C4
:104EF000D5018D919C9197FD02C00C946535F5010B
:104F0000EE5AFF4F6081718184E999E129960FB6CD
:104F1000F894DEBF0FBECDBFDF91CF911F910F91EF
:104F2000FF90EF90DF90CF90BF90AF909F908F90C9
:104F30007F906F905F904F903F902F900C94F1BFB7
:104F4000F5018081918197FD02C00C94653560E088
:104F500084E999E10E94E6C9F501EE5AFF4F6081AC
:104F6000718184E999E129960FB6F894DEBF0FBEEE
:104F7000CDBFDF91CF911F910F91FF90EF90DF9008
:104F8000CF90BF90AF909F908F907F906F905F90E9
:104F90004F903F902F900C9452C0D5018D919C91D1
:104FA00097FD02C00C94653560E084E999E10E94A8
:104FB000E6C9F501EE5AFF4F6081718184E999E1FC
:104FC00029960FB6F894DEBF0FBECDBFDF91CF910B
:104FD0001F910F91FF90EF90DF90CF90BF90AF9017
:104FE0009F908F907F906F905F904F903F902F9009
:104FF0000C9480C0F5012081318133FD02C00C94F6
:10500000653512A1E12EF3A0E1EBFCE0449150E004
:105010004E155F0509F45EC032964DE0E532F407A7
:10502000A9F7F7FC57C032FF2CC0D5015E964D9111
:105030005D916D917C9191974F3F5105610571058F
:1050400009F0E0F461E0812F0F94F705F501668D1A
:10505000812F0F943006D5015E966D917C915F97FC
:10506000812F0F94DF04B70184E398E10E94084E7A
:10507000F501668D778D8FE298E112C08FE095E0A3
:105080002BC062E0812F0F94F705B7018FE298E102
:105090000E94084E812F0F946506BC018AE298E1B8
:1050A00029960FB6F894DEBF0FBECDBFDF91CF912A
:1050B0001F910F91FF90EF90DF90CF90BF90AF9036
:1050C0009F908F907F906F905F904F903F902F9028
:1050D0000C94144E89ED94E029960FB6F894DEBF37
:1050E0000FBECDBFDF91CF911F910F91FF90EF9039
:1050F000DF90CF90BF90AF909F908F907F906F90F8
:105100005F904F903F902F900C94524D10924B19FE
:105110000C94653581E080934B190C946535D5016D
:105120008D919C91119792FF14C05E962D913D91A7
:105130004D915C919197A8EEB3E00F94BD0E6093F2
:10514000E8027093E9028093EA029093EB020C94D8
:10515000653593FFA5C0F50182A193A1A4A1B5A1D6
:1051600082309105A105B10509F466C02CF50097C0
:10517000A105B10509F446C00197A105B10511F0DB
:105180000C94653529960FB6F894DEBF0FBECDBFDF
:10519000DF91CF911F910F91FF90EF90DF90CF9013
:1051A000BF90AF909F908F907F906F905F904F9047
:1051B0003F902F900C94331D83309105A105B105CC
:1051C00009F454C00497A105B10511F00C9465359C
:1051D00029960FB6F894DEBF0FBECDBFDF91CF91F9
:1051E0001F910F91FF90EF90DF90CF90BF90AF9005
:1051F0009F908F907F906F905F904F903F902F90F7
:105200000C94126129960FB6F894DEBF0FBECDBF85
:10521000DF91CF911F910F91FF90EF90DF90CF9092
:10522000BF90AF909F908F907F906F905F904F90C6
:105230003F902F900C94311D29960FB6F894DEBF45
:105240000FBECDBFDF91CF911F910F91FF90EF90D7
:10525000DF90CF90BF90AF909F908F907F906F9096
:105260005F904F903F902F900C94351D29960FB66C
:10527000F894DEBF0FBECDBFDF91CF911F910F918C
:10528000FF90EF90DF90CF90BF90AF909F908F9066
:105290007F906F905F904F903F902F900C9404619F
:1052A0000E94011E81E029960FB6F894DEBF0FBE62
:1052B000CDBFDF91CF911F910F91FF90EF90DF90C5
:1052C000CF90BF90AF909F908F907F906F905F90A6
:1052D0004F903F902F900C94A79CD5018D919C915D
:1052E000119792FF14C05E962D913D914D915C9166
:1052F0009197A8EEB3E00F94BD0E6093EC0270930B
:10530000ED028093EE029093EF020C9465351092BB
:10531000EC021092ED021092EE021092EF020C9449
:105320006535F501808183FF0CC082859385A48556
:10533000B5858093360390933703A0933803B093D9
:105340003903D5018C9184FF0EC01E968D919D91DD
:105350000D90BC91A02D80933A0390933B03A093B2
:105360003C03B0933D03F501808185FF0CC0828929
:105370009389A489B58980933E0390933F03A093BA
:105380004003B09341030E94139DD5018C9186FD8B
:1053900002C00C9465352091B4033091B503569644
:1053A0008D919D910D90BC91A02DF90181879287DF
:1053B000A387B487808129960FB6F894DEBF0FBE0D
:1053C000CDBFDF91CF911F910F91FF90EF90DF90B4
:1053D000CF90BF90AF909F908F907F906F905F9095
:1053E0004F903F902F900C94415FD501ED91FC912F
:1053F0001197F2FF0DC05E962D913D914D915C91FC
:105400009197A8EEB3E00F94BD0E6B017C0106C02E
:1054100040E1C42E47E2D42EE12CF12CE3FD0E94A2
:10542000311DF501808184FD0E94331DD5018C91D1
:1054300085FD0E94351D0F941F042B013C014C0C6F
:105440005D1C6E1C7F1C0F941F04A3019201261B80
:10545000370B480B590BDA01C901803A9648A14035
:10546000B10518F40E9409A2EECFD5018C9183FDFD
:105470001798F501808184FD1698D5018C9185FDE2
:1054800002C00C94653515980C9465350E94286906
:1054900081110C9465350F941F046093F21770937B
:1054A000F3178093F4179093F5170E942B1D811129
:1054B0000C946535F5018081918193FF02C00C94B5
:1054C0004F3592FF0AC0868D978DA0A1B1A1892B7F
:1054D0008A2B8B2B11F40C944F35D5018D919C9117
:1054E000119792FD02C00C9465359C012227317002
:1054F00091FF23C0232B89F011E020E030E0A901C7
:105500005A966D917D918D919C915D970F94E00CD1
:1055100018160CF010E0212F01C020E085010C5A74
:105520001F4FF501668D778D80A191A129870F947A
:105530007F0B2985D8014C9124C0232B81F011E0E9
:1055400020E030E0A901F501628D738D848D958D89
:105550000F94E00C18160CF010E0212F01C020E091
:105560000091B4031091B503D5015E966D917D91C4
:105570008D919C91919729870F947F0B2985F80134
:10558000408129960FB6F894DEBF0FBECDBFDF91E4
:10559000CF911F910F91FF90EF90DF90CF90BF9030
:1055A000AF909F908F907F906F905F904F903F90C3
:1055B0002F900C9478640E94286981110C946535B1
:1055C0000F941F046093F2177093F3178093F417EE
:1055D0009093F5170E942B1D81110C946535D50110
:1055E0008D919C91119792FD02C00C94653590FFAE
:1055F00011C011E020E030E0A9015A966D917D9133
:105600008D919C915D970F94E00C18160CF010E0B2
:10561000412F01C040E0F501668D778D80A191A1F9
:1056200049870F947F0B498529960FB6F894DEBF02
:105630000FBECDBFDF91CF911F910F91FF90EF90E3
:10564000DF90CF90BF90AF909F908F907F906F90A2
:105650005F904F903F902F900C944165D5018D91B4
:105660009C9133E0969587953A95E1F7817029965C
:105670000FB6F894DEBF0FBECDBFDF91CF911F9163
:105680000F91FF90EF90DF90CF90BF90AF909F90E1
:105690008F907F906F905F904F903F902F9099C820
:1056A0000E94286981110C9465350F941F04609342
:1056B000F2177093F3178093F4179093F5170E94E5
:1056C0002B1D81110C94653540E068EC74E087EF88
:1056D0009CE10E947CE087EF9CE10E94D0E30E9465
:1056E000011E2090B4033090B503F50180819181B3
:1056F00091FF09C0EC5AFF4F2081211104C02BE516
:10570000222E22E0322E92FF1EC090FF0FC011E029
:1057100020E030E0A901D5015A966D917D918D91DF
:105720009C915D970F94E00C18160CF010E0F501B9
:10573000668D778D80A191A10F947F0B212FD101D0
:105740004C910E947864F10126A937A940AD51AD72
:1057500062A973A984A995A90F94470A2B013C015A
:1057600020E030E0A9010F94E00C181664F420E06A
:1057700030E040EA50E4C301B2010F94AC0A87FF65
:105780000EC00C94653520E030E040EA50ECC301D7
:10579000B2010F94E00C181614F40C94653599249A
:1057A0009394D101D0962D913C91D1979E968D9155
:1057B0009C919F97821793070CF0912C0F941F04D4
:1057C0006D837E838F83988710E0412C512C3201AA
:1057D0000F941F0469837A838B839C836093F217F1
:1057E0007093F3178093F4179093F517DC01CB01B6
:1057F0002D813E814F815885821B930BA40BB50BE5
:10580000893E9340A105B10558F080E00E94E9234C
:1058100089819A81AB81BC818D839E83AF83B88758
:1058200081E00E94DF1D8091B4039091B50328169A
:10583000390609F064C0D1019396ED90FC909497DD
:105840001E141F040CF05BC0111158C0992009F4FC
:1058500077C091966D917C919297882777FD80957E
:10586000982F0F947F0B9B01AC01F10162A973A9E2
:1058700084A995A90F94E00C181614F00C945C35CB
:10588000662777276E197F09882777FD8095982FDF
:105890000F947F0B209142033091430340914403C6
:1058A000509145030F94540D0F944C0B1F921F926F
:1058B000D10152962C9152972F9351962C9151973A
:1058C0002F9350962C9150972F931F962C912F9396
:1058D0005B016C01E12CF12C870120E030E0A90193
:1058E00060E070E0CB010E949C940F900F900F90AD
:1058F0000F900F900F9011E00C945C3511E0411463
:1059000051046104710409F050C09920F1F020E0C5
:1059100030E040E85FE3F10166A977A980AD91AD81
:105920000F94470A9B01AC01D101D2966D917D91F4
:105930008D919C91D5970F94E00C87FF1FC045CFA8
:10594000411451046104710481F520E030E040E825
:105950005FE3F10166A977A980AD91AD0F94480A84
:105960009B01AC01D101D2966D917D918D919C915D
:10597000D5970F94AC0A18160CF427CFF101A78D18
:10598000B0A128EE33E00F94B70E2B013C01298122
:105990003A814B815C81420E531E641E751E411478
:1059A00051046104710409F413CFD301C2012981A8
:1059B0003A814B815C81821B930BA40BB50B811543
:1059C0009449A543B74708F403CF112309F4E2C073
:1059D0008091B4039091B5032816390609F0DAC016
:1059E000D10193966D917C919497882777FD80954E
:1059F000982F0F947F0B20914203309143034091E5
:105A00004403509145030F94540D0F944C0B1F9277
:105A10001F92F10122892F9321892F9320892F939F
:105A200027852F935B016C01E12CF12C870120E08D
:105A300030E0A90160E070E0CB010E949C940F90DF
:105A40000F900F900F900F900F90A4C00E942B1DED
:105A500081110C94653540E06CEB74E087EF9CE1BC
:105A60000E947CE087EF9CE10E94D0E30E94011E2F
:105A7000D5018D919C91119792FF1FC090FF11C08D
:105A800011E020E030E0A9015A966D917D918D9151
:105A90009C915D970F94E00C18160CF010E0412FCC
:105AA00001C040E0F501668D778D80A191A1498705
:105AB0000F947F0B49850E94416520911902309116
:105AC0001A0240911B0250911C02609115027091C4
:105AD000160280911702909118020F94470A2B0129
